00002BST000T             Bestand 000 Bestanden                             000000190160011019980000000001062025P000000000000000000000079000000000000007900000000
00002BST001T             Bestand 001 Rubrieken                             000000350128011019980000000001062025P000009900000000000000000000000000000099000000000
00002BST004T             Bestand 004 Artikelen                             000000510320011019980000000001062025P001114230000044600002216000006120011469700000000
00002BST007T             Bestand 007 Logistieke verpakkingsinformatie      000081250352200220170000000001062025P000953680000032100000691000004840009686400000000
00002BST014T             Bestand 014 RZV Aanspraak                         000081680064010420200000000001062025P001136080000044600000031000006120011469700000000
00002BST020T             Bestand 020 Namen                                 000000940160011019980000000001062025P001152160000042900000023000004610011612900000000
00002BST031T             Bestand 031 Handelsproducten                      000075870480010220070000000001062025P000958410000035300000029000003890009661200000000
00002BST052T             Bestand 052 Voorschrijfproducten                  000081760128011020200000000001062025P000092660000004000000028000000310000936500000000
00002BST060T             Bestand 060 Meervoudige produkten                 000001240032011019980000000001062025P000002700000000000000000000000000000027000000000
00002BST070T             Bestand 070 Onderling verband HPK-PRK-GPK         000079860064041120110000000001062025P000162340000011800000000000001000001645200000000
00002BST131T             Bestand 131 Supplementaire producten met NZa maxtr000080950064011020160000000001062025P000027440000000300000000000000140000276100000000
00002BST132T             Bestand 132 Indicatie bij supplementaire product  000081090064011020160000000001062025P000462120000009500000005000005080004682000000000
00002BST133T             Bestand 133 Verkorte Add-On indicatieteksten      000081410160201120170000000001062025P000020390000000500000003000000250000207200000000
00002BST161T             Bestand 161 Preferentie beleid per 1-1-2016       000080790064010220160000000001062025P001602200000197500000069000018350016409900000000
00002BST180T             Bestand 180 Prijs / tarief tabel                  000080280128011120110000000001062025P003502880000252900046756000024730040204600000000
00002BST200T             Bestand 200 Relatie tussen ZI-nummer / HIBC       000001320064011019980000000001062025P000048140000000600000000000000250000484500000000
00002BST210T             Bestand 210 Verpakkingsthesaurus                  000001400064011019980000000001062025P000012860000000200000000000000060000129400000000
00002BST301T             Bestand 301 NAW gegevens G-Standaard              000077730320050220110000000001062025P000028620000000000000009000000070000287800000000
00002BST351T             Bestand 351 Gekoppelde teksten uit WCIA tabel 25  000073900032010620020000000001062025P000242370000021500000000000001850002463700000000
00002BST360T             Bestand 360 t-tabel (tijdseenheid)                000072260096010520010000000001062025P000000660000000000000000000000000000006600000000
00002BST361T             Bestand 361 a-tabel (eenheid gebruiksadvies)      000072340128010520010000000001062025P000001300000000000000000000000000000013000000000
00002BST362T             Bestand 362 b-tabel (etiket teksten)              000072420128010520010000000001062025P000006340000000000000000000000010000063500000000
00002BST370T             Bestand 370 Tekstcategorie tabel (tekstcategorie) 000072500064010520010000000001062025P000000320000000000000000000000000000003200000000
00002BST371T             Bestand 371 b-per-categorie tabel                 000072690032010520010000000001062025P000003900000000000000000000000010000039100000000
00002BST372T             Bestand 372 Versienummer tabel WCIA               000072770128010520010000000001062025P000000120000000000000000000000000000001200000000
00002BST380T             Bestand 380 ICPC - 1                              000073310096130320020000000001062025P000013260000000000000000000000010000132700000000
00002BST401T             Bestand 401 Bijzondere kenmerken (ook op PRK)     000076090032011120070000000001062025P000075660000002700000000000000520000764500000000
00002BST410T             Bestand 410 Codestelsel ZRS (definities)          000075010192010120040000000001062025P000009070000000000000000000000000000090700000000
00002BST411T             Bestand 411 Koppeling ZRS met externe codes       000075280064010120040000000001062025P000001550000000000000000000000000000015500000000
00002BST413T             Bestand 413 Codestelsel ZRS onderling verband     000075360096010120040000000001062025P000196360000000000000000000000000001963600000000
00002BST415T             Bestand 415 Medicatie Bewaking koppelen met ZRS   000076760096010320090000000001062025P000118660000000000000000000001770001204300000000
00002BST431T             Bestand 431 Ondersteunende Informatie MP          000082140416010420230000000001062025P000002350000000000000000000000000000023500000000
00002BST581T             Bestand 581 MFB: Trigger geneesmiddel (met rel.nr)000082060064011220210000000001062025P000156280000000500000000000001470001578000000000
00002BST601T             Bestand 601 Aanv.voorwaarden Med.Bew. en tekstblok000076840096010320090000000001062025P002716260000000900000000000025880027422300000000
00002BST632T             Bestand 632 Ongewenste groepen (ook op PRK-Niveau)000076170032011120070000000001062025P000096440000004300000000000000610000974800000000
00002BST640T             Bestand 640 Doseringen Basis-Algemeen             000072850064130320020000000001062025P000062110000002400000000000000150000625000000000
00002BST641T             Bestand 641 Doseringen Basis-Artikelkeuze         000072930064130320020000000001062025P000062740000002400000000000000150000631300000000
00002BST642T             Bestand 642 Doseringen Uitzonderingen op Basis    000073070096130320020000000001062025P000382470000014200000000000002060003859500000000
00002BST643T             Bestand 643 Categorieen                           000073150096130320020000000001062025P001888310000053300000000000011620019052600000000
00002BST649T             Bestand 649 Dosisgegevens - Nieuw per 01/11/2016  000081170160011020160000000001062025P001887290000053300000102000011620019052600000000
00002BST658T             Bestand 658 Afgeleide indicatie-aard              000076250064011120070000000001062025P000002670000000000000000000000020000026900000000
00002BST671T             Bestand 671 Dubbelmedicatie (obv PRK)             000075440032011120040000000001062025P003075750000174500000000000010340031035400000000
00002BST672T             Bestand 672 Dubbelmedicatie teksten (obv PRK)     000075520032011120040000000001062025P018454500001047000000000000062040186212400000000
00002BST682T             Bestand 682 MFB: Vervanging medicatiebewaking     000078380064011220120000000001062025P000000910000000000000000000000000000009100000000
00002BST684T             Bestand 684 MFB: Koppeling externe coderingen     000080600064011220120000000001062025P000007610000000000000000000000010000076200000000
00002BST685T             Bestand 685 MFB: Parameters                       000079270160011220120000000001062025P000003330000000000000000000000000000033300000000
00002BST686T             Bestand 686 MFB: Attributen                       000079350160011220120000000001062025P000000570000000000000000000000000000005700000000
00002BST689T             Bestand 689 MFB: Functie                          000079780128011220120000000001062025P000000280000000000000000000000000000002800000000
00002BST690T             Bestand 690 MFB: Protocol                         000078460160011220120000000001062025P000108140000000000000085000000770001097600000000
00002BST691T             Bestand 691 MFB: Protocol flow                    000078540096011220120000000001062025P000265390000000000000000000006350002717400000000
00002BST692T             Bestand 692 MFB: Vragen                           000078620320011220120000000001062025P000036430000000000000003000000190000366500000000
00002BST693T             Bestand 693 MFB: Actie                            000078700128011220120000000001062025P000104740000000000000005000000810001056000000000
00002BST694T             Bestand 694 MFB: Actie - Parameter                000078890032011220120000000001062025P000001250000000000000000000000000000012500000000
00002BST695T             Bestand 695 MFB: Vraag - Functie - Parameter      000078970064011220120000000001062025P000006640000000000000000000000120000067600000000
00002BST696T             Bestand 696 MFB: Vraag - Functie - Waardelijst    000079000064011220120000000001062025P000053120000000000000001000000280000534100000000
00002BST697T             Bestand 697 MFB: Vraag - Functie - Attribuut      000079190064011220120000000001062025P000036300000000000000000000000190000364900000000
00002BST698T             Bestand 698 MFB: Protocol - Label                 000080870064171220150000000001062025P000128440000000000000000000000790001292300000000
00002BST699T             Bestand 699 MFB: Waardelijsten meerdere niveaus   000081330128250920170000000001062025P006156390000297300000147000067610062552000000000
00002BST701T             Bestand 701 Ingegeven samenstellingen             000002720064011019980000000001062025P001054940000080600000016000006960010701200000000
00002BST705T             Bestand 705 Relaties tussen HPK - nivo            000002800032011019980000000001062025P000162310000012100000000000001030001645500000000
00002BST711T             Bestand 711 Generieke producten                   000073820160010620020000000001062025P000075020000002900000000000000260000755700000000
00002BST713T             Bestand 713 GPK-PRK-HPK wijzigingen               000077300064011220090000000001062025P000018180000000000000000000000000000181800000000
00002BST715T             Bestand 715 Generieke samenstellingen             000003020064011019980000000001062025P000520850000032900000000000003420005275600000000
00002BST720T             Bestand 720 Superprodukten                        000003100032011019980000000001062025P000050390000000900000000000000080000505600000000
00002BST725T             Bestand 725 Stamnaam + stamtoedieningsweg         000003290032011019980000000001062025P000030190000000000000000000000080000302700000000
00002BST730T             Bestand 730 Eenheden                              000080010064041120110000000001062025P000681000000032600000000000003360006876200000000
00002BST731T             Bestand 731 Samenstelling                         000079940096041120110000000001062025P000451660000021200000005000001720004555500000000
00002BST732T             Bestand 732 Hoeveelheden en eenheden              000082220160010220250000000001062025T003851400000235500000020000026210039013600000000
00002BST750T             Bestand 750 Generieke namen                       000003370192011019980000000001062025P000082470000000000000002000000110000826000000000
00002BST760T             Bestand 760 Enkelvoudige toedieningswegen HPK     000077220064060520100000000001062025P000178860000012600000000000001020001811400000000
00002BST780T             Bestand 780 Niet Eerste Uitgifte Cluster          000077490032100420100000000001062025P000075020000002900000000000000260000755700000000
00002BST801T             Bestand 801 ATC codes                             000080520192010520120000000001062025P000069000000000000000000000000000000690000000000
00002BST802T             Bestand 802 Defined Daily Dose (DDD)              000080440064010520120000000001062025P000027050000000000000000000000000000270500000000
00002BST902T             Bestand 902 Thesauri totaal                       000074550128010520030000000001062025P000031460000000000000001000000030000315000000000
00002BST911T             Bestand 911 Header relatie bestand                000077570160151120100000000001062025P000000040000000000000000000000000000000400000000
00002BST912T             Bestand 912 Relatie bestand                       000077650096151120100000000001062025P000002910000000000000000000000020000029300000000
00002BST922T             Bestand 922 Tekstblokken HTML (vervangt 920)      000077060192010320090000000001062025P002942880000014900000811000021720029742000000000
00002BST936T             Bestand 936 Relatie ongewenste groepen-SNK        000004260032011019980000000001062025P000007190000000000000000000000010000072000000000
00002BST950T             Bestand 950 Codering Gedifferentieerde tarieven   000075950160010620070000000001062025P000001560000000000000000000000000000015600000000
