0301008080005110001015ABB01ABBOTT BV                                         Wegalaan 9                    2132 JD   Hoofddorp                     NEDERLAND                     727       2130 AS   030-6008787    030-6008786    ABBOTT         NLE064999999999101500000000000000000000000000000000000000000000000000000000000
0301008080005110001031ACF01ACF CHEMIEFARMA NV                                Straatweg 2                   3604 BB   Maarssen                      NEDERLAND                                                                       ACF            NL    999999990103100000000000000000000000000000000000000000000000000000000000
0301008080005110001074AIL01AGILA                                             Julianalaan 75                2051 JM   Overveen                      NEDERLAND                                                                       AGILA          NL    000000000000000000000000000000000000000000000000000000000000000000000000
0301008080005110001082ALB02SANOFI-SYN                                        Govert van Wijnkade 48        3144 EG   Maassluis                     NEDERLAND                                         010-5931262    010-5931200    SANOFI-SYNTHEL NL    000000000000000000000000000000000000000000000000000000000000000000000000
0301008080005110001104ALC07ALCON NEDERLAND BV                                Papendorpseweg 75             3528 BJ   Utrecht                       NEDERLAND                                         0183-654321    076-5316777    ALCON NEDERLANDNL    999999999110400000000000000000000000000000000000000000000000000000000000
0301008080005110001155ALL05ALLERGAN IRELAND LTD                              WEST-PORT CO. Castlebar Road            MAYO                          IERLAND                                                                         ALLERG/IR      IE    000000000000000000000000000000000000000000000000000000000000000000000000
0301008080005110001163ALM01ALMEDI                                            Galvanibaan 3                 3439 MG   Nieuwegein                    NEDERLAND                     1545      3430 BM   030-6035166    030-6036108    ALMEDI         NL    999999990116300000000000000000000000000000000000000000000000000000000000
0301008080005110001198AME01AMES CO LTD                                       STOKE COURT, SLOUGH POGES               SL2 4LY SLOUGH                VERENIGD KONINKRIJK                                                             AMES/GB        GB    999999990119800000000000000000000000000000000000000000000000000000000000
0301008080005110001236AMS02AMSTELSTAD                                        Dennenlaan 34                 1161 CR   Zwanenburg                    NEDERLAND                                                                       AMSTELSTAD     NL    999999990123600000000000000000000000000000000000000000000000000000000000
0301008080005110001252ANC01ANCILLA BV                                        Kostverlorenhof 2             1183 HE   Amstelveen                    NEDERLAND                                                                       ANCILLA        NL    999999990125200000000000000000000000000000000000000000000000000000000000
0301008080005110001279ANE01BROCATRADE AFDELING ANEBA                         Toustruwe 5                   6218 XX   Maastricht                    NEDERLAND                     9         6200 AA   043-3471500                   ANEBA BV       NL    999999990127900000000000000000000000000000000000000000000000000000000000
0301008080005110001287ANP01ANPHAR-ROLLAND LABORATOIRES                       BOULEVARD DE FRANCE                     91000 EVRY VILLE NOUVELLE     FRANKRIJK                                         6-4972030      692715         ANPHAR         FR    000000000000000000000000000000000000000000000000000000000000000000000000
0301008080005110001309LNA02LNA apotheek bereiding p/o KNMP                   Alexanderstraat 11            2514 JL   Den Haag                      NEDERLAND                                         070-3737370    070-3106530    LNA            NL    999999999130900000000000000000000000000000000000000000000000000000000000
0301008080005110001317APO02APOMEDICA                                         ROSEGGERKAI 3                           8011 GRAZ                     OOSTENRIJK                                        0316-73237                    APOMEDICA      AT    999999990131700000000000000000000000000000000000000000000000000000000000
0301008080005110001341ARM01ARMOUR PHARMACEUTICAL CO LTD                      HAMPDEN PARK                            BN22 9AG EASTBOURNE, SUSSEX   VERENIGD KONINKRIJK                               0323-21422                    ARMOUR/GB      GB    000000000000000000000000000000000000000000000000000000000000000000000000
0301008080005110001384ARO01ARON S.N.E. DES LAB                               7 BOULEVARD ROMAIN ROLLAND              92128 MONTROUGE               FRANKRIJK                                         1-6571331      340495         ARON           FR    000000000000000000000000000000000000000000000000000000000000000000000000
0301008080005110001414AST02ASTRAZENECA BV                                    Prinses Beatrixlaan 582       2595 BM   Den Haag                      NEDERLAND                     93015     2509 AA   079-3632222    079-3632444    ASTRAZENECA BV NL    871242300560000000000000000000000000000000000000000000000000000000000000
0301008080005110001449BAI01BAILLY                                            6 RUE DU ROCHER                         75008 PARIS                   FRANKRIJK                                         1-5227786      660538         BAILLY         FR    000000000000000000000000000000000000000000000000000000000000000000000000
0301008080005110001473BAR01BARNANGEN                                         Henkel Norden AB, Box 151 22  167 15    Stockholm                     ZWEDEN                                                                          BARNANGEN      SE    999999990147300000000000000000000000000000000000000000000000000000000000
0301008080005110001481BAR02BARBEROT BV                                       Stephensonstraat 1            2723 RM   Zoetermeer                    NEDERLAND                                                                       BARBEROT       NL    000000000000000000000000000000000000000000000000000000000000000000000000
0301008080005110001554BAY01BAYER BV                                          Siriusdreef 36                2132 WT   Hoofddorp                     NEDERLAND                                         023-7991000    0297-280606    BAYER          NL    871309102148000000000000000000000000000000000000000000000000000000000000
0301008080005110001570BEC01BECTON-DICKINSON BV                               Marconilaan 6                 9207 JC   Drachten                      NEDERLAND                                         +3253720211    32-53720200    BECTON         NL    999999999157000000000000000000000000000000000000000000000000000000000000
0301008080005110001600BEI01BEIERSDORF NV                                     De Entree 99-197              1101 HE   Amsterdam                     NEDERLAND                                         088-5440000                   BEIERSDORF     NL    999999999160000000000000000000000000000000000000000000000000000000000000
0301008080005110001651BEN04AHLGRENS                                          Larikslaan 3                  3833 AM   Leusden                       NEDERLAND                     75        3830 AB                                 AHLGRENS       NL    999999990165100000000000000000000000000000000000000000000000000000000000
0301008080005110001708BEN08BENZON                                            HALMTORVET 29                           1700 KOBENHAVN                DENEMARKEN                                                                      BENZON/DK      DK    000000000000000000000000000000000000000000000000000000000000000000000000
0301008080005110001759BEY01BEYST                                             Haverstraat 57                2153 GD   Nieuw Vennep                  NEDERLAND                                                                       BEYST          NL    999999990175900000000000000000000000000000000000000000000000000000000000
0301008080005110001767BIH01A. Vogel B.V.                                     J.P. Broekhovenstraat 16      8081 HC   Elburg                        NEDERLAND                     33        8080 AA   0525-687200    0525-683932    VOGEL          NL    871159600000900000000000000000000000000000000000000000000000000000000000
0301008080005110001805BIO05BIO-STRATH                                        *                                       ZURICH                        ZWITSERLAND                                                                     BIOSTRAT1      CH    000000000000000000000000000000000000000000000000000000000000000000000000
0301008080005110001813BIO06BIONAL                                            Postbus 6014                  3002 AA   Rotterdam                     NEDERLAND                     6014      3002 AA                                 BIONAL         NL    999999999181300000000000000000000000000000000000000000000000000000000000
0301008080005110001848BIP01BIPHARMA BV                                       Kwikzilverstraat 21           1362 JE   Almere                        NEDERLAND                                         036-5278000    036-5278001    BIPHARMA       NL    871282500001200000000000000000000000000000000000000000000000000000000000
0301008080005110001864BLE02BLENDAX                                           Overschieseweg 147            3125 AR   Schiedam                      NEDERLAND                                                                       BLENDAX        NL    999999990186400000000000000000000000000000000000000000000000000000000000
0301008080005110001872BRO04BROCACEF BV (SUPPLIES)                            Straatweg 2                   3604 BB   Maarssen                      NEDERLAND                     75        3600 AB   030-6862211    030-6870865    BROCACEFSUPPL  NL    999999999187200000000000000000000000000000000000000000000000000000000000
0301008080005110001880PRO45Prothya Biosolutions Netherlands B.V.             Plesmanlaan 125               1066 CX   Amsterdam                     NEDERLAND                     90126     1006 BC   020-5123000    020-5123535    PROTHYA        NLE044999999999188000000000000000000000000000000000000000000000000000000000000
0301008080005110001902BOE01BOEHRINGER INGELHEIM BV                           Basisweg 10                   1043 AP   Amsterdam                     NEDERLAND                                         072-5662424    072-5623649    BOEHRINGER     NL    871164200002100000000000000000000000000000000000000000000000000000000000
0301008080005110001910ROC14ROCHE DIABETES CARE NEDERLAND B.V.                Transistorstraat 41           1322 CK   Almere                        NEDERLAND                     1450      1300 BL   036-5394800    036-5394801    ROCHE DIABETES NL    999999999191000000000000000000000000000000000000000000000000000000000000
0301008080005110001945BOI01BOIRON                                            20 RUE DE LA LIBERATION                 69110 STE-FOY-LES-LYON        FRANKRIJK                                         7-8594020      900485         BOIRON         FR    000000000000000000000000000000000000000000000000000000000000000000000000
0301008080005110001953BOL01BOLDOOT BV                                        Postbus 500                   3900 AM   Veenendaal                    NEDERLAND                     500       3900 AM                                 BOLDOOT        NL    999999990195300000000000000000000000000000000000000000000000000000000000
0301008080005110001961BOO01BOOTS PHARMACEUTICALS BV                          Arendstraat 5                 1223 RE   Hilversum                     NEDERLAND                     502       1200 AM                                 BOOTS          NL    999999990196100000000000000000000000000000000000000000000000000000000000
0301008080005110001988BOO02BOOM                                              Rabroekenweg 20               7942 JE   Meppel                        NEDERLAND                     37        7940 AA   0522-268700    0522-260779    BOOM           NL    000000000000000000000000000000000000000000000000000000000000000000000000
0301008080005110002003BOU01BOURNONVILLE PHARMA BV                            Nassaulaan 13                 2514 JS   Den Haag                      NEDERLAND                                         070-3282692    070-3268392    BOURNONVI      NL    999999999200300000000000000000000000000000000000000000000000000000000000
0301008080005110002011BOU02BOUSQUET ZEEPFABRIEK BV                           Voorstraat 92                 2611 JT   Delft                         NEDERLAND                     3042      2601 DA   015-2120881    015-2123174    BOUSQUET       NL    999999990201100000000000000000000000000000000000000000000000000000000000
0301008080005110002046BRA01BRACCO IMAGING SPA                                Via Egidio Folli 50                     20134 MILAAN                  ITALIE                                            02-21771       311185         BRACCO         IT    000000000000000000000000000000000000000000000000000000000000000000000000
0301008080005110002054BRA02BRASKAMP BV FARM FABRIEK                          Steenplaetsstraat 5           2288 AA   Rijswijk Zh                   NEDERLAND                     1021      2280 CA   070-3990135    070-3999331    BRASKAMP       NL    999999999205400000000000000000000000000000000000000000000000000000000000
0301008080005110002062BBR02B.BRAUN MELSUNGEN AG                              Euterpehof 10                 5342 CW   Oss                           NEDERLAND                     659       5340 AR   0412-672411    0412-672490    BRAUN/D        NL    999999999206200000000000000000000000000000000000000000000000000000000000
0301008080005110002070BBR01B.BRAUN MEDICAL BV                                Euterpehof 10                 5342 CW   Oss                           NEDERLAND                     659       5340 AR   0412-672411    0412-672490    BRAUN          NL    871242300096400000000000000000000000000000000000000000000000000000000000
0301008080005110002119BRO02BROCACEF BV PRIJSCOURANT                          Straatweg 2                   3604 BB   Maarssen                      NEDERLAND                                                                       BROCACEF BV    NL    999999990211900000000000000000000000000000000000000000000000000000000000
0301008080005110002127BRO03BROCACEF BV PRODUKTIE AFD                         Pilotenstraat 35              1059 CH   Amsterdam                     NEDERLAND                     9083      1006 AB   020-6158844    020-6142072    BROCACEF       NL    999999990212700000000000000000000000000000000000000000000000000000000000
0301008080005110002178TAK03TAKEDA NEDERLAND BV                               Mercuriusplein 11             2132 HA   Hoofddorp                     NEDERLAND                                         023-5668700    023-5668800    TAKEDA         NLE063871139100000600000000000000000000000000000000000000000000000000000000000
0301008080005110002194CAP01CENTRAAL APOTHEEK IMPORT BV                       Gedempte Oude Gracht 105      2011 GN   Haarlem                       NEDERLAND                     217       2000 AE   023-5319148                   CENTR APO      NL    999999990219400000000000000000000000000000000000000000000000000000000000
0301008080005110002224CED01CEDONA HAARLEMMER PHARM.FAB BV                    Oudeweg 2                     2031 CC   Haarlem                       NEDERLAND                                                                       CEDONA         NL    000000000000000000000000000000000000000000000000000000000000000000000000
0301008080005110002232CED02CEDERROTH BV                                      Zuiderkruisweg 3              5015 TB   Tilburg                       NEDERLAND                                         013-552787     013-550912     CEDERROTH      NL    000000000000000000000000000000000000000000000000000000000000000000000000
0301008080005110002259CEN01CENTRACHEMIE BV                                   Postbus 289                   4870 AG   Etten-Leur                    NEDERLAND                     289       4870 AG   0160881200                    CENTRACHEMIE   NL    000000000000000000000000000000000000000000000000000000000000000000000000
0301008080005110002267CEN02CENTRAFARM BV                                     Van de Reijtstraat 31E        4814 NE   Breda                         NEDERLAND                     1184      4801 BD   076-5081000                   CENTRAFARM     NL    871425200060300000000000000000000000000000000000000000000000000000000000
0301008080005110002283CHA01CHATELAIN                                         *                                       *                             FRANKRIJK                                                                       CHATELAIN      FR    000000000000000000000000000000000000000000000000000000000000000000000000
0301008080005110002291OME02OMEGA PHARMA NEDERLAND BV                         Kralingseweg 201              3062 CE   Rotterdam                     NEDERLAND                     6612      3002 AP   010-2211000    010-4765953    OMEGAPHARMA    NL    871053700000900000000000000000000000000000000000000000000000000000000000
0301008080005110002313CHE05CHESEBROUGH-POND S LTD                            VICTORIA ROAD                           NW10 6NA LONDON               VERENIGD KONINKRIJK                                                             CHESEBROU      GB    999999990231300000000000000000000000000000000000000000000000000000000000
0301008080005110002348CHI01CHIBRET                                           Waarderweg 39                 2031 BN   Haarlem                       NEDERLAND                     581       2003 PC   023-5319330                   CHIBRET        NL    999999990234800000000000000000000000000000000000000000000000000000000000
0301008080005110002364CHO01CHOAY LAB                                         46 AVENUE THEOPHILE-GAUTIER             75782 PARIS CEDEX 16          FRANKRIJK                                         1-5244677      610726         CHOAY          FR    000000000000000000000000000000000000000000000000000000000000000000000000
0301008080005110002372TAK05TAKEDA BELGIUM CVA                                Leonardo Da Vincilaan 7       B-1930    ZAVENTEM                      BELGIE                                            02-4640611     02-4640698     TAKEDA         BE    000000000000000000000000000000000000000000000000000000000000000000000000
0301008080005110002399NOV01NOVARTIS PHARMA BV                                Haaksbergweg 16               1101 BX   Amsterdam                     NEDERLAND                     22101     1100 CC   088-0452100    026-3782259    NOVARTIS PHARMANLE037999999999239900000000000000000000000000000000000000000000000000000000000
0301008080005110002402CIL01CILAG NV                                          ATEALAAN 1                              B-2410 HERENTALS              BELGIE                                            014-219879     31886          CILAG/B        BE    999999990240200000000000000000000000000000000000000000000000000000000000
0301008080005110002410SAN34SANOFI MIDY                                       Govert van Wijnkade 48        3144 EG   Maassluis                     NEDERLAND                                         010-5931300                   SANOFI MIDY    NL    000000000000000000000000000000000000000000000000000000000000000000000000
0301008080005110002461COL01COLGATE-PALMOLIVE COSMETICA                       Amstellandlaan 84             1382 CH   Weesp                         NEDERLAND                     437       1380 AK   0294-491949    0294-419226    COLGATE-P      NL    999999990246100000000000000000000000000000000000000000000000000000000000
0301008080005110002496MED76MEDLINE INTERNATIONAL NETHERLANDS B.V.            De Molen 8-10                 3994 DB   Houten                        NEDERLAND                     461       3990 GG   030-2289711    030-2289713    MEDLINE        NL    999999999249600000000000000000000000000000000000000000000000000000000000
0301008080005110002518CON02CONTINENTAL PHARMA INC                            LOUIZALAAN 135                          1050 BRUSSEL                  BELGIE                                            02-5378070                    CONTIN/B       BE    000000000000000000000000000000000000000000000000000000000000000000000000
0301008080005110002542COR01CORNING BENELUX NV                                St. Ignatiusstraat 1          4817 KA   Breda                         NEDERLAND                                                                       CORNING BENELUXNL    999999990254200000000000000000000000000000000000000000000000000000000000
0301008080005110002577CPC01CORN PROD COMP NEDERLAND                          Churchilllaan 11              3527 GV   Utrecht                       NEDERLAND                     7080      3502 KB   030-2910111                   CORN PROD      NL    999999990257700000000000000000000000000000000000000000000000000000000000
0301008080005110002585CYA01CYANAMID BENELUX NV                               RUE DE BOSQUET 15                       1348 MONT-ST-GUIBERT          BELGIE                                            010-415150                    CYANAMID       BE    000000000000000000000000000000000000000000000000000000000000000000000000
0301008080005110002607VIA02VIATRIS MANUFACTURING BV                          Verrijn Stuartweg 60          1112 AX   Diemen                        NEDERLAND                     171       1110 BC   020-5198200    020-6906435    VIATRIS        NL    999999990260700000000000000000000000000000000000000000000000000000000000
0301008080005110002623DAR01DARO BV                                           Industrieweg 24               7949 AK   Rogat                         NEDERLAND                                                                       DARO           NL    999999990262300000000000000000000000000000000000000000000000000000000000
0301008080005110002658DEB01DEBAT LAB                                         60 RUE DE MONCEAU                       75008 PARIS                   FRANKRIJK                                         1-5619544      660882         DEBAT          FR    000000000000000000000000000000000000000000000000000000000000000000000000
0301008080005110002682DEL03DELALANDE LAB                                     16 RUE HENRI-REGNAULT                   92400 COURBEVOIE              FRANKRIJK                                         788-50-77                     DELALANDE      FR    000000000000000000000000000000000000000000000000000000000000000000000000
0301008080005110002747DER04DERMALEX CO LTD                                   QUARTREMAINE ROAD                       PO3 5QT PORTSMOUTH, HANTS     VERENIGD KONINKRIJK                               0705-671321                   DERMALEX       GB    000000000000000000000000000000000000000000000000000000000000000000000000
0301008080005110002836DIV01DIVERSE FABRIKANTEN                               Knolweg 1001                  9999 ZZ   Stitswerd                     NEDERLAND                                         038-4541997    038-4538360    *              NL    999999990283600000000000000000000000000000000000000000000000000000000000
0301008080005110003077AUR08AUROBINDO PHARMA BV                               Baarnsche dijk 1              3741 LN   Baarn                         NEDERLAND                     313       3740 AH   035-5429933    035-5429932    AUROBINDO PHARMNL    871242300717800000000000000000000000000000000000000000000000000000000000
0301008080005110003107ABB10ABBOTT PRODUCTS BV                                C J van Houtenlaan 36         1381 CP   Weesp                         NEDERLAND                     501       1380 AM   088-8222688    088-8222499    ABBOTTPRODUCTS NL    999999999310700000000000000000000000000000000000000000000000000000000000
0301008080005110003115DUP02DU PONT DE NEMOURS                                Helftheuvelweg 1              5222 AV   's-Hertogenbosch              NEDERLAND                                                                       DU PONT        NL    999999990311500000000000000000000000000000000000000000000000000000000000
0301008080005110003123DUT01DUTIM BV                                          Bedrijvenweg 20d              2351 BC   Leiderdorp                    NEDERLAND                                         071-5898325    071-5896829    DUTIM          NL    999999990312300000000000000000000000000000000000000000000000000000000000
0301008080005110003166EDE01EDET NEDERLAND BV                                 Ledeboerstraat 44             5048 AD   Tilburg                       NEDERLAND                     5044      5004 EA   013-4626911    013-4671998    EDET           NL    999999990316600000000000000000000000000000000000000000000000000000000000
0301008080005110003174EGB01EGBERTS EN CO BV                                  Oudeweg 4                     9711 TK   Groningen                     NEDERLAND                     1077      9701 BB   050-3122797                   EGBERTS        NL    000000000000000000000000000000000000000000000000000000000000000000000000
0301008080005110003212EMO01EMONTA BV                                         Het Anker 9                   9206 AL   Drachten                      NEDERLAND                                         0512-518085                   EMONTA         NL    999999999321200000000000000000000000000000000000000000000000000000000000
0301008080005110003239TEL03TELEFLEX MEDICAL B.V.                             Lange Dreef 11J               4131 NJ   Vianen Ut                     NEDERLAND                                         088-0021500    088-0021510    TELEFLEX       NL    999999999323900000000000000000000000000000000000000000000000000000000000
0301008080005110003263ENO01ENOS                                              Frederik Hendriklaan 40       2012 SJ   Haarlem                       NEDERLAND                                                                       ENOS           NL    999999990326300000000000000000000000000000000000000000000000000000000000
0301008080005110003271ENZ01ENZYPHARM BV                                      Industrieweg 17               3762 EG   Soest                         NEDERLAND                     205       3760 AE   035-6030051    035-6029962    ENZYPHARM      NL    999999999327100000000000000000000000000000000000000000000000000000000000
0301008080005110003298SAN33SANOFI SANTE                                      Govert van Wijnkade 48        3144 EG   Maassluis                     NEDERLAND                                         010-5931399    010-5931200    SANOFI SANTE   NL    999999990329800000000000000000000000000000000000000000000000000000000000
0301008080005110003301ERC01ERCOPHARM                                         SKELSTEDET 13-15                        2950 VEDBAEK                  DENEMARKEN                                        02-890889                     ERCOPHARM      DK    000000000000000000000000000000000000000000000000000000000000000000000000
0301008080005110003336ESS01ESSEX                                             Bankrashof 3                  1183 NP   Amstelveen                    NEDERLAND                     70        1180 AB   020-6453155                   ESSEX          NL    000000000000000000000000000000000000000000000000000000000000000000000000
0301008080005110003360PHA01PHAROS BV                                         Gildeweg 20                   3771 NB   Barneveld                     NEDERLAND                                         0342-425700    0342-426656    PHAROS         NLE116999999999336000000000000000000000000000000000000000000000000000000000000
0301008080005110003379EUR02EUROSTERIEL MEDICAL BV                            De Regge 3                    8253 PG   Dronten                       NEDERLAND                     41        8250 AA   0321-317725    0321-318125    EUROSTER       NL    999999999337900000000000000000000000000000000000000000000000000000000000
0301008080005110003409EZE01EZEM LIMITED                                      Units 3&4 Avonbury Bus Park             OX26 2UB BICESTER OXFORDSHIRE VERENIGD KONINKRIJK                                                             EZEM           GB    999999990340900000000000000000000000000000000000000000000000000000000000
0301008080005110003417FAH01FAHRENHEIT APOTHEEK BV                            Thomsonlaan 80A               2565 JE   Den Haag                      NEDERLAND                                         070-3652841    070-3456181    FAHRENHEI      NL    999999990341700000000000000000000000000000000000000000000000000000000000
0301008080005110003425FAL01DR. FALK PHARMA GMBH                              Leinenweberstrasse 5          D-79108   FREIBURG                      DUITSLAND                                                                       FALK           DE    000000000000000000000000000000000000000000000000000000000000000000000000
0301008080005110003433FAR02FARMABO BV                                        Stephensonstraat 1            2723 RM   Zoetermeer                    NEDERLAND                                         079-3410351                   FARMABO        NL    000000000000000000000000000000000000000000000000000000000000000000000000
0301008080005110003441FAR03FARCO PHARMA GMBH                                 Mathias-Bruggen-Strasse 82    50829     KOLN                          DUITSLAND                                                                       FARCO PH       DE    000000000000000000000000000000000000000000000000000000000000000000000000
0301008080005110003468FAR04FARMITALIA CARLO ERBA NV                          KOLONEL BOURGSTRAAT 103 -b2             1040 BRUSSEL                  BELGIE                                            02-7358113                    FARMITA/B      BE    000000000000000000000000000000000000000000000000000000000000000000000000
0301008080005110003476FAR05FARMAROPA                                         Postbus 55                    3769 ZH   Soesterberg                   NEDERLAND                     55        3769 ZH                                 FARMAROPA      NL    999999990347600000000000000000000000000000000000000000000000000000000000
0301008080005110003522FER01FERRING AB                                        SOLDATTORPSVAGEN 5                      20062 MALMO                   ZWEDEN                                            040-159070     32652          FERRING/S      SE    000000000000000000000000000000000000000000000000000000000000000000000000
0301008080005110003565FIS02FISONS BV                                         Bijenvlucht 30                3871 JJ   Hoevelaken                    NEDERLAND                     100       3870 CC   033-2533911    033-2535017    FISONS         NL    999999990356500000000000000000000000000000000000000000000000000000000000
0301008080005110003638FRE01FRESENIUS MEDICAL CARE DEUTSCHLAND GMBH           Else-Kroener Strasse 1        D-61352   Bad Homburg                   DUITSLAND                                         004961726090                  FRESENIUS      DE    000000000000000000000000000000000000000000000000000000000000000000000000
0301008080005110003646HER02HERO NEDERLAND B.V.                               Teteringsedijk 279            4817 ME   Breda                         NEDERLAND                     3243      4800 DE   076-5798000    076-5875746    HERO           NL    999999999364600000000000000000000000000000000000000000000000000000000000
0301008080005110003697COL04COLGATE-PALMOLIVE NEDERLAND B.V.                  Leeuwenveldseweg 5N           1382 LV   Weesp                         NEDERLAND                     437       1380 AK   0294-491949    0294-419226    COLGATE        NL    999999999369700000000000000000000000000000000000000000000000000000000000
0301008080005110003719GAL02GALEPHAR NV                                       HERDERSLIEDSTRAAT 26-28                 1080 BRUSSEL                  BELGIE                                            02-5221799                    GALEPHAR       BE    000000000000000000000000000000000000000000000000000000000000000000000000
0301008080005110003727GEA01GEA                                               Holger danskes vey 89                   2000 FREDERIKSBERG            DENEMARKEN                                        01-344242                     GEA            DK    000000000000000000000000000000000000000000000000000000000000000000000000
0301008080005110003751GEN02GENERAL COSMETICS BV                              Egelskoog 9                   1822 BM   Alkmaar                       NEDERLAND                     9035      1800 GA   072-5661300    072-5620943    GEN COSM       NL    999999990375100000000000000000000000000000000000000000000000000000000000
0301008080005110003778GER01GEROT-PHARMAZEUTIKA GMBH                          ARNETHGASSE 3                           1171 WIEN                     OOSTENRIJK                                        0222-453505                   GEROT/A        AT    000000000000000000000000000000000000000000000000000000000000000000000000
0301008080005110003808GIM01GIMBORN BV                                        Punterweg 30                  8042 PB   Zwolle                        NEDERLAND                                         038-4217747    038-4218262    GIMBORN        NL    999999990380800000000000000000000000000000000000000000000000000000000000
0301008080005110003816AST13ASTELLAS PHARMA BV                                Sylviusweg 62                 2333 BE   Leiden                        NEDERLAND                     344       2300 AH   071-5455745    071-5455850    ASTELLAS       NLE015871242300692800000000000000000000000000000000000000000000000000000000000
0301008080005110003824GIS02GIST-BROCADES NV                                  Wateringseweg 1               2611 XT   Delft                         NEDERLAND                     1         2600 MA   015-799111                    GIST           NL    000000000000000000000000000000000000000000000000000000000000000000000000
0301008080005110003832GIU01GIULINI PHARMA GMBH                               HANS-BOECKLER-ALLEE 20        3000       HANNOVER                     DUITSLAND                                         0511-8571      922755         GIULINI        DE    000000000000000000000000000000000000000000000000000000000000000000000000
0301008080005110003840GLA01GLAXOSMITHKLINE B.V.                              Van Asch van Wijckstraat 55H  3811 LP   Amersfoort                    NEDERLAND                     2159      3800 CD   033-2081100    030-6938471    GLAXO          NL    999999999384000000000000000000000000000000000000000000000000000000000000
0301008080005110003883GRU03GRUNENTHAL GMBH                                   Steinfeldstrasse 2                      52222 STOLBERG                DUITSLAND                                         00492415690    00492415691522 GRUNENTHA      DE    000000000000000000000000000000000000000000000000000000000000000000000000
0301008080005110003972HAL02HAL ALLERGY BENELUX BV                            J.H. Oortweg 15-17            2333 CH   Leiden                        NEDERLAND                     1204      2302 BE   088-1959000    088-1959001    HAL            NL    999999999397200000000000000000000000000000000000000000000000000000000000
0301008080005110003999HAM01HAMOL BV                                          Amstellandlaan 84             1382 CH   Weesp                         NEDERLAND                     437       1380 AK   0294-617001    0294-419226    HAMOL          NL    999999990399900000000000000000000000000000000000000000000000000000000000
0301208080005110004014HAR01HARTMANN BV                                       Kerkenbos 1103D               6546 BC   Nijmegen                      NEDERLAND                     26        6500 AA   024-7112000    024-3778284    HARTMANN       NL    999999999401400000000000000000000000000000000000000000000000000000000000
0301008080005110004030HEE01VAN HEEK MEDICAL                                  Macroweg 10                   5804 CL   Venray                        NEDERLAND                     291       5800 AG   088-2208822    088-2208888    HEEK           NL    999999999403000000000000000000000000000000000000000000000000000000000000
0301008080005110004065HEN02HENKEL COSMETIC BV                                Brugwal 11                    3432 NZ   Nieuwegein                    NEDERLAND                                         030-6073911    030-6047942    HENKEL         NL    999999990406500000000000000000000000000000000000000000000000000000000000
0301008080005110004073MEN12MENTOR BENELUX BV                                 Zernikedreef 2                2333 CL   Leiden                        NEDERLAND                     56        2300 AB   071-5249900    071-5249948    MENTOR BENELUX NL    999999999407300000000000000000000000000000000000000000000000000000000000
0301008080005110004103HER01HERMES GMBH                                       GEORG-KALB-STRASSE 5-8        8023      GROSSHESSELOHE                DUITSLAND                                         089-792011     524926         HERMES/D       DE    000000000000000000000000000000000000000000000000000000000000000000000000
0301008080005110004111WAL03WALA NEDERLAND B.V.                               Verrijn Stuartlaan 48         2288 EN   Rijswijk Zh                   NEDERLAND                                         070-3950954    070-3191158    WALA NL        NL    999999999411100000000000000000000000000000000000000000000000000000000000
0301008080005110004162PER10PERSTORP PHARMA                                   Rontgenstraat 18              3261 LK   Oud Beijerland                NEDERLAND                     1523      3260 BA   0186-610188    0186-619179    PERSTORP       NL    999999990416200000000000000000000000000000000000000000000000000000000000
0301008080005110004189HMR01HOECHST MARION ROUSSEL BV                         Bijenvlucht 30                3871 JJ   Hoevelaken                    NEDERLAND                                         033-2533911    033-2535017    HOECHST        NL    999999990418900000000000000000000000000000000000000000000000000000000000
0301008080005110004200HOF01HOFMAN BV SPECIAALHUIS                            Walperterwei 33b              8731 CD   Wommels                       NEDERLAND                     8         8730 AA   0515-331660    0515-331656    HOFMAN         NL    999999990420000000000000000000000000000000000000000000000000000000000000
0301008080005110004308HPS01HPS                                               Ronde Tocht 11                1507 CC   Zaandam                       NEDERLAND                     2062      1500 GB   075-6530000    075-6530981    HPS            NL    999999999430800000000000000000000000000000000000000000000000000000000000
0301008080005110004316HUI01HUIKESHOVEN BV                                    Kapelstraat 2                 4061 RC   Ophemert                      NEDERLAND                     16        4060 GA   0344-651444    0344-651904    HUIKESHOV      NL    999999999431600000000000000000000000000000000000000000000000000000000000
0301008080005110004375ZEN04ASTRA ZENECA                                      Louis Pasteurlaan 5           2719 EE   Zoetermeer                    NEDERLAND                     599       2700 AN   079-3632222    079-3632444    ASTRAZENECA    NLE058999999999437500000000000000000000000000000000000000000000000000000000000
0301008080005110004383ICN01SUDCO                                             Burghoffweg 5                 6042 EX   Roermond                      NEDERLAND                                         0475-343095    0475-350112    SUDCO          NL    999999999438300000000000000000000000000000000000000000000000000000000000
0301008080005110004391IMG01IMGROMA                                           Verrijn Stuartweg 60          1112 AX   Diemen                        NEDERLAND                     171       1110 BC   020-5198343    020-6906435    IMGROMA        NL    999999999439100000000000000000000000000000000000000000000000000000000000
0301008080005110004405INN01INNOTHERA                                         10 AVENUE P-VAILLANT-COUTURIER          94115 ARCUEIL                 FRANKRIJK                                         1-6641860      200659         INNOTHERA      FR    000000000000000000000000000000000000000000000000000000000000000000000000
0301008080005110004413ZAM03ZAMBON NEDERLAND BV                               Herikerbergweg 292            1101 CT   Amsterdam                     NEDERLAND                                         020-3085185    033-4561233    ZAMBON         NL    999999999441300000000000000000000000000000000000000000000000000000000000
0301008080005110004456INT01INTEC BV                                          Vleutensevaart 100            3532 AD   Utrecht                       NEDERLAND                     1341      3500 BH   030-2978800    030-2978850    INTEC          NL    999999999445600000000000000000000000000000000000000000000000000000000000
0301008080005110004464ALL10ALLIANCE HEALTHCARE NEDERLAND B.V.                Kempkens 2200                 5465 PR   Veghel                        NEDERLAND                                         088-1040211    088-1040255    ALLIANCE       NL    999999999446400000000000000000000000000000000000000000000000000000000000
0301008080005110004472INT03INTERTRADE COSMETICS BV                           Hogeweyselaan 145             1382 JK   Weesp                         NEDERLAND                     58        1380 AB   0294-418381    0294-410431    INTERTRADE     NL    999999999447200000000000000000000000000000000000000000000000000000000000
0301008080005110004480INT04INTRADAL NV                                       Brabantsestraat 17            3812 PJ   Amersfoort                    NEDERLAND                     69        3800 AB   033-4638822    033-79272      INTRADA/1      NL    999999990448000000000000000000000000000000000000000000000000000000000000
0301008080005110004529IVR01IVRA NEDERLAND BV                                 Marconistraat 13              6716 AK   Ede Gld                       NEDERLAND                     405       6710 BK   0318-670600    0318-638936    IVRA           NL    999999990452900000000000000000000000000000000000000000000000000000000000
0301008080005110004553JAN01JANSSEN-CILAG INTERNATIONAL NV                    TURNHOUTSEWEG 30                        2340 BEERSE                   BELGIE                                            014-602111                    JANSSEN-CILAG IBE    000000000000000000000000000000000000000000000000000000000000000000000000
0301008080005110004561JAN02JANSSEN-CILAG BV                                  Graaf Engelbertlaan 75        4837 DS   Breda                         NEDERLAND                                         076-7111111    076-7111122    JANSSEN        NLE048871324100000600000000000000000000000000000000000000000000000000000000000
0301008080005110004588JOH01JOHNSON & JOHNSON MEDICAL BV                      Computerweg 14                3821 AB   Amersfoort                    NEDERLAND                     188       3800 AD   033-4500500    033-4500505    JOHNSON        NLE500999999999458800000000000000000000000000000000000000000000000000000000000
0301008080005110004650KAB02KABIVITRUM                                        Hessenbergweg 8               1101 BT   Amsterdam                     NEDERLAND                     22846     1100 DH   020-6974311    020-10153      KABIVITR       NL    000000000000000000000000000000000000000000000000000000000000000000000000
0301008080005110004677KAL01KALI-CHEMIE PHARMA GMBH                           HANS-BOCKLER-ALLEE 20         3000      HANNOVER                      DUITSLAND                                         0511-8571      922755         KALICHEMI      DE    000000000000000000000000000000000000000000000000000000000000000000000000
0301008080005110004693KAM03KAMPMEYER BV                                      Portsmuiden 13                1046 AH   Amsterdam                     NEDERLAND                                         020-6134636    020-6135885    KAMPMEYER      NL    999999990469300000000000000000000000000000000000000000000000000000000000
0301008080005110004715APO18APOTEX NEDERLAND BV                               Archimedesweg 2               2333 CN   Leiden                        NEDERLAND                     408       2300 AK   071-5243100    071-5243131    APOTEX         NL    999999999471500000000000000000000000000000000000000000000000000000000000
0301008080005110004758KEM01KEMPER MEDICAL BV                                 Nijverheidsstraat 3           5405 AJ   Uden                          NEDERLAND                     48        5400 AA   0413-264220    0413-252730    KEMPER         NL    999999990475800000000000000000000000000000000000000000000000000000000000
0301008080005110004774KER01KERKHOFF-UNICURA BV                               Postbus 83                    1380 AB   Weesp                         NEDERLAND                     83        1380 AB                                 KERKHOFF       NL    999999990477400000000000000000000000000000000000000000000000000000000000
0301008080005110004782SAN52SANOFI CONSUMER HEALTHCARE                        Paasheuvelweg 25              1105 BP   Amsterdam                     NEDERLAND                                         020-2454000    0182-557799    SANOFI         NL    999999999478200000000000000000000000000000000000000000000000000000000000
0301008080005110004790KEU01KEUR & SNELTJES DENTAL BV                         Kenaupark 1                   2011 MP   Haarlem                       NEDERLAND                                         023-5326840    023-5326842    KEUR-SNEL      NL    999999999479000000000000000000000000000000000000000000000000000000000000
0301008080005110004804KIM01KIMBERLY CLARK B.V.                               Copernicuslaan 35             6716 BM   Ede Gld                       NEDERLAND                     450       6710 BL   0318-697697    0318-697690    KIMBERLY       NL    999999999480400000000000000000000000000000000000000000000000000000000000
0301008080005110004839KLE01KLENE BV                                          Looiersgracht 55              1016 VR   Amsterdam                     NEDERLAND                     19659     1000 GR   020-6230530                   KLENE          NL    999999990483900000000000000000000000000000000000000000000000000000000000
0301008080005110004847XYT02XYTRON MEDICAL BV                                 HogeKampweg 38                7316 MT   Apeldoorn                     NEDERLAND                                         055-5761588    055-5761595    XYTRON         NL    999999990484700000000000000000000000000000000000000000000000000000000000
0301008080005110004855KLO01KLOOSTERVROUW BICKERY                             Stichtse Kade 46              1243 HW   's-Graveland                  NEDERLAND                                         035-6560254    035-6563824    KLOOSTER       NL    999999990485500000000000000000000000000000000000000000000000000000000000
0301008080005110004898KNO01KNOLL BV                                          Tunerstraat 2                 1322 CA   Almere                        NEDERLAND                     60034     1320 AA   036-5463546    036-5463540    KNOLL          NLE045999999990489800000000000000000000000000000000000000000000000000000000000
0301008080005110004936KON01KONING TILLY BV,C DE                              Antoniestraat 17              2011 CN   Haarlem                       NEDERLAND                     13        2000 AA   023-5360036    023-5384152    KONING-TI      NL    999999999493600000000000000000000000000000000000000000000000000000000000
0301008080005110004952KRA01KRAEPELIEN & HOLM BV                              Houtwal 25                    8431 EX   Oosterwolde Fr                NEDERLAND                     4         8430 AA   0516-512545    0516-515438    KRAEPELIE      NL    999999990495200000000000000000000000000000000000000000000000000000000000
0301008080005110005010SAN35SANOFI-SYNTHELABO BV                              Kampenringweg 45D-E           2803 PE   Gouda                         NEDERLAND                                         0182-557755    0182-557799    SANOFI-SYNTHEL NL    999999999501000000000000000000000000000000000000000000000000000000000000
0301008080005110005061LAM02LAMERIS BV                                        Nieuweweg 224                 3905 LT   Veenendaal                    NEDERLAND                     822       3900 AV   0318-547111    0318-547195    LAMERIS        NL    999999999506100000000000000000000000000000000000000000000000000000000000
0301008080005110005088PHA03Pharmanovia Benelux BV                            Burgemeester Guljelaan 2      4837 CZ   Breda                         NEDERLAND                                         076-5600030    076-5655848    PHARMANOVIA    NL    999999999508800000000000000000000000000000000000000000000000000000000000
0301008080005110005096LAN02LANSBERG ROTTERDAM BV                             Energielaan 2                 5405 AD   Uden                          NEDERLAND                                         0413-263875    0413-261280    LANSBERG       NL    999999990509600000000000000000000000000000000000000000000000000000000000
0301008080005110005118LAN04LANGENBEG & CO                                    Lengelseweg 43                7041 DL   's-Heerenberg                 NEDERLAND                                         08346-1651                    LANGENBER      NL    999999990511800000000000000000000000000000000000000000000000000000000000
0301008080005110005169AHP02(VERVALLEN)AHP PHARMA BV                          Postbus 57                    2130 AB   Hoofddorp                     NEDERLAND                     57        2130 AB   023-5672567    023-5672599    AHP            NL    000000000000000000000000000000000000000000000000000000000000000000000000
0301008080005110005177LEE01LEEFSMA TELS BV                                   Goirkestraat 29               5046 GD   Tilburg                       NEDERLAND                                         013-5423001                   LEEFSMA        NL    999999990517700000000000000000000000000000000000000000000000000000000000
0301008080005110005185LEI01LEIRAS PHARMACEUTICAL                             *                                       SF 20101 TURKUT               FINLAND                                                          09358216333800 LEIRAS         FI    000000000000000000000000000000000000000000000000000000000000000000000000
0301008080005110005193LEO01LEO PHARMA BV                                     Delflandlaan 1                1062 EA   Amsterdam                     NEDERLAND                                         020-5104141    020-5104142    LEO PHARMA     NL    871873447017500000000000000000000000000000000000000000000000000000000000
0301008080005110005231LEV02LEVER INDUSTRIAL BV                               Maarssenbroeksedijk 4         3606 AN   Maarssen                      NEDERLAND                                         030-2476911                   LEVER IND      NL    000000000000000000000000000000000000000000000000000000000000000000000000
0301008080005110005266LIL01ELI LILLY NEDERLAND                               Papendorpseweg 83             3528 BJ   Utrecht                       NEDERLAND                     8580      3503 RN   030-6025800    030-6025888    ELI LILLY      NLE090999999999526600000000000000000000000000000000000000000000000000000000000
0301008080005110005274LIN02CHEMIE LINZ AG                                    ST PETER STRASSE 25                     4021 LINZ                     OOSTENRIJK                                        0732-591                      LINZ           AT    999999990527400000000000000000000000000000000000000000000000000000000000
0301008080005110005290LOB01LOBICA BV                                         Noordsingel 94                3032 BH   Rotterdam                     NEDERLAND                                         010-4664990                   LOBICA         NL    000000000000000000000000000000000000000000000000000000000000000000000000
0301008080005110005312LOH01LOHMANN & RAUSCHER BV                             Antennestraat 86B             1322 AS   Almere                        NEDERLAND                                         036-5463030    036-5463031    LOHMANN        NL    871242302957600000000000000000000000000000000000000000000000000000000000
0301008080005110005339SSL02SSL                                               De Weegschaal 14              5215 MN   's-Hertogenbosch              NEDERLAND                                         073-6158400    073-6158488    SSL            NL    999999999533900000000000000000000000000000000000000000000000000000000000
0301008080005110005347LSA01LSA BRON                                          Terrastraat 32                1829 XM   Oudorp Nh                     NEDERLAND                                         072-5110601                   LSA BRON       NL    999999990534700000000000000000000000000000000000000000000000000000000000
0301008080005110005363LUN01LUNDBECK BV                                       Herikerbergweg 292            1101 CT   Amsterdam                     NEDERLAND                     12021     1100 AA   020-6971901    020-6910632    LUNDBECK       NL    999999999536300000000000000000000000000000000000000000000000000000000000
0301008080005110005428MAF01MAFAR BV                                          Burgemeester Roell-laan 9     3925 BB   Scherpenzeel Gld              NEDERLAND                     61        3925 ZH   033-2772572                   MAFAR          NL    999999990542800000000000000000000000000000000000000000000000000000000000
0301008080005110005436MAI01MAINIT BV                                         Roode Wildemanweg 5           1521 PZ   Wormerveer                    NEDERLAND                                         075-6422204    075-6428804    MAINIT         NL    999999999543600000000000000000000000000000000000000000000000000000000000
0301008080005110005517MAR04MARUISHI PHARMACEUTICAL CO.LTD                    17,2-CHOME FUSHIMI-MACHI                HIGASHI-KU, OSAKA             JAPAN                                                                           MARUISHI       JP    999999990551700000000000000000000000000000000000000000000000000000000000
0301008080005110005525MAT01MATHOT MEDISCHE SPECIAALZAKEN                     A. Hofmanweg 40               2031 BL   Haarlem                       NEDERLAND                                         088-0085800    088-0085825    MATHOT         NL    999999999552500000000000000000000000000000000000000000000000000000000000
0301008080005110005576MEA02MEAD JOHNSON BENELUX NV                           TER HULPSESTEENWEG 185                  1170 BRUSSEL                  BELGIE                                            02-6600037                    MEADJO/B       BE    000000000000000000000000000000000000000000000000000000000000000000000000
0301008080005110005584MED23MEDIQ MEDECO BV                                   Alexander Flemingstraat 2     3261 MA   Oud Beijerland                NEDERLAND                     1555      3260 BB   0186-634400    0186-616893    MEDECO         NL    871534300000700000000000000000000000000000000000000000000000000000000000
0301008080005110005606MED02MEDICA EUROPE B.V                                 Galliersweg 20                5349 AT   Oss                           NEDERLAND                     746       5340 AS   0412-671300    0412-671310    MEDICA         NL    999999999560600000000000000000000000000000000000000000000000000000000000
0301008080005110005622MED04MEDICOPHARMA                                      Paltrokstraat 20              1508 EK   Zaandam                       NEDERLAND                     69        1500 EB   075-6815500                   MEDICOPHARMA   NL    000000000000000000000000000000000000000000000000000000000000000000000000
0301008080005110005657MEP01MEPROS BV                                         Industrieweg 1                5531 AD   Bladel                        NEDERLAND                     24        5530 AA   04977-1833                    MEPROS         NL    000000000000000000000000000000000000000000000000000000000000000000000000
0301008080005110005665MER01MERCK BV                                          Tupolevlaan 41-61             1119 NW   Schiphol-Rijk                 NEDERLAND                                         020-6582800                   MERCK          NLE091999999999566500000000000000000000000000000000000000000000000000000000000
0301008080005110005673MER02MERCKLE KG                                        IM GEHM 3                               7902 BLAUBEUREN               DUITSLAND                                         07344-7011     712691         MERCKLE        DE    000000000000000000000000000000000000000000000000000000000000000000000000
0301008080005110005681MER03MERZ & CO GMBH                                    ECKENHEIMER LANDSTRASSE 100   6000      FRANKFURT AM MAIN             DUITSLAND                                         069-15031      414031         MERZ           DE    000000000000000000000000000000000000000000000000000000000000000000000000
0301008080005110005703MER04MERIEUX                                           17 RUE BOURGELAT                        69002 LYON                    FRANKRIJK                                                                       MERIEUX        FR    999999990570300000000000000000000000000000000000000000000000000000000000
0301008080005110005738MEU01MEULENAERE                                        Hilversumsestraat 117         2574 XC   Den Haag                      NEDERLAND                     47914     2504 CE   070-3452300                   MEULENAERE     NL    999999990573800000000000000000000000000000000000000000000000000000000000
0301008080005110005754MEY01JULIUS MEYER ALPHARMA BV                          Herengracht 257               1016 BJ   Amsterdam                     NEDERLAND                                         020-6231116    020-6231481    JUL-MEYER      NL    000000000000000000000000000000000000000000000000000000000000000000000000
0301008080005110005797MIL02MILUPA BV                                         Eerste Stationsstraat 186     2712 HM   Zoetermeer                    NEDERLAND                     445       2700 AK   079-3539953    079-3539626    MILUPA         NL    999999999579700000000000000000000000000000000000000000000000000000000000
0301208080005110005800MMM013M NEDERLAND BV                                   Schenkkade 50K                2595 AR   Den Haag                      NEDERLAND                                         015-7822333                   3M NEDERL      NL    999999999580000000000000000000000000000000000000000000000000000000000000
0301008080005110005827ESS08Essity Netherlands B.V.                           Arnhemse Bovenweg 120         3708 AH   Zeist                         NEDERLAND                     670       3700 AR   030-6984808                   ESSITY         NL    999999999582700000000000000000000000000000000000000000000000000000000000
0301008080005110005851MOR02MORISHITA JINTAN                                  29 DOSHOMACHI 4 CHOME                   541 HIGASHI-KU, OSAKA         JAPAN                                                                           MORISHITA      JP    999999990585100000000000000000000000000000000000000000000000000000000000
0301008080005110005878MOS01MOSAPHARM                                         Alde Caerteruwe 16            6218 ER   Maastricht                    NEDERLAND                     33        6200 AA   043-4303                      MOSAPHARM      NL    000000000000000000000000000000000000000000000000000000000000000000000000
0301008080005110005886MSD01MSD BV                                            Waarderweg 39                 2031 BN   Haarlem                       NEDERLAND                     581       2003 PC   023-5153153    023-5323422    MSD            NL    999999999588600000000000000000000000000000000000000000000000000000000000
0301008080005110005916SDZ51SANDOZ BV                                         Hospitaaldreef 29             1315 RC   Almere                        NEDERLAND                     10332     1301 AH   036-5241600    036-5373322    SANDOZ BV      NL    871237100000900000000000000000000000000000000000000000000000000000000000
0301008080005110005924MUL02MULTILAN                                          *                                       *                             ZWITSERLAND                                                                     MULTILAN       CH    000000000000000000000000000000000000000000000000000000000000000000000000
0301008080005110005975NAN01NANNING BV                                        Van Oldenbarneveltstraat 156b 3012 GX   Rotterdam                     NEDERLAND                                         010-4333328    010-4049096    NANNING        NL    999999999597500000000000000000000000000000000000000000000000000000000000
0301008080005110005983NAP01NAPP LABORATORIES LTD                             MILTON ROAD                             CB4 4BH CAMBRIDGE             VERENIGD KONINKRIJK                               0223-358888                   NAPP/GB        GB    000000000000000000000000000000000000000000000000000000000000000000000000
0301008080005110006025NED01NEDERMA BV                                        Hogelandseweg 77              6545 AB   Nijmegen                      NEDERLAND                     38332     6503 AH   024-3772422    024-3733409    NEDERMA        NL    999999990602500000000000000000000000000000000000000000000000000000000000
0301008080005110006041NEG01NEGWER                                            LEOPOLDWEG 22                 6380      BAD HOMBURG                   DUITSLAND                                                                       NEGWER         DE    999999990604100000000000000000000000000000000000000000000000000000000000
0301008080005110006092BAY21BAYER B.V. HEALTHCARE DIV. CONSUMER CARE          Siriusdreef 36                2132 WT   Hoofddorp                     NEDERLAND                                         0297-280666    0297-280606    BAYER CONSUMER NL    999999999609200000000000000000000000000000000000000000000000000000000000
0301008080005110006106NOG01NOGEPHA BV                                        Postbus 15                    1800 AA   Alkmaar                       NEDERLAND                     15        1800 AA                                 NOGEPHA/2      NL    000000000000000000000000000000000000000000000000000000000000000000000000
0301008080005110006114NOR01NORWICH EATON NV                                  Watermanweg 100               3067 GG   Rotterdam                     NEDERLAND                     2507      3000 CM   010-2863100    010-2863169    NORWICH        NL    000000000000000000000000000000000000000000000000000000000000000000000000
0301008080005110006130CAB02CABOT NORIT NEDERLAND BV                          Nijverheidsweg-Noord 72       3812 PM   Amersfoort                    NEDERLAND                     660       3800 AR   033-4648922    033-4633314    CABOT          NL    999999990613000000000000000000000000000000000000000000000000000000000000
0301008080005110006165NOU01NOURYPHARMA NEDERLAND BV                          Griekenweg 25                 5342 PX   Oss                           NEDERLAND                     500       5340 AM   0412-666933    0412-666979    NOURYPHAR      NL    999999990616500000000000000000000000000000000000000000000000000000000000
0301008080005110006203NPI01NED PHARM INDUSTRIE                               Prins Bernhardstraat 52       6373 KK   Landgraaf                     NEDERLAND                                         045-5312294                   NED PHARM      NL    999999990620300000000000000000000000000000000000000000000000000000000000
0301008080005110006211NUB01PERFETTI VAN MELLE BENELUX BV                     Zoete Inval 20                4815 HK   Breda                         NEDERLAND                     3000      4800 DA                                 PERFETTI       NL    999999999621100000000000000000000000000000000000000000000000000000000000
0301008080005110006246DAN01Danone Nutricia Nederland B.V.                    Lange Kleiweg 6               2288 GK   Rijswijk Zh                   NEDERLAND                                         079-3539000    079-3539626    DANONE         NL    999999999624600000000000000000000000000000000000000000000000000000000000
0301008080005110006262ODO01ODOL                                              Barthstrasse 4                80339     MUNCHEN                       DUITSLAND                                                                       ODOL           DE    999999990626200000000000000000000000000000000000000000000000000000000000
0301008080005110006270OMN01OMNILABO NEDERLAND BV                             Takkebijsters 62              4817 BL   Breda                         NEDERLAND                     3939      4800 DX   076-57957951   076-5876236    OMNILABO       NL    999999990627000000000000000000000000000000000000000000000000000000000000
0301008080005110006297OOS01OOSTERMAN JR                                      Kastanjelaan 3B               3833 AN   Leusden                       NEDERLAND                                         033-4942140    033-4951210    OOSTERMAN      NL    999999990629700000000000000000000000000000000000000000000000000000000000
0301008080005110006300MED54MEDIQ FARMA                                       Straatweg 2                   3604 BB   Maarssen                      NEDERLAND                     2450      3500 GL   030-2452922                   MEDIQFARMA     NL    871188600000900000000000000000000000000000000000000000000000000000000000
0301008080005110006335ORG02ORGANON NEDERLAND BV                              Walmolen 1                    3994 DL   Houten                        NEDERLAND                                                                       ORGANON        NL    999999999633500000000000000000000000000000000000000000000000000000000000
0301008080005110006343ORG03ORGANON TEKNIKA BV                                Boseind 15                    5281 RM   Boxtel                        NEDERLAND                     84        5280 AB   0411-654911                   ORGANON TECHNIKNLE192999999990634300000000000000000000000000000000000000000000000000000000000
0301008080005110006351ORT01ORTHANA                                           ENGLANDSVEJ 350-356                     2770 KASTRUP                  DENEMARKEN                                        01-708200                     ORTHANA        DK    000000000000000000000000000000000000000000000000000000000000000000000000
0301008080005110006386OVE01OVEN VAN                                          Zoutkeetsingel 139-140        2512 HS   Den Haag                      NEDERLAND                                         070-3801235                   OVEN VAN       NL    000000000000000000000000000000000000000000000000000000000000000000000000
0301008080005110006424PAR01PARKE-DAVIS BELGIE                                CARTON DE WIARTLAAN 126                 1090 BRUSSEL                  BELGIE                                            02-4285162                    PARKE/B        BE    999999990642400000000000000000000000000000000000000000000000000000000000
0301008080005110006467PAS01AVENTIS PASTEUR SERUMS ET VACCINS                 36 RUE DU DR ROUX                       75725 PARIS                   FRANKRIJK                                         541-52-45                     AVENTIS PASTEURFR    000000000000000000000000000000000000000000000000000000000000000000000000
0301008080005110006513PEL01PELIKAN NEDERLAND BV                              Postbus 9                     6900 AA   Zevenaar                      NEDERLAND                     9         6900 AA   0316-591111    0316-591333    PELIKAN        NL    000000000000000000000000000000000000000000000000000000000000000000000000
0301008080005110006556PFI01PFIZER BV                                         Rivium Westlaan 142           2909 LD   Capelle aan den IJssel        NEDERLAND                     37        2900 AA   010-4064200    010-4064299    PFIZER         NL    999999999655600000000000000000000000000000000000000000000000000000000000
0301008080005110006564SAN44SANTESA B.V.                                      Pampuslaan 186                1382 JS   Weesp                         NEDERLAND                     112       1380 AC   0294-461188    0294-461178    SANTESA        NL    999999999656400000000000000000000000000000000000000000000000000000000000
0301008080005110006580PHA63PHARMEXPORT BV                                    Weerenweg 29                  1161 AG   Zwanenburg                    NEDERLAND                     61        1160 AB   020-4079404    020-4976117    PHARMEXPORT    NL    000000000000000000000000000000000000000000000000000000000000000000000000
0301008080005110006599PHA02PHARMACHEMIE BV                                   Swensweg 5                    2031 GA   Haarlem                       NEDERLAND                     552       2003 RN   023-5147147    023-5312879    PHARMACHEMIE   NLE031871121800000400000000000000000000000000000000000000000000000000000000000
0301008080005110006602PHA03PHARBIL-RORER BV                                  Wijnhaven 44                  3011 WS   Rotterdam                     NEDERLAND                     1839      3000 BV   010-4120390    010-23531      PHARBIL        NL    000000000000000000000000000000000000000000000000000000000000000000000000
0301008080005110006610PHA65PHARMA-IMPORT BV                                  Weerenweg 29                  1161 AG   Zwanenburg                    NEDERLAND                     61        1160 AB   029079404      029076117      PHARMA-IMPORT  NL    000000000000000000000000000000000000000000000000000000000000000000000000
0301008080005110006653PHA08PHARBITA BV                                       Swensweg 5                    2031 GA   Haarlem                       NEDERLAND                     552       2003 RN   023-5147147    023-5312879    PHARBITA       NL    999999990665300000000000000000000000000000000000000000000000000000000000
0301008080005110006661PHA09PHARMACIA BV                                      Houttuinlaan 4                3447 GM   Woerden                       NEDERLAND                     17        3440 AA   0348-494949    0348-494950    PHARMACIA      NLE077999999999666100000000000000000000000000000000000000000000000000000000000
0301008080005110006696PHA11PHARMATEC SPA                                     VIA G. CARDUCCI 35                      20090 TREZZANO S/N, MILANO    ITALIE                                            02-4451894     322101         PHARMATEC      IT    000000000000000000000000000000000000000000000000000000000000000000000000
0301008080005110006742PIE01PIEKE BV                                          Sonneveld 14                  5211 GS   's-Hertogenbosch              NEDERLAND                     218       5201 AE   073-136161                    PIEKE          NL    999999990674200000000000000000000000000000000000000000000000000000000000
0301008080005110006750PLA01PLANTIER LAB                                      AVENUE J-F KENNEDY                      33701 MERIGNAC                FRANKRIJK                                         56-348450      570494         PLANTIER       FR    000000000000000000000000000000000000000000000000000000000000000000000000
0301008080005110006815POE01POEHLMANN                                         NOERFELDSTRASSE 20                      HERDECKE                      DUITSLAND                                         09-492330      7676           POEHLMANN      DE    000000000000000000000000000000000000000000000000000000000000000000000000
0301008080005110006823POH01POHL-BOSKAMP GMBH & CO                            KIELER STRASSE 11                       2214 HOHENLOCKSTEDT           DUITSLAND                                         04826-590      28227          POHL-BOSK      DE    000000000000000000000000000000000000000000000000000000000000000000000000
0301008080005110006858POI01POIERRIE PEDIO                                    Mozartstraat 126              1962 AE   Heemskerk                     NEDERLAND                                         0251-238934                   POIERRIE       NL    999999990685800000000000000000000000000000000000000000000000000000000000
0301008080005110006882POT01POTTER & CLARKE                                   415 LIMPSFIELD ROAD                     CR3 9YS SURREY                VERENIGD KONINKRIJK                                                             POTTER-CL      GB    999999990688200000000000000000000000000000000000000000000000000000000000
0301008080005110006890POV01POVIET                                            Boseind 7                     5281 RM   Boxtel                        NEDERLAND                                         04116-73351                   POVIET         NL    000000000000000000000000000000000000000000000000000000000000000000000000
0301008080005110006904PPW01PPW INTERNATIONAAL BV                             Industrieweg 2                5531 AD   Bladel                        NEDERLAND                                         04977-2111                    PPW INT        NL    999999990690400000000000000000000000000000000000000000000000000000000000
0301008080005110006920PRI01PRINS BV                                          Tinbergenlaan 1               3401 MT   IJsselstein Ut                NEDERLAND                     46        3400 AA   030-2814447    030-2814478    PRINS          NL    999999990692000000000000000000000000000000000000000000000000000000000000
0301008080005110006963PRO04PROCTER & GAMBLE NEDERLAND BV                     Box 43 Weena 505 / 10B        3013 AL   Rotterdam                     NEDERLAND                                         010-7105200    010-2863139    PROCTER        NL    999999999696300000000000000000000000000000000000000000000000000000000000
0301008080005110007005PRO07PROCTER & GAMBLE CO., THE                         *                             OH 45201  CINCINNATI, OHIO              U.S.A.                                                                          PROCT/US       US    999999990700500000000000000000000000000000000000000000000000000000000000
0301008080005110007056REC01RECKITT BENCKISER B.V.                            Siriusdreef 14                2132 WT   Hoofddorp                     NEDERLAND                                         023-5584500    023-5584555    RECKITT        NL    999999999705600000000000000000000000000000000000000000000000000000000000
0301008080005110007072HEI03HEINZ BV                                          Arnhemse Bovenweg 160         3708 AH   Zeist                         NEDERLAND                     217       3700 AE   030-6973700    030-6973701    HEINZ          NL    999999999707200000000000000000000000000000000000000000000000000000000000
0301008080005110007110RHO01RHONE-POULENC RORER BV                            Bijenvlucht 30                3871 JJ   Hoevelaken                    NEDERLAND                     100       3870 CC   033-2533911                   RHONE-POU      NL    999999990711000000000000000000000000000000000000000000000000000000000000
0301008080005110007145RIK01RIKER/3M NEDERLAND BV                             Industrieweg 24               2382 NW   Zoeterwoude                   NEDERLAND                     193       2300 AD   071-450450     39134          RIKER 3M       NL    999999990714500000000000000000000000000000000000000000000000000000000000
0301008080005110007153RIV01RIVM                                              Antonie v Leeuwenhoekln 9     3721 MA   Bilthoven                     NEDERLAND                     1         3720 BA   088-6898989    030-2742971    RIVM           NL    999999999715300000000000000000000000000000000000000000000000000000000000
0301008080005110007196ROC01ROCHE NEDERLAND BV                                Beneluxlaan 2a                3446 GR   Woerden                       NEDERLAND                     44        3440 AA   0348-438000    0348-438001    ROCHE          NL    871154300000700000000000000000000000000000000000000000000000000000000000
0301008080005110007218ROE01ROERIG BV                                         Postbus 8145                  3009 AC   Rotterdam                     NEDERLAND                     8145      3009 AC   010-4217122                   ROERIG         NL    000000000000000000000000000000000000000000000000000000000000000000000000
0301008080005110007226ROH01ROHA WERKE GMBH                                   ROCKWINKELER HEERSTRASSE 100  2800      BREMEN                        DUITSLAND                                         0421-251011    244162         ROHAWERK       DE    000000000000000000000000000000000000000000000000000000000000000000000000
0301008080005110007234ROH02ROHM PHARMA                                       DR-OTTO-ROHM STRASSE 2-4      6108      WEITERSTADT                   DUITSLAND                                         06151-8771                    ROHM           DE    000000000000000000000000000000000000000000000000000000000000000000000000
0301008080005110007250ROO01ROOSTER & ZOON BV                                 Knolweg 1002                  9999 ZZ   Stitswerd                     NEDERLAND                                                                       ROOSTER        NLE023999999990725000000000000000000000000000000000000000000000000000000000000
0301008080005110007269ROP01ROPARKO TEMPO BV                                  Stationsplein 4               3331 LL   Zwijndrecht                   NEDERLAND                     282       3330 AG   078-6124000                   ROPARKO        NL    999999990726900000000000000000000000000000000000000000000000000000000000
0301008080005110007285ROU01ROUSSEL                                           35 BOULEVARD DES INVALIDES              75323 PARIS CEDEX 07          FRANKRIJK                                         1-5559155      200675         ROUSS/F        FR    000000000000000000000000000000000000000000000000000000000000000000000000
0301008080005110007293ROU02ROUSSEL LABORATORIA BV                            Bijenvlucht 30                3871 JJ   Hoevelaken                    NEDERLAND                     100       3870 CC   033-2533911    033-2535017    ROUSSEL        NL    000000000000000000000000000000000000000000000000000000000000000000000000
0301008080005110007374SAN03NOVARTIS PH                                       Haaksbergweg 16               1101 BX   Amsterdam                     NEDERLAND                     22101     1100 CC   088-0452100    026-3782259    NOVARTIS PHARMANL    999999990737400000000000000000000000000000000000000000000000000000000000
0301008080005110007382SAN04KON SANDERS FABRIEKEN                             Industriepark Vliedberg 12    5251 RG   Vlijmen                       NEDERLAND                     30        5250 AA   073-5119102                   SANDERS        NL    999999990738200000000000000000000000000000000000000000000000000000000000
0301008080005110007404TRZ06TRAMEDICO ZELFZORG                                Korte Muiderweg 2             1382 LR   Weesp                         NEDERLAND                                                                       TRAMEDICO ZELFZNL    999999999740400000000000000000000000000000000000000000000000000000000000
0301008080005110007412SAP01SAPOS                                             Bijenvlucht 30                3871 JJ   Hoevelaken                    NEDERLAND                                                                       SAPOS          NL    000000000000000000000000000000000000000000000000000000000000000000000000
0301008080005110007420SYN11SYNTEX BV                                         Limpergstraat 4               2288 AD   Rijswijk Zh                   NEDERLAND                     3171      2280 GD   070-3950041    070-3994689    SYNTEX         NL    999999990742000000000000000000000000000000000000000000000000000000000000
0301008080005110007439SAR02SAREIN LAB                                        65 RUE FALGUIERE                        75015 PARIS                   FRANKRIJK                                         1-3209292                     SAREIN         FR    000000000000000000000000000000000000000000000000000000000000000000000000
0301008080005110007447SAR03SARCO NV                                          Handelsweg 8                  2404 CD   Alphen aan den Rijn           NEDERLAND                                         0172-444341                   SARCO          NL    000000000000000000000000000000000000000000000000000000000000000000000000
0301008080005110007498SCH01SCHERING AG                                       MULLERSTRASSE 170-178         1000      BERLIN                        DUITSLAND                                         030-4681       182030         SCHERI/D       DE    999999990749800000000000000000000000000000000000000000000000000000000000
0301008080005110007501SCH02SCHERING LABORATORIES                             2000 GALLOPING HILL ROAD      NJ 07033  KENILWORTH, NEW JERSEY        U.S.A.                                                                          SCHERI/US      US    000000000000000000000000000000000000000000000000000000000000000000000000
0301008080005110007536SCH04SCHERING NEDERLAND BV                             Van Houten Industriepark 1    1381 MZ   Weesp                         NEDERLAND                     116       1380 AC   0294-462424    0294-418336    SCHERING       NLE094999999999753600000000000000000000000000000000000000000000000000000000000
0301008080005110007552SCH06SCHOLL'S AGENCY HOLLAND                           Prins Hendrikkade 48          1012 AC   Amsterdam                     NEDERLAND                                         020-6236567                   SCHOLL         NL    999999990755200000000000000000000000000000000000000000000000000000000000
0301008080005110007560BRE02BRENNTAG NEDERLAND BV                             Donker Duyvisweg 44           3316 BM   Dordrecht                     NEDERLAND                                         078-6544957                   BRENNTAG       NL    999999999756000000000000000000000000000000000000000000000000000000000000
0301008080005110007579SCH08SCHWARZHAUPT GMBH                                 SACHSENRING 37-47             5000      KOLN                          DUITSLAND                                         0221-33931     8881033        SCHWARZHA      DE    999999990757900000000000000000000000000000000000000000000000000000000000
0301008080005110007587SCH09SCHWABE NEDERLAND BV                              Berenkoog 35                  1822 BH   Alkmaar                       NEDERLAND                                         072-5661122                   SCHWABE        NL    000000000000000000000000000000000000000000000000000000000000000000000000
0301008080005110007617SEA01Searle                                            Houttuinlaan 4                3447 GM   Woerden                       NEDERLAND                     17        3440 AA   0348-494949    0348-494950    SEARLE         NLE078999999990761700000000000000000000000000000000000000000000000000000000000
0301008080005110007641SEB01SCHAPER & BRUMMER                                 BAHNHOFSTRASSE 35             3320      SALZGITTER                    DUITSLAND                                         05341-3070     954448         SCHAP-BRU      DE    000000000000000000000000000000000000000000000000000000000000000000000000
0301008080005110007676SER02SERVIER NEDERLAND FARMA BV                        Kanaalpark 140                2321 JV   Leiden                        NEDERLAND                     672       2300 AR   071-5246700    071-5246777    SERVIER        NL    871242302496000000000000000000000000000000000000000000000000000000000000
0301008080005110007706SET01SETON PRODUCTS LTD                                MEDLOCK STREET                          OL1 3HS OLDHAM, LANCS         VERENIGD KONINKRIJK                               061-6522222                   SETON          GB    000000000000000000000000000000000000000000000000000000000000000000000000
0301008080005110007714MED92MEDTRONIC TRADING NL B.V. EINDHOVEN               Larixplein 4                  5616 VB   Eindhoven                     NEDERLAND                     4148      5604 EC   040-7117612                   MEDTRONIC      NL    999999999771400000000000000000000000000000000000000000000000000000000000
0301008080005110007749SIG01SIGMA CHEMICAL COMPANY                            *                             MO 63178  SAINT LOUIS, MISSOURI         U.S.A.                                                                          SIGMA          US    999999990774900000000000000000000000000000000000000000000000000000000000
0301008080005110007765SIM02SIMES SPA                                         VIA DELLA CHIMICA 9                     37100 VICENZA                 ITALIE                                            0444-565344    331616         SIMES/I        IT    000000000000000000000000000000000000000000000000000000000000000000000000
0301008080005110007781SIN01SINGER NATURA BV                                  Kattegat 4d                   3446 CL   Woerden                       NEDERLAND                                         0348-408702    0348-453834    SINGER         NL    999999999778100000000000000000000000000000000000000000000000000000000000
0301008080005110007803SIR01SIREX                                             Cornelis Schuytstraat 69      1071 JG   Amsterdam                     NEDERLAND                                         020-6722983                   SIREX          NL    000000000000000000000000000000000000000000000000000000000000000000000000
0301008080005110007811SKF01SMITHKLINE BEECHAM FARMA                          Huis Ter Heideweg 62          3705 LZ   Zeist                         NEDERLAND                     780       3700 AT   030-6938100    030-6938471    SMITHKLINE     NLE062999999999781100000000000000000000000000000000000000000000000000000000000
0301008080005110007846SMB01SMB S.A.                                          Herdersliedstraat 26-28                 1080 BRUSSEL                  BELGIE                                            02-5221828                    SMB            BE    000000000000000000000000000000000000000000000000000000000000000000000000
0301008080005110007889SMN02SMITH & NEPHEW Nederland C.V.                     Bloemlaan 2                   2132 NP   Hoofddorp                     NEDERLAND                                         020-6543999    020-6543979    SMITH-NEP      NL    999999999788900000000000000000000000000000000000000000000000000000000000
0301008080005110007927SOP02SOPAR NV                                          RUE DE LA THYLE 3A                      6328 SART DAMES AVELINES      BELGIE                                            071-879191                    SOPAR          BE    000000000000000000000000000000000000000000000000000000000000000000000000
0301008080005110007935SPE01SPECIA                                            16 RUE CLISSON                          75646 PARIS CEDEX 13          FRANKRIJK                                         1-5841133      204814         SPECIA         FR    000000000000000000000000000000000000000000000000000000000000000000000000
0301008080005110007943SPI01SPIPHAR PVBA                                      KROONLAAN 116                           1050 BRUSSEL                  BELGIE                                            02-6490415                    SPIPHAR        BE    000000000000000000000000000000000000000000000000000000000000000000000000
0301008080005110007978SPR01SPRUYT HILLEN BV                                  Venkelbaan 101                2908 KE   Capelle aan den IJssel        NEDERLAND                                         030-2814411    030-2814444    SPRUYT HILLEN BNL    999999999797800000000000000000000000000000000000000000000000000000000000
0301008080005110007986CON10CONVATEC NEDERLAND B.V.                           Papendorpseweg 95-97          3528 BJ   Utrecht                       NEDERLAND                                         0348-436900    0348-434246    CONVATEC       NL    999999999798600000000000000000000000000000000000000000000000000000000000
0301008080005110008028STE02STEPHAR BV                                        Kempkens 2200                 5465 PR   Veghel                        NEDERLAND                                         0180-510444    0180-515163    STEPHAR        NLE061999999999802800000000000000000000000000000000000000000000000000000000000
0301008080005110008036STI03STIEFEL LABORATORIES BV                           Nieuwstraat 1                 2161 PM   Lisse                         NEDERLAND                     285       2160 AG   0252-417222                   STIEFEL        NL    999999990803600000000000000000000000000000000000000000000000000000000000
0301008080005110008044STI02STIEFEL LABORATORIES LEGACY IRELAND LTD           Unit 2 Building 2500 Avenue 20          CORK                          IERLAND                                                                         STIEFEL        IE    000000000000000000000000000000000000000000000000000000000000000000000000
0301008080005110008052MED21MEDI NEDERLAND B.V.                               Heusing 5                     4817 ZB   Breda                         NEDERLAND                                         076-5722555    076-5722565    MEDI NEDERLAND NL    999999990805200000000000000000000000000000000000000000000000000000000000
0301008080005110008079SUB01SUBSTANTIA BV                                     Oderweg 3                     1043 AG   Amsterdam                     NEDERLAND                     8166      1005 AD   020-5873200    020-6135382    SUBSTANTIA     NL    000000000000000000000000000000000000000000000000000000000000000000000000
0301008080005110008095SUM01SUMARI HANDELSOND BV                              Lorentzkade 46                2014 CA   Haarlem                       NEDERLAND                                         023-5241409                   SUMARI         NL    999999990809500000000000000000000000000000000000000000000000000000000000
0301008080005110008117SWA01SWAAB                                             Arendstraat 3                 1223 RE   Hilversum                     NEDERLAND                                         0206246661                    SWAAB          NL    999999990811700000000000000000000000000000000000000000000000000000000000
0301008080005110008168TAK01TAKEDA CHEMICAL INDUSTRIES LTD                    27 DOSHOMACHI 2-CHOME                   541 HIGASHI-KU, OSAKA         JAPAN                                                                           TAKEDA         JP    000000000000000000000000000000000000000000000000000000000000000000000000
0301008080005110008176TAL01TALCUM HANDELSOND                                 Weesperzijde 125              1091 ER   Amsterdam                     NEDERLAND                                         020-6945150                   TALCUM         NL    999999990817600000000000000000000000000000000000000000000000000000000000
0301008080005110008184TAN01TANABE-SEIYAKU                                    21 DOSHOMACHI 3-CHOME                   541 HIGASHI-KU, OSAKA         JAPAN                                                                           TANABE         JP    999999990818400000000000000000000000000000000000000000000000000000000000
0301008080005110008192TEC01TECHNISCH PHARM ONDERNEMING                       Langestraat 61                5038 SC   Tilburg                       NEDERLAND                     22        5000 AA   013-5422512    013-52293      TECHN-PHA      NL    999999990819200000000000000000000000000000000000000000000000000000000000
0301008080005110008214TEM01TEMPUS BV                                         Jan Steenlaan 21              2343 SM   Oegstgeest                    NEDERLAND                                         071-5171932    071-5156609    TEMPUS         NL    999999990821400000000000000000000000000000000000000000000000000000000000
0301008080005110008230HER10HERKEL BV                                         Nobelweg 6                    3899 BN   Zeewolde                      NEDERLAND                     1286      3890 BB   036-5211800    036-5211822    HERKEL         NL    999999999823000000000000000000000000000000000000000000000000000000000000
0301008080005110008249TEN02TENDEM BV                                         Marconistraat 16              3029 AK   Rotterdam                     NEDERLAND                     6014      3002 AA   010-4764566    010-4765953    TENDEM         NL    999999999824900000000000000000000000000000000000000000000000000000000000
0301008080005110008257TER01TERUMO EUROPE NV                                  Interleuvenlaan 40                      B-3001 LEUVEN                 BELGIE                                            0032-16392580  0032-16392599  TERUMO EUROPE NBE    999999999825700000000000000000000000000000000000000000000000000000000000
0301008080005110008273THE08THERAPEUTICON BV                                  Industrieweg 1                5531 AD   Bladel                        NEDERLAND                     23        5530 AA   04977-1833                    THERAPEUTICON  NL    000000000000000000000000000000000000000000000000000000000000000000000000
0301008080005110008354TON01TONNEMA BV                                        Oude Oppenhuizerweg 6         8606 JC   Sneek                         NEDERLAND                     201       8600 AE   0515-414045                   TONNEMA        NL    999999990835400000000000000000000000000000000000000000000000000000000000
0301008080005110008389TOR02LANDMAN-DE TOREN BV                               Rijksweg 81                   1411 GE   Naarden                       NEDERLAND                     5027      1410 AA   035-6943019                   TOREN          NL    000000000000000000000000000000000000000000000000000000000000000000000000
0301008080005110008397TOU01TOUWSLAGER HANDELSONDERNEMING                     Schoenerkade 43               2725 EV   Zoetermeer                    NEDERLAND                     67        2700 AB   079-3418324                   TOUWSLAG       NL    999999990839700000000000000000000000000000000000000000000000000000000000
0301008080005110008400TRA01TRAMEDICO BV                                      Korte Muiderweg 2             1382 LR   Weesp                         NEDERLAND                     192       1380 AD   088-4222000                   TRAMEDICO      NL    999999999840000000000000000000000000000000000000000000000000000000000000
0301008080005110008419BAX02BAXTER BV                                         Kobaltweg 49                  3542 CE   Utrecht                       NEDERLAND                     40327     3504 AC   030-2488911    030-2411755    BAXTER         NLH160999999999841900000000000000000000000000000000000000000000000000000000000
0301008080005110008443UCB01UCB PHARMA BV                                     Hoge Mosten 2                 4822 NH   Breda                         NEDERLAND                                         076-5731140    076-5875264    UCB            NLE115999999999844300000000000000000000000000000000000000000000000000000000000
0301008080005110008451UCB02UCB Pharma S.A.                                   Allee de la Recherche  60               1070 BRUSSEL                  BELGIE                                            02-3430117                    UCB/B          BE    000000000000000000000000000000000000000000000000000000000000000000000000
0301008080005110008494ULC01ULCERPAX NV                                       Wagenstraat 129               2512 AT   Den Haag                      NEDERLAND                                         070-3638803                   ULCERPAX       NL    000000000000000000000000000000000000000000000000000000000000000000000000
0301008080005110008516PIE04PIETERCIL-BARENDS BV                              Jan Leentvaarlaan 38-48       3065 DC   Rotterdam                     NEDERLAND                     8299      3009 AG   010-4479500    010-2022815    PIETERCIL-BAR  NL    999999999851600000000000000000000000000000000000000000000000000000000000
0301008080005110008532UNI04UNI INSTRUMENTEN BV                               Coloradodreef 32              3565 BV   Utrecht                       NEDERLAND                                         030-2623352    030-2624884    UNI INSTR      NL    999999999853200000000000000000000000000000000000000000000000000000000000
0301008080005110008559UPJ01PHARMACIA UPJOHN BV                               Houttuinlaan 4                3447 GM   Woerden                       NEDERLAND                     17        3440 AA   0348-494949    0348-494950    UPJOHN         NL    999999990855900000000000000000000000000000000000000000000000000000000000
0301008080005110008605VDB01VADEBRO                                           Kerklaan 2                    1211 PP   Hilversum                     NEDERLAND                     2497      1200 CL   035-6244671    035-6244672    VADEBRO        NL    999999990860500000000000000000000000000000000000000000000000000000000000
0301008080005110008621VEI01VEIP BV                                           Molenvliet 1                  3961 MT   Wijk Bij Duurstede            NEDERLAND                     50        3960 BB   0343-572244    0343-577104    VEIP           NL    999999990862100000000000000000000000000000000000000000000000000000000000
0301008080005110008648COO01Cooper Consumer Health NL BV                      Verrijn Stuartweg 60          1112 AX   Diemen                        NEDERLAND                                         020-5198300    020-6906435    COOPER         NL    999999999864800000000000000000000000000000000000000000000000000000000000
0301008080005110008664VER02VERWEY NV                                         Koornmarkt 19                 4001 KW   Tiel                          NEDERLAND                                         0344-613953                   VERWEY         NL    999999990866400000000000000000000000000000000000000000000000000000000000
