036000001V per 2 weken                   0110200000010000000200001400000000000000000000000000000
036000002Z per 6 weken                   0110200000010000000200004200000000000000000000000000000
036000003B per 2 maanden                 0110200000010000000200006000000000000000000000000000000
036000004T per 3 maanden                 0110200000010000000200009000000000000000000000000000000
036000005H per half jaar                 0110200000010000000200018250000000000000000000000000000
036000006UHper half uur                  0110200000030000000000000002080000000000000000000000000
036000007U per uur                       0110200000010002000000000004160000000000000000000000000
036000008UTper 2 uur                     0110200000020000000000000008330000000000000000000000000
036000009UDper 3 uur                     0110200000020000000000000012500000000000000000000000000
036000010UVper 4 uur                     0110200000020000000000000016670000000000000000000000000
036000011UQper 5 uur                     0110200000020000000000000020830000000000000000000000000
036000012UZper 6 uur                     0110200000020000000000000025000000000000000000000000000
036000013USper 7 uur                     0110200000020000000000000029160000000000000000000000000
036000014UAper 8 uur                     0110200000020000000000000033330000000000000000000000000
036000015UNper 9 uur                     0110200000020000000000000037500000000000000000000000000
036000016UXper 10 uur                    0110200000020000000000000041670000000000000000000000000
036000017UEper 11 uur                    0110200000030000000000000045830000000000000000000000000
036000018UWper 12 uur                    0110200000020000000000000050000000000000000000000000000
036000019D per dag                       0110200000010002000000000100000000000000000000000000000
036000020K keer                          0110200000010000000200000100000000000000000000000000000
036000021DTper 2 dagen                   0110200000020000000000000200000000000000000000000000000
036000022O om de dag                     0110200000010002000000000200000000000000000000000000000
036000023DDper 3 dagen                   0110200000020000000000000300000000000000000000000000000
036000024DVper 4 dagen                   0110200000020000000000000400000000000000000000000000000
036000025DQper 5 dagen                   0110200000020000000000000500000000000000000000000000000
036000026DZper 6 dagen                   0110200000020000000000000600000000000000000000000000000
036000027W per week                      0110200000010002000000000700000000000000000000000000000
036000028DAper 8 dagen                   0110200000020000000000000800000000000000000000000000000
036000029DNper 9 dagen                   0110200000020000000000000900000000000000000000000000000
036000030DXper 10 dagen                  0110200000020000000000001000000000000000000000000000000
036000031DEper 11 dagen                  0110200000030000000000001100000000000000000000000000000
036000032DWper 12 dagen                  0110200000020000000000001200000000000000000000000000000
036000033WTper 2 weken                   0110200000020000000000001400000000000000000000000000000
036000034WDper 3 weken                   0110200000020000000000002100000000000000000000000000000
036000035WVper 4 weken                   0110200000020000000000002800000000000000000000000000000
036000036M per maand                     0110200000010002000000003050000000000000000000000000000
036000037WQper 5 weken                   0110200000020000000000003500000000000000000000000000000
036000038WZper 6 weken                   0110200000020000000000004200000000000000000000000000000
036000039WSper 7 weken                   0110200000020000000000004900000000000000000000000000000
036000040WAper 8 weken                   0110200000020000000000005600000000000000000000000000000
036000041MTper 2 maanden                 0110200000020000000000006100000000000000000000000000000
036000042WNper 9 weken                   0110200000030000000000006300000000000000000000000000000
036000043WXper 10 weken                  0110200000030000000000007000000000000000000000000000000
036000044WEper 11 weken                  0110200000030000000000007700000000000000000000000000000
036000045WWper 12 weken                  0110200000020000000000008400000000000000000000000000000
036000046MDper 3 maanden                 0110200000020000000000009150000000000000000000000000000
036000047MVper 4 maanden                 0110200000020000000000012200000000000000000000000000000
036000048MQper 5 maanden                 0110200000020000000000015250000000000000000000000000000
036000049WPper 24 weken                  0110200000020000001100016800000000000000000000000000000
036000050JHper half jaar                 0110200000030000000000018250000000000000000000000000000
036000051MZper 6 maanden                 0110200000020000000000018300000000000000000000000000000
036000052MSper 7 maanden                 0110200000030000000000021350000000000000000000000000000
036000053MAper 8 maanden                 0110200000030000000000024400000000000000000000000000000
036000054MNper 9 maanden                 0110200000020000000000027450000000000000000000000000000
036000055MXper 10 maanden                0110200000030000000000030500000000000000000000000000000
036000056MEper 11 maanden                0110200000030000000000033550000000000000000000000000000
036000057J per jaar                      0110200000010002000000036500000000000000000000000000000
036000058MCper 18 maanden                0110200000030000000000054750000000000000000000000000000
036000059JTper 2 jaar                    0110200000030000000000073000000000000000000000000000000
036000060JDper 3 jaar                    0110200000030000000000109500000000000000000000000000000
036000061JVper 4 jaar                    0110200000030000000000146000000000000000000000000000000
036000062JQper 5 jaar                    0110200000030000000000182500000000000000000000000000000
036000063JZper 6 jaar                    0110200000030000000000219000000000000000000000000000000
036000068E eenmalig                      0108201500050006000000000000000000000000000000000000000
036000069JAper 8 jaar                    0104202300090000000000292000000000000000000000000000000
036000099; (nvt/afbr)                    0110200000010000000000000000000000000000000000000000000
