036100001AEaerosol                       aerosols                      011020000001000000080000000000000000000000000000000000000
036100002AIautoinhaler                   autoinhalers                  011020000001000000080000000000000000000000000000000000000
036100003AMampul                         ampullen                      011020000001000000000020000010000002450000000000000000000
036100004AVapplicatorvulling             applicatorvullingen           011020000001001100000020000010000002080000000000000000000
036100005BRbruistablet                   bruistabletten                011020000001000000000020000010000002450000000000000000000
036100006C capsule                       capsules                      011020000001000000000020000010000002450000000000000000000
036100007CDcollodium                     collodium                     011020000001000000080000000000000000000000000000000000000
036100008CEcapsule msr                   capsules msr                  011020000001000300080020000010000002450000000000000000000
036100009CMcentimeter                    centimeter                    011020000001000000000020000010000002050000000000000000000
036100010COeetlepel (1 el = 15 ml)       eetlepels (1 el = 15 ml)      011020000001000300080020000150000002330000000000000000000
036100011CPpaplepel (1 pl = 8 ml)        paplepels (1 pl = 8 ml)       011020000001000300080020000080000002330000000000000000000
036100012CRcreme                         creme                         011020000001000000000000000000000000000000000000000000000
036100013CSstrooipoeder                  strooipoeder                  011020000001000000000000000000000000000000000000000000000
036100014CTtheelepel (1 tl = 3 ml)       theelepels (1 tl = 3 ml)      011020000001000300080020000030000002330000000000000000000
036100015D dragee                        dragees                       011020000001000000000020000010000002450000000000000000000
036100016DEdepper                        deppers                       011020000001000000080020000010000002450000000000000000000
036100017DIdisper                        dispers                       011020000001000500080020000010000002450000000000000000000
036100018DKdrank                         drank                         011020000001000000080000000000000000000000000000000000000
036100019DOdosis                         doses                         011020000001000000000020000010000002080000000000000000000
036100020DRdruppel                       druppels                      011020000001000000000020000010000003030000000000000000000
036100021DUdurette                       durettes                      011020000001000000080020000010000002450000000000000000000
036100022DVdruppelvloeistof              druppelvloeistof              011020000001000000080000000000000000000000000000000000000
036100023DZdoos                          dozen                         011020000001000000080000000000000000000000000000000000000
036100024EHeenheid                       eenheden                      011020000001000000000020000010000002110000000000000000000
036100025ELelixer                        elixer                        011020000001000000080000000000000000000000000000000000000
036100026EMemulsie                       emulsie                       011020000001000000080000000000000000000000000000000000000
036100027EXextract                       extract                       011020000001000000080000000000000000000000000000000000000
036100028FLfles                          flessen                       011020000001000000080020000010000002450000000000000000000
036100029FOfoam                          foam                          011020000001000000080000000000000000000000000000000000000
036100030GAgas                           gas                           011020000001000000080000000000000000000000000000000000000
036100031GEgel                           gel                           011020000001000000000000000000000000000000000000000000000
036100032GIgriepinjectie                 griepinjecties                011020000001000000080020000010000002450000000000000000000
036100033GNgranulaat                     granulaat                     011020000001000000080000000000000000000000000000000000000
036100034GRgram                          gram                          011020000001000000000020000010000002150000000000000000000
036100035GZgaas                          gazen                         011020000001000000000020000010000002450000000000000000000
036100036I inhalatie                     inhalaties                    011020000001000000000020000010000002080000000000000000000
036100037IHinhalator                     inhalators                    011020000001000000080020000010000002450000000000000000000
036100038IJinjectie                      injecties                     011020000001000000000020000010000002450000000000000000000
036100039ILinlegluier                    inlegluiers                   011020000001000300080020000010000002450000000000000000000
036100040IOincont.onderlegger            incont.onderleggers           011020000001000000080020000010000002450000000000000000000
036100041ITintertulle                    intertulles                   011020000001000000080000000000000000000000000000000000000
036100042IUIUD                           IUD                           011020000001001100000020000010000002450000000000000000000
036100043IVinjectievloeistof             injectievloeistof             011020000001000000080000000000000000000000000000000000000
036100044KGkilogram                      kilogram                      011020000001000000080020000010000002190000000000000000000
036100045KLklysma                        klysma's                      011020000001000000000020000010000002450000000000000000000
036100046KOkorrel                        korrels                       011020000001000000000020000010000002450000000000000000000
036100047KRkraal                         kralen                        011020000001000000080020000010000002450000000000000000000
036100048KWkauwgom                       kauwgoms                      011020000001000000000020000010000002450000000000000000000
036100049L liter                         liter                         011020000001000000080020000010000002220000000000000000000
036100050LOlotion                        lotion                        011020000001000000000000000000000000000000000000000000000
036100051LUluier                         luiers                        011020000001000000080020000010000002450000000000000000000
036100052M meter                         meter                         011020000001000000080020000010000002250000000000000000000
036100053MAmaatlepel                     maatlepels                    011020000001000000080000000000000000000000000000000000000
036100054MGmilligram                     milligram                     011020000001000000000020000010000002290000000000000000000
036100055MIminim                         minims                        011020000001000000080020000010000002450000000000000000000
036100056MLmilliliter                    milliliter                    011020000001000000000020000010000002330000000000000000000
036100057MMmillimeter                    millimeter                    011020000001000000080020000010000002340000000000000000000
036100058MTmitis tablet                  mitis tabletten               011020000001000000080020000010000002450000000000000000000
036100059MUmucilago                      mucilago                      011020000001000000080000000000000000000000000000000000000
036100060MXmixtura                       mixtura                       011020000001000000080000000000000000000000000000000000000
036100061NBnebulisator                   nebulisators                  011020000001000000080020000010000002450000000000000000000
036100062NLnaald                         naalden                       011020000001000000080020000010000002450000000000000000000
036100063O oplossing                     oplossing                     011020000001000000000000000000000000000000000000000000000
036100064OGoogdruppel                    oogdruppels                   011020000001000000000020000010000003030000000000000000000
036100065OLolie                          olie                          011020000001000000080000000000000000000000000000000000000
036100066ONonderlegger                   onderleggers                  011020000001000000080020000010000002450000000000000000000
036100067ORoordruppel                    oordruppels                   011020000001000000080020000010000003030000000000000000000
036100068OVovule                         ovules                        011020000001000000000020000010000002450000000000000000000
036100069OWoogwater                      oogwater                      011020000001000000080000000000000000000000000000000000000
036100070OZoogzalf                       oogzalf                       011020000001000000080000000000000000000000000000000000000
036100071P poeder                        poeders                       011020000001000000080020000010000002450000000000000000000
036100072PApasta                         pasta                         011020000001000000080000000000000000000000000000000000000
036100073PEpenfill ampul                 penfill ampullen              011020000001000000080020000010000002450000000000000000000
036100074PFpufje                         pufjes                        011020000001000700000020000010000002080000000000000000000
036100075PIpil                           pillen                        011020000001000000080020000010000002450000000000000000000
036100076PKplak                          plak                          011020000001000000080000000000000000000000000000000000000
036100077PLpleister                      pleisters                     011020000001000000000020000010000002450000000000000000000
036100078PPpipet                         pipetten                      011020000001000000080020000010000002450000000000000000000
036100079R rectiole                      rectioles                     011020000001000000080020000010000002450000000000000000000
036100080RCretard capsule                retard capsules               011020000001000000080020000010000002450000000000000000000
036100081ROrotacap                       rotacaps                      011020000001000000080020000010000002450000000000000000000
036100082RPrepetab                       repetabs                      011020000001000000080020000010000002450000000000000000000
036100083RTretard tablet                 retard tabletten              011020000001000000080020000010000002450000000000000000000
036100084S zetpil                        zetpillen                     011020000001000000000020000010000002450000000000000000000
036100085SAsachet                        sachets                       011020000001000000000020000010000002450000000000000000000
036100086SFsiroop forte                  siroop forte                  011020000001000000080000000000000000000000000000000000000
036100087SHshampoo                       shampoo                       011020000001000000000000000000000000000000000000000000000
036100088SIsiroop                        siroop                        011020000001000000080000000000000000000000000000000000000
036100089SKstuk                          stuks                         011020000001000000000020000010000002450000000000000000000
036100090QQonbekend                      onbekend                      011020000003000000080000000000000000000000000000000000000
036100091SLslijm                         slijm                         011020000001000000080000000000000000000000000000000000000
036100092SMsmeersel                      smeersel                      011020000001000000080000000000000000000000000000000000000
036100093SNspuit en naald                spuiten en naalden            011020000001000000080020000010000002450000000000000000000
036100094SOsolutio                       solutio                       011020000001000000080000000000000000000000000000000000000
036100095SPspray                         sprays                        011020000001000800000020000010000002080000000000000000000
036100096SRspacer                        spacers                       011020000001000000080000000000000000000000000000000000000
036100097STstrip                         strips                        011020000001000000080020000010000004900000000000000000000
036100098SUsuspensie                     suspensie                     011020000001000000080000000000000000000000000000000000000
036100099XXoverig                        overig                        011020000003000000080000000000000000000000000000000000000
036100100T tablet                        tabletten                     011020000001000000000020000010000002450000000000000000000
036100101TBturbuhaler                    turbuhalers                   011020000001000000080020000010000002450000000000000000000
036100102TDtransdermaalpleister          transdermaalpleisters         011020000001000000080020000010000002450000000000000000000
036100103TEtablet msr                    tabletten msr                 011020000001000300080020000010000002450000000000000000000
036100104TItinctuur                      tinctuur                      011020000001000000080000000000000000000000000000000000000
036100105TPtampon                        tampons                       011020000001000000080020000010000002450000000000000000000
036100106TUtube                          tubes                         011020000001000000080000000000000000000000000000000000000
036100107UGmicrogram                     microgram                     011020000001000000000020000010000002520000000000000000000
036100108ULmicroliter                    microliter                    011020000001000000080020000010000002540000000000000000000
036100109URurotainer                     urotainers                    011020000001000000080020000010000002450000000000000000000
036100110VBverband                       verbanden                     011020000001000000080020000010000002450000000000000000000
036100111VCvaginale creme                vaginale creme                011020000001000000080000000000000000000000000000000000000
036100112VEvetcreme                      vetcreme                      011020000001000000080000000000000000000000000000000000000
036100113VOvaginaalovule                 vaginaalovules                011020000001000000080020000010000002450000000000000000000
036100114VPverpakking                    verpakkingen                  011020000001000000080020000010000004900000000000000000000
036100115VSvaginaalspoeling              vaginaalspoeling              011020000001000000080000000000000000000000000000000000000
036100116VTvaginaaltablet                vaginaaltabletten             011020000001000000080020000010000002450000000000000000000
036100117VZvetzalf                       vetzalf                       011020000001000000080000000000000000000000000000000000000
036100118WAwassing                       wassingen                     011020000001000000080000000000000000000000000000000000000
036100119WTwat                           watten                        011020000001000000080000000000000000000000000000000000000
036100120WWwegwerpspuit                  wegwerpspuiten                011020000001000000080020000010000002450000000000000000000
036100121Z zakje                         zakjes                        011020000001000000000020000010000002450000000000000000000
036100122ZAzalf                          zalf                          011020000001000000000000000000000000000000000000000000000
036100123ZEzeep                          zeep                          011020000001000000080000000000000000000000000000000000000
036100124ZUzuigtablet                    zuigtabletten                 011020000001000000080020000010000002450000000000000000000
036100125TAtablet mga                    tabletten mga                 011020000003000000080020000010000002450000000000000000000
036100126CAcapsule mga                   capsules mga                  011020000003000000080020000010000002450000000000000000000
036100127VUverstuiving                   verstuivingen                 010620040005000000000020000010000002080000000000000000000
036100128FTfinger tip unit               finger tip units              010320200008000000000020000005000002150000000000000000000
036100129PBpompbeweging                  pompbewegingen                010320200008001100000020000010000002080000000000000000000
036100999; (nvt/afbr)                    (nvt/afbr)                    011020000001000000000000000000000000000000000000000000000
