036200001GNALCGebruik geen alcohol bij dit middel      0110200000020000000000000000000000000000000000000000000000000000000010000
036200002ALCO Pas op met alcohol                       0110200000020000000000000000000000000000000000000000000000000000000010000
036200003VPBW In deze verpakking bewaren               0110200000020000000000000000000000000000000000000000000000000000000010000
036200006BIJT Pas op: bijtend middel                   0110200000020000000000000000000000000000000000000000000000000000000010000
036200007ZONUVFelle zon en UVlamp op de huid vermijden 0110200000020003000000000000000000000000000000000000000000000000000010000
036200008HELD Alleen gebruiken indien helder           0110200000020000000000000000000000000000000000000000000000000000000010000
036200009HAWA Na gebruik handen wassen                 0110200000020000000000000000000000000000000000000000000000000000000010000
036200010FKVD Goed fijnkauwen voor het doorslikken     0110200000020000000000000000000000000000000000000000000000000000000010000
036200011HEEL Heel doorslikken, niet kauwen            0110200000020000000000000000000000000000000000000000000000000000000010000
036200012KUUR Kuur afmaken                             0110200000020000000000000000000000000000000000000000000000000000000010000
036200013MWNMMMet water innemen, niet met melk         0110200000020000000000000000000000000000000000000000000000000000000010000
036200014OMS  Omschudden vlak voor gebruik             0110200000020004000000000000000000000000000000000000000000000000000010000
036200015GNVOEBij gebruik geen voertuigen besturen     0110200000020000000600000000000000000000000000000000000000000000000010000
036200016RIJV Kan het reactievermogen verminderen      0110200000020003000000000000000000000000000000000000000000000000000010000
036200017ZSW  Zittend of staand innemen met veel water 0110200000020000000000000000000000000000000000000000000000000000000010000
036200018BLEEKPas op: werkt blekend op haar en kleding 0110200000020000000000000000000000000000000000000000000000000000000010000
036200019VERKLKan de urine of stoelgang verkleuren     0110200000020000000000000000000000000000000000000000000000000000000010000
036200020VLEK Maakt vlekken op kleding en linnengoed   0110200000020000000000000000000000000000000000000000000000000000000010000
036200021HVE  Ten minste een half uur VOOR het eten    0110200000020003000000000000000000000000000000000000000000000000000010000
036200022TNE  TIJDENS of vlak NA het eten innemen      0110200000020003000000000000000000000000000000000000000000000000000010000
036200023TWM  TIJDENS de warme maaltijd innemen        0110200000020003000000000000000000000000000000000000000000000000000010000
036200024NEMA Bij maagklachten NA het eten innemen     0110200000020003000000000000000000000000000000000000000000000000000010000
036200025VUUR Pas op met vuur                          0110200000020000000000000000000000000000000000000000000000000000000010000
036200026VEVO Innemen met veel vocht                   0110200000020000000000000000000000000000000000000000000000000000000010000
036200027OPLW Eerst oplossen in water                  0110200000020000000000000000000000000000000000000000000000000000000010000
036200028UIEW Eerst uiteen laten vallen in water       0110200000020000000000000000000000000000000000000000000000000000000010000
036200029HB1W Na openen 1 week houdbaar                0110200000020000000000000000000000000000000000000000000000000000000010000
036200030HB2W Na openen 2 weken houdbaar               0110200000020000000000000000000000000000000000000000000000000000000010000
036200031HB1M Na openen 1 maand houdbaar               0110200000020003000000000000000000000000000000000000000000000000000010000
036200032KOELKIn de koelkast bewaren (2-8 C)           0110200000020005000000000000000000000000000000000000000000000000000010000
036200033MM   Innemen met melk                         0110200000010003000600000000000000000000000000000000000000000000000010000
036200034HVEV Bij voorkeur een half uur VOOR het eten  0110200000020003000000000000000000000000000000000000000000000000000010000
036200035TE   TIJDENS het eten innemen                 0110200000020003000000000000000000000000000000000000000000000000000010000
036200036HB2M Na openen 2 maanden houdbaar             0110200000020000000000000000000000000000000000000000000000000000000010000
036200037HB3M Na openen 3 maanden houdbaar             0110200000020000000000000000000000000000000000000000000000000000000010000
036200038HB6M Na openen 6 maanden houdbaar             0110200000020000000000000000000000000000000000000000000000000000000010000
036200039HB1J Na openen 1 jaar houdbaar                0110200000020000000000000000000000000000000000000000000000000000000010000
036200040KOEL Koel bewaren (8-15 C)                    0110200000020003000000000000000000000000000000000000000000000000000010000
036200041KAMERBij kamertemperatuur bewaren (15-25 C)   0110200000020003000000000000000000000000000000000000000000000000000010000
036200042UIGD Let op de uiterste gebruiksdatum         0110200000020000000600000000000000000000000000000000000000000000000010000
036200043HB24UNa openen 24 uur houdbaar                0110200000020000000000000000000000000000000000000000000000000000000010000
036200044HB6W Na openen 6 weken houdbaar               0110200000020000000000000000000000000000000000000000000000000000000010000
036200045OMR  Omroeren voor gebruik                    0110200000020000000000000000000000000000000000000000000000000000000010000
036200046DONKRBewaar in het donker                     0110200000020003000000000000000000000000000000000000000000000000000010000
036200047HB3J Na openen 3 jaar houdbaar                0110200000020000000000000000000000000000000000000000000000000000000010000
036200048LICHTBewaar in het licht                      0110200000020003000000000000000000000000000000000000000000000000000010000
036200049DROOGDroog bewaren                            0110200000020000000600000000000000000000000000000000000000000000000010000
036200050ZOLA Zo lang gebruiken als arts voorschrijft  0110200000020000000000000000000000000000000000000000000000000000000000000
036200051VVE  Vlak VOOR het eten innemen               0110200000020003000000000000000000000000000000000000000000000000000010000
036200052KFV  Kauwen of fijngemaakt met vocht innemen  0110200000020000000000000000000000000000000000000000000000000000000010000
036200053DIEPVIn de vriezer bewaren (beneden -15 C)    0110200000020005000000000000000000000000000000000000000000000000000010000
036200054HB10DNa openen 10 dagen houdbaar              0110200000020000000000000000000000000000000000000000000000000000000010000
036200055AVI  's Avonds innemen                        0110200000020011000000000000000000000000000000000000000000000000000010000
036200056MX4PDNiet meer dan 4 per 24 uur               0110200000020000000000000000000000000000000000000000000000000000000010000
036200057MX8PWNiet meer dan 8 per week                 0110200000020000000600000000000000000000000000000000000000000000000010000
036200058MX2PDNiet meer dan 2 per 24 uur               0110200000020000000000000000000000000000000000000000000000000000000010000
036200059MX4PWNiet meer dan 4 per week                 0110200000020000000000000000000000000000000000000000000000000000000010000
036200060MX5DGNiet langer dan 5 dagen achtereen gebr.  0110200000020005000000000000000000000000000000000000000000000000000010000
036200061ALCMAPas op met alcohol i.v.m. maagklachten   0110200000020000000000000000000000000000000000000000000000000000000010000
036200062DABR Dun op de huid aanbrengen                0110200000020000000000000000000000000000000000000000000000000000000000000
036200063CONTLLet op: beschadigt zachte contactlenzen  0110200000020000000000000000000000000000000000000000000000000000000010000
036200064GVT  Gebruik volgens schema trombosedienst    0110200000020009000000000000000000000000000000000000000000000000000000000
036200065HVOI Ten minste half uur VOOR ontbijt innemen 0110200000020004000000000000000000000000000000000000000000000000000010000
0362000662V2NN2 uur voor en 2 uur na innemen niet eten 0110200000020000000000000000000000000000000000000000000000000000000010000
036200067OTSM Tablet ONDER de tong laten oplossen      0110200000020004000000000000000000000000000000000000000000000000000010000
036200068GORGUGorgelen, daarna uitspugen               0110200000020000000000000000000000000000000000000000000000000000000010000
036200069SPU  Mond spoelen, daarna uitspugen           0110200000020000000000000000000000000000000000000000000000000000000010000
036200070OPZL Langzaam opzuigen                        0110200000020005000000000000000000000000000000000000000000000000000010000
036200071INHM Ter inhalatie via de mond                0110200000020000000000000000000000000000000000000000000000000000000010000
036200072INHN Ter inhalatie via de neus                0110200000020000000000000000000000000000000000000000000000000000000010000
036200073STOM Tot 20 druppels op 1 l heet water stomen 0110200000010003000600000000000000000000000000000000000000000000000000000
036200074NGMS Na gebruik mond spoelen                  0110200000020000000000000000000000000000000000000000000000000000000010000
036200075LTEMPOp lichaamstemperatuur brengen voor gebr 0110200000020000000000000000000000000000000000000000000000000000000010000
0362000762V1NN2 uur voor en 1 uur na innemen niet eten 0110200000020000000000000000000000000000000000000000000000000000000010000
036200077SMELTOp de tong laten smelten, wegslikken     0110200000020000000000000000000000000000000000000000000000000000000010000
036200078VTE  Kort voor of tijdens het eten            0110200000020003000000000000000000000000000000000000000000000000000010000
0362000791V1NN1 uur voor en 1 uur na innemen niet eten 0110200000020000000600000000000000000000000000000000000000000000000010000
036200080HB1D Na openen 1 dag houdbaar                 0110200000020000000000000000000000000000000000000000000000000000000010000
0362000811VE  Ten minste 1 uur VOOR het eten innemen   0110200000020003000000000000000000000000000000000000000000000000000010000
03620008210%WW100 ml op 1 liter handwarm water         0110200000020000000600000000000000000000000000000000000000000000000010000
036200083PLZONPleister niet aan zonlicht blootstellen  0110200000020000000000000000000000000000000000000000000000000000000010000
0362000841V2NE1 uur voor of 2 uur na het eten innemen  0110200000020000000000000000000000000000000000000000000000000000000010000
036200085VOI  VOOR het ontbijt innemen                 0110200000020003000600000000000000000000000000000000000000000000000010000
036200086MM200In de beker goed mengen met 200 ml water 0110200000020003000600000000000000000000000000000000000000000000000010000
036200087SR150Op 150 ml vloeistof strooien, doorroeren 0110200000020003000000000000000000000000000000000000000000000000000010000
036200088HB1DRHoudbaar tot 1 dag na ref.tijdstip       0110200000020003000000000000000000000000000000000000000000000000000010000
036200089HB3DRHoudbaar tot 3 dagen na ref.tijdstip     0110200000020003000000000000000000000000000000000000000000000000000010000
036200090HB4DRHoudbaar tot 4 dagen na ref.tijdstip     0110200000020003000000000000000000000000000000000000000000000000000010000
036200091HB5DRHoudbaar tot 5 dagen na ref.tijdstip     0110200000020003000600000000000000000000000000000000000000000000000010000
036200092HB4WRHoudbaar tot 28 dagen na ref.tijdstip    0110200000020003000000000000000000000000000000000000000000000000000010000
036200093HB2MRHoudbaar tot 2 maanden na ref.tijdstip   0110200000020003000000000000000000000000000000000000000000000000000010000
036200094HB8ULNa labelen 8 uur houdbaar                0110200000020005000000000000000000000000000000000000000000000000000010000
036200095MEWZVEerst mengen met water of zacht voedsel  0110200000020000000600000000000000000000000000000000000000000000000010000
036200096HB3MSNa aanbreken strip 3 maanden houdbaar    0110200000020000000600000000000000000000000000000000000000000000000010000
03620009715MVETen minste 15 minuten VOOR het eten      0110200000020003000000000000000000000000000000000000000000000000000010000
036200098KOEEGIn koelkast bewaren na eerste gebruik    0110200000020000000000000000000000000000000000000000000000000000000010000
036200099HB7DRHoudbaar tot 7 dagen na ref.tijdstip     0110200000020003000000000000000000000000000000000000000000000000000010000
036200100HB4ULNa labelen 4 uur houdbaar                0110200000020005000000000000000000000000000000000000000000000000000010000
036200101KAMNLNa labelen bij kamertemperatuur bewaren  0110200000020005000000000000000000000000000000000000000000000000000010000
036200102KOENLNa labelen in koelkast bewaren           0110200000020005000000000000000000000000000000000000000000000000000010000
036200103KOEVMVoor merken in koelkast bewaren          0110200000020005000600000000000000000000000000000000000000000000000010000
03620010420SMDca 20 sec in de mond houden, doorslikken 0110200000020003000000000000000000000000000000000000000000000000000010000
0362001051UNNEGedurende 1 uur na innemen niet eten     0110200000020003000000000000000000000000000000000000000000000000000010000
036200106HB9DRHoudbaar tot 9 dagen na ref.tijdstip     0110200000020003000000000000000000000000000000000000000000000000000010000
036200107ELB8UEluaat binnen 8 uur gebruiken            0110200000020000000000000000000000000000000000000000000000000000000010000
036200108GRAPEBij dit middel GEEN grapefruit(sap) gebr.0110200000030005000000000000000000000000000000000000000000000000000010000
036200109TE1U TIJDENS het eten of binnen 1 uur erna    0110200000030000000000000000000000000000000000000000000000000000000010000
036200110VERKMKan metaal verkleuren (bril, sieraden)   0110200000030000000000000000000000000000000000000000000000000000000010000
036200111VGOMZVoor gebruik ten minste 10x omzwenken    0110200000030000000000000000000000000000000000000000000000000000000010000
036200112HB12UNa openen 12 uur houdbaar (in koelkast)  0110200000030000000000000000000000000000000000000000000000000000000010000
036200113HBK2WBuiten koelkast max. 14 dagen houdbaar   0110200000030000000000000000000000000000000000000000000000000000000010000
036200114T1UVOTen minste 1 uur VOOR het ontbijt        0110200000030000000000000000000000000000000000000000000000000000000010000
036200115HB6ULNa labelen 6 uur houdbaar                0110200000030005000000000000000000000000000000000000000000000000000010000
036200116HBHULNa labelen 30 minuten houdbaar           0110200000030005000000000000000000000000000000000000000000000000000010000
036200117HB4M Na openen 4 maanden houdbaar             0110200000030000000000000000000000000000000000000000000000000000000010000
036200118HB1UMNa labelen 1 uur houdbaar (volume 4 ml)  0110200000030005000600000000000000000000000000000000000000000000000010000
036200119HB41LNa labelen 4 uur houdbaar (volume 10 ml) 0110200000030005000600000000000000000000000000000000000000000000000010000
036200120HBK3MBuiten koelkast max. 3 maanden houdbaar  0110200000030000000000000000000000000000000000000000000000000000000010000
036200121ELB10Eluaat binnen 10 uur gebruiken           0110200000030000000000000000000000000000000000000000000000000000000010000
036200122HB2WRHoudbaar tot 14 dagen na ref.tijdstip    0110200000030000000000000000000000000000000000000000000000000000000010000
036200123HB15RHoudbaar tot 15 dagen na ref.tijdstip    0110200000030000000600000000000000000000000000000000000000000000000010000
036200124COIGDCapsule mag open,korrels heel doorslikken0110200000030004000000000000000000000000000000000000000000000000000010000
036200125HVHNEEen half uur voor of na het eten innemen 0110200000030000000600000000000000000000000000000000000000000000000010000
0362001261VHN 1 uur voor of half uur na eten innemen   0110200000030000000600000000000000000000000000000000000000000000000010000
036200127HB3MRHoudbaar tot 3 maanden na ref.tijdstip   0110200000030000000600000000000000000000000000000000000000000000000010000
036200128HB20RHoudbaar tot 20 uur na ref.tijdstip      0110200000030000000000000000000000000000000000000000000000000000000010000
036200129HB36RHoudbaar tot 36 uur na ref.tijdstip      0110200000030000000000000000000000000000000000000000000000000000000010000
036200130HB12KHoudbaar tot 12 uur na ref.tijdstip      0110200000030000000000000000000000000000000000000000000000000000000010000
036200131HB23RHoudbaar tot 23 uur na ref.tijdstip      0110200000030000000600000000000000000000000000000000000000000000000010000
036200132NOB6UNa ontdooien binnen 6 uur gebruiken      0110200000030000000000000000000000000000000000000000000000000000000010000
036200133HB3UMNa labelen 3 uur houdbaar                0110200000030005000600000000000000000000000000000000000000000000000010000
036200134HB3MONa openen van zakje 3 maanden houdbaar   0110200000030000000600000000000000000000000000000000000000000000000010000
036200135HB1JKIn koelkast 1 jaar houdbaar              0110200000030000000000000000000000000000000000000000000000000000000010000
036200136HB6MTBij kamertemperatuur 6 maanden houdbaar  0110200000030000000000000000000000000000000000000000000000000000000010000
036200137BLEKLPas op: bleekt kleding en linnengoed     0110200000030000000000000000000000000000000000000000000000000000000010000
036200138RECHORechtop bewaren                          0110200000030000000000000000000000000000000000000000000000000000000010000
036200139ND15M15 min. voor en na gebruik niet drinken  0110200000030000000000000000000000000000000000000000000000000000000010000
036200140NKW  Niet kauwen                              0110200000030000000600000000000000000000000000000000000000000000000010000
036200141AVBM 's Avonds innemen bij de maaltijd        0110200000030011000000000000000000000000000000000000000000000000000010000
036200142HB12LNa labelen 12 uur houdbaar               0110200000030005000000000000000000000000000000000000000000000000000010000
036200143H12WRHoudbaar tot 12 weken na ref.tijdstip    0110200000030000000000000000000000000000000000000000000000000000000010000
036200144HB8DRHoudbaar tot 8 dagen na ref.tijdstip     0110200000030000000600000000000000000000000000000000000000000000000010000
036200145ONKOEOnaangebroken: in koelkast bewaren       0110200000030000000000000000000000000000000000000000000000000000000010000
036200146NOKAMNa openen: bij kamertemperatuur bewaren  0110200000030000000000000000000000000000000000000000000000000000000010000
036200147KOKABKoel of bij kamertemp. bewaren (8-25 C)  0110200000030000000000000000000000000000000000000000000000000000000010000
036200148HB26RHoudbaar 2-6 weken na ref.tijdstip       0110200000030000000600000000000000000000000000000000000000000000000010000
036200149H10DRHoudbaar tot 10 dagen na ref.tijdstip    0110200000030000000600000000000000000000000000000000000000000000000010000
036200150HB8U Na openen 8 uur houdbaar                 0110200000030000000600000000000000000000000000000000000000000000000010000
036200151H32URHoudbaar tot 32 uur na ref.tijdstip      0110200000030000000600000000000000000000000000000000000000000000000010000
036200152H10MLNa labelen 10 min houdbaar               0110200000030005000000000000000000000000000000000000000000000000000010000
036200153H21DRHoudbaar tot 21 dagen na ref.tijdstip    0110200000030000000000000000000000000000000000000000000000000000000010000
036200154LUCHTLuchtbel niet verwijderen                0110200000030000000000000000000000000000000000000000000000000000000010000
036200155NOB5UNa ontdooien 5 uur houdbaar              0110200000030000000600000000000000000000000000000000000000000000000010000
036200156IJS1UIn droog ijs tot 1 uur voor gebruik      0110200000030000000000000000000000000000000000000000000000000000000010000
036200157H8WR Houdbaar tot 8 weken na ref.tijdstip     0110200000030000000600000000000000000000000000000000000000000000000010000
0362001582NNE Ten minste 2 uur na innemen niet eten    0110200000030000000600000000000000000000000000000000000000000000000010000
036200159NUCHTInnemen op nuchtere maag                 0110200000030000000000000000000000000000000000000000000000000000000010000
036200160H2DR Houdbaar tot 2 dagen na ref.tijdstip     0110200000030000000000000000000000000000000000000000000000000000000010000
036200161HBK4WBuiten koelkast max. 4 weken houdbaar    0110200000030000000000000000000000000000000000000000000000000000000010000
036200162H8UR Houdbaar tot 8 uur na ref.tijdstip       0110200000030000000600000000000000000000000000000000000000000000000010000
036200163HB4W Na openen 4 weken houdbaar               0110200000030000000000000000000000000000000000000000000000000000000010000
036200164NOPKONa oplossen in de koelkast bewaren       0110200000030000000000000000000000000000000000000000000000000000000010000
036200165NO48UNa oplossen 48 uur houdbaar              0110200000030000000600000000000000000000000000000000000000000000000010000
036200166HB48UNa openen 48 uur houdbaar                0110200000030000000000000000000000000000000000000000000000000000000010000
036200167INMA Innemen na de maaltijd                   0110200000030000000600000000000000000000000000000000000000000000000010000
036200168HBK30Buiten koelkast max. 30 dagen houdbaar   0110200000030000000000000000000000000000000000000000000000000000000010000
036200169VGMROVoor gebruik mengen door te rollen       0110200000030000000000000000000000000000000000000000000000000000000010000
036200170NO4U Na oplossen 4 uur houdbaar               0110200000030000000600000000000000000000000000000000000000000000000010000
036200171NOB36Na ontdooien binnen 36 uur gebruiken     0103200200040000000600000000000000000000000000000000000000000000000010000
036200172HB12 Na openen 12 uur houdbaar                0104200200040000000600000000000000000000000000000000000000000000000010000
036200173MEWMPGemengd met water of melkproduct innemen 0104200200040000000600000000000000000000000000000000000000000000000010000
036200174H6UMNNa mengen 6 uur houdbaar                 0104200200040000000600000000000000000000000000000000000000000000000010000
0362001751VWM 1 uur voor de warme maaltijd innemen     0104200200040000000000000000000000000000000000000000000000000000000010000
036200176HB1DANa aanbreken 1 dag houdbaar              0104200200040000000600000000000000000000000000000000000000000000000010000
036200177HB4DKNa openen 4 dagen houdbaar (in koelkast) 0104200200040000000600000000000000000000000000000000000000000000000010000
036200178HBK24Buiten koelkast max. 24 uur houdbaar     0104200200040000000000000000000000000000000000000000000000000000000010000
036200179BHNE Binnen 30 minuten na het eten innemen    0104200200040000000000000000000000000000000000000000000000000000000010000
036200180WTAPSWater toevoegen aan poeder, schudden     0104200200040000000000000000000000000000000000000000000000000000000010000
036200181HBK6WBuiten koelkast max. 6 weken houdbaar    0104200200040000000000000000000000000000000000000000000000000000000010000
036200182HB6WRHoudbaar tot 6 weken na ref.tijdstip     0104200200040000000000000000000000000000000000000000000000000000000010000
036200183VDIGWDosis verdunnen in een glas water        0104200200040000000000000000000000000000000000000000000000000000000010000
036200184VG1VDVoor gebruik 1:1 verdunnen met water     0104200200040000000000000000000000000000000000000000000000000000000010000
036200185NO4W Na oplossen 4 weken houdbaar in koelkast 0104200200040000000000000000000000000000000000000000000000000000000010000
036200186HBK7DBuiten koelkast max. 7 dagen houdbaar    0104200200040000000000000000000000000000000000000000000000000000000010000
036200187O2V2NOf 2 uur voor/na lunch/avondeten innemen 0104200200040000000000000000000000000000000000000000000000000000000010000
036200188OHVO Of ten minste een half uur voor ontbijt  0104200200040000000000000000000000000000000000000000000000000000000010000
036200189VGKAMVoor gebruik op kamertemperatuur brengen 0104200200040000000000000000000000000000000000000000000000000000000010000
036200190HBK3DBuiten koelkast max. 3 dagen houdbaar    0104200200040000000000000000000000000000000000000000000000000000000010000
036200191HBK5DBuiten koelkast max. 5 dagen houdbaar    0104200200040000000600000000000000000000000000000000000000000000000010000
036200192HB3W Na openen 3 weken houdbaar               0104200200040000000000000000000000000000000000000000000000000000000010000
036200193TBFGMDe tablet mag worden fijngemalen         0104200200040000000000000000000000000000000000000000000000000000000010000
036200194OPLKMOplosm. bij kamertemp. bewaren (15-25 C) 0104200200040000000600000000000000000000000000000000000000000000000010000
036200195MVOE Innemen met wat voedsel                  0104200200040000000000000000000000000000000000000000000000000000000010000
036200196IMSMDIn de mond laten smelten, doorslikken    0104200200040000000600000000000000000000000000000000000000000000000010000
036200197HV1UNHalf uur voor of 1 uur na eten innemen   0104200200040000000600000000000000000000000000000000000000000000000010000
036200198VGOMKVoor gebruik flacon enkele malen omkeren 0105200200040000000000000000000000000000000000000000000000000000000010000
036200199HB24KNa openen 24 uur houdbaar (in koelkast)  0110200200040000000000000000000000000000000000000000000000000000000010000
036200200BHNL Binnen 30 min. na inname niet gaan liggen0102200300040000000000000000000000000000000000000000000000000000000010000
036200201HB4MA4 maanden houdbaar                       0102200300040000000000000000000000000000000000000000000000000000000010000
036200202H24DRHoudbaar tot 24 dagen na ref.tijdstip    0109200300040000000000000000000000000000000000000000000000000000000010000
036200203HB7W Na openen 7 weken houdbaar               0110200300040000000000000000000000000000000000000000000000000000000010000
036200204VIES Heel doorslikken i.v.m. vieze smaak      0103200400040000000600000000000000000000000000000000000000000000000010000
0362002051VEV Bij voorkeur 1 uur voor het eten innemen 0103200400040000000000000000000000000000000000000000000000000000000010000
036200206MOI  's Morgens innemen                       0103200400040000000000000000000000000000000000000000000000000000000010000
036200207HB8W Na openen 8 weken houdbaar               0110200300050000000000000000000000000000000000000000000000000000000010000
036200208HEEV Bij voorkeur heel doorslikken            0111200400050000000600000000000000000000000000000000000000000000000010000
036200209BUNL Binnen 60 min. na inname niet gaan liggen0103200500050000000000000000000000000000000000000000000000000000000010000
036200210MX2PWNiet meer dan 2 per week                 0105200500050000000600000000000000000000000000000000000000000000000010000
036200211HB6WTBij kamertemperatuur 6 weken houdbaar    0106200500050000000000000000000000000000000000000000000000000000000010000
036200212AVT  's Avonds toedienen                      0106200500050011000000000000000000000000000000000000000000000000000010000
036200213HB5W Na openen 5 weken houdbaar               0107200600050000000000000000000000000000000000000000000000000000000010000
036200214MOT  's Morgens toedienen                     0110200600050000000600000000000000000000000000000000000000000000000010000
036200215HB5ULNa labelen 5 uur houdbaar                0104200700050000000600000000000000000000000000000000000000000000000010000
036200216MX12UNiet langer dan 12 uur per dag toepassen 0106200700050000000000000000000000000000000000000000000000000000000010000
036200217B1UVEBinnen 1 uur voor het eten inspuiten     0110200700050000000000000000000000000000000000000000000000000000000010000
036200218MEEDRGemengd met eten of drinken innemen      0111200700050000000000000000000000000000000000000000000000000000000010000
036200219KUURSKan kuur met stopperiode(s) zijn         0102200800050000000000000000000000000000000000000000000000000000000010000
036200220MVITCHierbij max. 200 mg/dag vit. C toegestaan0102200800050000000000000000000000000000000000000000000000000000000010000
036200221KVKNEKort voor of kort na het eten            0102200800050000000000000000000000000000000000000000000000000000000010000
036200222LVGB Lees voor gebruik de bijsluiter          0106200800050000000000000000000000000000000000000000000000000000000010000
036200223HB25DNa openen 25 dagen houdbaar              0106200800050000000600000000000000000000000000000000000000000000000010000
0362002241V1NE1 uur voor of 1 uur na het eten innemen  0107200900050000000000000000000000000000000000000000000000000000000010000
036200225GRAPFPas op met grapefruit, zie Apotheek.nl   0107200900050010000000000000000000000000000000000000000000000000000010000
036200226BRP1WBij reuma/psoriasis 1xper wk op vaste dag0109200900050000000000000000000000000000000000000000000000000000000010000
036200227HBT  Houdbaar tot augustus 2010               0111200900050000000600000000000000000000000000000000000000000000000010000
036200228HB2J Na openen 2 jaar houdbaar                0112200900050000000000000000000000000000000000000000000000000000000010000
036200229MX2W Niet langer dan 2 weken gebruiken        0104201000050000000000000000000000000000000000000000000000000000000010000
036200230HNE  Een half uur na het eten innemen         0106201000050000000000000000000000000000000000000000000000000000000010000
036200231HB1WANa aansluiten 1 week houdbaar            0111201000050000000000000000000000000000000000000000000000000000000010000
036200232HB7M Na openen 7 maanden houdbaar             0111201000050000000000000000000000000000000000000000000000000000000010000
036200233KOMS Krachtig omschudden vlak voor gebruik    0102201100050000000000000000000000000000000000000000000000000000000010000
036200234KOEVRIn de koelkast of in de vriezer bewaren  0103201100050000000000000000000000000000000000000000000000000000000010000
036200235HB2WTBij kamertemperatuur 2 weken houdbaar    0112201100050000000000000000000000000000000000000000000000000000000010000
036200236HBK2MBuiten koelkast max. 2 maanden houdbaar  0104201200050000000000000000000000000000000000000000000000000000000010000
036200237KORHEKorrels heel doorslikken, niet kauwen    0104201200050000000000000000000000000000000000000000000000000000000010000
036200238NO6U Na oplossen 6 uur houdbaar               0104201200050000000000000000000000000000000000000000000000000000000010000
036200239NOB48Na ontdooien binnen 48 uur gebruiken     0111201200050000000000000000000000000000000000000000000000000000000010000
0362002403V3NN3 uur voor en 3 uur na innemen niet eten 0108201200050000000000000000000000000000000000000000000000000000000010000
036200241HB5D Na openen 5 dagen houdbaar               0111201200050000000000000000000000000000000000000000000000000000000010000
036200242ZUIV Niet met zuivel innemen, zie bijsluiter  0102201300050000000000000000000000000000000000000000000000000000000010000
036200243NOB72Na ontdooien binnen 72 uur gebruiken     0102201300050000000000000000000000000000000000000000000000000000000010000
036200244CITR Pas op met citrusfruit, zie Apotheek.nl  0102201300050010000000000000000000000000000000000000000000000000000010000
036200245HBBIJNa openen beperkt houdbaar,zie bijsluiter0104201300050000000000000000000000000000000000000000000000000000000010000
0362002461V2NN1 uur voor en 2 uur na innemen niet eten 0102201500050000000000000000000000000000000000000000000000000000000010000
036200247HB9MTBij kamertemperatuur 9 maanden houdbaar  0107201500050000000000000000000000000000000000000000000000000000000010000
036200248BREEKIndien nodig breken langs breukstreep    0110201500060000000000000000000000000000000000000000000000000000000010000
036200249TABHETabletdelen heel doorslikken             0110201500060000000000000000000000000000000000000000000000000000000010000
036200250B1UNEBinnen 1 uur na het eten innemen         0101201700070000000000000000000000000000000000000000000000000000000010000
036200251HB3D Na openen 3 dagen houdbaar               0104201800080000000000000000000000000000000000000000000000000000000010000
036200252WANNAWanneer levodopa innemen? Zie Apotheek.nl0104201800080000000000000000000000000000000000000000000000000000000010000
036200253HBK4DBuiten koelkast max. 4 dagen houdbaar    0104201900080000000000000000000000000000000000000000000000000000000010000
0362010015-25 5e tot 25e dag van de cyclus             0110200000010007000000000000000000000000000000000000000000000000000000000
03620100210-2510e tot 25e dag van de cyclus            0110200000010002000600000000000000000000000000000000000000000000000000000
03620100316-2516e tot 25e dag van de cyclus            0110200000010002000000000000000000000000000000000000000000000000000000000
03620100419-2519e tot 25e dag van de cyclus            0110200000010002000000000000000000000000000000000000000000000000000000000
0362010051V2NM1 uur voor of 2 uur na de maaltijd       0110200000010002000600000000000000000000000000000000000000000000000010000
0362010061VMN 1 uur voor de maaltijd en voor de nacht  0110200000010002000600000000000000000000000000000000000000000000000010000
0362010071VMW 1 uur voor de maaltijd met water         0110200000010002000600000000000000000000000000000000000000000000000010000
0362010081NM  1 uur na de maaltijd                     0110200000010000000600000000000000000000000000000000000000000000000010000
0362010091VI  1 uur voor de ingreep                    0110200000010000000600000000000000000000000000000000000000000000000000000
0362010101VM  1 uur voor de maaltijd                   0110200000010000000600000000000000000000000000000000000000000000000010000
036201011N1WH na 1 week herhalen                       0110200000010002000000000000000000000000000000000000000000000000000000000
0362010122DVME2 dagen voor de menstruatie beginnen     0110200000010002000600000000000000000000000000000000000000000000000000000
0362010132V2NM2 uur voor of 2 uur na de maaltijd       0110200000010002000600000000000000000000000000000000000000000000000010000
0362010142VI  2 uur voor de ingreep                    0110200000010000000600000000000000000000000000000000000000000000000000000
036201015N2WH na 2 weken herhalen                      0110200000010002000000000000000000000000000000000000000000000000000000000
0362010163DVME3 dagen voor de menstruatie beginnen     0110200000010002000000000000000000000000000000000000000000000000000000000
0362010176VR  6 uur voor de reis aanbrengen            0110200000010000000000000000000000000000000000000000000000000000000000000
036201018ABR  aanbrengen                               0110200000010000000000000000000000000000000000000000000000000000000000000
036201019AFS  volgende maal afspraak maken             0110200000010000000000000000000000000000000000000000000000000000000010000
036201020AST  aanstippen                               0110200000010000000000000000000000000000000000000000000000000000000010000
036201021AV   's avonds                                0110200000010007000000000000000000000000000000000000000000000000000010000
036201022BAV  bij een aanval                           0110200000010000000000000000000000000000000000000000000000000000000000000
036201023BB   bij benauwd zijn                         0110200000010012000000000000000000000000000000000000000000000000000000000
036201024BDI  bij diarree                              0110200000010003000000000000000000000000000000000000000000000000000000000
036201025BO   bij het ontbijt                          0110200000010000000600000000000000000000000000000000000000000000000010000
036201026IBOG in beide ogen                            0110200000010002000000000000000000000000000000000000000000000000000020000
036201027IBOR in beide oren                            0110200000010002000000000000000000000000000000000000000000000000000020000
036201028BP   bij pijn                                 0110200000010000000000000000000000000000000000000000000000000000000000000
036201029COL  met 1 druppel bedekken, laten drogen     0110200000010000000000000000000000000000000000000000000000000000000010000
036201030NDEF na de ontlasting                         0110200000010002000000000000000000000000000000000000000000000000000000000
036201031DEP  deppen                                   0110200000010000000000000000000000000000000000000000000000000000000010000
036201032DOX  1e dag 2, daarna 1 maal daags 1          0110200000010000000000000100000000000100000000000100000000000200000010000
036201033DUN  dun aanbrengen                           0110200000010000000600000000000000000000000000000000000000000000000000000
036201034FK   goed fijnkauwen                          0110200000010000000600000000000000000000000000000000000000000000000010000
036201035GB   gebruik bekend                           0110200000010000000000000000000000000000000000000000000000000000000000000
036201036GOR  gorgelen                                 0110200000010000000600000000000000000000000000000000000000000000000010000
036201037GRI  griepinjectie                            0110200000010000000600000100000000000100000000000100000000000100000010000
036201038GVB  gebruik volgens aanwijzingen bijsluiter  0110200000010000000000000000000000000000000000000000000000000000000000000
036201039GVH  gebruik volgens aanwijzingen huisarts    0110200000010000000000000000000000000000000000000000000000000000000000000
036201040GWI  in zijn geheel met water innemen         0110200000010000000600000000000000000000000000000000000000000000000010000
036201041HAA  in de haren en op de hoofdhuid           0110200000010000000000000000000000000000000000000000000000000000000010000
036201042HMN  een half uur voor de maaltijd en de nacht0110200000010002000600000000000000000000000000000000000000000000000010000
036201043HOO  op de hoofdhuid                          0110200000010000000000000000000000000000000000000000000000000000000010000
036201044HUI  op de huid                               0110200000010000000000000000000000000000000000000000000000000000000010000
036201045HVM  een half uur voor de maaltijd            0110200000010002000600000000000000000000000000000000000000000000000010000
036201046HVO  een half uur voor het ontbijt            0110200000010002000000000000000000000000000000000000000000000000000010000
036201047HVS  een half uur voor 't slapen              0110200000010002000600000000000000000000000000000000000000000000000010000
036201048ING  in het aangedane neusgat                 0110200000010002000600000000000000000000000000000000000000000000000010000
036201049IBNO in beide neusgaten hoog opsnuiven        0110200000010002000000000000000000000000000000000000000000000000000020000
036201050IBN  in beide neusgaten                       0110200000010002000000000000000000000000000000000000000000000000000020000
036201051IHB  in het badwater                          0110200000010000000000000000000000000000000000000000000000000000000010000
036201052IM   voor i.m. injectie                       0110200000010000000000000000000000000000000000000000000000000000000010000
036201053IMM  aan de huisarts afgeven                  0110200000010000000000000000000000000000000000000000000000000000000010000
036201054INH  inhaleren                                0110200000010000000000000000000000000000000000000000000000000000000010000
036201055INJ  injecteren                               0110200000010000000600000000000000000000000000000000000000000000000010000
036201056INM  inmasseren                               0110200000010000000000000000000000000000000000000000000000000000000000000
036201057INS  insmeren                                 0110200000010000000000000000000000000000000000000000000000000000000000000
036201058INW  inwrijven                                0110200000010000000600000000000000000000000000000000000000000000000000000
036201059IV   intraveneus injecteren                   0110200000010000000000000000000000000000000000000000000000000000000010000
036201060IVA  in vernevelapparaat                      0110200000010000000000000000000000000000000000000000000000000000000010000
036201061IWO  in water oplossen                        0110200000010000000600000000000000000000000000000000000000000000000010000
036201062KUURMkuur: medicijnen opgebruiken!            0110200000010002000600000000000000000000000000000000000000000000000010000
036201063ILOG in het linker oog                        0110200000010002000000000000000000000000000000000000000000000000000010000
036201064ILOR in het linker oor                        0110200000010002000000000000000000000000000000000000000000000000000010000
036201065MEA  's middags en 's avonds                  0110200000020000000000000200000000000200000000000000000000000000000010000
036201066MI   's middags                               0110200000010000000000000100000000000100000000000000000000000000000010000
0362010671NMFK1 uur na de maaltijd, goed fijnkauwen    0110200000010002000600000000000000000000000000000000000000000000000010000
036201068MO   's morgens                               0110200000010007000000000000000000000000000000000000000000000000000010000
036201069MX10Wniet meer dan 10 per week                0110200000010002000000000000000000000000000000000000000000000000000010000
036201070MX5PWniet meer dan 5 per week                 0110200000010002000600000000000000000000000000000000000000000000000010000
036201071MW   met water innemen                        0110200000010000000000000000000000000000000000000000000000000000000010000
036201072MXE  Maximaal 6 mg ergotamine per dag         0110200000010003000600000000000000000000000000000000000000000000000010000
036201073NM   na de maaltijd                           0110200000010000000000000000000000000000000000000000000000000000000010000
036201074NMI  na de maaltijd innemen                   0110200000010000000600000000000000000000000000000000000000000000000010000
036201075NMM  niet met melk innemen                    0110200000010000000600000000000000000000000000000000000000000000000010000
036201076NNU  niet op lege maag innemen                0110200000010000000600000000000000000000000000000000000000000000000010000
036201077NO   na het ontbijt                           0110200000010000000000000000000000000000000000000000000000000000000010000
036201078NOW  na het ontbijt met water innemen         0110200000010000000600000000000000000000000000000000000000000000000010000
036201079NU   nuchter (voor het ontbijt) innemen       0110200000010000000600000000000000000000000000000000000000000000000010000
036201080O2U  om de 2 uur                              0110200000010000000600001200000000001200000000000000000000000000000010000
036201081O3U  om de 3 uur                              0110200000010000000600000800000000000800000000000000000000000000000010000
036201082O4U  om de 4 uur                              0110200000010000000600000600000000000600000000000000000000000000000010000
036201083O5U  om de 5 uur                              0110200000010000000600000500000000000500000000000000000000000000000010000
036201084O6U  om de 6 uur                              0110200000010000000600000400000000000400000000000000000000000000000010000
036201085O8U  om de 8 uur                              0110200000010000000600000300000000000300000000000000000000000000000010000
036201086OCC  onder occlusie                           0110200000010000000600000000000000000000000000000000000000000000000010000
036201087OEA  's ochtends en 's avonds                 0110200000010000000000000200000000000200000000000000000000000000000010000
036201088OPOL op het ooglid aanbrengen                 0110200000010005000000000000000000000000000000000000000000000000000010000
036201089IOG  in het aangedane oog                     0110200000010007000000000000000000000000000000000000000000000000000010000
036201090ONOL onder het ooglid aanbrengen              0110200000010002000000000000000000000000000000000000000000000000000010000
036201091IOR  in het aangedane oor                     0110200000010007000000000000000000000000000000000000000000000000000010000
036201092OPK  opkauwen                                 0110200000010000000600000000000000000000000000000000000000000000000010000
036201093OPL  oplossen                                 0110200000010000000600000000000000000000000000000000000000000000000010000
036201094OPS  opsnuiven                                0110200000010000000600000000000000000000000000000000000000000000000010000
036201095OPZ  opzuigen                                 0110200000010000000600000000000000000000000000000000000000000000000010000
036201096OT   onder de tong                            0110200000010007000000000000000000000000000000000000000000000000000010000
036201097O12U om de 12 uur                             0110200000010002000600000200000000000200000000000000000000000000000010000
036201098OVT  op vast tijdstip                         0110200000010000000000000000000000000000000000000000000000000000000010000
036201099OPLWLoplossen in water of limonade            0110200000010002000000000000000000000000000000000000000000000000000010000
036201100OMRWMomroeren in water, melk of sap           0110200000010002000600000000000000000000000000000000000000000000000010000
036201101PENS met penseel aanbrengen                   0110200000010002000600000000000000000000000000000000000000000000000000000
036201102R    rectaal inbrengen                        0110200000010002000000000000000000000000000000000000000000000000000010000
036201103RET  rood etiket                              0110200000010000000600000000000000000000000000000000000000000000000010000
036201104RIW  rechtop innemen met ruim water           0110200000010000000600000000000000000000000000000000000000000000000010000
036201105IROG in het rechter oog                       0110200000010002000000000000000000000000000000000000000000000000000010000
036201106IROR in het rechter oor                       0110200000010002000000000000000000000000000000000000000000000000000010000
036201107IRN  in het rechter neusgat                   0110200000020000000000000000000000000000000000000000000000000000000010000
036201108SCM  sine confectione et monitione            0110200000010000000600000000000000000000000000000000000000000000000010000
036201109SP   spoelen                                  0110200000010000000600000000000000000000000000000000000000000000000010000
036201110SPD  spoelen en doorslikken                   0110200000010000000600000000000000000000000000000000000000000000000010000
036201111SPV  specialistisch voorschrift               0110200000010000000000000000000000000000000000000000000000000000000010000
036201112ILN  in het linker neusgat                    0110200000020000000000000000000000000000000000000000000000000000000010000
036201113TM   tijdens de maaltijd                      0110200000010000000600000000000000000000000000000000000000000000000010000
036201114TMMM tijdens de maaltijd met melk innemen     0110200000010002000600000000000000000000000000000000000000000000000010000
036201115TNM  tijdens of na de maaltijd                0110200000010000000600000000000000000000000000000000000000000000000010000
036201116TUM  tussen de maaltijden door                0110200000010000000600000000000000000000000000000000000000000000000010000
036201117TVM  20 minuten voor de maaltijd              0110200000010000000600000000000000000000000000000000000000000000000010000
036201118UG   voor uitwendig gebruik                   0110200000010007000000000000000000000000000000000000000000000000000010000
036201119UIT  niet meer gebruiken; uit de handel!      0110200000010000000600000000000000000000000000000000000000000000000010000
036201120VAG  vaginaal aanbrengen                      0110200000010000000000000000000000000000000000000000000000000000000010000
036201121BJ   bij jeuk                                 0110200000020000000000000000000000000000000000000000000000000000000000000
036201122VEX  voor het examen                          0110200000010003000000000000000000000000000000000000000000000000000000000
036201123VAGD diep vaginaal inbrengen                  0110200000010002000000000000000000000000000000000000000000000000000010000
036201124IG   voor inwendig gebruik                    0110200000010002000600000000000000000000000000000000000000000000000010000
036201125VIH  volgens instructies huisarts             0110200000010000000600000000000000000000000000000000000000000000000000000
036201126VIN  voor de ingreep                          0110200000010000000000000000000000000000000000000000000000000000000000000
036201127VM   voor de maaltijd                         0110200000010000000000000000000000000000000000000000000000000000000010000
036201128VN   voor de nacht                            0110200000010007000000000000000000000000000000000000000000000000000010000
036201129VO   voor het ontbijt                         0110200000010000000600000000000000000000000000000000000000000000000010000
036201130VS   voor het slapen                          0110200000010000000000000000000000000000000000000000000000000000000010000
036201131GVSCHgebruik volgens schema                   0110200000020000000000000000000000000000000000000000000000000000000000000
036201132VST  verstuiven                               0110200000010000000600000000000000000000000000000000000000000000000010000
036201133GVS  gebruik volgens voorschrift specialist   0110200000010002000000000000000000000000000000000000000000000000000000000
036201134WAS  mee wassen                               0110200000010002000600000000000000000000000000000000000000000000000010000
036201135NOFK na het ontbijt, goed fijnkauwen          0110200000010002000600000000000000000000000000000000000000000000000010000
036201136ZNDI zo nodig bij diarree                     0110200000010002000600000000000000000000000000000000000000000000000000000
036201137ZN   zo nodig                                 0110200000010000000000000000000000000000000000000000000000000000000000000
036201138ZNH  zo nodig bij hoest                       0110200000010000000600000000000000000000000000000000000000000000000000000
036201139ZNN  zo nodig bij nervositeit                 0110200000010000000600000000000000000000000000000000000000000000000000000
036201140ZNP  zo nodig bij pijn                        0110200000010000000600000000000000000000000000000000000000000000000000000
036201141ZNVN zo nodig voor de nacht                   0110200000010002000600000000000000000000000000000000000000000000000000000
036201142ZNVS zo nodig voor het slapen                 0110200000010002000600000000000000000000000000000000000000000000000000000
036201143ABRPLop de plekjes aanbrengen                 0110200000020000000600000000000000000000000000000000000000000000000000000
036201144BHP  bij hoofdpijn                            0110200000020000000000000000000000000000000000000000000000000000000000000
036201145BK   bij koorts                               0110200000020000000000000000000000000000000000000000000000000000000000000
036201146BHK  bij hoge koorts                          0110200000020000000000000000000000000000000000000000000000000000000000000
036201147BKP  bij koorts en/of pijn                    0110200000020000000000000000000000000000000000000000000000000000000000000
036201148INBR inbrengen                                0110200000020000000600000000000000000000000000000000000000000000000010000
036201149LUI  bij iedere luierwisseling                0110200000020000000000000000000000000000000000000000000000000000000000000
036201150MMD  meermalen daags                          0110200000020000000600000000000000000000000000000000000000000000000000000
036201151MWV  maandag, woensdag en vrijdag             0110200000020000000000000000000000000100000000000000000000000000000010000
036201152GNB  gebruik naar behoefte                    0110200000020000000600000000000000000000000000000000000000000000000000000
036201153NMMMYniet met melk, maag- of ijzermed. innemen0110200000020000000600000000000000000000000000000000000000000000000010000
036201154OEM  's ochtends en 's middags                0110200000020000000000000200000000000200000000000000000000000000000010000
036201155SPRAYsprayen                                  0110200000020000000600000000000000000000000000000000000000000000000010000
036201156SC   voor s.c. injectie                       0110200000020000000000000000000000000000000000000000000000000000000010000
036201157TO   tijdens het ontbijt                      0110200000020007000000000000000000000000000000000000000000000000000010000
036201158VMMANVOOR de maaltijd; bij maagklachten NA m. 0110200000020003000600000000000000000000000000000000000000000000000010000
036201159DAZA dagzalf/-creme                           0110200000020000000000000000000000000000000000000000000000000000000000000
036201160NAZA nachtzalf/-creme                         0110200000020000000000000000000000000000000000000000000000000000000010000
0362011610-1-21 's middags, 2 's avonds                0110200000020000000000000200000000000200000000000100000000000200000010000
0362011620-1-H1 's middags, 1/2 's avonds              0110200000020003000000000200000000000200000000000050000000000100000010000
0362011630-2-12 's middags, 1 's avonds                0110200000020000000000000200000000000200000000000100000000000200000010000
0362011640-H-11/2 's middags, 1 's avonds              0110200000020003000000000200000000000200000000000050000000000100000010000
0362011651-0-21 's morgens, 2 's avonds                0110200000020000000000000200000000000200000000000100000000000200000010000
0362011661-0-H1 's morgens, 1/2 's avonds              0110200000020003000000000200000000000200000000000050000000000100000010000
0362011671-1-21 's morgens, 1 's middags, 2 's avonds  0110200000020000000000000300000000000300000000000100000000000200000010000
0362011681-1-H1 's morgens, 1 's middags, 1/2 's avonds0110200000020003000000000300000000000300000000000050000000000100000010000
0362011691-2-01 's morgens, 2 's middags               0110200000020000000000000200000000000200000000000100000000000200000010000
0362011701-2-11 's morgens, 2 's middags, 1 's avonds  0110200000020000000000000300000000000300000000000100000000000200000010000
0362011711-2-21 's morgens, 2 's middags, 2 's avonds  0110200000020000000000000300000000000300000000000100000000000200000010000
0362011721-H-01 's morgens, 1/2 's middags             0110200000020003000000000200000000000200000000000050000000000100000010000
0362011731-H-11 's morgens, 1/2 's middags, 1 's avonds0110200000020003000000000300000000000300000000000050000000000100000010000
0362011741-H-21 's morgens, 1/2 's middags, 2 's avonds0110200000020003000000000300000000000300000000000050000000000200000010000
0362011751-H-H1 's morgens 1/2 's middags 1/2 's avonds0110200000020003000000000300000000000300000000000050000000000100000010000
0362011762-0-12 's morgens, 1 's avonds                0110200000020000000000000200000000000200000000000100000000000200000010000
0362011772-0-32 's morgens, 3 's avonds                0110200000020000000000000200000000000200000000000200000000000300000010000
0362011782-0-H2 's morgens, 1/2 's avonds              0110200000020003000000000200000000000200000000000050000000000200000010000
0362011792-1-02 's morgens, 1 's middags               0110200000020000000000000200000000000200000000000100000000000200000010000
0362011802-1-12 's morgens, 1 's middags, 1 's avonds  0110200000020000000000000300000000000300000000000100000000000200000010000
0362011812-1-H2 's morgens, 1 's middags, 1/2 's avonds0110200000020003000000000300000000000300000000000050000000000200000010000
0362011822-1-22 's morgens, 1 's middags, 2 's avonds  0110200000020000000000000300000000000300000000000100000000000200000010000
0362011832-2-12 's morgens, 2 's middags, 1 's avonds  0110200000020000000000000300000000000300000000000100000000000200000010000
036201184H-0-11/2 's morgens, 1 's avonds              0110200000020003000000000200000000000200000000000050000000000100000010000
036201185H-0-21/2 's morgens, 2 's avonds              0110200000020003000000000200000000000200000000000050000000000200000010000
036201186H-1-01/2 's morgens, 1 's middags             0110200000020003000000000200000000000200000000000050000000000100000010000
036201187H-1-11/2 's morgens, 1 's middags, 1 's avonds0110200000020003000000000300000000000300000000000050000000000100000010000
036201188H-1-21/2 's morgens, 1 's middags, 2 's avonds0110200000020003000000000300000000000300000000000050000000000200000010000
036201189H-H-11/2 's morgens 1/2 's middags 1 's avonds0110200000020003000000000300000000000300000000000050000000000100000010000
036201190H-H-21/2 's morgens 1/2 's middags 2 's avonds0110200000020003000000000300000000000300000000000050000000000200000010000
036201191333223 dagen 3, 2 dagen 2, daarna 1 per dag   0110200000020000000600000100000000000100000000000100000000000300000010000
036201192543211e dag 5, 2e dag 4, 3e dag 3, enz.       0110200000020000000600000100000000000100000000000100000000000500000010000
036201193321111e dag 3, 2e dag 2, dan 1 maal daags 1 t.0110200000020000000600000100000000000100000000000100000000000300000010000
036201194ZNBJ zo nodig bij jeuk                        0110200000020000000600000000000000000000000000000000000000000000000000000
036201195211111e dag 2, daarna 1 maal daags 1          0110200000020000000600000100000000000100000000000100000000000200000010000
0362011961W1D1in de eerste week 1 maal daags 1         0110200000020000000000000000000000000000000000000000000000000000000000000
036201197NAE  na het avondeten                         0110200000020000000600000000000000000000000000000000000000000000000010000
036201198OEVN 's ochtends en voor de nacht             0110200000020000000000000200000000000200000000000000000000000000000010000
0362011993D12N3 maal daags 1, 2 voor de nacht          0110200000020000000000000400000000000400000000000100000000000200000010000
0362012003DH1N3 maal daags 1/2, 1 voor de nacht        0110200000020003000000000400000000000400000000000050000000000100000010000
036201201HVZONeen half uur voor zonnebaden aanbrengen  0110200000020000000000000000000000000000000000000000000000000000000010000
036201202221112 dagen 2 per dag, daarna 1 per dag      0110200000020000000000000100000000000100000000000100000000000200000010000
0362012031W3WHgedurende 1 week; na 3 weken herhalen    0110200000020000000600000000000000000000000000000000000000000000000000000
0362012042Z2U12 tegelijk, daarna zo nodig om de 2 uur 10110200000020000000000000100000000001200000000000100000000000200000000000
036201205MX8PDniet meer dan 8 per dag                  0110200000020000000600000000000000000000000000000000000000000000000010000
0362012061WVA Ten minste 1 week voor aankomst beginnen 0110200000020000000600000000000000000000000000000000000000000000000000000
0362012074WNV nog 4 weken na vertrek doorgebruiken     0110200000020000000600000000000000000000000000000000000000000000000000000
0362012082NTU2nu 2, na 12 uur weer 2                   0110200000020003000600000200000000000200000000000200000000000200000010000
0362012091N2WH1 nu, na 14 dagen herhalen               0110200000020000000000000000000000000100000000000100000000000100000010000
0362012103D3WH3 dagen; eventueel na 3 weken herhalen   0110200000020000000000000000000000000000000000000000000000000000000000000
0362012111W2D in de eerste week 2 dagen achtereen      0110200000020000000600000000000000000000000000000000000000000000000000000
0362012122WT3M2e wk t/m 3e mnd bij voll. borstvoeding  0110200000020000000600000000000000000000000000000000000000000000000000000
036201213135VE1e, 3e en 5e dag 1 capsule, voor het eten0110200000020000000600000000000000000100000000000100000000000100000010000
036201214LAXNKfors laxeren 1-2 uur na de kuur          0110200000020000000000000000000000000000000000000000000000000000000010000
0362012153WVA 3 weken voor aankomst beginnen           0110200000020000000600000000000000000000000000000000000000000000000000000
0362012163N8U2beginnen met 3 nu, na 8 uur 2            0110200000020000000600000200000000000200000000000200000000000300000010000
036201217MX12Dniet meer dan 12 per 24 uur              0110200000020000000600000000000000000000000000000000000000000000000010000
036201218BMAAGbij maagklachten staken                  0110200000020000000000000000000000000000000000000000000000000000000010000
036201219GVV  gebruik volgens aanwijzing verloskundige 0110200000020000000000000000000000000000000000000000000000000000000000000
036201220GVTA gebruik volgens aanwijzingen tandarts    0110200000020000000000000000000000000000000000000000000000000000000000000
036201221DDZ  op dinsdag, donderdag en zaterdag        0110200000020000000000000000000000000100000000000000000000000000000010000
0362012221KDUBeerste maal een dubbele dosis            0110200000020000000000000000000000000000000000000000000000000000000010000
0362012231WDUBeerste week de dubbele dosering          0110200000020000000600000000000000000000000000000000000000000000000000000
0362012241WHALeerste week de halve dosering            0110200000020000000600000000000000000000000000000000000000000000000000000
0362012253W1WSgedurende 3 weken, daarna 1 week stoppen 0110200000020000000000000000000000000000000000000000000000000000000000000
03620122612WVM1-2 weken voor de verwachte menstruatie  0110200000020000000600000000000000000000000000000000000000000000000000000
0362012272EWK de tweede week                           0110200000020003001100000000000000000000000000000000000000000000000000000
0362012283EWK de derde week                            0110200000020003001100000000000000000000000000000000000000000000000000000
036201229N2WVTna twee weken verhogen tot               0110200000020000000600000000000000000000000000000000000000000000000000000
036201230N2WCOna twee weken controle                   0110200000020000000000000000000000000000000000000000000000000000000010000
036201231BVEVTbij voldoende effect dosis verlagen tot  0110200000020000000600000000000000000000000000000000000000000000000000000
036201232BVEDVbij voldoende effect dosering verlagen   0110200000020000000600000000000000000000000000000000000000000000000000000
036201233DAARNdaarna                                   0110200000020000000600000000000000000000000000000000000000000000000000000
036201234N4812na 4, 8 en 12 dagen telkens verhogen met 0110200000020000000600000000000000000000000000000000000000000000000000000
036201235PWVHTper week verhogen tot effect met         0110200000020000000600000000000000000000000000000000000000000000000000000
036201236ZN5MHzo nodig om de 5 minuten herhalen        0110200000020000000000000000000000000000000000000000000000000000000000000
036201237ZMNEDzo mogelijk na enkele dagen              0110200000020000000600000000000000000000000000000000000000000000000000000
036201238BEKVTbij ernstige klachten verhogen tot       0110200000020000000600000000000000000000000000000000000000000000000000000
03620123915-2515e tot 25e dag van de cyclus            0110200000020000000600000000000000000000000000000000000000000000000000000
0362012406UNAB6 uur na het antibioticum                0110200000020000000600000000000000000000000000000000000000000000000010000
036201241MX6U maximaal 6 uur tussentijd!               0110200000020000000000000000000000000000000000000000000000000000000010000
036201242OF   of                                       0110200000020000000600000000000000000000000000000000000000000000000000000
0362012431WDANgedurende 1 week, daarna                 0110200000020000000600000000000000000000000000000000000000000000000000000
036201244PW1VHper week verhogen met 1 per dag tot max. 0110200000020000000600000000000000000000000000000000000000000000000000000
036201245MAP  zo spoedig mogelijk; max 72 uur na coitus0110200000020005000000000000000000000000000000000000000000000000000000000
0362012461EADAeerste avond, daarna                     0110200000020000000600000000000000000000000000000000000000000000000000000
036201247BGMEObeginnen als de metronidazol op is       0110200000020000000600000000000000000000000000000000000000000000000000000
0362012481EDAVeerste dosis 's avonds innemen           0110200000020000000000000000000000000000000000000000000000000000000010000
036201249VMINTverminderen tot                          0110200000020000000600000000000000000000000000000000000000000000000000000
036201250BVEMTbij voldoende effect verminderen tot     0110200000020000000600000000000000000000000000000000000000000000000000000
036201251PD2M per dag dosering met 2 stuks verminderen 0110200000020000000600000000000000000000000000000000000000000000000000000
0362012523DNH voortzetten tot 3 dagen na herstel       0110200000020000000000000000000000000000000000000000000000000000000000000
036201253NIDEFen na iedere ontlasting                  0110200000020007000000000000000000000000000000000000000000000000000000000
036201254N5D  na 5 dagen                               0110200000020000000600000000000000000000000000000000000000000000000000000
03620125532DAN2e dag 3, 3e dag 2, daarna               0110200000020000000600000100000000000100000000000200000000000300000000000
036201256ZNKHHzo nodig na een kwartier herhalen        0110200000020000000000000000000000000000000000000000000000000000000000000
036201257NH48Una herstel nog 48 uur voortzetten        0110200000020000000000000000000000000000000000000000000000000000000000000
036201258MX10Dniet langer dan 10 dagen gebruiken       0110200000020000000000000000000000000000000000000000000000000000000010000
0362012592ED2D2e dag 2 maal daags 1, daarna            0110200000020000000600000000000000000000000000000000000000000000000000000
0362012601EDDAde eerste dag, daarna                    0110200000020000000600000000000000000000000000000000000000000000000000000
0362012611:1KEin spuit 1:1 mengen met Kenacort A-10    0110200000020000000600000000000000000000000000000000000000000000000010000
036201262EV1W eventueel na 1 week                      0110200000020000000600000000000000000000000000000000000000000000000000000
036201263EV1WVeventueel na 1 week verhogen tot         0110200000020000000600000000000000000000000000000000000000000000000000000
036201264HV6UN30-60 minuten voor de ingreep, 6 uur erna0110200000020000000600000000000000000000000000000000000000000000000010000
0362012652W2WDgedurende 2 weken, daarna 2 weken        0110200000020000000600000000000000000000000000000000000000000000000000000
03620126615MVI15 minuten voor de inspanning            0110200000020003000000000000000000000000000000000000000000000000000000000
036201267N3D  na 3 dagen                               0110200000020000000600000000000000000000000000000000000000000000000000000
036201268MINT verminderen tot                          0110200000020000000600000000000000000000000000000000000000000000000000000
036201269ZN1WHzo nodig na 1 week herhalen              0110200000020000000000000000000000000000000000000000000000000000000000000
036201270BVBT bij verbetering                          0110200000020000000600000000000000000000000000000000000000000000000000000
036201271BVSL bij verslechtering                       0110200000020000000600000000000000000000000000000000000000000000000000000
0362012721W3WSgedurende 1 week, daarna 3 weken stoppen 0110200000020000000000000000000000000000000000000000000000000000000000000
0362012733D   gedurende 3 dagen                        0110200000020000000000000000000000000000000000000000000000000000000000000
0362012742D2DDgedurende 2 dagen, daarna 2 dagen        0110200000020000000600000000000000000000000000000000000000000000000000000
0362012751ED1Mde eerste dag, daarna elke dag 1 minder  0110200000020000000600000000000000000000000000000000000000000000000000000
0362012761EWK de eerste week                           0110200000030000001100000000000000000000000000000000000000000000000000000
0362012794EWK de vierde week                           0110200000030000001100000000000000000000000000000000000000000000000000000
0362012805EWK de vijfde week                           0110200000030000001100000000000000000000000000000000000000000000000000000
036201281HH1  1 maal herhalen                          0110200000030000000000000000000000000000000000000000000000000000000000000
036201282HH2  2 maal herhalen                          0110200000030000000000000000000000000000000000000000000000000000000000000
036201283HH3  3 maal herhalen                          0110200000030000000000000000000000000000000000000000000000000000000000000
036201284HH4  4 maal herhalen                          0110200000030000000000000000000000000000000000000000000000000000000000000
036201285HH5  5 maal herhalen                          0110200000030000000000000000000000000000000000000000000000000000000000000
036201286HH6  6 maal herhalen                          0110200000030000000000000000000000000000000000000000000000000000000000000
036201287HH7  7 maal herhalen                          0110200000030000000000000000000000000000000000000000000000000000000000000
036201288HH8  8 maal herhalen                          0110200000030000000000000000000000000000000000000000000000000000000000000
036201289HH9  9 maal herhalen                          0110200000030000000000000000000000000000000000000000000000000000000000000
036201290HH10 10 maal herhalen                         0110200000030000000000000000000000000000000000000000000000000000000000000
036201291HH11 11 maal herhalen                         0110200000030000000000000000000000000000000000000000000000000000000000000
036201292HH12 12 maal herhalen                         0110200000030000000000000000000000000000000000000000000000000000000000000
036201301M1K  1 uur na de maaltijd; opkauwen           0110200000010000000200000000000000000000000000000000000000000000000000000
036201302162  16e-25e dag van de cyclus                0110200000010000000200000000000000000000000000000000000000000000000000000
036201303052  5e-25e dag van de cyclus                 0110200000010000000200000000000000000000000000000000000000000000000000000
036201304192  19e-25e dag van de cyclus                0110200000010000000200000000000000000000000000000000000000000000000000000
036201305102  10e-25e dag van de cyclus                0110200000010000000200000000000000000000000000000000000000000000000000000
0362013061M2  1 uur voor of 2 uur na maaltijd          0110200000010000000200000000000000000000000000000000000000000000000000000
0362013071MN  1 uur voor de maaltijd en nacht          0110200000010000000200000000000000000000000000000000000000000000000000000
0362013081MW  1 uur voor maaltijd met veel water       0110200000010000000200000000000000000000000000000000000000000000000000000
0362013092DP  2 dgn voor menstruatie beginnen          0110200000010000000200000000000000000000000000000000000000000000000000000
0362013103DP  3 dagen voor menstruatie beginnen        0110200000010000000200000000000000000000000000000000000000000000000000000
0362013112M2  2 uur voor of 2 uur na de maaltijd       0110200000010000000200000000000000000000000000000000000000000000000000000
0362013122WH  na twee weken herhalen                   0110200000010000000200000000000000000000000000000000000000000000000000000
036201313OWL  oplossen in water of limonade            0110200000010000000200000000000000000000000000000000000000000000000000000
036201314OWM  omroeren in water, melk of sap           0110200000010000000200000000000000000000000000000000000000000000000000000
036201315SAV  's avonds                                0110200000010000000200000000000000000000000000000000000000000000000000000
036201316OTU  om de twaalf uur                         0110200000010000000200000000000000000000000000000000000000000000000000000
036201317VIG  voor inwendig gebruik                    0110200000010000000200000000000000000000000000000000000000000000000000000
036201318VGI  diep vaginaal inbrengen                  0110200000010000000200000000000000000000000000000000000000000000000000000
036201319VTD  volgens schema trombosedienst            0110200000010000000200000000000000000000000000000000000000000000000000000
036201320VIV  1 u. v. eten 2 witte, na 2 min 2 roze    0110200000010000000200000000000000000000000000000000000000000000000000000
036201321VUG  voor uitwendig gebruik                   0110200000010000000200000000000000000000000000000000000000000000000000000
036201322ZVN  zo nodig voor de nacht                   0110200000010000000200000000000000000000000000000000000000000000000000000
036201323ZVS  zo nodig voor 't slapen                  0110200000010000000200000000000000000000000000000000000000000000000000000
036201324KUU  kuur: medicijnen opgebruiken!            0110200000010000000200000000000000000000000000000000000000000000000000000
036201325IBN. in beide neusgaten hoog opsnuiven        0110200000010000000200000000000000000000000000000000000000000000000000000
036201326MTW  maximaal tien per week                   0110200000010000000200000000000000000000000000000000000000000000000000000
036201327MVW  maximaal vijf per week                   0110200000010000000200000000000000000000000000000000000000000000000000000
036201328OOL  onder ooglid aanbrengen                  0110200000010000000200000000000000000000000000000000000000000000000000000
036201329DEF  na de ontlasting                         0110200000010000000200000000000000000000000000000000000000000000000000000
036201330ZDI  zo nodig bij diarrhee                    0110200000010000000200000000000000000000000000000000000000000000000000000
0362013311WH  na 1 week herhalen                       0110200000010000000200000000000000000000000000000000000000000000000000000
036201332BOG  in beide ogen                            0110200000010000000200000000000000000000000000000000000000000000000000000
036201333BOR  in beide oren                            0110200000010000000200000000000000000000000000000000000000000000000000000
036201334MMI  met melk innemen                         0110200000010000000200000000000000000000000000000000000000000000000000000
036201335MWI  met water innemen                        0110200000010000000200000000000000000000000000000000000000000000000000000
036201336VVS  volgens voorschrift specialist           0110200000010000000200000000000000000000000000000000000000000000000000000
036201337IAN  in het aangedane neusgat                 0110200000010000000200000000000000000000000000000000000000000000000000000
036201338VER  1 tablet nu en over 14 dagen 1           0110200000010000000200000000000000000000000000000000000000000000000000000
036201339OOG  in het aangedane oog                     0110200000010000000200000000000000000000000000000000000000000000000000000
036201340OOR  in het aangedane oor                     0110200000010000000200000000000000000000000000000000000000000000000000000
036201341LOR  in het linker oor                        0110200000010000000200000000000000000000000000000000000000000000000000000
036201342ROG  in het rechter oog                       0110200000010000000200000000000000000000000000000000000000000000000000000
036201343ROR  in het rechter oor                       0110200000010000000200000000000000000000000000000000000000000000000000000
036201344LOG  in het linker oog                        0110200000010000000200000000000000000000000000000000000000000000000000000
0362013452WDANGedurende twee weken, daarna             0104200400040000000600000000000000000000000000000000000000000000000000000
0362013465D   Gedurende 5 dagen                        0104200400040000000000000000000000000000000000000000000000000000000000000
03620134710D  Gedurende 10 dagen                       0104200400040000000000000000000000000000000000000000000000000000000000000
03620134825D  Gedurende 25 dagen                       0104200400040000000000000000000000000000000000000000000000000000000000000
0362013491W   Gedurende 1 week                         0111200600040000000000000000000000000000000000000000000000000000000000000
0362013501C   Gedurende 1 cyclus                       0104200400040000000000000000000000000000000000000000000000000000000000000
0362013513C   Gedurende 3 cycli                        0104200400040000000000000000000000000000000000000000000000000000000000000
036201352VZKMMGebruik met voorzetkamer met masker      0104200400040000000000000000000000000000000000000000000000000000000010000
036201353VZKMSGebruik met voorzetkamer met mondstuk    0104200400040000000600000000000000000000000000000000000000000000000010000
036201354VZK  Gebruik met voorzetkamer                 0104200400040000000000000000000000000000000000000000000000000000000010000
036201355ZNN5HZo nodig na 5 tot 10 minuten herhalen    0104200400040000000000000000000000000000000000000000000000000000000000000
036201356ZN6UHZo nodig na 6 uur herhalen               0104200400040000000000000000000000000000000000000000000000000000000000000
036201357VMMONVermijd mondhoeken, ooghoeken en neus    0104200400040000000000000000000000000000000000000000000000000000000010000
036201358HELELOp hele lichaam, van hals tot voetzolen  0104200400040005000600000000000000000000000000000000000000000000000010000
036201359N24UWNa 24 uur lichaam wassen                 0104200400040000000600000000000000000000000000000000000000000000000010000
036201360COPENCapsule open maken                       0104200400040000000600000000000000000000000000000000000000000000000010000
0362013611DDUBEerste dag een dubbele dosis             0104200400040000000600000000000000000000000000000000000000000000000000000
036201362421  Eerste dag 4, tweede dag 2, derde dag 1  0104200400040000000600000100000000000400000000000000000000000000000000000
0362013632WNA Tot 2 weken na genezing                  0104200400040000000000000000000000000000000000000000000000000000000000000
036201364MX1W Niet langer dan 1 week gebruiken         0104200400040005000000000000000000000000000000000000000000000000000010000
036201365WRS15Bij houden klacht na 15 min arts waarsch.0104200400040000000000000000000000000000000000000000000000000000000010000
036201366INTWS3-5 min. laten intrekken, daarna wassen  0104200400040000000600000000000000000000000000000000000000000000000010000
036201367ZN1UHZo nodig na 1 tot 1,5 uur herhalen       0104200400040000000000000000000000000000000000000000000000000000000000000
036201368NGEZINiet in het gezicht toepassen            0104200400040000000000000000000000000000000000000000000000000000000010000
036201369AOOR Achter het oor aanbrengen                0104200400040000000000000000000000000000000000000000000000000000000010000
036201370ZNMENZo nodig bij menstruatiepijnen           0104200400040000000600000000000000000000000000000000000000000000000000000
0362013711-4ME1e tot en met 4e dag van de menstruatie  0104200400040000000600000000000000000000000000000000000000000000000000000
0362013722W   Gedurende 2 weken                        0104200400040000000000000000000000000000000000000000000000000000000000000
0362013734W   Gedurende 4 weken                        0104200400040000000000000000000000000000000000000000000000000000000000000
0362013745W   Gedurende 5 weken                        0104200400040000000000000000000000000000000000000000000000000000000000000
03620137517-2817e tot 28e dag van de cyclus            0110200000040000000600000000000000000000000000000000000000000000000000000
0362013761EVS Eerste inname voor het slapen gaan       0110200000040000000600000000000000000000000000000000000000000000000010000
0362013772WDUBeerste twee weken de dubbele dosering    0103200500050000000600000000000000000000000000000000000000000000000000000
036201378MA   op maandag                               0102201100050000000000000000000000000000000000000000000000000000000010000
036201379DI   op dinsdag                               0102201100050000000000000000000000000000000000000000000000000000000010000
036201380WO   op woensdag                              0102201100050000000000000000000000000000000000000000000000000000000010000
036201381DO   op donderdag                             0102201100050000000000000000000000000000000000000000000000000000000010000
036201382VR   op vrijdag                               0102201100050000000000000000000000000000000000000000000000000000000010000
036201383ZA   op zaterdag                              0102201100050000000000000000000000000000000000000000000000000000000010000
036201384ZO   op zondag                                0102201100050000000000000000000000000000000000000000000000000000000010000
036201385HB5M Na openen 5 maanden houdbaar             0107201600060000000000000000000000000000000000000000000000000000000010000
036201386HBK6MBuiten koelkast max. 6 maanden houdbaar  0107201600060000000000000000000000000000000000000000000000000000000010000
036201387BHST bij hoest                                0110201600060000000000000000000000000000000000000000000000000000000000000
036201540BMSP bij menstruatiepijnen                    0102201800070000000000000000000000000000000000000000000000000000000000000
036201541HBK3WBuiten koelkast max. 21 dagen houdbaar   0108202200090000000000000000000000000000000000000000000000000000000010000
036201542VOEDSPas op met voedsel                       0110202200090000000000000000000000000000000000000000000000000000000010000
036201543KOEKAIn de koelkast of bij kamertemp. bewaren 0101202400110000000000000000000000000000000000000000000000000000000010000
036201544HKK30In de koelkast max. 30 dagen houdbaar    0101202400110000000000000000000000000000000000000000000000000000000010000
036201545PLNAFPleister voor de nacht eraf, zie bijsl.  0104202500120000000000000000000000000000000000000000000000000000000010000
036231546HB2ULNa labelen 2 uur houdbaar                0106202500120000000000000000000000000000000000000000000000000000000010000
