0410010000001-       -                                                                     -                                            10307310427310000001061120030000000000000000000000000000
0410010000002AANLMBS9Medicatiebewakingssignaal                                             Medicatiebewakingssignaal                    10307310427310000002051120032701200900000000000000000000
0410010000003AANLPAT9Patient of vertegenwoordiger namens patient                           Patient/vertegenwoordiger                    10307310427310000003051120030106200500000000000000000000
0410010000004AANLAPO9Apotheek                                                              Apotheek                                     10307310427310000004191120030106200500000000000000000000
0410010000005AANLART9Arts/zorgverlener                                                     Arts/zorgverlener                            10307310427310000005191120030106200500000000000000000000
0410010000446ALMFB9  MFB                                                                   MFB                                          10307310427300000000060420180000000006042018000000000000
0410011000001-       -                                                                     -                                            10307310427311000001061120030000000000000000000000000000
0410011000011ALOVERI9Overig                                                                Overig                                       10307310427311000011051120030106200500000000000000000000
0410011000012ALINTER9Interactie                                                            Interactie                                   10307310427311000012191120030106200500000000000000000000
0410011000013ALCONTR9Contra-indicatie                                                      Contra-indicatie                             10307310427311000013191120030906200500000000000000000000
0410011000014ALDOSER9Dosering                                                              Dosering                                     10307310427311000014191120030106200500000000000000000000
0410011000015ALDUBMD9Dubbelmedicatie                                                       Dubbelmedicatie                              10307310427311000015191120030106200500000000000000000000
0410011000016ALAFWDG9Afwijkend gebruik                                                     Afwijkend gebruik                            10307310427311000016191120030507200700000000000000000000
0410011000017ALOVERG9Overgebruik/overconsumptie (=DM1)                                     Overgebruik/overconsumptie (=DM1)            10307310427311000017191120032601200900000000000000000000
0410011000018ALONDER9Ondergebruik/onderconsumptie                                          Ondergebruik/onderconsumptie                 10307310427311000018191120030106200500000000000000000000
0410011000019ALMEDAN9Medicatieanalyse                                                      Medicatieanalyse                             10307310427311000019191120030106200500000000000000000000
0410011000020ALMEAIS9Melding uit AIS                                                       Melding uit AIS                              10307310427311000020191120030106200500000000000000000000
0410011000021ALPRO4A9Project 4                                                             Project 4                                    10307310427311000021191120032609201100000000000000000000
0410011000023ALRCONV9Onvolledig/onduidelijk/onjuist recept                                 Onvolledig/onduidelijk/onjuist recept        10307310427311000023191120032410200600000000000000000000
0410011000024ALZKHVB9Ontslag uit ziekenhuis                                                Ontslag ziekenhuis                           10307310427311000024191120030709201000000000000000000000
0410011000025ALVRAAG9Vraag/probleem/melding                                                Vraag/probleem/melding                       10307310427311000025191120031601200700000000000000000000
0410011000026ALKLACH9Klacht over geneesmiddel/product                                      Klacht over gnm/product                      10307310427311000026191120032308201100000000000000000000
0410011000027ALEERUI9Eerste uitgifte                                                       Eerste uitgifte                              10307310427311000027041220030106200500000000000000000000
0410011000028ALTWUIT9Tweede uitgifte                                                       Tweede uitgifte                              10307310427311000028041220030106200500000000000000000000
0410011000029ALVERVU9Vervolguitgifte                                                       Vervolguitgifte                              10307310427311000029041220030106200500000000000000000000
0410011000030ALPRO2A9Project 2                                                             Project 2                                    10307310427311000030040220042609201100000000000000000000
0410011000031ALPR03A9Project 3                                                             Project 3                                    10307310427311000031040220042609201100000000000000000000
0410011000032ALPRO5A9Project 5                                                             Project 5                                    10307310427311000032290920042609201100000000000000000000
0410011000033ALPRO1A9Project 1                                                             Project 1                                    10307310427311000033071220042609201100000000000000000000
0410011000034ALPSEDM9Pseudodubbelmedicatie                                                 Pseudodubbelmedicatie                        10307310427311000034280120050106200500000000000000000000
0410011000035ALAFGZB9Afgeleid ziektebeeld                                                  Afgeleid ziektebeeld                         10307310427311000035280120050106200500000000000000000000
0410011000037ALALINT9Allergie/intolerantie                                                 Allergie/intolerantie                        10307310427311000037110720052809200500000000000000000000
0410011000038ALDM1OG9Dubbelmedicatie 1: overgebruik                                        DM 1: overgebruik                            10307310427311000038280920052601200900000000000000000000
0410011000039ALDM2GE9Dubbelmedicatie 2: zelfde generieke product/substitutie               DM 2: zelfde generieke product               10307310427311000039280920052410200600000000000000000000
0410011000040ALDM3EX9Dubbelmedicatie 3: zelfde generieke produkt,andere extra kenmerken    DM 3: extra kenmerken                        10307310427311000040280920052809200500000000000000000000
0410011000041ALDM4FV9Dubbelmedicatie 4: zelfde wrkzme stof,sterkte,toedweg,andere farm vormDM 4: farmaceutische vorm                    10307310427311000041280920052809200500000000000000000000
0410011000042ALDM5ST9Dubbelmedicatie 5: zelfde wrkzme stof,toedweg,andere sterkte          DM 5: sterkte                                10307310427311000042280920052809200500000000000000000000
0410011000043ALDM6CO9Dubbelmedicatie 6: zelfde wrkzme stof,toedweg, maar in combinatieprep DM 6: combinatiepreparaat                    10307310427311000043280920052809200500000000000000000000
0410011000044ALDM7TW9Dubbelmedicatie 7: zelfde wrkzme bestanddeel, verschillende toedweg   DM 7: toedieningsweg                         10307310427311000044280920052809200500000000000000000000
0410011000045ALDM8PN9Dubbelmedicatie 8: vrsch wrkzme stoffen,gelijkgerichte wrking,niet ratDM 8: pseudo, niet rationeel                 10307310427311000045280920052809200500000000000000000000
0410011000046ALDM9PG9Dubbelmedicatie 9: vrsch wrkzme stoffen,gelijkgerichte wrking,gebruikeDM 9: pseudo, gebruikelijk                   10307310427311000046280920052809200500000000000000000000
0410011000047ALGNOPG9Geneesmiddel niet opgehaald                                           Geneesmiddel niet opgehaald                  10307310427311000047280920050106200500000000000000000000
0410011000048ALAFWPR9Afwijkend product                                                     Afwijkend product                            10307310427311000048010520062410200600000000000000000000
0410011000054ALDRPAN9Project DRP Afwijking normdosering                                    Project DRP Afwijking normdosering           10307310427300000000220520062205200600000000000000000000
0410011000055ALDRPAS9Project DRP Afwijking standaard                                       Project DRP Afwijking standaard              10307310427300000000220520062205200600000000000000000000
0410011000056ALDRPBW9Project DRP Bijwerking                                                Project DRP Bijwerking                       10307310427300000000220520062205200600000000000000000000
0410011000057ALDRPDM9Project DRP Dubbelmedicatie                                           Project DRP Dubbelmedicatie                  10307310427300000000220520062205200600000000000000000000
0410011000058ALDRPGG9Project DRP Gebruiksongemak                                           Project DRP Gebruiksongemak                  10307310427300000000220520062410200600000000000000000000
0410011000059ALDRPGI9Project DRP Geen indicatie (meer)                                     Project DRP Geen indicatie (meer)            10307310427300000000220520062205200600000000000000000000
0410011000060ALDRPGO9Project DRP Geneesmiddel ontbreekt                                    Project DRP Geneesmiddel ontbreekt           10307310427300000000220520062205200600000000000000000000
0410011000061ALDRPIN9Project DRP Interactie                                                Project DRP Interactie                       10307310427300000000220520062205200600000000000000000000
0410011000062ALDRPOL9Project DRP Off label gebruik                                         Project DRP Off label gebruik                10307310427300000000220520062205200600000000000000000000
0410011000063ALDRPOB9Project DRP Onderbehandeling                                          Project DRP Onderbehandeling                 10307310427300000000220520062205200600000000000000000000
0410011000064ALDRPOG9Project DRP Ondergebruik                                              Project DRP Ondergebruik                     10307310427300000000220520062205200600000000000000000000
0410011000065ALDRPOV9Project DRP Overgebruik                                               Project DRP Overgebruik                      10307310427300000000220520062205200600000000000000000000
0410011000066ALDRPPD9Project DRP Pseudodubbelmedicatie                                     Project DRP Pseudodubbelmedicatie            10307310427300000000220520062205200600000000000000000000
0410011000067ALDRPRC9Project DRP Relatieve contra-indicatie                                Project DRP Relatieve contra-indicatie       10307310427300000000220520062205200600000000000000000000
0410011000068ALDRPTT9Project DRP Therapieontrouw                                           Project DRP Therapieontrouw                  10307310427300000000220520062410200600000000000000000000
0410011000069ALCOBEBRContact nav bezorgbrief                                               Contact nav bezorgbrief                      10307310427300000000160820070106200500000000000000000000
0410011000070ALSPGNM9Specialistisch geneesmiddel                                           Specialistisch geneesmiddel                  10307310427300000000290520080106200500000000000000000000
0410011000071ALBERGR9Bereiding niet-gestandaardiseerd, bereiden uit grondstoffen           Bereiding niet-gest.uit grondstoffen         10307310427300000000290520080106200500000000000000000000
0410011000072ALBEHPR9Bereiding niet-gestandaardiseerd, aanpassen van handelspreparaat      Bereiding niet-gest.uit handelspreparaat     10307310427300000000290520080106200500000000000000000000
0410011000073ALONDNO9Onderdosering-onder het norm minimum                                  Onderdosering-onder het norm minimum         10307310427300000000131120080000000000000000000000000000
0410011000074ALONDAB9Onderdosering-onder het absolute minimum                              Onderdosering-onder het absolute minimum     10307310427300000000131120080000000000000000000000000000
0410011000075ALOVDNO9Overdosering-boven het norm maximum                                   Overdosering-boven het norm maximum          10307310427300000000131120080000000000000000000000000000
0410011000076ALOVDAB9Overdosering-boven het absolute maximum                               Overdosering-boven het absolute maximum      10307310427300000000131120080000000000000000000000000000
0410011000077ALOVDRA9Overdosering risicostof-boven het absolute maximum                    Overdosering risicostof-boven abs maximum    10307310427300000000081220080000000000000000000000000000
0410011000078ALOVDRN9Overdosering risicostof-boven het norm maximum                        Overdosering risicostof-boven norm maximum   10307310427300000000081220080000000000000000000000000000
0410011000079ALGESLA9Geslacht is onbekend of niet toegestaan                               Geslacht is onbekend of niet toegestaan      10307310427300000000081220080812200800000000000000000000
0410011000080ALDOFRE9Geen doseringsgegevens voor deze frequentie en/of tijdseenheid        Geen dos.gegevens voor deze freq/tijdseenheid10307310427300000000081220080106200500000000000000000000
0410011000081ALAFWDS9Geen doseringscontrole vanwege afwijkende doseereenheid               Afwijkende doseereenheid                     10307310427300000000081220080507200700000000000000000000
0410011000082ALGEWON9Geen doseringscontrole wegens onbekend of verouderd gewicht           Onbekend actueel gewicht                     10307310427300000000081220080000000000000000000000000000
0410011000083ALLICHO9Geen doseringscontrole wegens onbekend of verouderd lichaamsoppervlak Onbekend actueel lichaamsoppervlak           10307310427300000000081220080000000000000000000000000000
0410011000084ALGEBDO9Geen doseringscontrole wegens ontbrekende geboortedatum               Ontbrekende geboortedatum                    10307310427300000000081220082410200600000000000000000000
0410011000085ALDOLFT9Geen doseringsgegevens voor deze leeftijd                             Geen dos.gegevens voor deze leeftijd         10307310427300000000081220080106200500000000000000000000
0410011000086ALDOGEW9Geen doseringsgegevens voor dit gewicht                               Geen dos.gegevens voor dit gewicht           10307310427300000000081220080106200500000000000000000000
0410011000087ALDOLIO9Geen doseringsgegevens voor dit lichaamsoppervlak                     Geen dos.gegevens voor dit lichaamsoppervlak 10307310427300000000081220080106200500000000000000000000
0410011000088ALDOGGO9Geen doseringscontrole wegens ontbrekende doseergegevens              Ontbrekende doseergegevens                   10307310427300000000081220082410200600000000000000000000
0410011000089ALVARFR9Variabele frequentie                                                  Variabele frequentie                         10307310427300000000081220080106200500000000000000000000
0410011000090ALDENEK9Denekamp gebruikt, controleer handmatig                               Denekamp gebruikt, controleer handmatig      10307310427300000000081220080106200500000000000000000000
0410011000091ALINDDO9Er zijn indicaties met lagere doseergrenzen                           Indicaties met lagere doseergrenzen          10307310427300000000081220080106200500000000000000000000
0410011000092ALEXTFR9Doseringscontrole op basis van extrapolatie van frequentie            Controle door extrapolatie frequentie        10307310427300000000090120090906200500000000000000000000
0410011000093ALLIMBK9BK:Lareb Intensive Monitoring                                         BK:LIM                                       10307310427300000000200120092701201000000000000000000000
0410011000094ALEU3SM9Semi-eerste uitgifte 3                                                Semi-EU 3                                    10307310427300000000260120090106200500000000000000000000
0410011000095ALEU4SM9Semi-eerste uitgifte 4                                                Semi-EU 4                                    10307310427300000000260120090106200500000000000000000000
0410011000096ALEU5SM9Semi-eerste uitgifte 5                                                Semi-EU 5                                    10307310427300000000260120090106200500000000000000000000
0410011000097ALEU6SM9Semi-eerste uitgifte 6                                                Semi-EU 6                                    10307310427300000000260120090106200500000000000000000000
0410011000098ALEU7SM9Semi-eerste uitgifte 7                                                Semi-EU 7                                    10307310427300000000260120090106200500000000000000000000
0410011000099ALC3DME9Combinatie DM/semi-EU 3                                               Combinatie DM/semi-EU 3                      10307310427300000000050320090503200900000000000000000000
0410011000100ALC4DME9Combinatie DM/semi-EU 4                                               Combinatie DM/semi-EU 4                      10307310427300000000050320090503200900000000000000000000
0410011000101ALC5DME9Combinatie DM/semi-EU 5                                               Combinatie DM/semi-EU 5                      10307310427300000000050320090503200900000000000000000000
0410011000102ALC6DME9Combinatie DM/semi-EU 6                                               Combinatie DM/semi-EU 6                      10307310427300000000050320090503200900000000000000000000
0410011000103ALC7DME9Combinatie DM/semi-EU 7                                               Combinatie DM/semi-EU 7                      10307310427300000000050320090503200900000000000000000000
0410011000104ALTOXMT9BK:Let op toxiciteit methotrexaat:extra contr                         BK:Let op toxiciteit methotrexaat:extra contr10307310427300000000290620093108201000000000000000000000
0410011000105ALVERKA9Verkeersdeelname cat 1                                                Verkeersdeelname cat 1                       10307310427300000000100820090106200500000000000000000000
0410011000106ALVERKB9Verkeersdeelname cat 2                                                Verkeersdeelname cat 2                       10307310427300000000100820090106200500000000000000000000
0410011000107ALVERKC9Verkeersdeelname cat 3                                                Verkeersdeelname cat 3                       10307310427300000000100820090106200500000000000000000000
0410011000108ALDGBRO9BK:Doorgeleverde bereiding:ratio onvoldoende onderbouwd               BK:Doorgelev bereiding:ratio onvold onderbwd 10307310427300000000270120100212201000000000000000000000
0410011000109ALDGBRN9BK:Doorgeleverde bereiding ratio niet beoordeeld                      BK:Doorgelev bereiding: ratio niet beoordeeld10307310427300000000270120102701201000000000000000000000
0410011000110ALLAOPG9BK:Laxantia bij opioidgebruik                                         BK:Laxantia bij opioidgebruik                10307310427300000000280120102701201000000000000000000000
0410011000111ALANTNI9BK:Antithromboticumgebruik bij nitraten                               BK:Antithromboticumgebruik bij nitraten      10307310427300000000010220102701201000000000000000000000
0410011000112ALANMI9 BK:Antimycotica bij inhalatiecorticosteroiden                         BK:Antimycotica bij inhalatiecorticosteroiden10307310427300000000110220102701201000000000000000000000
0410011000113ALMANSA9BK:Maagprotectie bij NSAID-gebruik                                    BK:Maagprotectie bij NSAID-gebruik           10307310427300000000110220102701201000000000000000000000
0410011000114ALONCO9 BK:Let op dos en mog stopperiode oncolyticum                          BK:Let op dos en mog stopperiode oncolyticum 10307310427300000000110220102701201000000000000000000000
0410011000115ALGRAPM9BK:Bij dit gnm grapefruitsapfolder meegeven                           BK:Bij dit gnm grapefruitsapfolder meegeven  10307310427300000000180220102701201000000000000000000000
0410011000116ALKEDPR9Ketenzorg diabetes: preventie                                         Ketenzorg diabetes: preventie                10307310427300000000240620102406201000000000000000000000
0410011000117ALKEDVR9Ketenzorg diabetes: vroegsignalering test                             Ketenzorg diabetes: vroegsignalering test    10307310427300000000240620102406201000000000000000000000
0410011000118ALKEDTT9Ketenzorg diabetes: therapietrouw                                     Ketenzorg diabetes: therapietrouw            10307310427300000000240620102406201000000000000000000000
0410011000119ALKEDBW9Ketenzorg diabetes: bijwerkingen                                      Ketenzorg diabetes: bijwerkingen             10307310427300000000240620102406201000000000000000000000
0410011000120ALKEDBM9Ketenzorg diabetes: beheer medicatiedossier                           Ketenzorg diabetes: beheer medicatiedossier  10307310427300000000240620102406201000000000000000000000
0410011000121ALKEDPE9Ketenzorg diabetes: periodieke evaluatie                              Ketenzorg diabetes: periodieke evaluatie     10307310427300000000240620102406201000000000000000000000
0410011000122ALKEDBE9Ketenzorg diabetes: begeleiding                                       Ketenzorg diabetes: begeleiding              10307310427300000000240620102406201000000000000000000000
0410011000123ALKEDVO9Ketenzorg diabetes: voorlichting                                      Ketenzorg diabetes: voorlichting             10307310427300000000240620102406201000000000000000000000
0410011000124ALKEDVT9Ketenzorg diabetes: VTGM                                              Ketenzorg diabetes: VTGM                     10307310427300000000280620102406201000000000000000000000
0410011000125ALKEDHT9Ketenzorg diabetes: hulp-/testmateriaal                               Ketenzorg diabetes: hulp-/testmateriaal      10307310427300000000280620102406201000000000000000000000
0410011000126ALKEDOV9Ketenzorg diabetes: doorverwijzing                                    Ketenzorg diabetes: doorverwijzing           10307310427300000000070720102406201000000000000000000000
0410011000127ALKEDBA9Ketenzorg diabetes: administratie                                     Ketenzorg diabetes: administratie            10307310427300000000120720102406201000000000000000000000
0410011000128ALKEDBC9Ketenzorg diabetes: gebruik cholest.verlager                          Ketenzorg diabetes: gebruik cholest.verlager 10307310427300000000210720102107201000000000000000000000
0410011000129ALKEAVA9Ketenzorg astma/COPD: administratie                                   Ketenzorg astma/COPD: administratie          10307310427300000000210720102107201000000000000000000000
0410011000130ALKECVA9Ketenzorg CVRM: administratie                                         Ketenzorg CVRM: administratie                10307310427300000000210720102107201000000000000000000000
0410011000131ALKEABE9Ketenzorg astma/COPD: begeleiding                                     Ketenzorg astma/COPD: begeleiding            10307310427300000000210720102406201000000000000000000000
0410011000132ALKECBE9Ketenzorg CVRM: begeleiding                                           Ketenzorg CVRM: begeleiding                  10307310427300000000210720102406201000000000000000000000
0410011000133ALKEABM9Ketenzorg astma/COPD: beheer medicatiedossier                         Ketenzorg astma/COPD: beheer medicatiedossier10307310427300000000210720102406201000000000000000000000
0410011000134ALKECBM9Ketenzorg CVRM: beheer medicatiedossier                               Ketenzorg CVRM: beheer medicatiedossier      10307310427300000000210720102406201000000000000000000000
0410011000135ALKEABW9Ketenzorg astma/COPD: bijwerkingen                                    Ketenzorg astma/COPD: bijwerkingen           10307310427300000000210720102406201000000000000000000000
0410011000136ALKECBW9Ketenzorg CVRM: bijwerkingen                                          Ketenzorg CVRM: bijwerkingen                 10307310427300000000210720102406201000000000000000000000
0410011000137ALKEAOV9Ketenzorg astma/COPD: doorverwijzing                                  Ketenzorg astma/COPD: doorverwijzing         10307310427300000000210720102406201000000000000000000000
0410011000138ALKECOV9Ketenzorg CVRM: doorverwijzing                                        Ketenzorg CVRM: doorverwijzing               10307310427300000000210720102406201000000000000000000000
0410011000139ALKEAHT9Ketenzorg astma/COPD: hulp-/testmateriaal                             Ketenzorg astma/COPD: hulp-/testmateriaal    10307310427300000000210720102406201000000000000000000000
0410011000140ALKECHT9Ketenzorg CVRM: hulp-/testmateriaal                                   Ketenzorg CVRM: hulp-/testmateriaal          10307310427300000000210720102406201000000000000000000000
0410011000141ALKEAPE9Ketenzorg astma/COPD: periodieke evaluatie                            Ketenzorg astma/COPD: periodieke evaluatie   10307310427300000000210720102406201000000000000000000000
0410011000142ALKECPE9Ketenzorg CVRM: periodieke evaluatie                                  Ketenzorg CVRM: periodieke evaluatie         10307310427300000000210720102406201000000000000000000000
0410011000143ALKEAPR9Ketenzorg astma/COPD: preventie                                       Ketenzorg astma/COPD: preventie              10307310427300000000210720102406201000000000000000000000
0410011000144ALKECPR9Ketenzorg CVRM: preventie                                             Ketenzorg CVRM: preventie                    10307310427300000000210720102406201000000000000000000000
0410011000145ALKEATT9Ketenzorg astma/COPD: therapietrouw                                   Ketenzorg astma/COPD: therapietrouw          10307310427300000000210720102406201000000000000000000000
0410011000146ALKECTT9Ketenzorg CVRM: therapietrouw                                         Ketenzorg CVRM: therapietrouw                10307310427300000000210720102406201000000000000000000000
0410011000147ALKEAVO9Ketenzorg astma/COPD: voorlichting                                    Ketenzorg astma/COPD: voorlichting           10307310427300000000210720102406201000000000000000000000
0410011000148ALKECVO9Ketenzorg CVRM: voorlichting                                          Ketenzorg CVRM: voorlichting                 10307310427300000000210720102406201000000000000000000000
0410011000149ALKECVR9Ketenzorg CVRM: vroegsignalering test                                 Ketenzorg CVRM: vroegsignalering test        10307310427300000000230720102406201000000000000000000000
0410011000150ALZWPRE9BK:Let op zwangerschapspreventieprogramma                             BK:Let op zwangerschapspreventieprogramma    10307310427300000000310820102701201000000000000000000000
0410011000151ALPATON9Onbekende patient                                                     Onbekende patient                            10307310427300000000070920100000000000000000000000000000
0410011000152ALMEDOV9Medicatieoverzicht                                                    Medicatieoverzicht                           10307310427300000000070920100106200500000000000000000000
0410011000154ALOPNZK9Opname in ziekenhuis                                                  Opname ziekenhuis                            10307310427300000000070920100709201000000000000000000000
0410011000155ALSPEGN9BK:Specialistisch geneesmiddel                                        BK:Specialistisch geneesmiddel               10307310427300000000160920102701201000000000000000000000
0410011000156ALHULPT9Hulpmiddelen/testmaterialen                                           Hulpmiddelen/testmaterialen                  10307310427300000000081120102406201000000000000000000000
0410011000157ALINHIN9BK:Inhalatie instructie                                               BK:Inhalatie instructie                      10307310427300000000200120111204201100000000000000000000
0410011000158ALVEMNI9Verminderde nierfunctie                                               Verminderde nierfunctie                      10307310427300000000210220110106200500000000000000000000
0410011000159ALKEAVT9Ketenzorg astma/COPD: vroegsignalering test                           Ketenzorg astma/COPD: vroegsignalering test  10307310427300000000200620112406201000000000000000000000
0410011000160ALVAAND9Vraag mbt aandoening                                                  Vraag mbt aandoening                         10307310427300000000230820111601200700000000000000000000
0410011000161ALVBEGE9Vraag mbt begeleiding                                                 Vraag mbt begeleiding                        10307310427300000000230820111601200700000000000000000000
0410011000162ALVMEDG9Vraag mbt (beheer) medicatiegegevens                                  Vraag mbt (beheer) medicatiegegevens         10307310427300000000230820111601200700000000000000000000
0410011000163ALVRGNM9Vraag mbt geneesmiddel                                                Vraag mbt geneesmiddel                       10307310427300000000230820111601200700000000000000000000
0410011000164ALVRMHM9Vraag mbt materialen/hulpmiddelen                                     Vraag mbt materialen/hulpmiddelen            10307310427300000000230820110509201100000000000000000000
0410011000165ALACREC9Actie naar aanleiding van aflevering/recept                           Actie nav aflevering/recept                  10307310427300000000060920110000000000000000000000000000
0410011000166ALBEGEL9Begeleiding                                                           Begeleiding                                  10307310427300000000060920110000000000000000000000000000
0410011000167ALBHMGG9(Beheer) medicatiegegevens                                            (Beheer) medicatiegegevens                   10307310427300000000060920110000000000000000000000000000
0410011000168ALGNMOM9Geneesmiddel op maat                                                  Gnm op maat                                  10307310427300000000220920110310201100000000000000000000
0410011000169ALKWSCH9BK:Let op kwaliteitseisen IGZ schildklierpoeder                       BK:Let op kwaliteitseisen IGZ schildkl.poeder10307310427300000000151120112701201000000000000000000000
0410011000170ALDORVV9Geen doseringsgegevens voor de reden van voorschrijven                Geen dos.gegevens voor de reden van voorschr.10307310427300000000081120120106200500000000000000000000
0410011000171ALGNRVV9Reden van voorschrijven ontbreekt                                     Reden van voorschrijven ontbreekt            10307310427300000000291120120106200500000000000000000000
0410011000172ALUWRVV9BK:Uitwisselen reden van voorschrijven noodzakelijk                   BK:Uitwisselen reden van voorschrijven nodig 10307310427300000000291120122701201000000000000000000000
0410011000173ALMFBLA9MFB:Laxantia bij opioidgebruik                                        MFB:Laxantia bij opioidgebruik               10307310427300000000120220132701201000000000000000000000
0410011000174ALMFBNF9MFB:Nierfunctie                                                       MFB:Nierfunctie                              10307310427300000000120220132701201000000000000000000000
0410011000175ALCITRU9BK:Pas op met citrusvruchten:geef folder mee                          BK:Pas op met citrusvruchten:geef folder mee 10307310427300000000071120132701201000000000000000000000
0410011000176ALINNBE9BK:Interacties nog niet beoordeeld                                    BK:Interacties nog niet beoordeeld           10307310427300000000280520141204201100000000000000000000
0410011000177ALCINBE9BK:Contra-indicaties nog niet beoordeeld                              BK:Contra-indicaties nog niet beoordeeld     10307310427300000000100720141204201100000000000000000000
0410011000178ALNFNBE9Nog niet beoordeeld op nierfunctie                                    Nog niet beoordeeld op nierfunctie           10307310427300000000150720142701201000000000000000000000
0410011000179ALMFBMN9MFB:Maagbescherming bij NSAID-gebruik                                 MFB:Maagbescherming bij NSAID-gebruik        10307310427300000000070820142701201000000000000000000000
0410011000180ALMFBTN9MFB:Trombocytenaggregatieremmers bij nitraatgebruik                   MFB:Trombocytenaggr.remmers bij nitraatgebr. 10307310427300000000070820142701201000000000000000000000
0410011000181ALMFBOP9MFB:Osteoporoseprofylaxe                                              MFB:Osteoporoseprofylaxe                     10307310427300000000110820142701201000000000000000000000
0410011000182ALMFBFM9MFB:Foliumzuur bij methotrexaatgebruik                                MFB:Foliumzuur bij methotrexaatgebruik       10307310427300000000110820142701201000000000000000000000
0410011000183ALMFBAI9MFB:Antimycotica bij inhalatiecorticosteroiden                        MFB:Antimycotica bij ICS                     10307310427300000000110820142701201000000000000000000000
0410011000435ALMFBAH9MFB:Antilipaemicum bij hart- en vaatziekten                           MFB:Antilipaemicum bij hart- en vaatziekten  10307310427300000000201120150000000000000000000000000000
0410011000436ALMFBAD9MFB:Antilipaemicum bij diabetes mellitus                              MFB:Antilipaemicum bij diabetes mellitus     10307310427300000000271120150000000000000000000000000000
0410011000437ALMFBAS9MFB:Antitrombotische salicylaten - dosering                           MFB:Antitrombotische salicylaten - dosering  10307310427300000000081220150000000000000000000000000000
0410011000438ALMFBMD9MFB:Metformine bij diabetes mellitus type 2                           MFB:Metformine bij diabetes mellitus type 2  10307310427300000000081220150000000000000000000000000000
0410011000439ALMFBGG9MFB:Glibenclamide of glimepiride bij diabetes mellitus type 2         MFB:Glibenclamide of glimepiride bij DM2     10307310427300000000081220150000000000000000000000000000
0410011000440VERVALLEVervallen                                                             Vervallen                                    10307310427300000000081220150000000008122015000000000000
0410011000441ALMFBCP9MFB:combinaties met P2Y12-remmer                                      MFB:combinaties met P2Y12-remmer             10307310427300000000081220150000000000000000000000000000
0410011000442ALMFBLACMFB: Leeftijd als contra-indicatie'                                   Leeftijd als contra-indicatie                10307310427300000000040820170000000000000000000000000000
0410011000447ALMFB9  MFB                                                                   MFB                                          10307310427300000000060420180000000000000000000000000000
0410020000001-       -                                                                     -                                            10307310427320000001061120030000000000000000000000000000
0410020000002ANNIETI9Niet ingegrepen                                                       Niet ingegrepen                              10307310427320000002051120031509200800000000000000000000
0410020000003ANINGRI9Ingegrepen                                                            Ingegrepen                                   10307310427320000003051120031509200800000000000000000000
0410021000001-       -                                                                     -                                            10307310427321000001061120030000000000000000000000000000
0410021000002ANAMDST9Ander middel is reeds gestopt                                         Ander middel is reeds gestopt                10307310427321000002051120030106200500000000000000000000
0410021000003ANVSTOE9Bij deze voorschrijver toegestaan                                     Bij deze voorschrijver toegestaan            10307310427321000003051120030106200500000000000000000000
0410021000005ANGKORT9Gebruik <2 weken                                                      Gebruik <2 weken                             10307310427321000005051120032210200800000000000000000000
0410021000006ANSIONT9Signaal onterecht                                                     Signaal onterecht                            10307310427321000006051120030912200800000000000000000000
0410021000007ANAKHIS9Akkoord historie                                                      Akkoord historie                             10307310427321000007051120031105200600000000000000000000
0410021000009ANGNNRE9Bij dit geneesmiddel/deze geneesmiddelgroep niet relevant             Bij dit gnm/deze gnmgroep niet relevant      10307310427321000009051120030106200500000000000000000000
0410021000010ANCINAC9Contra-indicatie/intol/allergie/indicatie niet actueel/niet bekend    CI/intol/all/indic niet actueel/niet bekend  10307310427321000010051120032708201000000000000000000000
0410021000011ANGOMHO9Gebruik gewijzigd, omhoog gegaan                                      Gebruik gewijzigd, omhoog gegaan             10307310427321000011061120030106200500000000000000000000
0410021000012ANGOMLA9Gebruik gewijzigd, omlaag gegaan                                      Gebruik gewijzigd, omlaag gegaan             10307310427321000012061120030106200500000000000000000000
0410021000013ANDSAHO9Dosering samen te hoog                                                Dosering samen te hoog                       10307310427321000013061120030106200500000000000000000000
0410021000015ANGBGEW9Gebruik intussen gewijzigd                                            Gebruik intussen gewijzigd                   10307310427321000015061120030106200500000000000000000000
0410021000017ANGNPRO9Geen probleem gesignaleerd                                            Geen probleem gesignaleerd                   10307310427321000017061120030106200500000000000000000000
0410021000020ANVAKAN9Vakantie                                                              Vakantie                                     10307310427321000020061120030106200500000000000000000000
0410021000021ANDOAKK9Dosering na (handmatige) controle akkoord                             Dosering na (handmatige) controle akkoord    10307310427321000021061120032205200600000000000000000000
0410021000022ANDOHOO9Dosering na (handmatige) controle te hoog                             Dosering na (handmatige) controle te hoog    10307310427321000022061120032205200600000000000000000000
0410021000023ANDOLAA9Dosering na (handmatige) controle te laag                             Dosering na (handmatige) controle te laag    10307310427321000023061120032205200600000000000000000000
0410021000027ANOVERI9Overig                                                                Overig                                       10307310427321000027061120030106200500000000000000000000
0410021000032ANPGEIN9Patient is (door andere zorgverl)geinformeerd                         Pat is (door andere zorgverl)geinformeerd    10307310427321000032061120030509201100000000000000000000
0410021000033ANPNGEI9Patient is niet(door andere zorgverl)geinform                         Pat is niet(door andere zorgverl)geinform    10307310427321000033061120030509201100000000000000000000
0410021000038ANSITER9Signaal terecht                                                       Signaal terecht                              10307310427321000038061120030106200500000000000000000000
0410021000041ANTWGAF9Twee geneesmiddelen afwisselend                                       Twee geneesmiddelen afwisselend              10307310427321000041061120031501200900000000000000000000
0410021000043ANVERVS9Verschillende voorschrijvers                                          Verschillende voorschrijvers                 10307310427321000043061120030106200500000000000000000000
0410021000045ANVOLGA9Volgorde start geneesmiddel akkoord                                   Volgorde start geneesmiddel akkoord          10307310427321000045061120030106200500000000000000000000
0410021000046ANVOLNA9Volgorde start geneesmiddel niet akkoord                              Volgorde start geneesmiddel niet akkoord     10307310427321000046061120030106200500000000000000000000
0410021000047ANVERGV9Vergissing bij voorschrijven                                          Vergissing bij voorschrijven                 10307310427321000047061120030106200500000000000000000000
0410021000048ANSUBST9Vorige keer ander generiek/parallel/specialite afgeleverd             Vorige keer ander gen/par/spec afgeleverd    10307310427321000048061120030106200500000000000000000000
0410021000049ANANSTE9Vorige keer andere sterkte afgeleverd                                 Vorige keer andere sterkte afgeleverd        10307310427321000049061120030106200500000000000000000000
0410021000050ANELDVS9Vorige keer elders verstrekt                                          Vorige keer elders verstrekt                 10307310427321000050061120030106200500000000000000000000
0410021000055ANZELVS9Zelfde voorschrijver                                                  Zelfde voorschrijver                         10307310427321000055061120030106200500000000000000000000
0410021000056ANDSAAK9Dosering samen akkoord                                                Dosering samen akkoord                       10307310427321000056191120030106200500000000000000000000
0410021000057ANFTAIS9Gegevens AIS onjuist (VV!!)                                           Gegevens AIS onjuist (VV!!)                  10307310427300000000201120032410200600000000000000000000
0410021000058ANINFOR9Aanvullende informatie over recept noodzakelijk                       Aanvullende informatie over recept nodig     10307310427321000058201120030106200500000000000000000000
0410021000060ANPINBE9Patient wenst informatie/begeleiding                                  Pat wenst info/begeleiding                   10307310427321000060201120032609201100000000000000000000
0410021000061ANARINF9Arts cq andere zorgverlener behoeft informatie                        Arts cq andere zorgverlener behoeft info     10307310427321000061201120033001200700000000000000000000
0410021000062ANAROVE9Arts cq andere zorgverlener behoeft overleg                           Arts cq andere zorgverlener behoeft overleg  10307310427321000062201120033001200700000000000000000000
0410021000063ANMEDAN9Medicatieanalyse                                                      Medicatieanalyse                             10307310427321000063201120030106200500000000000000000000
0410021000064ANPRNOP9Probleem niet op te lossen door de apotheek                           Probleem niet op te lossen door de apotheek  10307310427321000064201120030106200500000000000000000000
0410021000065ANTHTBE9Therapietrouw bespreken met patient gewenst                           Therapietrouw bespreken met patient gewenst  10307310427321000065201120030106200500000000000000000000
0410021000066ANHULPM9Hulp/testmateriaal                                                    Hulp/testmateriaal                           10307310427321000066201120030106200500000000000000000000
0410021000067ANMETIN9Meting                                                                Meting                                       10307310427321000067201120030106200500000000000000000000
0410021000068ANALGAD9Algemeen advies                                                       Algemeen advies                              10307310427321000068201120030106200500000000000000000000
0410021000069ANGEBRU9Gebruik geneesmiddel                                                  Gebruik geneesmiddel                         10307310427321000069201120030106200500000000000000000000
0410021000070ANKEUSG9Keuze geneesmiddel                                                    Keuze geneesmiddel                           10307310427321000070201120030106200500000000000000000000
0410021000071ANTOEDI9Toedienen geneesmiddel                                                Toedienen geneesmiddel                       10307310427321000071201120031105200600000000000000000000
0410021000072ANVERPA9Verpakking                                                            Verpakking                                   10307310427321000072201120030106200500000000000000000000
0410021000076ANKLGNM9Klacht geneesmiddel/product terecht                                   Klacht gnm/product terecht                   10307310427321000076201120032308201100000000000000000000
0410021000079ANZDONM9Zorgdocument op naam                                                  Zorgdocument op naam                         10307310427321000079201120030106200500000000000000000000
0410021000080ANGDOSD9Patient behoeft aflevering geneesmiddel in doseerdoos                 Pat behoeft aflevering gnm in doseerdoos     10307310427321000080241120030509201100000000000000000000
0410021000081ANKLPOR9Patient behoeft aflevering geneesmiddel in kleine porties             Pat behoeft afl. gnm in kleine porties       10307310427321000081241120030509201100000000000000000000
0410021000082ANADVBW9Patient behoeft advies over bijwerking                                Pat behoeft advies over bijwerking           10307310427321000082241120030509201100000000000000000000
0410021000085ANCIACT9Contra-indicatie/intolerantie/allergie/indicatie actueel              Contra-ind/intol/all/indic actueel           10307310427321000085160220040106200500000000000000000000
0410021000086ANRELCI9Relatieve contraindicatie                                             Relatieve contraindicatie                    10307310427300000000160220040301200800000000000000000000
0410021000087ANBIJWE9Bijwerking                                                            Bijwerking                                   10307310427321000087160220040301200800000000000000000000
0410021000088ANINTER9Interactie                                                            Interactie                                   10307310427300000000160220040301200800000000000000000000
0410021000089ANPSDBM9Pseudodubbelmedicatie                                                 Pseudodubbelmedicatie                        10307310427300000000160220040301200800000000000000000000
0410021000090ANTHETR9Therapieontrouw                                                       Therapieontrouw                              10307310427300000000160220040301200800000000000000000000
0410021000091ANGBGEM9Gebruiksongemak                                                       Gebruiksongemak                              10307310427300000000160220040301200800000000000000000000
0410021000092ANAFWND9Afwijking normdosering                                                Afwijking normdosering                       10307310427300000000160220040301200800000000000000000000
0410021000093ANONDBH9Onderbehandeling                                                      Onderbehandeling                             10307310427300000000160220040301200800000000000000000000
0410021000094ANOFFLA9Off-label gebruik                                                     Off-label gebruik                            10307310427300000000160220040301200800000000000000000000
0410021000095ANAFWST9Afwijking standaard                                                   Afwijking standaard                          10307310427300000000160220040301200800000000000000000000
0410021000096ANOVGEB9Overgebruik                                                           Overgebruik                                  10307310427300000000160220040301200800000000000000000000
0410021000097ANONGEB9Ondergebruik                                                          Ondergebruik                                 10307310427300000000160220040301200800000000000000000000
0410021000098ANONTSL9Informatie over ontslagmedicatie gewenst                              Informatie over ontslagmedicatie gewenst     10307310427321000098250320042406201000000000000000000000
0410021000099ANMTNOD9Op basis van meetgegevens                                             Op basis van meetgegevens                    10307310427321000099250320041608200600000000000000000000
0410021000100ANGMONT9Geneesmiddel ontbreekt                                                Geneesmiddel ontbreekt                       10307310427300000000250320040301200800000000000000000000
0410021000101ANDUBBM9Dubbelmedicatie                                                       Dubbelmedicatie                              10307310427321000101250320040301200800000000000000000000
0410021000103ANCOMPL9Wisselwerking mogelijk                                                Wisselwerking mogelijk                       10307310427321000103290920042709201100000000000000000000
0410021000104ANRIAFW9Risicofactor(en) afwezig                                              Risicofactor(en) afwezig                     10307310427321000104290920043001200700000000000000000000
0410021000105ANRISAW9Risicofactor(en) aanwezig                                             Risicofactor(en) aanwezig                    10307310427321000105290920043001200700000000000000000000
0410021000110ANANTDV9Vorige keer andere toedieningsvorm afgeleverd                         Vorige keer andere toedieningsvorm afgeleverd10307310427321000110081220040106200500000000000000000000
0410021000111ANAKPAT9Akkoord na informatie van patient                                     Akkoord na informatie van patient            10307310427321000111110220051105200600000000000000000000
0410021000112ANAKART9Akkoord na overleg met voorschrijver                                  Akkoord na overleg met voorschrijver         10307310427321000112110220050301200800000000000000000000
0410021000114ANVRAKK9Navraag bij patient: reden voorraad akkoord                           Navraag bij patient: reden voorraad akkoord  10307310427321000114110220051507201400000000000000000000
0410021000115ANVONAK9Navraag bij patient: reden voorraad niet akkoord                      Navraag patient: reden voorraad niet akkoord 10307310427321000115110220051507201400000000000000000000
0410021000116ANONHDO9Onderhoudsdosering                                                    Onderhoudsdosering                           10307310427321000116110220050106200500000000000000000000
0410021000117ANPPERC9Patient wordt (periodiek) gecontroleerd                               Pat wordt (periodiek) gecontroleerd          10307310427321000117110220050509201100000000000000000000
0410021000118ANPNPEC9Patient wordt niet (periodiek) gecontroleerd                          Pat wordt niet (periodiek) gecontroleerd     10307310427321000118110220050509201100000000000000000000
0410021000120ANGLANG9Gebruik >2 weken                                                      Gebruik >2 weken                             10307310427321000120230220052210200800000000000000000000
0410021000122ANGEUTU9Geen eerste uitgifte, maar tweede uitgifte                            Geen EU, maar TU                             10307310427321000122240220050106200500000000000000000000
0410021000123ANGEUVU9Geen eerste uitgifte, maar vervolguitgifte                            Geen EU, maar VU                             10307310427321000123240220050106200500000000000000000000
0410021000125ANGTUVU9Geen tweede uitgifte, maar vervolguitgifte                            Geen TU, maar VU                             10307310427321000125240220050106200500000000000000000000
0410021000127ANSIOND9Signaal is onderdrukt                                                 Signaal is onderdrukt                        10307310427321000127250420050106200500000000000000000000
0410021000128ANVERGA9Vergissing bij aanschrijven                                           Vergissing bij aanschrijven                  10307310427321000128090620050106200500000000000000000000
0410021000129ANPRMED9Probleem in medicatie geconstateerd                                   Probleem in medicatie geconstateerd          10307310427321000129090620050106200500000000000000000000
0410021000131ANPTTOE9Bij deze patient akkoord                                              Bij deze patient akkoord                     10307310427321000131241020050000000000000000000000000000
0410021000132ANDOIND9Dosering bij (afwijkende) indicatie akkoord                           Dosering bij (afwijkende) indicatie akkoord  10307310427321000132231120050205201100000000000000000000
0410021000133ANGNIND9Geen indicatie (meer)                                                 Geen indicatie (meer)                        10307310427321000133231120050301200800000000000000000000
0410021000134ANSUBTO9Substitutie toegestaan                                                Substitutie toegestaan                       10307310427321000134010520060805200600000000000000000000
0410021000135ANSUBNT9Substitutie niet toegestaan                                           Substitutie niet toegestaan                  10307310427321000135010520060805200600000000000000000000
0410021000136ANPTGNN9Patient heeft geneesmiddel (nog) niet nodig                           Pat heeft geneesmiddel (nog) niet nodig      10307310427321000136010520060509201100000000000000000000
0410021000137ANINDAK9Bij deze indicatie akkoord/niet nodig                                 Bij deze indicatie akkoord/niet nodig        10307310427321000137220520061507201400000000000000000000
0410021000138ANINMAM9I.m.m. (in manu medici)                                               I.m.m.                                       10307310427321000138300120072701200900000000000000000000
0410021000139ANMGBAN9Maagbescherming is aanwezig                                           Maagbescherming is aanwezig                  10307310427321000139300120071311200800000000000000000000
0410021000140ANMGBAF9Maagbescherming is afwezig                                            Maagbescherming is afwezig                   10307310427321000140300120071311200800000000000000000000
0410021000141ANRETIF9Retourinfo van arts cq andere zorgverlener                            Retourinfo van arts cq andere zorgverlener   10307310427321000141300120070106200500000000000000000000
0410021000142ANUIVPL9Verschillende toepassingen                                            Verschillende toepassingen                   10307310427321000142060420070507200700000000000000000000
0410021000143ANSGNLE9Sterkte niet leverbaar                                                Sterkte niet leverbaar                       10307310427300000000060420070000000000000000000000000000
0410021000144ANAKINV9Akkoord na informatie van voorschrijver                               Akkoord na informatie van voorschrijver      10307310427321000144240520071105200600000000000000000000
0410021000145ANSITEB9Signaal terecht,geneesmiddel wordt bezorgd                            Signaal terecht,geneesmiddel wordt bezorgd   10307310427300000000160820073008200700000000000000000000
0410021000146ANCOBEB9Contact naar aanleiding van bezorgbrief                               Contact nav bezorgbrief                      10307310427300000000160820070609201100000000000000000000
0410021000147ANPANIB9Patient is niet bereikbaar                                            Pat is niet bereikbaar                       10307310427300000000160820070509201100000000000000000000
0410021000148ANPGNIN9Patient wenst geen info/begeleiding/ondersteuning                     Pat wenst geen info/begeleiding/onderst      10307310427300000000160820070509201100000000000000000000
0410021000149ANBIJZT9Bijzondere toepassing, combinatie in dit geval rationeel              Bijzondere toepassing, combi hier rationeel  10307310427321000149300820070506200800000000000000000000
0410021000150ANTOEDI9Informatie over toediening nodig                                      Info over toediening nodig                   10307310427300000000030120080106200500000000000000000000
0410021000151ANINTAK9Intake                                                                Intake                                       10307310427300000000030120080301200800000000000000000000
0410021000153ANPICOM9Patient is ingesteld op combinatie                                    Pat is ingesteld op combinatie               10307310427300000000030120080509201100000000000000000000
0410021000154ANOUDNW9Oude geneesmiddel gestopt,nieuwe gnm gestart                          Oude geneesmiddel gestopt,nieuwe gnm gestart 10307310427300000000260220080506200800000000000000000000
0410021000155ANOUTST9Oude therapie is tijdelijk gestopt                                    Oude therapie is tijdelijk gestopt           10307310427300000000050620081311200800000000000000000000
0410021000156ANSAMBE9Samenstelling en bereidingsvoorschrift ontbreken                      Samenstelling en bereidingsvoorschr ontbreken10307310427300000000050620080106200500000000000000000000
0410021000157ANFTSNA9Farmacotherapie en/of samenstelling niet akkoord                      Farmacotherapie en/of samenst niet akkoord   10307310427300000000050620080506200800000000000000000000
0410021000158ANAFBDO9Afbouwdosering                                                        Afbouwdosering                               10307310427300000000131120080301200800000000000000000000
0410021000159ANMEDNZ9Medische noodzaak                                                     Medische noodzaak                            10307310427300000000130120092701200900000000000000000000
0410021000160ANOUDHM9Oude hulpmiddel is nog in gebruik                                     Oude hulpmiddel is nog in gebruik            10307310427300000000130120092701200900000000000000000000
0410021000162ANTWGNS9Twee geneesmiddelen samen                                             Twee geneesmiddelen samen                    10307310427300000000130120092701200900000000000000000000
0410021000163ANSGNIN9Ander signaal leidt tot ingrijpen                                     Ander signaal leidt tot ingrijpen            10307310427300000000130120092701200900000000000000000000
0410021000164ANPDLIM9Patient wenst deelname LIM                                            Pat wenst deelname LIM                       10307310427300000000200120090509201100000000000000000000
0410021000165ANGDLIM9Patient wenst geen deelname LIM                                       Pat wenst geen deelname LIM                  10307310427300000000200120090509201100000000000000000000
0410021000166ANSYNCH9Synchronisatie                                                        Synchronisatie                               10307310427300000000260120090805200600000000000000000000
0410021000167ANOPBDS9Opbouwdosering                                                        Opbouwdosering                               10307310427300000000160220092304200900000000000000000000
0410021000168ANAKAPO9Akkoord na overleg met apotheker                                      Akkoord na overleg met apotheker             10307310427300000000090320090301200800000000000000000000
0410021000169ANINNAK9Bij deze indicatie nodig/niet akkoord                                 Bij deze indicatie nodig/niet akkoord        10307310427300000000300620091507201400000000000000000000
0410021000170ANINGCO9Incidenteel gebruik                                                   Incidenteel gebruik                          10307310427300000000290920091311200800000000000000000000
0410021000171ANCHGCO9Dagelijks gebruik                                                     Dagelijks gebruik                            10307310427300000000290920091211200900000000000000000000
0410021000172ANDOIHG9Dosering is hoog                                                      Dosering is hoog                             10307310427300000000271120090106200500000000000000000000
0410021000173ANDOILG9Dosering is laag                                                      Dosering is laag                             10307310427300000000271120090106200500000000000000000000
0410021000174ANPTTOE9Bij deze patient niet akkoord                                         Bij deze patient niet akkoord                10307310427300000000270120100000000000000000000000000000
0410021000175ANLAXAA9Laxans is aanwezig                                                    Laxans is aanwezig                           10307310427300000000280120100106200500000000000000000000
0410021000176ANMGBON9Maagbescherming is onvoldoende                                        Maagbescherming is onvoldoende               10307310427300000000110220101311200800000000000000000000
0410021000177ANGEWCO9Alleen codering is gewijzigd                                          Alleen codering is gewijzigd                 10307310427300000000120520102307201000000000000000000000
0410021000178ANLAXNN9Laxans blijkt niet nodig                                              Laxans blijkt niet nodig                     10307310427300000000120520100106200500000000000000000000
0410021000179ANSINIR9Signaal niet relevant                                                 Signaal niet relevant                        10307310427300000000120520100106200500000000000000000000
0410021000180ANPREFB9Preferentiebeleid                                                     Preferentiebeleid                            10307310427300000000120520100106200500000000000000000000
0410021000181ANNIELE9Ander geneesmiddel niet leverbaar                                     Ander geneesmiddel niet leverbaar            10307310427300000000120520100106200500000000000000000000
0410021000182ANGNILE9Geneesmiddel niet leverbaar                                           Geneesmiddel niet leverbaar                  10307310427300000000170620100301200800000000000000000000
0410021000183ANWEVOO9Patient wenst voorlichting                                            Pat wenst voorlichting                       10307310427300000000240620100509201100000000000000000000
0410021000184ANWGSTR9Patient wenst geen voorlichting stoppen met roken                     Pat wenst geen voorlicht stoppen met roken   10307310427300000000240620100509201100000000000000000000
0410021000185ANWGGZG9Patient wenst geen voorlicht gezond gewicht                           Pat wenst geen voorlicht gezond gewicht      10307310427300000000240620100509201100000000000000000000
0410021000186ANWEDRT9Patient wenst diabetes risicotest                                     Pat wenst diabetes risicotest                10307310427300000000240620100509201100000000000000000000
0410021000187ANWGDRT9Patient wenst geen diabetes risicotest                                Pat wenst geen diabetes risicotest           10307310427300000000240620100509201100000000000000000000
0410021000188ANWGBSM9Patient wenst geen bloedsuiker meting                                 Pat wenst geen bloedsuiker meting            10307310427300000000240620100509201100000000000000000000
0410021000189ANWEBSM9Patient wenst bloedsuiker meting                                      Pat wenst bloedsuiker meting                 10307310427300000000240620100509201100000000000000000000
0410021000190ANWGBMM9Patient wenst geen BMI meting                                         Pat wenst geen BMI meting                    10307310427300000000240620100509201100000000000000000000
0410021000191ANWGCHM9Patient wenst geen cholesterol meting                                 Pat wenst geen cholesterol meting            10307310427300000000240620100509201100000000000000000000
0410021000192ANWECHM9Patient wenst cholesterol meting                                      Pat wenst cholesterol meting                 10307310427300000000240620100509201100000000000000000000
0410021000193ANWEBMM9Patient wenst BMI meting                                              Pat wenst BMI meting                         10307310427300000000240620100509201100000000000000000000
0410021000194ANWEBDM9Patient wenst bloeddruk meting                                        Pat wenst bloeddruk meting                   10307310427300000000240620100509201100000000000000000000
0410021000195ANWGBDM9Patient wenst geen bloeddruk meting                                   Pat wenst geen bloeddruk meting              10307310427300000000240620100509201100000000000000000000
0410021000196ANINOOP9Informatie ontvangen/opgevraagd                                       Informatie ontvangen/opgevraagd              10307310427300000000240620100106200500000000000000000000
0410021000197ANTHEAK9Therapietrouw akkoord                                                 Therapietrouw akkoord                        10307310427300000000240620100301200800000000000000000000
0410021000198ANMDTOR9Meer dan twee orale middelen                                          Meer dan twee orale middelen                 10307310427300000000240620100301200800000000000000000000
0410021000199ANNMDTO9Niet meer dan twee orale middelen                                     Niet meer dan twee orale middelen            10307310427300000000240620100301200800000000000000000000
0410021000200ANCONJU9Combinatie is niet juist                                              Combinatie is niet juist                     10307310427300000000240620101107200500000000000000000000
0410021000201ANCOMJU9Combinatie is juist                                                   Combinatie is juist                          10307310427300000000240620101107200500000000000000000000
0410021000202ANWEGIN9Patient wenst geen intake                                             Pat wenst geen intake                        10307310427300000000240620100509201100000000000000000000
0410021000204ANWGINS9Patient wenst geen (herhaal)instructie                                Pat wenst geen (herhaal)instructie           10307310427300000000240620100509201100000000000000000000
0410021000206ANWGDIP9Patient wenst geen diabetespas/medicatieoverz                         Pat wenst geen diabetespas/medicatieoverz    10307310427300000000240620100509201100000000000000000000
0410021000208ANVERIG9Verouderd middel in gebruik                                           Verouderd middel in gebruik                  10307310427300000000280620100106200500000000000000000000
0410021000209ANGEVEM9Geen verouderd middel in gebruik                                      Geen verouderd middel in gebruik             10307310427300000000280620100106200500000000000000000000
0410021000210ANGEMGM9Geen minder geschikt middel in gebruik                                Geen minder geschikt middel in gebruik       10307310427300000000280620100106200500000000000000000000
0410021000211ANMIGEM9Minder geschikt middel in gebruik                                     Minder geschikt middel in gebruik            10307310427300000000280620100106200500000000000000000000
0410021000212ANGWEDN9Gebruik weekdoseersysteem niet juist                                  Gebruik weekdoseersysteem niet juist         10307310427300000000280620101207201000000000000000000000
0410021000213ANGWEDJ9Gebruik weekdoseersysteem juist                                       Gebruik weekdoseersysteem juist              10307310427300000000280620101207201000000000000000000000
0410021000214ANWGOPM9Patient wenst geneesmiddel (op maat), incl bereiding en VTGM          Pat wenst gnm(op maat) incl bereiding en VTGM10307310427300000000280620102308201100000000000000000000
0410021000215ANPWMBO9Patient wenst medicatiebeoordeling                                    Pat wenst medicatiebeoordeling               10307310427300000000280620102411201100000000000000000000
0410021000216ANPWGJM9Patient wenst geen jaarlijkse med.analyse                             Pat wenst geen jaarlijkse med.analyse        10307310427300000000280620100509201100000000000000000000
0410021000217ANWMEGO9Patient wenst medicijngesprek na ontslag zh                           Pat wenst medicijngesprek na ontslag zh      10307310427300000000280620100509201100000000000000000000
0410021000218ANWGMGO9Patient wenst geen medicatiegesprek na ziekenhuisverblijf             Pat wenst geen med.gesprek na zkh-verblijf   10307310427300000000280620100509201100000000000000000000
0410021000219ANPWHUI9Patient wenst huisbezoek                                              Pat wenst huisbezoek                         10307310427300000000280620100509201100000000000000000000
0410021000220ANPWGHU9Patient wenst geen huisbezoek                                         Pat wenst geen huisbezoek                    10307310427300000000280620100509201100000000000000000000
0410021000221ANPADRA9Patient wenst advies ivm ramadan                                      Pat wenst advies ivm ramadan                 10307310427300000000280620100509201100000000000000000000
0410021000222ANPGINR9Patient wenst geen info ivm ramadan                                   Pat wenst geen info ivm ramadan              10307310427300000000280620100509201100000000000000000000
0410021000223ANWMEOZ9Patient wenst medicijngesprek bij opname zh                           Pat wenst medicijngesprek bij opname zh      10307310427300000000280620100509201100000000000000000000
0410021000224ANWGMOZ9Patient wenst geen medicatiegesprek voor ziekenhuiopname              Pat wenst geen med.gesprek voor zkh-opname   10307310427300000000280620100509201100000000000000000000
0410021000225ANACINB9Actuele informatie beschikbaar                                        Actuele informatie beschikbaar               10307310427300000000280620100106200500000000000000000000
0410021000226ANPBIBO9Patient behoeft info/begeleiding                                      Pat behoeft info/begeleiding                 10307310427300000000070720102609201100000000000000000000
0410021000227ANBVOOR9Patient behoeft voorlichting                                          Pat behoeft voorlichting                     10307310427300000000070720100509201100000000000000000000
0410021000228ANWGVIN9Patient wenst geen voorlicht influenzavacc                            Pat wenst geen voorlicht influenzavacc       10307310427300000000070720100509201100000000000000000000
0410021000229ANBEDRT9Patient behoeft diabetes risicotest                                   Pat behoeft diabetes risicotest              10307310427300000000070720100509201100000000000000000000
0410021000230ANBEBSM9Patient behoeft bloedsuiker meting                                    Pat behoeft bloedsuiker meting               10307310427300000000070720100509201100000000000000000000
0410021000231ANBEBMM9Patient behoeft BMI meting                                            Pat behoeft BMI meting                       10307310427300000000070720100509201100000000000000000000
0410021000232ANBGCHM9Patient behoeft cholesterol meting                                    Pat behoeft cholesterol meting               10307310427300000000070720100509201100000000000000000000
0410021000233ANBEBDM9Patient behoeft bloeddruk meting                                      Pat behoeft bloeddruk meting                 10307310427300000000070720100509201100000000000000000000
0410021000234ANBEGOM9Pat behoeft gnm(op maat) incl bereiding en VTGM                       Pat behoeft gnm(op maat) incl bereiding, VTGM10307310427300000000070720101110201100000000000000000000
0410021000235ANBJMEA9Patient behoeft jaarlijkse medicatieanalyse                           Pat behoeft jaarlijkse medicatieanalyse      10307310427300000000070720100509201100000000000000000000
0410021000236ANBMGNO9Patient behoeft medicatiegesprek na zieknhuisverblijf                 Pat behoeft medicatiegesprek na zkh-verblijf 10307310427300000000070720100509201100000000000000000000
0410021000237ANPBMOZ9Patient behoeft medicatieoverzicht voor ziekenhuisopname              Pat behoeft med.overzicht voor zkh-opname    10307310427300000000070720100609201100000000000000000000
0410021000238ANBEHUB9Patient behoeft huisbezoek                                            Pat behoeft huisbezoek                       10307310427300000000070720100509201100000000000000000000
0410021000239ANPBIRA9Patient behoeft info ivm ramadan                                      Pat behoeft info ivm ramadan                 10307310427300000000070720100509201100000000000000000000
0410021000240ANBHSME9Betreft herhaling seizoensgebonden medicatie                          Betreft herhaling seizoensgebonden medicatie 10307310427300000000120720100000000000000000000000000000
0410021000241ANWGVOO9Patient wenst geen voorlichting                                       Pat wenst geen voorlichting                  10307310427300000000120720100509201100000000000000000000
0410021000242ANGTHNK9Gebruik test-/hulpmiddelen niet akkoord                               Gebruik test-/hulpmiddelen niet akkoord      10307310427300000000210720101207201000000000000000000000
0410021000243ANGTHAK9Gebruik test-/hulpmiddelen akkoord                                    Gebruik test-/hulpmiddelen akkoord           10307310427300000000210720101207201000000000000000000000
0410021000245ANWGSAV9Patient wenst geen voorl saneren bij allergie                         Pat wenst geen voorl saneren bij allergie    10307310427300000000210720100509201100000000000000000000
0410021000246ANOVBEM9Overgebruik beta-2-mimetica                                           Overgebruik beta-2-mimetica                  10307310427300000000210720100301200800000000000000000000
0410021000247ANGVBEM9Geen overgebruik beta-2-mimetica                                      Geen overgebruik beta-2-mimetica             10307310427300000000210720100301200800000000000000000000
0410021000248ANMIGHM9Minder geschikt hulpmiddel in gebruik                                 Minder geschikt hulpmiddel in gebruik        10307310427300000000210720100106200500000000000000000000
0410021000249ANGMGHM9Geen minder geschikt hulpmiddel in gebruik                            Geen minder geschikt hulpmiddel in gebruik   10307310427300000000210720100106200500000000000000000000
0410021000250ANPWGMO9Patient wenst geen medicatieoverzicht                                 Pat wenst geen medicatieoverzicht            10307310427300000000210720100509201100000000000000000000
0410021000251ANMDDBV9Meer dan drie bloeddrukverlagende middelen                            Meer dan drie bloeddrukverlagende middelen   10307310427300000000210720100301200800000000000000000000
0410021000252ANNMDDB9Niet meer dan 3 bloeddrukverlagende middelen                          Niet meer dan 3 bloeddrukverlagende middelen 10307310427300000000210720100301200800000000000000000000
0410021000253ANPINTA9Patient wenst intake                                                  Pat wenst intake                             10307310427300000000070920100509201100000000000000000000
0410021000254ANWEZDN9Patient wenst zorgdocument op naam                                    Pat wenst zorgdocument op naam               10307310427300000000070920100509201100000000000000000000
0410021000255ANPBINT9Patient behoeft intake                                                Pat behoeft intake                           10307310427300000000070920100509201100000000000000000000
0410021000256ANPBZON9Patient behoeft zorgdocument op naam                                  Pat behoeft zorgdocument op naam             10307310427300000000070920100509201100000000000000000000
0410021000257ANPBMGS9Patient behoeft medicatiegesprek                                      Pat behoeft medicatiegesprek                 10307310427300000000070920100509201100000000000000000000
0410021000258ANNWINB9Nieuwe informatie nodig/beschikbaar (lab, CI)                         Nieuwe info nodig/beschikbaar (lab, CI)      10307310427300000000070920102510201100000000000000000000
0410021000259ANZBZDN9Zorgverlener behoeft zorgdocument op naam                             Zorgverlener behoeft zorgdocument op naam    10307310427300000000070920100106200500000000000000000000
0410021000260ANPWGMG9Patient wenst geen medicatiegesprek                                   Pat wenst geen medicatiegesprek              10307310427300000000090920100509201100000000000000000000
0410021000261ANPWMOZ9Patient wenst medicatieoverzicht voor zkh-opname                      Pat wenst med.overzicht voor zkh-opname      10307310427300000000090920100609201100000000000000000000
0410021000262ANPWGOD9Patient wenst geen overdracht                                         Pat wenst geen overdracht                    10307310427300000000090920100509201100000000000000000000
0410021000263ANPWMGS9Patient wenst medicatiegesprek                                        Pat wenst medicatiegesprek                   10307310427300000000090920100509201100000000000000000000
0410021000264ANCREON9Creatinineklaring onvoldoende                                         Creatinineklaring onvoldoende                10307310427300000000251020102708201000000000000000000000
0410021000265ANAKKNE9Akkoord na overleg met nefroloog                                      Akkoord na overleg met nefroloog             10307310427300000000251020100301200800000000000000000000
0410021000266ANINSTR9Patient wenst instructie                                              Pat wenst instructie                         10307310427300000000081120100509201100000000000000000000
0410021000267ANCOGEW9Controle gewenst                                                      Controle gewenst                             10307310427300000000200120111107200500000000000000000000
0410021000268ANEGEIO9Eerder geen instructie ontvangen                                      Eerder geen instructie ontvangen             10307310427300000000200120111107200500000000000000000000
0410021000269ANINUNN9Instructie bij deze uitgifte niet nodig                               Instructie bij deze uitgifte niet nodig      10307310427300000000200120111107200500000000000000000000
0410021000270ANPGCIN9Patient wenst geen controle inhalatietechniek                         Pat wenst geen controle inhalatietechniek    10307310427300000000200120110509201100000000000000000000
0410021000271ANPGEIN9Patient wenst geen instructie                                         Pat wenst geen instructie                    10307310427300000000200120110509201100000000000000000000
0410021000272ANCREVO9Creatinineklaring voldoende                                           Creatinineklaring voldoende                  10307310427300000000210220112708201000000000000000000000
0410021000273ANAKSPE9Akkoord na overleg met specialist                                     Akkoord na overleg met specialist            10307310427300000000210220110301200800000000000000000000
0410021000274ANPZINS9Patient is (door andere zorgverl)geinstrueerd                         Pat is (door andere zorgverl)geinstrueerd    10307310427300000000120420110509201100000000000000000000
0410021000275ANINSTG9Instructie gewenst                                                    Instructie gewenst                           10307310427300000000120420111107200500000000000000000000
0410021000276ANBCORT9Patient behoeft COPD-risicotest                                       Pat behoeft COPD-risicotest                  10307310427300000000200620110509201100000000000000000000
0410021000277ANWGCRT9Patient wenst geen COPD-risicotest                                    Pat wenst geen COPD-risicotest               10307310427300000000200620110509201100000000000000000000
0410021000278ANWCORT9Patient wenst COPD-risicotest                                         Pat wenst COPD-risicotest                    10307310427300000000200620110509201100000000000000000000
0410021000279ANKRTDG9Kortdurend gebruik                                                    Kortdurend gebruik                           10307310427300000000070720110106200500000000000000000000
0410021000280ANPAAND9Patient wenst informatie aandoening/ziektebeeld                       Pat wenst info aandoening/ziektebeeld        10307310427300000000230820110509201100000000000000000000
0410021000281ANPADZM9Patient wenst advies zelfmanagement                                   Pat wenst advies zelfmanagement              10307310427300000000230820110509201100000000000000000000
0410021000282ANPADZZ9Patient wenst advies zelfzorg                                         Pat wenst advies zelfzorg                    10307310427300000000230820110509201100000000000000000000
0410021000283ANPWMET9Patient wenst meting/meetwaarde/test                                  Pat wenst meting/meetwaarde/test             10307310427300000000230820110509201100000000000000000000
0410021000284ANPWCON9Patient wenst consult                                                 Pat wenst consult                            10307310427300000000230820110509201100000000000000000000
0410021000285ANPONGG9Patient wenst ondersteuning geneesmiddelgebruik                       Pat wenst ondersteuning gnm-gebruik          10307310427300000000230820110509201100000000000000000000
0410021000286ANPWRAD9Patient wenst reisadvies                                              Pat wenst reisadvies                         10307310427300000000230820110509201100000000000000000000
0410021000287ANPWSYN9Patient wenst synchronisatie                                          Pat wenst synchronisatie                     10307310427300000000230820110509201100000000000000000000
0410021000288ANPMEDO9Patient wenst medicatieoverzicht                                      Pat wenst medicatieoverzicht                 10307310427300000000230820110509201100000000000000000000
0410021000289ANPMGZK9Patient wenst medicatiegesprek na ziekenhuisverblijf                  Pat wenst med.gesprek na zkh-verblijf        10307310427300000000230820110509201100000000000000000000
0410021000290ANPBIJW9Patient wenst informatie bijwerking                                   Pat wenst info bijwerking                    10307310427300000000230820110509201100000000000000000000
0410021000291ANPGEBR9Patient wenst informatie gebruik                                      Pat wenst info gebruik                       10307310427300000000230820110509201100000000000000000000
0410021000292ANPKGNM9Patient wenst informatie (keuze) geneesmiddel                         Pat wenst info (keuze) gnm                   10307310427300000000230820110509201100000000000000000000
0410021000293ANPTOED9Patient wenst informatie toedienen geneesmiddel                       Pat wenst info toedienen gnm                 10307310427300000000230820110509201100000000000000000000
0410021000294ANPVERP9Patient wenst hulp ivm verpakking                                     Pat wenst hulp ivm verpakking                10307310427300000000230820110509201100000000000000000000
0410021000295ANGNOPG9Geneesmiddel niet opgehaald                                           Gnm niet opgehaald                           10307310427300000000060920110000000000000000000000000000
0410021000296ANONVRE9Onvolledig/onduidelijk/onjuist recept                                 Onvolledig/onduidelijk/onjuist recept        10307310427300000000060920110000000000000000000000000000
0410021000297ANPBRAM9Patient behoeft advies in verband met Ramadan                         Pat behoeft advies ivm Ramadan               10307310427300000000060920110609201100000000000000000000
0410021000298ANPBMET9Patient behoeft meting/meetwaarde/test                                Pat behoeft meting/meetwaarde/test           10307310427300000000060920110000000000000000000000000000
0410021000299ANPBCON9Patient behoeft consult                                               Pat behoeft consult                          10307310427300000000060920110000000000000000000000000000
0410021000300ANPBMBO9Patient behoeft medicatiebeoordeling                                  Pat behoeft medicatiebeoordeling             10307310427300000000060920112411201100000000000000000000
0410021000301ANPBOGG9Patient behoeft ondersteuning geneesmiddelgebruik                     Pat behoeft ondersteuning gnm-gebruik        10307310427300000000060920111405201200000000000000000000
0410021000302ANPBRAD9Patient behoeft reisadvies                                            Pat behoeft reisadvies                       10307310427300000000060920110000000000000000000000000000
0410021000303ANPBSYN9Patient behoeft synchronisatie                                        Pat behoeft synchronisatie                   10307310427300000000060920110000000000000000000000000000
0410021000304ANNGSGR9Niet-gestandaardiseerd uit grondstoffen                               Niet-gestandaardiseerd uit grondstoffen      10307310427300000000220920110000000000000000000000000000
0410021000305ANNGSHP9Niet-gestandaardiseerd uit handelspreparaat                           Niet-gestandaardiseerd uit handelspreparaat  10307310427300000000220920110000000000000000000000000000
0410021000306ANPASSA9Passant                                                               Passant                                      10307310427300000000260920110000000000000000000000000000
0410021000307ANZWINF9Zorgverlener wenst informatie/overleg                                 Zorgverlener wenst informatie/overleg        10307310427300000000111020110000000000000000000000000000
0410021000308ANPBTOE9Patient behoeft info toedienen gnm                                    Pat behoeft info toedienen gnm               10307310427300000000111020111110201100000000000000000000
0410021000309ANBINST9Patient behoeft instructie                                            Pat behoeft instructie                       10307310427300000000111020110000000000000000000000000000
0410021000310ANPWBEZ9Patient wenst thuisbezorging                                          Pat wenst thuisbezorging                     10307310427300000000251020112510201100000000000000000000
0410021000311ANRECAL9Waarschuwing of recall nodig                                          Waarschuwing of recall nodig                 10307310427300000000251020110000000000000000000000000000
0410021000312ANPBBEZ9Pat behoeft thuisbezorging                                            Pat behoeft thuisbezorging                   10307310427300000000031120110000000000000000000000000000
0410021000313ANBEUTH9Begeleiding euthanasie gewenst                                        Begeleiding euthanasie gewenst               10307310427300000000031120110000000000000000000000000000
0410021000314ANGNMNN9Toevoeging gnm niet nodig                                             Toevoeging gnm niet nodig                    10307310427300000000241120111105200600000000000000000000
0410021000315ANVSNOG9Aanpassingsvoorstel niet overgenomen door behandelaar of patient      Voorstel niet overgenomen behandelaar/pat    10307310427300000000281120110000000000000000000000000000
0410021000316ANCIACT9CI/intol/all/indic actueel                                            CI/intol/all/indic actueel                   10307310427300000000281120110000000000000000000000000000
0410021000317ANCINAC9Contra-indicatie actueel                                              CI actueel                                   10307310427300000000140520120106200500000000000000000000
0410021000318ANCINNA9Contra-indicatie niet actueel/niet bekend                             CI niet actueel/niet bekend                  10307310427300000000140520122708201000000000000000000000
0410021000319ANCRENB9Creatinineklaring onbekend/niet recent bepaald                        Creatinineklaring onbekend/niet recent bepld 10307310427300000000120220132708201000000000000000000000
0410021000320ANMXBNO9Maximale blootstelling niet overschreden                              Maximale blootstelling overschreden          10307310427300000000040820170000000000000000000000000000
0410021000321ANMXBWO9Maximale blootstelling overschreden                                   Maximale blootstelling niet overschreden     10307310427300000000040820170000000000000000000000000000
0410030000002ACMBSAF9Medicatiebewakingssignaal afgehandeld                                 Medicatiebewakingssignaal afgehandeld        10307310427330000002051120030106200500000000000000000000
0410030000003ACGEENA9Geen actie uitgevoerd                                                 Geen actie uitgevoerd                        10307310427330000003051120030106200500000000000000000000
0410030000004ACINSTR9Instructie gegeven                                                    Instructie gegeven                           10307310427330000004051120030106200500000000000000000000
0410030000007ACMETVE9Meting verricht                                                       Meting verricht                              10307310427330000007061120030106200500000000000000000000
0410030000008ACOVSER9Overige zorg verstrekt                                                Overige zorg verstrekt                       10307310427330000008061120030909201000000000000000000000
0410030000009ACOVZGV9Overlegd met andere zorgverlener                                      Overlegd met andere zorgverlener             10307310427330000009061120030909201000000000000000000000
0410030000010ACPVERW9Patient verwezen                                                      Patient verwezen                             10307310427330000010061120030106200500000000000000000000
0410030000011ACVRLGE9Voorlichting gegeven                                                  Voorlichting gegeven                         10307310427330000011061120030106200500000000000000000000
0410030000012ACEUVOO9Eerste uitgifte voorlichting gegeven                                  Eerste uitgifte voorlichting gegeven         10307310427330000012191120030106200500000000000000000000
0410030000013ACTUVOO9Tweede uitgifte voorlichting gegeven                                  Tweede uitgifte voorlichting gegeven         10307310427330000013191120030106200500000000000000000000
0410030000014ACVUVOO9Vervolguitgifte voorlichting gegeven                                  Vervolguitgifte voorlichting gegeven         10307310427330000014191120030106200500000000000000000000
0410030000015ACZRGDO9Zorgdocument op naam afgeleverd                                       Zorgdocument op naam afgeleverd              10307310427330000015191120030106200500000000000000000000
0410030000016ACVRLNI9Voorlichting niet-individueel gegeven                                 Voorlichting niet-individueel gegeven        10307310427330000016191120030106200500000000000000000000
0410030000017ACAVGVA9Aanvullende gegevens rond medicatie vastgelegd                        Aanvullende gegevens medicatie vastgelegd    10307310427330000017191120030106200500000000000000000000
0410030000018ACPRVRB9Projectvoorbereidingen getroffen                                      Projectvoorbereidingen getroffen             10307310427330000018191120030106200500000000000000000000
0410030000019-       -                                                                     -                                            10307310427330000019081220030000000000000000000000000000
0410030000020ACPROSA9Projectactie uitgevoerd                                               Projectactie uitgevoerd                      10307310427330000020160220041107200500000000000000000000
0410031000001-       -                                                                     -                                            10307310427331000001061120030000000000000000000000000000
0410031000002AGSIGAF1Signaalafhandelingen                                                  Signaalafhandelingen                         10307310427331000002051120030106200500000000000000000000
0410031000003AGOVLPA2Overlegpartijen                                                       Overlegpartijen                              10307310427331000003051120030106200500000000000000000000
0410031000005AGINDIC3Indicatie                                                             Indicatie                                    10307310427331000005061120030106200500000000000000000000
0410031000008AGINSTR2Instructie                                                            Instructie                                   10307310427331000008061120030106200500000000000000000000
0410031000009AGMETIN2Meting                                                                Meting                                       10307310427331000009061120030106200500000000000000000000
0410031000010AGSERVD2Zorgactiviteiten divers                                               Zorgactiviteiten divers                      10307310427331000010061120030909201000000000000000000000
0410031000011AGVOORL1Voorlichting                                                          Voorlichting                                 10307310427331000011061120030106200500000000000000000000
0410031000012AGVRLNI2Voorlichting niet-individueel                                         Voorlichting niet-individueel                10307310427331000012191120030106200500000000000000000000
0410031000013AGAANVG2Vastleggen aanvullende gegevens rond medicatie                        Vastleggen gegevens                          10307310427331000013191120032811201100000000000000000000
0410031000014AGZORGD2Zorgdocument op naam                                                  Zorgdocument op naam                         10307310427331000014191120030106200500000000000000000000
0410031000015AGSPRKU2Spreekuur                                                             Spreekuur                                    10307310427331000015191120030106200500000000000000000000
0410031000016AGINFMA2Informatiemateriaal gemaakt                                           Informatiemateriaal gemaakt                  10307310427331000016191120030106200500000000000000000000
0410031000017AGPROJV2Projectvoorbereidingen                                                Projectvoorbereidingen                       10307310427331000017191120030106200500000000000000000000
0410031000018AGEUVRL1Eerste uitgifte-voorlichting                                          EU-voorlichting                              10307310427331000018100320050106200500000000000000000000
0410031000019AGTUVRL1Tweede uitgifte-voorlichting                                          TU-voorlichting                              10307310427331000019100320050106200500000000000000000000
0410031000020AGVUVRL1Vervolguitgifte-voorlichting                                          VU-voorlichting                              10307310427331000020100320050106200500000000000000000000
0410031000021AGVERWE2Verwijspartijen                                                       Verwijspartijen                              10307310427331000021100320050408200800000000000000000000
0410032000001-       -                                                                     -                                            10307310427332000001061120030000000000000000000000000000
0410032000002STRKWIJ9Sterkte gewijzigd                                                     Sterkte gewijzigd                            10307310427332000002051120030606200500000000000000000000
0410032000003STRKLVS9Sterkte van laatst bekende voorschrift aangehouden                    Sterkte ltst bekende voorschrift aangehouden 10307310427332000003051120030606200500000000000000000000
0410032000004DOSETMA9Dosis maximaal per etmaal aangegeven                                  Dosis maximaal per etmaal aangegeven         10307310427332000004051120030206200500000000000000000000
0410032000005GBRADVS9Gebruiksadvies gegeven                                                Gebruiksadvies gegeven VV !!!                10307310427332000005051120032405200600000000000000000000
0410032000006GNMNVSV9Geneesmiddel niet verstrekt en niet vervangen                         Geneesmiddel niet verstrekt en niet vervangen10307310427332000006051120030206200500000000000000000000
0410032000008APOTHKR9Apotheker                                                             Apotheker                                    10307310427300000000061120030206200500000000000000000000
0410032000009APOASSI9Apothekersassistent                                                   Apothekersassistent                          10307310427300000000061120030206200500000000000000000000
0410032000010ASTCOPD9Astma/COPD                                                            Astma/COPD                                   10307310427300000000061120031404201100000000000000000000
0410032000011GNMTOEV9Geneesmiddel toegevoegd                                               Geneesmiddel toegevoegd                      10307310427332000011111120030206200500000000000000000000
0410032000012HUISART9Huisarts                                                              Huisarts                                     10307310427300000000121120030206200500000000000000000000
0410032000013PATIENT9Patient zelf                                                          Patient zelf                                 10307310427300000000121120030206200500000000000000000000
0410032000014SPECIAL9Specialist                                                            Specialist                                   10307310427300000000121120030606200500000000000000000000
0410032000015VRSCHRV9Voorschrijver                                                         Voorschrijver                                10307310427300000000121120030606200500000000000000000000
0410032000016THSZWVP9Thuiszorg/wijkverpleging                                              Thuiszorg/wijkverpleging                     10307310427300000000121120030307200800000000000000000000
0410032000017DIPPERS9Dipper                                                                Dipper                                       10307310427300000000121120030206200500000000000000000000
0410032000018DIABVPL9Diabetesverpleegkundige                                               Diabetesverpleegkundige                      10307310427300000000121120030206200500000000000000000000
0410032000019ZKHSAPO9Ziekenhuisapotheker                                                   Ziekenhuisapotheker                          10307310427300000000121120030606200500000000000000000000
0410032000020LONGVPK9Longverpleegkundige                                                   Longverpleegkundige                          10307310427300000000121120030206200500000000000000000000
0410032000021DEPRESS9Depressie                                                             Depressie                                    10307310427300000000191120030206200500000000000000000000
0410032000022DIABMEL9Diabetes mellitus                                                     Diabetes mellitus                            10307310427300000000191120030206200500000000000000000000
0410032000023HOOFDPN9Hoofdpijn                                                             Hoofdpijn                                    10307310427300000000191120030206200500000000000000000000
0410032000024HUIDAAN9Huidaandoeningen                                                      Huidaandoeningen                             10307310427300000000191120030206200500000000000000000000
0410032000025HYPERTN9Hypertensie                                                           Hypertensie                                  10307310427300000000191120030206200500000000000000000000
0410032000026INCONTI9Incontinentie                                                         Incontinentie                                10307310427300000000191120030206200500000000000000000000
