04310MP9       0.7       20600000012011000000OTH                     0LOverig                                                                                                                                                          Overig                                                                                                                                                          000000000                
04310MP9       0.7       20600000012011000006305335007               0LAdmission to establishment (procedure)                                                                                                                          Opname                                                                                                                                                          000000000                
04310MP9       0.7       20600000012011000006438833006               0LAdministration of drug or medicament contraindicated (situation)                                                                                                Contra-indicatie                                                                                                                                                000000000                
04310MP9       0.7       2060000001201100000679899007                0LDrug interaction (disorder)                                                                                                                                     Interactie                                                                                                                                                      000000000                
04310MP9       0.7       2060000001201100001510                      0LBeleidswijziging                                                                                                                                                                                                                                                                                                                000000000                
04310MP9       0.7       2060000001201100001512                      0LWens patient                                                                                                                                                                                                                                                                                                                    000000000                
04310MP9       0.7       2060000001201100001514                      0LHervatten beleid vorige voorschrijver                                                                                                                                                                                                                                                                                           000000000                
04310MP9       0.7       2060000001201100001515                      0LGeplande procedure                                                                                                                                                                                                                                                                                                              000000000                
04310MP9       0.7       2060000001201100001516                      0LAllergie of non-allergische overgevoeligheid of bijwerking                                                                                                                                                                                                                                                                      000000000                
04310MP9       0.7       2060000001201100001517                      0LCorrectie                                                                                                                                                                                                                                                                                                                       000000000                
04310MP9       0.7       206000000120110000155                       0LGeen of onvoldoende effect                                                                                                                                                                                                                                                                                                      000000000                
04310MP9       0.7       206000000120110000156                       0LTe sterk effect                                                                                                                                                                                                                                                                                                                 000000000                
04310MP9       0.7       206000000120110000158                       0LToedieningsweg voldoet niet                                                                                                                                                                                                                                                                                                     000000000                
04310MP9       0.7       206000000120110000159                       0LIndicatie vervallen                                                                                                                                                                                                                                                                                                             000000000                
04310MP9       0.7       20600000042011000000OTH                     0LOverig                                                                                                                                                          Overig                                                                                                                                                          000000000                
04310MP9       0.7       20600000042011000006305335007               0LAdmission to establishment (procedure)                                                                                                                          Opname                                                                                                                                                          000000000                
04310MP9       0.7       20600000042011000006438833006               0LAdministration of drug or medicament contraindicated (situation)                                                                                                Contra-indicatie                                                                                                                                                000000000                
04310MP9       0.7       2060000004201100000679899007                0LDrug interaction (disorder)                                                                                                                                     Interactie                                                                                                                                                      000000000                
04310MP9       0.7       2060000004201100001510                      0LBeleidswijziging                                                                                                                                                                                                                                                                                                                000000000                
04310MP9       0.7       2060000004201100001512                      0LWens patient                                                                                                                                                                                                                                                                                                                    000000000                
04310MP9       0.7       2060000004201100001513                      0LVolgens afspraak                                                                                                                                                                                                                                                                                                                000000000                
04310MP9       0.7       2060000004201100001514                      0LHervatten beleid vorige voorschrijver                                                                                                                                                                                                                                                                                           000000000                
04310MP9       0.7       2060000004201100001515                      0LGeplande procedure                                                                                                                                                                                                                                                                                                              000000000                
04310MP9       0.7       2060000004201100001516                      0LAllergie of non-allergische overgevoeligheid of bijwerking                                                                                                                                                                                                                                                                      000000000                
04310MP9       0.7       206000000420110000155                       0LGeen of onvoldoende effect                                                                                                                                                                                                                                                                                                      000000000                
04310MP9       0.7       206000000420110000156                       0LTe sterk effect                                                                                                                                                                                                                                                                                                                 000000000                
04310MP9       0.7       206000000420110000158                       0LToedieningsweg voldoet niet                                                                                                                                                                                                                                                                                                     000000000                
04310MP9       0.7       206000000420110000159                       0LIndicatie vervallen                                                                                                                                                                                                                                                                                                             000000000                
04310MP9       0.7       206000000520110000111                       0LBewust hoge dosering                                                                                                                                                                                                                                                                                                            000000000                
04310MP9       0.7       206000000520110000112                       0LBewust lage dosering                                                                                                                                                                                                                                                                                                            000000000                
04310MP9       0.7       206000000520110000113                       0LBewust afwijkende toedieningsweg                                                                                                                                                                                                                                                                                                000000000                
04310MP9       0.7       206000000520110000114                       0LMedische noodzaak                                                                                                                                                                                                                                                                                                               000000000                
04310MP9       0.7       206000000520110000115                       0LProfylaxe                                                                                                                                                                                                                                                                                                                       000000000                
04310MP9       0.7       206000000520110000116                       0LWijziging in GDS per direct                                                                                                                                                                                                                                                                                                     000000000                
04310MP9       0.7       206000000520110000117                       0LWijziging in GDS per rolwissel                                                                                                                                                                                                                                                                                                  000000000                
04310MP9       0.7       206000000620110000121                       0LSpoed                                                                                                                                                                                                                                                                                                                           000000000                
04310MP9       0.7       206000000620110000122                       0LNiet in GDS                                                                                                                                                                                                                                                                                                                     000000000                
04310MP9       0.7       206000000620110000123                       0LBezorgen                                                                                                                                                                                                                                                                                                                        000000000                
04310MP9       0.7       206000000720110000141                       0LGeneesmiddel niet verstrekt                                                                                                                                                                                                                                                                                                     000000000                
04310MP9       0.7       2060000007201100001410                      0LGebruiksinstructie gegeven                                                                                                                                                                                                                                                                                                      000000000                
04310MP9       0.7       2060000007201100001411                      0LControle inhalatietechniek                                                                                                                                                                                                                                                                                                      000000000                
04310MP9       0.7       2060000007201100001412                      0LMeter periodieke controle                                                                                                                                                                                                                                                                                                       000000000                
04310MP9       0.7       2060000007201100001413                      0LPen controle/omruil                                                                                                                                                                                                                                                                                                             000000000                
04310MP9       0.7       2060000007201100001414                      0LBijwerking besproken                                                                                                                                                                                                                                                                                                            000000000                
04310MP9       0.7       2060000007201100001415                      0LAfhandeling bijwerking niet-lareb                                                                                                                                                                                                                                                                                               000000000                
04310MP9       0.7       2060000007201100001416                      0LMelding lareb                                                                                                                                                                                                                                                                                                                   000000000                
04310MP9       0.7       2060000007201100001417                      0LMedicatiebewaking OTC                                                                                                                                                                                                                                                                                                           000000000                
04310MP9       0.7       206000000720110000142                       0LNiet leverbaar                                                                                                                                                                                                                                                                                                                  000000000                
04310MP9       0.7       206000000720110000143                       0LMedicatieafspraak gewijzigd: substantie                                                                                                                                                                                                                                                                                         000000000                
04310MP9       0.7       206000000720110000144                       0LMedicatieafspraak gewijzigd: dosering                                                                                                                                                                                                                                                                                           000000000                
04310MP9       0.7       206000000720110000145                       0LMedicatieafspraak gewijzigd: farmaceutische vorm                                                                                                                                                                                                                                                                                000000000                
04310MP9       0.7       206000000720110000146                       0LMedicatieafspraak gewijzigd: verwisseling van persoon                                                                                                                                                                                                                                                                           000000000                
04310MP9       0.7       206000000720110000147                       0LMachtiging aangevraagd                                                                                                                                                                                                                                                                                                          000000000                
04310MP9       0.7       206000000720110000148                       0LMachtiging afgewezen                                                                                                                                                                                                                                                                                                            000000000                
04310MP9       0.7       206000000720110000149                       0LMachtiging in gebruik nemen                                                                                                                                                                                                                                                                                                     000000000                
04310MP9       0.7       206000000820110000131                       0LAantal bewust gewijzigd                                                                                                                                                                                                                                                                                                         000000000                
04310MP9       0.7       206000000820110000132                       0LRecall                                                                                                                                                                                                                                                                                                                          000000000                
04310MP9       0.7       206000000820110000133                       0LRetour                                                                                                                                                                                                                                                                                                                          000000000                
04310MP9       2.0.0     20600000012011000000OTH                     0LOverig                                                                                                                                                          Overig                                                                                                                                                          000000000                
04310MP9       2.0.0     20600000012011000006112191000146101         0Lmedicatietoedieningsweg voldoet niet                                                                                                                            aanpassing toedieningswijze                                                                                                                                     000000000                
04310MP9       2.0.0     20600000012011000006112251000146103         0Lte sterk effect van medicatie                                                                                                                                   te sterk effect van medicatie                                                                                                                                   000000000                
04310MP9       2.0.0     20600000012011000006112261000146100         0Lhervatten van beleid van vorige voorschrijver                                                                                                                   hervatten beleid vorige voorschrijver                                                                                                                           000000000                
04310MP9       2.0.0     20600000012011000006112751000146109         0Lmedicatiebeleid veranderd                                                                                                                                       ander voorschrijfbeleid                                                                                                                                         000000000                
04310MP9       2.0.0     20600000012011000006159691000146109         0Lfoutieve registratie van medicatie                                                                                                                              correctie                                                                                                                                                       000000000                
04310MP9       2.0.0     20600000012011000006159711000146106         0Lverzoek van zorgafnemer om behandeling te wijzigen                                                                                                              wens patient                                                                                                                                                    000000000                
04310MP9       2.0.0     20600000012011000006160131000146104         0Lverandering in labwaarde                                                                                                                                        verandering in labwaarde                                                                                                                                        000000000                
04310MP9       2.0.0     20600000012011000006180011000146107         0Ldubbele registratie van medicamenteuze behandeling                                                                                                              loopt in andere medicamenteuze behandeling                                                                                                                      000000000                
04310MP9       2.0.0     20600000012011000006182856006               0Lgeneesmiddel niet voorradig                                                                                                                                     leveringstekort                                                                                                                                                 000000000                
04310MP9       2.0.0     20600000012011000006183966005               0Lgeen indicatie voor medicamenteuze behandeling                                                                                                                  indicatie vervallen                                                                                                                                             000000000                
04310MP9       2.0.0     20600000012011000006305335007               0Lopname in instelling                                                                                                                                            opname                                                                                                                                                          000000000                
04310MP9       2.0.0     20600000012011000006405613005               0Lverrichting gepland                                                                                                                                             geplande procedure                                                                                                                                              000000000                
04310MP9       2.0.0     20600000012011000006438833006               0Ltoedienen van medicatie gecontra-indiceerd                                                                                                                      contra-indicatie                                                                                                                                                000000000                
04310MP9       2.0.0     2060000001201100000658848006                0Lgebrek aan geneesmiddeleffect                                                                                                                                   geen of onvoldoende effect                                                                                                                                      000000000                
04310MP9       2.0.0     2060000001201100000662014003                0Longewenste reactie op medicatie en/of drugs                                                                                                                     overgevoeligheid (allergie, intolerantie of bijwerking)                                                                                                         000000000                
04310MP9       2.0.0     2060000001201100000679899007                0Lgeneesmiddelinteractie                                                                                                                                          interactie                                                                                                                                                      000000000                
04310MP9       2.0.0     20600000022011000000OTH                     0LOverig                                                                                                                                                          Overig                                                                                                                                                          000000000                
04310MP9       2.0.0     20600000022011000006112251000146103         0Lte sterk effect van medicatie                                                                                                                                   te sterk effect van medicatie                                                                                                                                   000000000                
04310MP9       2.0.0     20600000022011000006112261000146100         0Lhervatten van beleid van vorige voorschrijver                                                                                                                   hervatten beleid vorige voorschrijver                                                                                                                           000000000                
04310MP9       2.0.0     20600000022011000006112751000146109         0Lmedicatiebeleid veranderd                                                                                                                                       ander voorschrijfbeleid                                                                                                                                         000000000                
04310MP9       2.0.0     20600000022011000006159691000146109         0Lfoutieve registratie van medicatie                                                                                                                              correctie                                                                                                                                                       000000000                
04310MP9       2.0.0     20600000022011000006159711000146106         0Lverzoek van zorgafnemer om behandeling te wijzigen                                                                                                              wens patient                                                                                                                                                    000000000                
04310MP9       2.0.0     20600000022011000006160131000146104         0Lverandering in labwaarde                                                                                                                                        verandering in labwaarde                                                                                                                                        000000000                
04310MP9       2.0.0     20600000022011000006180011000146107         0Ldubbele registratie van medicamenteuze behandeling                                                                                                              loopt in andere medicamenteuze behandeling                                                                                                                      000000000                
04310MP9       2.0.0     20600000022011000006305335007               0Lopname in instelling                                                                                                                                            opname                                                                                                                                                          000000000                
04310MP9       2.0.0     20600000022011000006405613005               0Lverrichting gepland                                                                                                                                             geplande procedure                                                                                                                                              000000000                
04310MP9       2.0.0     2060000002201100000658848006                0Lgebrek aan geneesmiddeleffect                                                                                                                                   geen of onvoldoende effect                                                                                                                                      000000000                
04310MP9       2.0.0     2060000002201100000679899007                0Lgeneesmiddelinteractie                                                                                                                                          interactie                                                                                                                                                      000000000                
04310MP9       2.0.0     20600000032011000000OTH                     0LOverig                                                                                                                                                          Overig                                                                                                                                                          000000000                
04310MP9       2.0.0     20600000032011000006112191000146101         0Lmedicatietoedieningsweg voldoet niet                                                                                                                            toedieningsweg voldoet niet                                                                                                                                     000000000                
04310MP9       2.0.0     20600000032011000006112251000146103         0Lte sterk effect van medicatie                                                                                                                                   te sterk effect van medicatie                                                                                                                                   000000000                
04310MP9       2.0.0     20600000032011000006112261000146100         0Lhervatten van beleid van vorige voorschrijver                                                                                                                   hervatten beleid vorige voorschrijver                                                                                                                           000000000                
04310MP9       2.0.0     20600000032011000006112751000146109         0Lmedicatiebeleid veranderd                                                                                                                                       ander voorschrijfbeleid                                                                                                                                         000000000                
04310MP9       2.0.0     20600000032011000006159691000146109         0Lfoutieve registratie van medicatie                                                                                                                              correctie                                                                                                                                                       000000000                
04310MP9       2.0.0     20600000032011000006159711000146106         0Lverzoek van zorgafnemer om behandeling te wijzigen                                                                                                              wens patient                                                                                                                                                    000000000                
04310MP9       2.0.0     20600000032011000006160131000146104         0Lverandering in labwaarde                                                                                                                                        verandering in labwaarde                                                                                                                                        000000000                
04310MP9       2.0.0     20600000032011000006160141000146107         0Lovergang naar geneesmiddeldistributiesysteem                                                                                                                    overgang naar GDS                                                                                                                                               000000000                
04310MP9       2.0.0     20600000032011000006160151000146105         0Lgeneesmiddelsubstitutie                                                                                                                                         substitutie                                                                                                                                                     000000000                
04310MP9       2.0.0     20600000032011000006180011000146107         0Ldubbele registratie van medicamenteuze behandeling                                                                                                              loopt in andere medicamenteuze behandeling                                                                                                                      000000000                
04310MP9       2.0.0     20600000032011000006182850000               0Lmedicatie niet verstrekt                                                                                                                                        medicatie niet verstrekt aan patient                                                                                                                            000000000                
04310MP9       2.0.0     20600000032011000006182856006               0Lgeneesmiddel niet voorradig                                                                                                                                     leveringstekort                                                                                                                                                 000000000                
04310MP9       2.0.0     20600000032011000006183966005               0Lgeen indicatie voor medicamenteuze behandeling                                                                                                                  indicatie vervallen                                                                                                                                             000000000                
04310MP9       2.0.0     20600000032011000006305335007               0Lopname in instelling                                                                                                                                            opname                                                                                                                                                          000000000                
04310MP9       2.0.0     20600000032011000006405613005               0Lverrichting gepland                                                                                                                                             geplande procedure                                                                                                                                              000000000                
04310MP9       2.0.0     20600000032011000006438833006               0Ltoedienen van medicatie gecontra-indiceerd                                                                                                                      contra-indicatie                                                                                                                                                000000000                
04310MP9       2.0.0     2060000003201100000658848006                0Lgebrek aan geneesmiddeleffect                                                                                                                                   geen of onvoldoende effect                                                                                                                                      000000000                
04310MP9       2.0.0     2060000003201100000662014003                0Longewenste reactie op medicatie en/of drugs                                                                                                                     overgevoeligheid (allergie, intolerantie of bijwerking)                                                                                                         000000000                
04310MP9       2.0.0     2060000003201100000679899007                0Lgeneesmiddelinteractie                                                                                                                                          interactie                                                                                                                                                      000000000                
04310MP9       2.0.0     20600000042011000000OTH                     0LOverig                                                                                                                                                          Overig                                                                                                                                                          000000000                
04310MP9       2.0.0     20600000042011000006112191000146101         0Lmedicatietoedieningsweg voldoet niet                                                                                                                            toedieningsweg voldoet niet                                                                                                                                     000000000                
04310MP9       2.0.0     20600000042011000006112221000146107         0Lmedicatiegebruik van patient volgens afspraak                                                                                                                   volgens afspraak                                                                                                                                                000000000                
04310MP9       2.0.0     20600000042011000006112251000146103         0Lte sterk effect van medicatie                                                                                                                                   te sterk effect van medicatie                                                                                                                                   000000000                
04310MP9       2.0.0     20600000042011000006112261000146100         0Lhervatten van beleid van vorige voorschrijver                                                                                                                   hervatten beleid vorige voorschrijver                                                                                                                           000000000                
04310MP9       2.0.0     20600000042011000006112751000146109         0Lmedicatiebeleid veranderd                                                                                                                                       ander voorschrijfbeleid                                                                                                                                         000000000                
04310MP9       2.0.0     20600000042011000006159691000146109         0Lfoutieve registratie van medicatie                                                                                                                              correctie                                                                                                                                                       000000000                
04310MP9       2.0.0     20600000042011000006159711000146106         0Lverzoek van zorgafnemer om behandeling te wijzigen                                                                                                              wens patient                                                                                                                                                    000000000                
04310MP9       2.0.0     20600000042011000006160131000146104         0Lverandering in labwaarde                                                                                                                                        verandering in labwaarde                                                                                                                                        000000000                
04310MP9       2.0.0     20600000042011000006182856006               0Lgeneesmiddel niet voorradig                                                                                                                                     leveringstekort                                                                                                                                                 000000000                
04310MP9       2.0.0     20600000042011000006183966005               0Lgeen indicatie voor medicamenteuze behandeling                                                                                                                  indicatie vervallen                                                                                                                                             000000000                
04310MP9       2.0.0     20600000042011000006305335007               0Lopname in instelling                                                                                                                                            opname                                                                                                                                                          000000000                
04310MP9       2.0.0     20600000042011000006405613005               0Lverrichting gepland                                                                                                                                             geplande procedure                                                                                                                                              000000000                
04310MP9       2.0.0     20600000042011000006438833006               0Ltoedienen van medicatie gecontra-indiceerd                                                                                                                      contra-indicatie                                                                                                                                                000000000                
04310MP9       2.0.0     2060000004201100000658848006                0Lgebrek aan geneesmiddeleffect                                                                                                                                   geen of onvoldoende effect                                                                                                                                      000000000                
04310MP9       2.0.0     2060000004201100000662014003                0Longewenste reactie op medicatie en/of drugs                                                                                                                     overgevoeligheid (allergie, intolerantie of bijwerking)                                                                                                         000000000                
04310MP9       2.0.0     2060000004201100000679899007                0Lgeneesmiddelinteractie                                                                                                                                          interactie                                                                                                                                                      000000000                
04310MP9       2.0.0     206000000520110000111                       0LBewust hoge dosering                                                                                                                                                                                                                                                                                                            000000000                
04310MP9       2.0.0     2060000005201100001110                      0LBewust van eerder gemelde overgevoeligheid                                                                                                                                                                                                                                                                                      000000000                
04310MP9       2.0.0     206000000520110000112                       0LBewust lage dosering                                                                                                                                                                                                                                                                                                            000000000                
04310MP9       2.0.0     206000000520110000113                       0LBewust afwijkende toedieningsweg                                                                                                                                                                                                                                                                                                000000000                
04310MP9       2.0.0     206000000520110000114                       0LMedische noodzaak                                                                                                                                                                                                                                                                                                               000000000                
04310MP9       2.0.0     206000000520110000115                       0LProfylaxe                                                                                                                                                                                                                                                                                                                       000000000                
04310MP9       2.0.0     206000000520110000116                       0LWijziging in GDS per direct                                                                                                                                                                                                                                                                                                     000000000                
04310MP9       2.0.0     206000000520110000117                       0LWijziging in GDS per rolwissel                                                                                                                                                                                                                                                                                                  000000000                
04310MP9       2.0.0     206000000520110000118                       0LBewust afwijken van leeftijdsgrenzen                                                                                                                                                                                                                                                                                            000000000                
04310MP9       2.0.0     206000000520110000119                       0LBewust van te lage nierfunctie voor deze dosering                                                                                                                                                                                                                                                                               000000000                
04310MP9       2.0.0     206000000620110000121                       0LSpoed                                                                                                                                                                                                                                                                                                                           000000000                
04310MP9       2.0.0     206000000620110000122                       0LNiet in GDS                                                                                                                                                                                                                                                                                                                     000000000                
04310MP9       2.0.0     206000000620110000123                       0LBezorgen                                                                                                                                                                                                                                                                                                                        000000000                
04310MP9       2.0.0     206000000620110000124                       0LIn manu medici (IMM)                                                                                                                                                                                                                                                                                                            000000000                
04310MP9       2.0.0     206000000820110000131                       0LAantal bewust gewijzigd                                                                                                                                                                                                                                                                                                         000000000                
04310MP9       2.0.0     206000000820110000132                       0LRecall                                                                                                                                                                                                                                                                                                                          000000000                
04310MP9       2.0.0     206000000820110000133                       0LRetour                                                                                                                                                                                                                                                                                                                          000000000                
04310MP9       3.0.0     20600000012011000000OTH                     0LOverig                                                                                                                                                          Overig                                                                                                                                                          000000000                
04310MP9       3.0.0     20600000012011000006112191000146101         0Lmedicatietoedieningsweg voldoet niet                                                                                                                            aanpassing toedieningswijze                                                                                                                                     000000000                
04310MP9       3.0.0     20600000012011000006112251000146103         0Lte sterk effect van medicatie                                                                                                                                   te sterk effect van medicatie                                                                                                                                   000000000                
04310MP9       3.0.0     20600000012011000006112261000146100         0Lhervatten van beleid van vorige voorschrijver                                                                                                                   hervatten beleid vorige voorschrijver                                                                                                                           000000000                
04310MP9       3.0.0     20600000012011000006112751000146109         0Lmedicatiebeleid veranderd                                                                                                                                       ander voorschrijfbeleid                                                                                                                                         000000000                
04310MP9       3.0.0     20600000012011000006159691000146109         0Lfoutieve registratie van medicatie                                                                                                                              correctie                                                                                                                                                       000000000                
04310MP9       3.0.0     20600000012011000006159711000146106         0Lverzoek van zorgafnemer om behandeling te wijzigen                                                                                                              wens patient                                                                                                                                                    000000000                
04310MP9       3.0.0     20600000012011000006160131000146104         0Lverandering in labwaarde                                                                                                                                        verandering in labwaarde                                                                                                                                        000000000                
04310MP9       3.0.0     20600000012011000006180011000146107         0Ldubbele registratie van medicamenteuze behandeling                                                                                                              loopt in andere medicamenteuze behandeling                                                                                                                      000000000                
04310MP9       3.0.0     20600000012011000006182856006               0Lgeneesmiddel niet voorradig                                                                                                                                     leveringstekort                                                                                                                                                 000000000                
04310MP9       3.0.0     20600000012011000006183966005               0Lgeen indicatie voor medicamenteuze behandeling                                                                                                                  indicatie vervallen                                                                                                                                             000000000                
04310MP9       3.0.0     20600000012011000006305335007               0Lopname in instelling                                                                                                                                            opname                                                                                                                                                          000000000                
04310MP9       3.0.0     20600000012011000006405613005               0Lverrichting gepland                                                                                                                                             geplande procedure                                                                                                                                              000000000                
04310MP9       3.0.0     20600000012011000006438833006               0Ltoedienen van medicatie gecontra-indiceerd                                                                                                                      contra-indicatie                                                                                                                                                000000000                
04310MP9       3.0.0     2060000001201100000658848006                0Lgebrek aan geneesmiddeleffect                                                                                                                                   geen of onvoldoende effect                                                                                                                                      000000000                
04310MP9       3.0.0     2060000001201100000662014003                0Longewenste reactie op medicatie en/of drugs                                                                                                                     overgevoeligheid (allergie, intolerantie of bijwerking)                                                                                                         000000000                
04310MP9       3.0.0     2060000001201100000679899007                0Lgeneesmiddelinteractie                                                                                                                                          interactie                                                                                                                                                      000000000                
04310MP9       3.0.0     20600000022011000000OTH                     0LOverig                                                                                                                                                          Overig                                                                                                                                                          000000000                
04310MP9       3.0.0     20600000022011000006112251000146103         0Lte sterk effect van medicatie                                                                                                                                   te sterk effect van medicatie                                                                                                                                   000000000                
04310MP9       3.0.0     20600000022011000006112261000146100         0Lhervatten van beleid van vorige voorschrijver                                                                                                                   hervatten beleid vorige voorschrijver                                                                                                                           000000000                
04310MP9       3.0.0     20600000022011000006112751000146109         0Lmedicatiebeleid veranderd                                                                                                                                       ander voorschrijfbeleid                                                                                                                                         000000000                
04310MP9       3.0.0     20600000022011000006159691000146109         0Lfoutieve registratie van medicatie                                                                                                                              correctie                                                                                                                                                       000000000                
04310MP9       3.0.0     20600000022011000006159711000146106         0Lverzoek van zorgafnemer om behandeling te wijzigen                                                                                                              wens patient                                                                                                                                                    000000000                
04310MP9       3.0.0     20600000022011000006160131000146104         0Lverandering in labwaarde                                                                                                                                        verandering in labwaarde                                                                                                                                        000000000                
04310MP9       3.0.0     20600000022011000006180011000146107         0Ldubbele registratie van medicamenteuze behandeling                                                                                                              loopt in andere medicamenteuze behandeling                                                                                                                      000000000                
04310MP9       3.0.0     20600000022011000006305335007               0Lopname in instelling                                                                                                                                            opname                                                                                                                                                          000000000                
04310MP9       3.0.0     20600000022011000006405613005               0Lverrichting gepland                                                                                                                                             geplande procedure                                                                                                                                              000000000                
04310MP9       3.0.0     2060000002201100000658848006                0Lgebrek aan geneesmiddeleffect                                                                                                                                   geen of onvoldoende effect                                                                                                                                      000000000                
04310MP9       3.0.0     2060000002201100000679899007                0Lgeneesmiddelinteractie                                                                                                                                          interactie                                                                                                                                                      000000000                
04310MP9       3.0.0     20600000032011000000OTH                     0LOverig                                                                                                                                                          Overig                                                                                                                                                          000000000                
04310MP9       3.0.0     20600000032011000006112191000146101         0Lmedicatietoedieningsweg voldoet niet                                                                                                                            toedieningsweg voldoet niet                                                                                                                                     000000000                
04310MP9       3.0.0     20600000032011000006112251000146103         0Lte sterk effect van medicatie                                                                                                                                   te sterkt effect van medicatie                                                                                                                                  000000000                
04310MP9       3.0.0     20600000032011000006112261000146100         0Lhervatten van beleid van vorige voorschrijver                                                                                                                   hervatten beleid vorige voorschrijver                                                                                                                           000000000                
04310MP9       3.0.0     20600000032011000006112751000146109         0Lmedicatiebeleid veranderd                                                                                                                                       ander voorschrijfbeleid                                                                                                                                         000000000                
04310MP9       3.0.0     20600000032011000006159691000146109         0Lfoutieve registratie van medicatie                                                                                                                              correctie                                                                                                                                                       000000000                
04310MP9       3.0.0     20600000032011000006159711000146106         0Lverzoek van zorgafnemer om behandeling te wijzigen                                                                                                              wens patient                                                                                                                                                    000000000                
04310MP9       3.0.0     20600000032011000006160131000146104         0Lverandering in labwaarde                                                                                                                                        verandering in labwaarde                                                                                                                                        000000000                
04310MP9       3.0.0     20600000032011000006160141000146107         0Lovergang naar geneesmiddeldistributiesysteem                                                                                                                    overgang naar GDS                                                                                                                                               000000000                
04310MP9       3.0.0     20600000032011000006160151000146105         0Lgeneesmiddelsubstitutie                                                                                                                                         substitutie                                                                                                                                                     000000000                
04310MP9       3.0.0     20600000032011000006180011000146107         0Ldubbele registratie van medicamenteuze behandeling                                                                                                              loopt in andere medicamenteuze behandeling                                                                                                                      000000000                
04310MP9       3.0.0     20600000032011000006182850000               0Lmedicatie niet verstrekt                                                                                                                                        medicatie niet verstrekt aan patient                                                                                                                            000000000                
04310MP9       3.0.0     20600000032011000006182856006               0Lgeneesmiddel niet voorradig                                                                                                                                     leveringstekort                                                                                                                                                 000000000                
04310MP9       3.0.0     20600000032011000006183966005               0Lgeen indicatie voor medicamenteuze behandeling                                                                                                                  indicatie vervallen                                                                                                                                             000000000                
04310MP9       3.0.0     20600000032011000006305335007               0Lopname in instelling                                                                                                                                            opname                                                                                                                                                          000000000                
04310MP9       3.0.0     20600000032011000006405613005               0Lverrichting gepland                                                                                                                                             geplande procedure                                                                                                                                              000000000                
04310MP9       3.0.0     20600000032011000006438833006               0Ltoedienen van medicatie gecontra-indiceerd                                                                                                                      contra-indicatie                                                                                                                                                000000000                
04310MP9       3.0.0     2060000003201100000658848006                0Lgebrek aan geneesmiddeleffect                                                                                                                                   geen of onvoldoende effect                                                                                                                                      000000000                
04310MP9       3.0.0     2060000003201100000662014003                0Longewenste reactie op medicatie en/of drugs                                                                                                                     overgevoeligheid (allergie, intolerantie of bijwerking)                                                                                                         000000000                
04310MP9       3.0.0     2060000003201100000679899007                0Lgeneesmiddelinteractie                                                                                                                                          interactie                                                                                                                                                      000000000                
04310MP9       3.0.0     20600000042011000000OTH                     0LOverig                                                                                                                                                          Overig                                                                                                                                                          000000000                
04310MP9       3.0.0     20600000042011000006112191000146101         0Lmedicatietoedieningsweg voldoet niet                                                                                                                            toedieningsweg voldoet niet                                                                                                                                     000000000                
04310MP9       3.0.0     20600000042011000006112221000146107         0Lmedicatiegebruik van patient volgens afspraak                                                                                                                   volgens afspraak                                                                                                                                                000000000                
04310MP9       3.0.0     20600000042011000006112251000146103         0Lte sterk effect van medicatie                                                                                                                                   te sterk effect van medicatie                                                                                                                                   000000000                
04310MP9       3.0.0     20600000042011000006112261000146100         0Lhervatten van beleid van vorige voorschrijver                                                                                                                   hervatten beleid vorige voorschrijver                                                                                                                           000000000                
04310MP9       3.0.0     20600000042011000006112751000146109         0Lmedicatiebeleid veranderd                                                                                                                                       ander voorschrijfbeleid                                                                                                                                         000000000                
04310MP9       3.0.0     20600000042011000006159691000146109         0Lfoutieve registratie van medicatie                                                                                                                              correctie                                                                                                                                                       000000000                
04310MP9       3.0.0     20600000042011000006159711000146106         0Lverzoek van zorgafnemer om behandeling te wijzigen                                                                                                              wens patient                                                                                                                                                    000000000                
04310MP9       3.0.0     20600000042011000006160131000146104         0Lverandering in labwaarde                                                                                                                                        verandering in labwaarde                                                                                                                                        000000000                
04310MP9       3.0.0     20600000042011000006180011000146107         0Ldubbele registratie van medicamenteuze behandeling                                                                                                              loopt in andere medicamenteuze behandeling                                                                                                                      000000000                
04310MP9       3.0.0     20600000042011000006182856006               0Lgeneesmiddel niet voorradig                                                                                                                                     leveringstekort                                                                                                                                                 000000000                
04310MP9       3.0.0     20600000042011000006183966005               0Lgeen indicatie voor medicamenteuze behandeling                                                                                                                  indicatie vervallen                                                                                                                                             000000000                
04310MP9       3.0.0     20600000042011000006305335007               0Lopname in instelling                                                                                                                                            opname                                                                                                                                                          000000000                
04310MP9       3.0.0     20600000042011000006405613005               0Lverrichting gepland                                                                                                                                             geplande procedure                                                                                                                                              000000000                
04310MP9       3.0.0     20600000042011000006438833006               0Ltoedienen van medicatie gecontra-indiceerd                                                                                                                      contra-indicatie                                                                                                                                                000000000                
04310MP9       3.0.0     2060000004201100000658848006                0Lgebrek aan geneesmiddeleffect                                                                                                                                   geen of onvoldoende effect                                                                                                                                      000000000                
04310MP9       3.0.0     2060000004201100000662014003                0Longewenste reactie op medicatie en/of drugs                                                                                                                     overgevoeligheid (allergie, intolerantie of bijwerking)                                                                                                         000000000                
04310MP9       3.0.0     2060000004201100000679899007                0Lgeneesmiddelinteractie                                                                                                                                          interactie                                                                                                                                                      000000000                
04310MP9       3.0.0     206000000520110000161                       0LBewust hoge dosering                                                                                                                                            Bewust hoge dosering                                                                                                                                            000000000                
04310MP9       3.0.0     2060000005201100001610                      0LBewust van eerder gemelde overgevoeligheid                                                                                                                      Bewust van eerder gemelde overgevoeligheid                                                                                                                      000000000                
04310MP9       3.0.0     206000000520110000162                       0LBewust lage dosering                                                                                                                                            Bewust lage dosering                                                                                                                                            000000000                
04310MP9       3.0.0     206000000520110000163                       0LBewust afwijkende toedieningsweg                                                                                                                                Bewust afwijkende toedieningsweg                                                                                                                                000000000                
04310MP9       3.0.0     206000000520110000164                       0LMedische noodzaak                                                                                                                                               Medische noodzaak                                                                                                                                               000000000                
04310MP9       3.0.0     206000000520110000165                       0LProfylaxe                                                                                                                                                       Profylaxe                                                                                                                                                       000000000                
04310MP9       3.0.0     206000000520110000166                       0LWijziging in GDS per direct                                                                                                                                     Wijziging in GDS per direct                                                                                                                                     000000000                
04310MP9       3.0.0     206000000520110000167                       0LWijziging in GDS per rolwissel                                                                                                                                  Wijziging in GDS per rolwissel                                                                                                                                  000000000                
04310MP9       3.0.0     206000000520110000168                       0LBewust afwijken van leeftijdsgrenzen                                                                                                                            Bewust afwijken van leeftijdsgrenzen                                                                                                                            000000000                
04310MP9       3.0.0     206000000520110000169                       0LBewust van te lage nierfunctie voor deze dosering                                                                                                               Bewust van te lage nierfunctie voor deze dosering                                                                                                               000000000                
04310MP9       3.0.0     206000000620110000171                       0LSpoed                                                                                                                                                           Spoed                                                                                                                                                           000000000                
04310MP9       3.0.0     206000000620110000172                       0LNiet in GDS                                                                                                                                                     Niet in GDS                                                                                                                                                     000000000                
04310MP9       3.0.0     206000000620110000173                       0LBezorgen                                                                                                                                                        Bezorgen                                                                                                                                                        000000000                
04310MP9       3.0.0     206000000620110000174                       0LIn manu medici (IMM)                                                                                                                                            In manu medici (IMM)                                                                                                                                            000000000                
04310MP9       3.0.0     206000000820110000181                       0LAantal bewust gewijzigd                                                                                                                                         Aantal bewust gewijzigd                                                                                                                                         000000000                
04310MP9       3.0.0     206000000820110000182                       0LRecall                                                                                                                                                          Recall                                                                                                                                                          000000000                
04310MP9       3.0.0     206000000820110000183                       0LRetour                                                                                                                                                          Retour                                                                                                                                                          000000000                
04310MP9       3.0.0     20600000092011000000OTH                     0LOverig                                                                                                                                                          Overig                                                                                                                                                          000000000                
04310MP9       3.0.0     20600000092011000006152741000146103         0Lmedicatie uitgespuugd door patient                                                                                                                              uitgespuugd door patient                                                                                                                                        000000000                
04310MP9       3.0.0     20600000092011000006153211000146100         0Lzorgverlener vergeten medicatie toe te dienen                                                                                                                   vergeten toe te dienen                                                                                                                                          000000000                
04310MP9       3.0.0     20600000092011000006153221000146105         0Lzorgverlener niet beschikbaar om medicatie toe te dienen                                                                                                        toediener niet aanwezig                                                                                                                                         000000000                
04310MP9       3.0.0     20600000092011000006153241000146104         0Lzorgafnemer niet beschikbaar om medicatie in ontvangst te nemen                                                                                                 patient niet beschikbaar                                                                                                                                        000000000                
04310MP9       3.0.0     20600000092011000006159691000146109         0Lfoutieve registratie van medicatie                                                                                                                              correctie                                                                                                                                                       000000000                
04310MP9       3.0.0     20600000092011000006274512008               0Lbehandeling met geneesmiddel stopgezet                                                                                                                          voorschrift is gestopt                                                                                                                                          000000000                
04310MP9       3.0.0     20600000092011000006406149000               0Ltoediening van medicatie geweigerd                                                                                                                              patient heeft geweigerd                                                                                                                                         000000000                
04310MP9       3.0.0     20600000092011000006408366001               0Lniet in staat om medicatie te gebruiken                                                                                                                         toediening volgens voorschrift niet mogelijk                                                                                                                    000000000                
04310MP9       3.0.0     20600000092011000006705046008               0Lonvoldoende medicatie op voorraad                                                                                                                               product niet beschikbaar                                                                                                                                        000000000                
