069000000000001000001161020170000TEST protocol                                                                   N2001000001010520190000000001010300060000000000
069000000000001000002161020170000TEST protocol                                                                   N2001000001260620190000000001010300060000000000
069000000000002000001281120180000Nierfunctie: thiaziden (oud)                                                    N2001000001031120210000000001010300060000000000
069000000000003000001160420240000Laxantia bij opioidgebruik                                                      N2001000001160420240000000013010300060000000000
069000000000003000002160420240000Laxantia bij opioidgebruik                                                      N2001000001170420240000000001010300060000000000
069000000000003000003000000000000Laxantia bij opioidgebruik                                                      N2001000001100720240000000001010300060000000000
069000000000003000004000000000000Laxantia bij opioidgebruik                                                      N2001000001030220250000000001010300060000000000
069000000000004000001240520220000VOORBEELD IMPLEMENTATIERICHTLIJN                                                N2001000001240520220000000001010300060000000000
069000000000005000001090820210000Nierfunctie: nitrofurantoine                                                    N2001000001110820210000000001010300060000000000
069000000000005000002090820210000Nierfunctie: nitrofurantoine                                                    N2001000001110820210000000001010300060000000000
069000000000005000003090820210000Nierfunctie: nitrofurantoine                                                    N2001000001110820210000000001010300060000000000
069000000000005000004160820230000Nierfunctie: nitrofurantoine                                                    N2001000001210820230000000001010300060000000000
069000000000005000005300720240000Nierfunctie: nitrofurantoine                                                    N2001000001010820240000000001010300060000000000
069000000000005000006010820240000Nierfunctie: nitrofurantoine                                                    N2001000001010820240000000001010300060000000000
069000000000005000007000000000000Nierfunctie: nitrofurantoine                                                    N2001000001300720240000000007010300060000000000
069000000000005000008000000000000Nierfunctie: nitrofurantoine                                                    N2001000001010820240000000007010300060000000000
069000000000006000001090820210000Nierfunctie: cefazoline                                                         N2001000001110820210000000001010300060000000000
069000000000006000002090820210000Nierfunctie: cefazoline                                                         N2001000001110820210000000007010300060000000000
069000000000006000003200920230000Nierfunctie: cefazoline                                                         N2001000001111020230000000001010300060000000000
069000000000006000004240620240000Nierfunctie: cefazoline                                                         N2001000001010720240000000001010300060000000000
069000000000006000005000000000000Nierfunctie: cefazoline                                                         N2001000001240620240000000009010300060000000000
069000000000006000006000000000000Nierfunctie: cefazoline                                                         N2001000001211120240000000009010300060000000000
069000000000007000001090820210000Nierfunctie: ceftazidim                                                         N2001000001110820210000000001010300060000000000
069000000000007000002090820210000Nierfunctie: ceftazidim                                                         N2001000001110820210000000001010300060000000000
069000000000007000003200920230000Nierfunctie: ceftazidim                                                         N2001000001111020230000000001010300060000000000
069000000000007000004260720230000Nierfunctie: ceftazidim                                                         N2001000001260720230000000001010300060000000000
069000000000007000005010720240000Nierfunctie: ceftazidim                                                         N2001000001090720240000000001010300060000000000
069000000000007000006000000000000Nierfunctie: ceftazidim                                                         N2001000001290820240000000010010300060000000000
069000000000007000007000000000000Nierfunctie: ceftazidim                                                         N2001000001211120240000000010010300060000000000
069000000000008000001200920230000Nierfunctie: cefalotine                                                         N2001000001111020230000000001010300060000000000
069000000000008000002191020230000Nierfunctie: cefalotine                                                         N2001000001191020230000000001010300060000000000
069000000000008000003010720240000Nierfunctie: cefalotine                                                         N2001000001090720240000000001010300060000000000
069000000000008000004000000000000Nierfunctie: cefalotine                                                         N2001000001010720240000000009010300060000000000
069000000000008000005000000000000Nierfunctie: cefalotine                                                         N2001000001151020240000000009010300060000000000
069000000000009000001200920230000Nierfunctie: cefamandol                                                         N2001000001111020230000000001010300060000000000
069000000000009000002010720240000Nierfunctie: cefamandol                                                         N2001000001090720240000000001010300060000000000
069000000000009000003000000000000Nierfunctie: cefamandol                                                         N2001000001010720240000000009010300060000000000
069000000000010000001090820210000Nierfunctie: ceftibuten                                                         N2001000001110820210000000001010300060000000000
069000000000010000002090820210000Nierfunctie: ceftibuten                                                         N2001000001110820210000000001010300060000000000
069000000000010000003200920230000Nierfunctie: ceftibuten                                                         N2001000001111020230000000001010300060000000000
069000000000010000004010720240000Nierfunctie: ceftibuten                                                         N2001000001090720240000000001010300060000000000
069000000000010000005000000000000Nierfunctie: ceftibuten                                                         N2001000001010720240000000007010300060000000000
069000000000011000001090820210000Nierfunctie: norfloxacine                                                       N2001000001110820210000000006010300060000000000
069000000000011000002200920230000Nierfunctie: norfloxacine                                                       N2001000001111020230000000001010300060000000000
069000000000011000003010720240000Nierfunctie: norfloxacine                                                       N2001000001090720240000000001010300060000000000
069000000000011000004000000000000Nierfunctie: norfloxacine                                                       N2001000001010720240000000007010300060000000000
069000000000011000005000000000000Nierfunctie: norfloxacine                                                       N2001000001151020240000000007010300060000000000
069000000000012000001090820210000Nierfunctie: cotrimoxazol                                                       N2001000001110820210000000001010300060000000000
069000000000012000002090820210000Nierfunctie: cotrimoxazol                                                       N2001000001110820210000000001010300060000000000
069000000000012000003200920230000Nierfunctie: cotrimoxazol                                                       N2001000001111020230000000001010300060000000000
069000000000012000004240720230000Nierfunctie: cotrimoxazol                                                       N2001000001260720230000000001010300060000000000
069000000000012000005010720240000Nierfunctie: cotrimoxazol                                                       N2001000001100720240000000001010300060000000000
069000000000012000006000000000000Nierfunctie: cotrimoxazol                                                       N2001000001290820240000000007010300060000000000
069000000000012000007000000000000Nierfunctie: cotrimoxazol                                                       N2001000001151020240000000007010300060000000000
069000000000013000001200920230000Nierfunctie: cefuroxim parenteraal                                              N2001000001111020230000000001010300060000000000
069000000000013000002010720240000Nierfunctie: cefuroxim parenteraal                                              N2001000001100720240000000001010300060000000000
069000000000013000003000000000000Nierfunctie: cefuroxim parenteraal                                              N2001000001010720240000000008010300060000000000
069000000000013000004000000000000Nierfunctie: cefuroxim parenteraal                                              N2001000001151020240000000008010300060000000000
069000000000014000001200920230000Nierfunctie: benzylpenicilline                                                  N2001000001111020230000000001010300060000000000
069000000000014000002010720240000Nierfunctie: benzylpenicilline                                                  N2001000001100720240000000001010300060000000000
069000000000014000003000000000000Nierfunctie: benzylpenicilline                                                  N2001000001010720240000000007010300060000000000
069000000000014000004000000000000Nierfunctie: benzylpenicilline                                                  N2001000001151020240000000007010300060000000000
069000000000015000001200920230000Nierfunctie: piperacilline + tazobactam                                         N2001000001111020230000000001010300060000000000
069000000000015000002010720240000Nierfunctie: piperacilline + tazobactam                                         N2001000001100720240000000001010300060000000000
069000000000015000003000000000000Nierfunctie: piperacilline + tazobactam                                         N2001000001010720240000000009010300060000000000
069000000000015000004000000000000Nierfunctie: piperacilline + tazobactam                                         N2001000001211120240000000009010300060000000000
069000000000016000001200920230000Nierfunctie: trimethoprim                                                       N2001000001111020230000000001010300060000000000
069000000000016000002210720220000Nierfunctie: trimethoprim                                                       N2001000001220720220000000001010300060000000000
069000000000016000003241020230000Nierfunctie: trimethoprim                                                       N2001000001031120230000000001010300060000000000
069000000000016000004010720240000Nierfunctie: trimethoprim                                                       N2001000001100720240000000001010300060000000000
069000000000016000005000000000000Nierfunctie: trimethoprim                                                       N2001000001220820240000000008010300060000000000
069000000000016000006000000000000Nierfunctie: trimethoprim                                                       N2001000001151020240000000008010300060000000000
069000000000017000001090820210000Nierfunctie: claritromycine                                                     N2001000001110820210000000001010300060000000000
069000000000017000002090820210000Nierfunctie: claritromycine                                                     N2001000001110820210000000001010300060000000000
069000000000017000003200920230000Nierfunctie: claritromycine                                                     N2001000001111020230000000001010300060000000000
069000000000017000004010720240000Nierfunctie: claritromycine                                                     N2001000001100720240000000001010300060000000000
069000000000017000005000000000000Nierfunctie: claritromycine                                                     N2001000001010720240000000007010300060000000000
069000000000017000006000000000000Nierfunctie: claritromycine                                                     N2001000001151020240000000007010300060000000000
069000000000018000001200920230000Nierfunctie: daptomycine                                                        N2001000001111020230000000001010300060000000000
069000000000018000002010720240000Nierfunctie: daptomycine                                                        N2001000001100720240000000001010300060000000000
069000000000018000003000000000000Nierfunctie: daptomycine                                                        N2001000001010720240000000008010300060000000000
069000000000018000004000000000000Nierfunctie: daptomycine                                                        N2001000001151020240000000008010300060000000000
069000000000019000001200920230000Nierfunctie: imipenem + cilastatine intraveneus                                 N2001000001111020230000000001010300060000000000
069000000000019000002130720220000Nierfunctie: imipenem + cilastatine intraveneus                                 N2001000001130720220000000001010300060000000000
069000000000019000003061020220000Nierfunctie: imipenem + cilastatine intraveneus                                 N2001000001061020220000000001010300060000000000
069000000000019000004010720240000Nierfunctie: imipenem + cilastatine intraveneus                                 N2001000001100720240000000001010300060000000000
069000000000019000005000000000000Nierfunctie: imipenem + cilastatine intraveneus                                 N2001000001120320250000000008010300060000000000
069000000000019000006000000000000Nierfunctie: imipenem + cilastatine intraveneus                                 N2001000001120320250000000008010300060000000000
069000000000020000001090820210000Nierfunctie: teicoplanine                                                       N2001000001110820210000000001010300060000000000
069000000000020000002090820210000Nierfunctie: teicoplanine                                                       N2001000001110820210000000001010300060000000000
069000000000020000003200920230000Nierfunctie: teicoplanine                                                       N2001000001111020230000000001010300060000000000
069000000000020000004090820240000Nierfunctie: teicoplanine                                                       N2001000001120820240000000001010300060000000000
069000000000020000005000000000000Nierfunctie: teicoplanine                                                       N2001000001090820240000000009010300060000000000
069000000000020000006000000000000Nierfunctie: teicoplanine                                                       N2001000001211120240000000009010300060000000000
069000000000021000001090820210000Nierfunctie: ethambutol                                                         N2001000001110820210000000001010300060000000000
069000000000021000002200920230000Nierfunctie: ethambutol                                                         N2001000001111020230000000001010300060000000000
069000000000021000003240620240000Nierfunctie: ethambutol                                                         N2001000001010720240000000001010300060000000000
069000000000021000004000000000000Nierfunctie: ethambutol                                                         N2001000001240620240000000007010300060000000000
069000000000021000005000000000000Nierfunctie: ethambutol                                                         N2001000001151020240000000007010300060000000000
069000000000022000001211020210000Nierfunctie: fosfomycine (oud)                                                  N2001000001211020210000000001010300060000000000
069000000000022000002211020210000Nierfunctie: fosfomycine oraal (oud)                                            N2001000001211020210000000001010300060000000000
069000000000023000001200920230000Nierfunctie: methenamine                                                        N2001000001111020230000000001010300060000000000
069000000000023000002240620240000Nierfunctie: methenamine                                                        N2001000001010720240000000001010300060000000000
069000000000023000003000000000000Nierfunctie: methenamine                                                        N2001000001240620240000000007010300060000000000
069000000000023000004000000000000Nierfunctie: methenamine                                                        N2001000001211120240000000007010300060000000000
069000000000024000001090820210000Nierfunctie: ertapenem                                                          N2001000001110820210000000001010300060000000000
069000000000024000002200920230000Nierfunctie: ertapenem                                                          N2001000001111020230000000001010300060000000000
069000000000024000003240620240000Nierfunctie: ertapenem                                                          N2001000001010720240000000001010300060000000000
069000000000024000004000000000000Nierfunctie: ertapenem                                                          N2001000001240620240000000007010300060000000000
069000000000024000005000000000000Nierfunctie: ertapenem                                                          N2001000001151020240000000007010300060000000000
069000000000025000001200920230000Nierfunctie: NSAID's                                                            N2001000001111020230000000001010300060000000000
069000000000025000002241020230000Nierfunctie: NSAID's                                                            N2001000001031120230000000001010300060000000000
069000000000025000003270320240000Nierfunctie: NSAID's                                                            N2001000001270320240000000001010300060000000000
069000000000025000004270620240000Nierfunctie: NSAID's                                                            N2001000001010720240000000001010300060000000000
069000000000025000005000000000000Nierfunctie: NSAID's                                                            N2001000001270620240000000011010300060000000000
069000000000025000006000000000000Nierfunctie: NSAID's                                                            N2001000001151020240000000011010300060000000000
069000000000026000001200920230000Nierfunctie: tetracycline                                                       N2001000001111020230000000001010300060000000000
069000000000026000002270620240000Nierfunctie: tetracycline                                                       N2001000001010720240000000001010300060000000000
069000000000026000003000000000000Nierfunctie: tetracycline                                                       N2001000001270620240000000008010300060000000000
069000000000026000004000000000000Nierfunctie: tetracycline                                                       N2001000001211120240000000008010300060000000000
069000000000027000001200920230000Nierfunctie: doripenem                                                          N2001000001111020230000000001010300060000000000
069000000000027000002241020230000Nierfunctie: doripenem                                                          N2001000001031120230000000001010300060000000000
069000000000027000003270620240000Nierfunctie: doripenem                                                          N2001000001010720240000000001010300060000000000
069000000000027000004000000000000Nierfunctie: doripenem                                                          N2001000001270620240000000010010300060000000000
069000000000028000001210720220000Nierfunctie: meropenem                                                          N2001000001220720220000000001010300060000000000
069000000000028000002200920230000Nierfunctie: meropenem                                                          N2001000001111020230000000001010300060000000000
069000000000028000003270620240000Nierfunctie: meropenem                                                          N2001000001010720240000000001010300060000000000
069000000000028000004000000000000Nierfunctie: meropenem                                                          N2001000001270620240000000010010300060000000000
069000000000028000005000000000000Nierfunctie: meropenem                                                          N2001000001151020240000000010010300060000000000
069000000000029000001160820230000Nierfunctie: fluconazol                                                         N2001000001210820230000000001010300060000000000
069000000000029000002210820230000Nierfunctie: fluconazol                                                         N2001000001220820230000000001010300060000000000
069000000000029000003220820230000Nierfunctie: fluconazol                                                         N2001000001220820230000000009010300060000000000
069000000000029000004210720220000Nierfunctie: fluconazol                                                         N2001000001220720220000000009010300060000000000
069000000000029000005240720230000Nierfunctie: fluconazol                                                         N2001000001240720230000000011010300060000000000
069000000000029000006150520240000Nierfunctie: fluconazol                                                         N2001000001150520240000000001010300060000000000
069000000000029000007300720240000Nierfunctie: fluconazol                                                         N2001000001010820240000000011010300060000000000
069000000000029000008010820240000Nierfunctie: fluconazol                                                         N2001000001010820240000000001010300060000000000
069000000000029000009000000000000Nierfunctie: fluconazol                                                         N2001000001150820240000000012010300060000000000
069000000000029000010000000000000Nierfunctie: fluconazol                                                         N2001000001010820240000000013010300060000000000
069000000000029000011000000000000Nierfunctie: fluconazol                                                         N2001000001151020240000000013010300060000000000
069000000000030000001200920230000Nierfunctie: ofloxacine                                                         N2001000001111020230000000001010300060000000000
069000000000030000002270620240000Nierfunctie: ofloxacine                                                         N2001000001010720240000000001010300060000000000
069000000000030000003000000000000Nierfunctie: ofloxacine                                                         N2001000001270620240000000011010300060000000000
069000000000030000004000000000000Nierfunctie: ofloxacine                                                         N2001000001151020240000000011010300060000000000
069000000000031000001090820210000Nierfunctie: ciprofloxacine                                                     N2001000001110820210000000001010300060000000000
069000000000031000002200920230000Nierfunctie: ciprofloxacine                                                     N2001000001111020230000000001010300060000000000
069000000000031000003270620240000Nierfunctie: ciprofloxacine                                                     N2001000001010720240000000001010300060000000000
069000000000031000004000000000000Nierfunctie: ciprofloxacine                                                     N2001000001270620240000000008010300060000000000
069000000000031000005000000000000Nierfunctie: ciprofloxacine                                                     N2001000001151020240000000008010300060000000000
069000000000032000001200920230000Nierfunctie: levofloxacine oraal/parenteraal                                    N2001000001111020230000000001010300060000000000
069000000000032000002270620240000Nierfunctie: levofloxacine oraal/parenteraal                                    N2001000001010720240000000001010300060000000000
069000000000032000003120320250000Nierfunctie: levofloxacine oraal/parenteraal                                    N2001000001120320250000000008010300060000000000
069000000000032000004120320250000Nierfunctie: levofloxacine oraal/parenteraal                                    N2001000001120320250000000008010300060000000000
069000000000032000005000000000000Nierfunctie: levofloxacine oraal/parenteraal                                    N2001000001120320250000000008010300060000000000
069000000000032000006000000000000Nierfunctie: levofloxacine oraal/parenteraal                                    N2001000001120320250000000008010300060000000000
069000000000033000001210720220000Nierfunctie: valproinezuur                                                      N2001000001220720220000000001010300060000000000
069000000000033000002270620240000Nierfunctie: valproinezuur                                                      N2001000001010720240000000001010300060000000000
069000000000033000003000000000000Nierfunctie: valproinezuur                                                      N2001000001270620240000000008010300060000000000
069000000000034000001200920230000Nierfunctie: carbamazepine                                                      N2001000001111020230000000001010300060000000000
069000000000034000002270620240000Nierfunctie: carbamazepine                                                      N2001000001010720240000000001010300060000000000
069000000000034000003000000000000Nierfunctie: carbamazepine                                                      N2001000001270620240000000008010300060000000000
069000000000034000004000000000000Nierfunctie: carbamazepine                                                      N2001000001211120240000000008010300060000000000
069000000000035000001200920230000Nierfunctie: topiramaat                                                         N2001000001111020230000000001010300060000000000
069000000000035000002270620240000Nierfunctie: topiramaat                                                         N2001000001010720240000000001010300060000000000
069000000000035000003000000000000Nierfunctie: topiramaat                                                         N2001000001270620240000000008010300060000000000
069000000000035000004000000000000Nierfunctie: topiramaat                                                         N2001000001151020240000000008010300060000000000
069000000000036000001200920230000Nierfunctie: vigabatrine                                                        N2001000001111020230000000001010300060000000000
069000000000036000002270620240000Nierfunctie: vigabatrine                                                        N2001000001010720240000000001010300060000000000
069000000000036000003000000000000Nierfunctie: vigabatrine                                                        N2001000001270620240000000008010300060000000000
069000000000036000004000000000000Nierfunctie: vigabatrine                                                        N2001000001151020240000000008010300060000000000
069000000000037000001200920230000Nierfunctie: fenytoine                                                          N2001000001111020230000000001010300060000000000
069000000000037000002270620240000Nierfunctie: fenytoine                                                          N2001000001010720240000000001010300060000000000
069000000000037000003000000000000Nierfunctie: fenytoine                                                          N2001000001270620240000000007010300060000000000
069000000000037000004000000000000Nierfunctie: fenytoine                                                          N2001000001151020240000000007010300060000000000
069000000000038000001090820210000Nierfunctie: gabapentine                                                        N2001000001110820210000000001010300060000000000
069000000000038000002090820210000Nierfunctie: gabapentine                                                        N2001000001110820210000000007010300060000000000
069000000000038000003090820210000Nierfunctie: gabapentine                                                        N2001000001110820210000000001010300060000000000
069000000000038000004210720220000Nierfunctie: gabapentine                                                        N2001000001220720220000000001010300060000000000
069000000000038000005270620240000Nierfunctie: gabapentine                                                        N2001000001010720240000000001010300060000000000
069000000000038000006000000000000Nierfunctie: gabapentine                                                        N2001000001270620240000000009010300060000000000
069000000000039000001200920230000Nierfunctie: oxcarbazepine                                                      N2001000001111020230000000001010300060000000000
069000000000039000002270620240000Nierfunctie: oxcarbazepine                                                      N2001000001010720240000000001010300060000000000
069000000000039000003000000000000Nierfunctie: oxcarbazepine                                                      N2001000001270620240000000007010300060000000000
069000000000039000004000000000000Nierfunctie: oxcarbazepine                                                      N2001000001151020240000000007010300060000000000
069000000000040000001200920230000Nierfunctie: pregabaline                                                        N2001000001111020230000000001010300060000000000
069000000000040000002270620240000Nierfunctie: pregabaline                                                        N2001000001010720240000000001010300060000000000
069000000000040000003070420250000Nierfunctie: pregabaline                                                        N2001000001070420250000000009010300060000000000
069000000000040000004090420250000Nierfunctie: pregabaline                                                        N2001000001090420250000000009010300060000000000
069000000000040000005000000000000Nierfunctie: pregabaline                                                        N2001000001070420250000000009010300060000000000
069000000000040000006000000000000Nierfunctie: pregabaline                                                        N2001000001070420250000000009010300060000000000
069000000000041000001241020230000Nierfunctie: felbamaat                                                          N2001000001031120230000000001010300060000000000
069000000000041000002270620240000Nierfunctie: felbamaat                                                          N2001000001010720240000000001010300060000000000
069000000000041000003000000000000Nierfunctie: felbamaat                                                          N2001000001270620240000000008010300060000000000
069000000000041000004000000000000Nierfunctie: felbamaat                                                          N2001000001151020240000000008010300060000000000
069000000000042000001241020230000Nierfunctie: retigabine                                                         N2001000001031120230000000001010300060000000000
069000000000042000002270620240000Nierfunctie: retigabine                                                         N2001000001010720240000000001010300060000000000
069000000000042000003000000000000Nierfunctie: retigabine                                                         N2001000001270620240000000008010300060000000000
069000000000043000001241020230000Nierfunctie: stiripentol                                                        N2001000001031120230000000001010300060000000000
069000000000043000002270620240000Nierfunctie: stiripentol                                                        N2001000001010720240000000001010300060000000000
069000000000043000003000000000000Nierfunctie: stiripentol                                                        N2001000001270620240000000008010300060000000000
069000000000043000004000000000000Nierfunctie: stiripentol                                                        N2001000001151020240000000008010300060000000000
069000000000044000001241020230000Nierfunctie: etidroninezuur                                                     N2001000001031120230000000001010300060000000000
069000000000044000002270620240000Nierfunctie: etidroninezuur                                                     N2001000001010720240000000001010300060000000000
069000000000044000003000000000000Nierfunctie: etidroninezuur                                                     N2001000001270620240000000007010300060000000000
069000000000044000004000000000000Nierfunctie: etidroninezuur                                                     N2001000001151020240000000007010300060000000000
069000000000046000001241020230000Nierfunctie: zonisamide                                                         N2001000001031120230000000001010300060000000000
069000000000046000002270620240000Nierfunctie: zonisamide                                                         N2001000001010720240000000001010300060000000000
069000000000046000003000000000000Nierfunctie: zonisamide                                                         N2001000001270620240000000008010300060000000000
069000000000046000004000000000000Nierfunctie: zonisamide                                                         N2001000001151020240000000008010300060000000000
069000000000047000001220720220000Nierfunctie: digoxine                                                           N2001000001250720220000000001010300060000000000
069000000000047000002270620240000Nierfunctie: digoxine                                                           N2001000001010720240000000001010300060000000000
069000000000047000003000000000000Nierfunctie: digoxine                                                           N2001000001270620240000000007010300060000000000
069000000000048000001241020230000Nierfunctie: sotalol                                                            N2001000001031120230000000001010300060000000000
069000000000048000002220720220000Nierfunctie: sotalol                                                            N2001000001250720220000000001010300060000000000
069000000000048000003270620240000Nierfunctie: sotalol                                                            N2001000001010720240000000001010300060000000000
069000000000048000004000000000000Nierfunctie: sotalol                                                            N2001000001270620240000000008010300060000000000
069000000000049000001241020230000Nierfunctie: acebutolol                                                         N2001000001031120230000000001010300060000000000
069000000000049000002270620240000Nierfunctie: acebutolol                                                         N2001000001010720240000000001010300060000000000
069000000000049000003000000000000Nierfunctie: acebutolol                                                         N2001000001270620240000000008010300060000000000
069000000000049000004000000000000Nierfunctie: acebutolol                                                         N2001000001151020240000000008010300060000000000
069000000000050000001241020230000Nierfunctie: atenolol                                                           N2001000001031120230000000001010300060000000000
069000000000050000002010720240000Nierfunctie: atenolol                                                           N2001000001100720240000000001010300060000000000
069000000000050000003000000000000Nierfunctie: atenolol                                                           N2001000001010720240000000008010300060000000000
069000000000050000004000000000000Nierfunctie: atenolol                                                           N2001000001151020240000000008010300060000000000
069000000000051000001220720220000Nierfunctie: alendroninezuur                                                    N2001000001250720220000000001010300060000000000
069000000000051000002241020230000Nierfunctie: alendroninezuur                                                    N2001000001031120230000000001010300060000000000
069000000000051000003010720240000Nierfunctie: alendroninezuur                                                    N2001000001100720240000000001010300060000000000
069000000000051000004000000000000Nierfunctie: alendroninezuur                                                    N2001000001010720240000000007010300060000000000
069000000000051000005000000000000Nierfunctie: alendroninezuur                                                    N2001000001161020240000000007010300060000000000
069000000000052000001251020230000Nierfunctie: clodroninezuur                                                     N2001000001031120230000000001010300060000000000
069000000000052000002270620240000Nierfunctie: clodroninezuur                                                     N2001000001010720240000000001010300060000000000
069000000000052000003000000000000Nierfunctie: clodroninezuur                                                     N2001000001270620240000000008010300060000000000
069000000000052000004000000000000Nierfunctie: clodroninezuur                                                     N2001000001161020240000000008010300060000000000
069000000000053000001251020230000Nierfunctie: bisoprolol                                                         N2001000001031120230000000001010300060000000000
069000000000053000002270620240000Nierfunctie: bisoprolol                                                         N2001000001010720240000000001010300060000000000
069000000000053000003000000000000Nierfunctie: bisoprolol                                                         N2001000001270620240000000008010300060000000000
069000000000053000004000000000000Nierfunctie: bisoprolol                                                         N2001000001211120240000000008010300060000000000
069000000000054000001220720220000Nierfunctie: risedroninezuur                                                    N2001000001250720220000000001010300060000000000
069000000000054000002251020230000Nierfunctie: risedroninezuur                                                    N2001000001031120230000000001010300060000000000
069000000000054000003270620240000Nierfunctie: risedroninezuur                                                    N2001000001010720240000000001010300060000000000
069000000000054000004000000000000Nierfunctie: risedroninezuur                                                    N2001000001270620240000000007010300060000000000
069000000000054000005000000000000Nierfunctie: risedroninezuur                                                    N2001000001161020240000000007010300060000000000
069000000000055000001251020230000Nierfunctie: levetiracetam                                                      N2001000001031120230000000001010300060000000000
069000000000055000002250720220000Nierfunctie: levetiracetam                                                      N2001000001260720220000000001010300060000000000
069000000000055000003220720220000Nierfunctie: levetiracetam                                                      N2001000001250720220000000001010300060000000000
069000000000055000004010720240000Nierfunctie: levetiracetam                                                      N2001000001080720240000000001010300060000000000
069000000000055000005000000000000Nierfunctie: levetiracetam                                                      N2001000001270620240000000009010300060000000000
069000000000056000001251020230000Nierfunctie: fesoterodine                                                       N2001000001031120230000000001010300060000000000
069000000000056000002031120230000Nierfunctie: fesoterodine                                                       N2001000001071120230000000001010300060000000000
069000000000056000003270620240000Nierfunctie: fesoterodine                                                       N2001000001010720240000000001010300060000000000
069000000000056000004000000000000Nierfunctie: fesoterodine                                                       N2001000001270620240000000008010300060000000000
069000000000056000005000000000000Nierfunctie: fesoterodine                                                       N2001000001161020240000000008010300060000000000
069000000000057000001251020230000Nierfunctie: solifenacine                                                       N2001000001031120230000000001010300060000000000
069000000000057000002031120230000Nierfunctie: solifenacine                                                       N2001000001071120230000000001010300060000000000
069000000000057000003270620240000Nierfunctie: solifenacine                                                       N2001000001010720240000000001010300060000000000
069000000000057000004000000000000Nierfunctie: solifenacine                                                       N2001000001270620240000000008010300060000000000
069000000000057000005000000000000Nierfunctie: solifenacine                                                       N2001000001161020240000000008010300060000000000
069000000000058000001251020230000Nierfunctie: sucralfaat                                                         N2001000001031120230000000001010300060000000000
069000000000058000002270620240000Nierfunctie: sucralfaat                                                         N2001000001010720240000000001010300060000000000
069000000000058000003000000000000Nierfunctie: sucralfaat                                                         N2001000001270620240000000008010300060000000000
069000000000058000004000000000000Nierfunctie: sucralfaat                                                         N2001000001161020240000000008010300060000000000
069000000000059000001251020230000Nierfunctie: tolterodine                                                        N2001000001031120230000000001010300060000000000
069000000000059000002031120230000Nierfunctie: tolterodine                                                        N2001000001071120230000000001010300060000000000
069000000000059000003270620240000Nierfunctie: tolterodine                                                        N2001000001010720240000000001010300060000000000
069000000000059000004000000000000Nierfunctie: tolterodine                                                        N2001000001270620240000000008010300060000000000
069000000000059000005000000000000Nierfunctie: tolterodine                                                        N2001000001161020240000000008010300060000000000
069000000000060000001250720220000Nierfunctie: ibandroninezuur                                                    N2001000001260720220000000001010300060000000000
069000000000060000002251020230000Nierfunctie: ibandroninezuur                                                    N2001000001031120230000000001010300060000000000
069000000000060000003010720240000Nierfunctie: ibandroninezuur                                                    N2001000001080720240000000001010300060000000000
069000000000060000004000000000000Nierfunctie: ibandroninezuur                                                    N2001000001270620240000000008010300060000000000
069000000000060000005000000000000Nierfunctie: ibandroninezuur                                                    N2001000001161020240000000008010300060000000000
069000000000061000001251020230000Nierfunctie: glimepiride                                                        N2001000001031120230000000001010300060000000000
069000000000061000002270620240000Nierfunctie: glimepiride                                                        N2001000001010720240000000001010300060000000000
069000000000061000003000000000000Nierfunctie: glimepiride                                                        N2001000001270620240000000008010300060000000000
069000000000061000004000000000000Nierfunctie: glimepiride                                                        N2001000001161020240000000008010300060000000000
069000000000062000001261020230000Nierfunctie: glibenclamide                                                      N2001000001031120230000000001010300060000000000
069000000000062000002270620240000Nierfunctie: glibenclamide                                                      N2001000001010720240000000001010300060000000000
069000000000062000003000000000000Nierfunctie: glibenclamide                                                      N2001000001270620240000000008010300060000000000
069000000000062000004000000000000Nierfunctie: glibenclamide                                                      N2001000001161020240000000008010300060000000000
069000000000063000001261020230000Nierfunctie: saxagliptine                                                       N2001000001031120230000000001010300060000000000
069000000000063000002031120230000Nierfunctie: saxagliptine                                                       N2001000001071120230000000001010300060000000000
069000000000063000003270620240000Nierfunctie: saxagliptine                                                       N2001000001010720240000000001010300060000000000
069000000000063000004000000000000Nierfunctie: saxagliptine                                                       N2001000001270620240000000008010300060000000000
069000000000063000005000000000000Nierfunctie: saxagliptine                                                       N2001000001161020240000000008010300060000000000
069000000000064000001261020230000Nierfunctie: vildagliptine                                                      N2001000001031120230000000001010300060000000000
069000000000064000002270620240000Nierfunctie: vildagliptine                                                      N2001000001010720240000000001010300060000000000
069000000000064000003000000000000Nierfunctie: vildagliptine                                                      N2001000001270620240000000008010300060000000000
069000000000064000004000000000000Nierfunctie: vildagliptine                                                      N2001000001211120240000000008010300060000000000
069000000000065000001261020230000Nierfunctie: repaglinide                                                        N2001000001031120230000000001010300060000000000
069000000000065000002270620240000Nierfunctie: repaglinide                                                        N2001000001010720240000000001010300060000000000
069000000000065000003000000000000Nierfunctie: repaglinide                                                        N2001000001270620240000000008010300060000000000
069000000000065000004000000000000Nierfunctie: repaglinide                                                        N2001000001211020240000000008010300060000000000
069000000000066000001261020230000Nierfunctie: exenatide                                                          N2001000001031120230000000001010300060000000000
069000000000066000002300620240000Nierfunctie: exenatide                                                          N2001000001010720240000000001010300060000000000
069000000000066000003000000000000Nierfunctie: exenatide                                                          N2001000001300620240000000008010300060000000000
069000000000066000004000000000000Nierfunctie: exenatide                                                          N2001000001211020240000000008010300060000000000
069000000000067000001261020230000Nierfunctie: aluminiumverbindingen oraal                                        N2001000001031120230000000001010300060000000000
069000000000067000002300620240000Nierfunctie: aluminiumverbindingen oraal                                        N2001000001090720240000000001010300060000000000
069000000000067000003000000000000Nierfunctie: aluminiumverbindingen oraal                                        N2001000001300620240000000008010300060000000000
069000000000067000004000000000000Nierfunctie: aluminiumverbindingen oraal                                        N2001000001211020240000000008010300060000000000
069000000000068000001310120220000Nierfunctie: metformine                                                         N2001000001010220220000000001010300060000000000
069000000000068000002261020230000Nierfunctie: metformine                                                         N2001000001031120230000000001010300060000000000
069000000000068000003300620240000Nierfunctie: metformine                                                         N2001000001090720240000000001010300060000000000
069000000000068000004000000000000Nierfunctie: metformine                                                         N2001000001300620240000000009010300060000000000
069000000000068000005000000000000Nierfunctie: metformine                                                         N2001000001211020240000000009010300060000000000
069000000000069000001090820210000Nierfunctie: acipimox                                                           N2001000001110820210000000001010300060000000000
069000000000069000002090820210000Nierfunctie: acipimox                                                           N2001000001110820210000000007010300060000000000
069000000000069000003090820210000Nierfunctie: acipimox                                                           N2001000001110820210000000001010300060000000000
069000000000069000004261020230000Nierfunctie: acipimox                                                           N2001000001031120230000000001010300060000000000
069000000000069000005300620240000Nierfunctie: acipimox                                                           N2001000001090720240000000001010300060000000000
069000000000069000006000000000000Nierfunctie: acipimox                                                           N2001000001300620240000000008010300060000000000
069000000000069000007000000000000Nierfunctie: acipimox                                                           N2001000001211020240000000008010300060000000000
069000000000070000001261020230000Nierfunctie: rosuvastatine                                                      N2001000001031120230000000001010300060000000000
069000000000070000002300620240000Nierfunctie: rosuvastatine                                                      N2001000001090720240000000001010300060000000000
069000000000070000003000000000000Nierfunctie: rosuvastatine                                                      N2001000001300620240000000009010300060000000000
069000000000070000004000000000000Nierfunctie: rosuvastatine                                                      N2001000001211020240000000009010300060000000000
069000000000071000001261020230000Nierfunctie: metoclopramide                                                     N2001000001031120230000000001010300060000000000
069000000000071000002300620240000Nierfunctie: metoclopramide                                                     N2001000001090720240000000001010300060000000000
069000000000071000003000000000000Nierfunctie: metoclopramide                                                     N2001000001300620240000000008010300060000000000
069000000000071000004000000000000Nierfunctie: metoclopramide                                                     N2001000001211020240000000008010300060000000000
069000000000072000001221220230000Antimycotica bij inhalatiecorticosteroiden                                      N2001000001020120240000000002010300060000000000
069000000000072000002020420240000Antimycotica bij inhalatiecorticosteroiden                                      N2001000001080420240000000002010300060000000000
069000000000072000003000000000000Antimycotica bij inhalatiecorticosteroiden                                      N2001000001030220250000000002010300060000000000
069000000000073000001211020210000Nierfunctie: morfine (oud)                                                      N2001000001211020210000000001010300060000000000
069000000000074000001261020230000Nierfunctie: colchicine                                                         N2001000001031120230000000001010300060000000000
069000000000074000002300620240000Nierfunctie: colchicine                                                         N2001000001090720240000000001010300060000000000
069000000000074000003000000000000Nierfunctie: colchicine                                                         N2001000001300620240000000008010300060000000000
069000000000074000004000000000000Nierfunctie: colchicine                                                         N2001000001211120240000000008010300060000000000
069000000000075000001090820210000Nierfunctie: allopurinol                                                        N2001000001110820210000000001010300060000000000
069000000000075000002090820210000Nierfunctie: allopurinol                                                        N2001000001110820210000000006010300060000000000
069000000000075000003261020230000Nierfunctie: allopurinol                                                        N2001000001031120230000000001010300060000000000
069000000000075000004300620240000Nierfunctie: allopurinol                                                        N2001000001090720240000000001010300060000000000
069000000000075000005000000000000Nierfunctie: allopurinol                                                        N2001000001300620240000000007010300060000000000
069000000000075000006000000000000Nierfunctie: allopurinol                                                        N2001000001211020240000000007010300060000000000
069000000000076000001141120230000Nierfunctie: probenecide                                                        N2001000001151120230000000001010300060000000000
069000000000076000002300620240000Nierfunctie: probenecide                                                        N2001000001090720240000000001010300060000000000
069000000000076000003000000000000Nierfunctie: probenecide                                                        N2001000001300620240000000007010300060000000000
069000000000076000004000000000000Nierfunctie: probenecide                                                        N2001000001211020240000000007010300060000000000
069000000000077000001141120230000Nierfunctie: bezafibraat                                                        N2001000001151120230000000001010300060000000000
069000000000077000002300620240000Nierfunctie: bezafibraat                                                        N2001000001090720240000000001010300060000000000
069000000000077000003000000000000Nierfunctie: bezafibraat                                                        N2001000001300620240000000008010300060000000000
069000000000077000004000000000000Nierfunctie: bezafibraat                                                        N2001000001211020240000000008010300060000000000
069000000000078000001141120230000Nierfunctie: benzbromaron                                                       N2001000001151120230000000001010300060000000000
069000000000078000002300620240000Nierfunctie: benzbromaron                                                       N2001000001090720240000000001010300060000000000
069000000000078000003000000000000Nierfunctie: benzbromaron                                                       N2001000001300620240000000007010300060000000000
069000000000078000004000000000000Nierfunctie: benzbromaron                                                       N2001000001211020240000000007010300060000000000
069000000000079000001090820210000Nierfunctie: chloroquine                                                        N2001000001110820210000000001010300060000000000
069000000000079000002090820210000Nierfunctie: chloroquine                                                        N2001000001110820210000000001010300060000000000
069000000000079000003141120230000Nierfunctie: chloroquine                                                        N2001000001151120230000000001010300060000000000
069000000000079000004300620240000Nierfunctie: chloroquine                                                        N2001000001090720240000000001010300060000000000
069000000000079000005000000000000Nierfunctie: chloroquine                                                        N2001000001300620240000000007010300060000000000
069000000000079000006000000000000Nierfunctie: chloroquine                                                        N2001000001211020240000000007010300060000000000
069000000000080000001090820210000Nierfunctie: hydroxychloroquine                                                 N2001000001110820210000000001010300060000000000
069000000000080000002090820210000Nierfunctie: hydroxychloroquine                                                 N2001000001110820210000000001010300060000000000
069000000000080000003141120230000Nierfunctie: hydroxychloroquine                                                 N2001000001151120230000000001010300060000000000
069000000000080000004300620240000Nierfunctie: hydroxychloroquine                                                 N2001000001090720240000000001010300060000000000
069000000000080000005000000000000Nierfunctie: hydroxychloroquine                                                 N2001000001300620240000000007010300060000000000
069000000000080000006000000000000Nierfunctie: hydroxychloroquine                                                 N2001000001211020240000000007010300060000000000
069000000000081000001090820210000Nierfunctie: anakinra                                                           N2001000001110820210000000001010300060000000000
069000000000081000002141120230000Nierfunctie: anakinra                                                           N2001000001151120230000000001010300060000000000
069000000000081000003300620240000Nierfunctie: anakinra                                                           N2001000001090720240000000001010300060000000000
069000000000081000004000000000000Nierfunctie: anakinra                                                           N2001000001300620240000000007010300060000000000
069000000000081000005000000000000Nierfunctie: anakinra                                                           N2001000001211020240000000007010300060000000000
069000000000082000001141120230000Nierfunctie: aurothiobarnsteenzuur                                              N2001000001151120230000000001010300060000000000
069000000000082000002300620240000Nierfunctie: aurothiobarnsteenzuur                                              N2001000001090720240000000001010300060000000000
069000000000082000003000000000000Nierfunctie: aurothiobarnsteenzuur                                              N2001000001300620240000000008010300060000000000
069000000000083000001090820210000Nierfunctie: cetirizine/levocetirizine/hydroxyzine                              N2001000001110820210000000001010300060000000000
069000000000083000002090820210000Nierfunctie: cetirizine/levocetirizine/hydroxyzine                              N2001000001110820210000000001010300060000000000
069000000000083000003141120230000Nierfunctie: cetirizine                                                         N2001000001151120230000000001010300060000000000
069000000000083000004300620240000Nierfunctie: cetirizine                                                         N2001000001090720240000000001010300060000000000
069000000000083000005000000000000Nierfunctie: cetirizine                                                         N2001000001300620240000000009010300060000000000
069000000000083000006000000000000Nierfunctie: cetirizine                                                         N2001000001211020240000000009010300060000000000
069000000000084000001141120230000Nierfunctie: cimetidine                                                         N2001000001151120230000000001010300060000000000
069000000000084000002300620240000Nierfunctie: cimetidine                                                         N2001000001090720240000000001010300060000000000
069000000000084000003000000000000Nierfunctie: cimetidine                                                         N2001000001300620240000000008010300060000000000
069000000000084000004000000000000Nierfunctie: cimetidine                                                         N2001000001211020240000000008010300060000000000
069000000000085000001141120230000Nierfunctie: ranitidine                                                         N2001000001151120230000000001010300060000000000
069000000000085000002090720240000Nierfunctie: ranitidine                                                         N2001000001100720240000000001010300060000000000
069000000000085000003000000000000Nierfunctie: ranitidine                                                         N2001000001090720240000000008010300060000000000
069000000000085000004000000000000Nierfunctie: ranitidine                                                         N2001000001211020240000000008010300060000000000
069000000000086000001141120230000Nierfunctie: acrivastine                                                        N2001000001151120230000000001010300060000000000
069000000000086000002080720240000Nierfunctie: acrivastine                                                        N2001000001090720240000000001010300060000000000
069000000000086000003000000000000Nierfunctie: acrivastine                                                        N2001000001080720240000000008010300060000000000
069000000000086000004000000000000Nierfunctie: acrivastine                                                        N2001000001211020240000000008010300060000000000
069000000000087000001090820210000Nierfunctie: famotidine                                                         N2001000001110820210000000001010300060000000000
069000000000087000002141120230000Nierfunctie: famotidine                                                         N2001000001151120230000000001010300060000000000
069000000000087000003080720240000Nierfunctie: famotidine                                                         N2001000001090720240000000001010300060000000000
069000000000087000004000000000000Nierfunctie: famotidine                                                         N2001000001080720240000000008010300060000000000
069000000000087000005000000000000Nierfunctie: famotidine                                                         N2001000001211020240000000008010300060000000000
069000000000088000001141120230000Nierfunctie: nizatidine                                                         N2001000001151120230000000001010300060000000000
069000000000088000002080720240000Nierfunctie: nizatidine                                                         N2001000001090720240000000001010300060000000000
069000000000088000003000000000000Nierfunctie: nizatidine                                                         N2001000001080720240000000008010300060000000000
069000000000089000001141120230000Nierfunctie: barnidipine                                                        N2001000001151120230000000001010300060000000000
069000000000089000002080720240000Nierfunctie: barnidipine                                                        N2001000001090720240000000001010300060000000000
069000000000089000003000000000000Nierfunctie: barnidipine                                                        N2001000001080720240000000008010300060000000000
069000000000089000004000000000000Nierfunctie: barnidipine                                                        N2001000001211020240000000008010300060000000000
069000000000090000001141120230000Nierfunctie: ciprofibraat                                                       N2001000001151120230000000001010300060000000000
069000000000090000002151120230000Nierfunctie: ciprofibraat                                                       N2001000001221120230000000001010300060000000000
069000000000090000003080720240000Nierfunctie: ciprofibraat                                                       N2001000001090720240000000001010300060000000000
069000000000090000004000000000000Nierfunctie: ciprofibraat                                                       N2001000001080720240000000009010300060000000000
069000000000090000005000000000000Nierfunctie: ciprofibraat                                                       N2001000001231020240000000009010300060000000000
069000000000091000001090820210000Nierfunctie: tramadol                                                           N2001000001110820210000000001010300060000000000
069000000000091000002090820210000Nierfunctie: tramadol                                                           N2001000001110820210000000006010300060000000000
069000000000091000003141120230000Nierfunctie: tramadol                                                           N2001000001151120230000000001010300060000000000
069000000000091000004080720240000Nierfunctie: tramadol                                                           N2001000001090720240000000001010300060000000000
069000000000091000005000000000000Nierfunctie: tramadol                                                           N2001000001080720240000000008010300060000000000
069000000000091000006000000000000Nierfunctie: tramadol                                                           N2001000001211020240000000008010300060000000000
069000000000092000001221220230000Trombocytenaggregatieremmers bij nitraatgebruik                                 N2001000001020120240000000001010300060000000000
069000000000092000002000000000000Trombocytenaggregatieremmers bij nitraatgebruik                                 N2001000001221220230000000001010300060000000000
069000000000092000003000000000000Trombocytenaggregatieremmers bij nitraatgebruik                                 N2001000001030220250000000001010300060000000000
069000000000093000001211020210000Nierfunctie: acenocoumarol (oud)                                                N2001000001211020210000000001010300060000000000
069000000000094000001211020210000Nierfunctie: fenprocoumon (oud)                                                 N2001000001211020210000000001010300060000000000
069000000000095000001141120230000Nierfunctie: bivalirudine                                                       N2001000001151120230000000001010300060000000000
069000000000095000002080720240000Nierfunctie: bivalirudine                                                       N2001000001090720240000000001010300060000000000
069000000000095000003000000000000Nierfunctie: bivalirudine                                                       N2001000001080720240000000008010300060000000000
069000000000095000004000000000000Nierfunctie: bivalirudine                                                       N2001000001211020240000000008010300060000000000
069000000000096000001250720220000Nierfunctie: rivaroxaban                                                        N2001000001260720220000000001010300060000000000
069000000000096000002141120230000Nierfunctie: rivaroxaban                                                        N2001000001151120230000000001010300060000000000
069000000000096000003080720240000Nierfunctie: rivaroxaban                                                        N2001000001090720240000000001010300060000000000
069000000000096000004090420250000Nierfunctie: rivaroxaban                                                        N2001000001090420250000000008010300060000000000
069000000000096000005090420250000Nierfunctie: rivaroxaban                                                        N2001000001090420250000000008010300060000000000
069000000000096000006000000000000Nierfunctie: rivaroxaban                                                        N2001000001090420250000000008010300060000000000
069000000000096000007000000000000Nierfunctie: rivaroxaban                                                        N2001000001090420250000000008010300060000000000
069000000000097000001141120230000Nierfunctie: fondaparinux                                                       N2001000001151120230000000001010300060000000000
069000000000097000002090720240000Nierfunctie: fondaparinux                                                       N2001000001100720240000000001010300060000000000
069000000000097000003000000000000Nierfunctie: fondaparinux                                                       N2001000001090720240000000008010300060000000000
069000000000097000004000000000000Nierfunctie: fondaparinux                                                       N2001000001211020240000000008010300060000000000
069000000000098000001141120230000Nierfunctie: danaparoide                                                        N2001000001151120230000000001010300060000000000
069000000000098000002151120230000Nierfunctie: danaparoide                                                        N2001000001221120230000000001010300060000000000
069000000000098000003090720240000Nierfunctie: danaparoide                                                        N2001000001100720240000000001010300060000000000
069000000000098000004000000000000Nierfunctie: danaparoide                                                        N2001000001090720240000000008010300060000000000
069000000000098000005000000000000Nierfunctie: danaparoide                                                        N2001000001211020240000000008010300060000000000
069000000000099000001141120230000Nierfunctie: milrinon                                                           N2001000001151120230000000001010300060000000000
069000000000099000002250720220000Nierfunctie: milrinon                                                           N2001000001260720220000000001010300060000000000
069000000000099000003151120230000Nierfunctie: milrinon                                                           N2001000001221120230000000001010300060000000000
069000000000099000004090720240000Nierfunctie: milrinon                                                           N2001000001100720240000000001010300060000000000
069000000000099000005000000000000Nierfunctie: milrinon                                                           N2001000001090720240000000009010300060000000000
069000000000099000006000000000000Nierfunctie: milrinon                                                           N2001000001211020240000000009010300060000000000
069000000000100000001141120230000Nierfunctie: dabigatran                                                         N2001000001151120230000000001010300060000000000
069000000000100000002090720240000Nierfunctie: dabigatran                                                         N2001000001100720240000000001010300060000000000
069000000000100000003000000000000Nierfunctie: dabigatran                                                         N2001000001070420250000000008010300060000000000
069000000000100000004000000000000Nierfunctie: dabigatran                                                         N2001000001070420250000000008010300060000000000
069000000000101000001160820230000Osteoporoseprofylaxe bij corticosteroidgebruik (prednis(ol)on)                  N2001000001210820230000000019010300060000000000
069000000000101000002210820230000Osteoporoseprofylaxe bij corticosteroidgebruik (prednis(ol)on)                  N2001000001220820230000000001010300060000000000
069000000000102000001160820230000Osteoporoseprofylaxe bij corticosteroidgebruik (cortison)                       N2001000001210820230000000019010300060000000000
069000000000102000002250720220000Osteoporoseprofylaxe bij corticosteroidgebruik (cortison)                       N2001000001260720220000000001010300060000000000
069000000000102000003210820230000Osteoporoseprofylaxe bij corticosteroidgebruik (cortison)                       N2001000001220820230000000001010300060000000000
069000000000103000001160820230000Osteoporoseprofylaxe bij corticosteroidgebruik (methylprednisolon/triamcinolon) N2001000001210820230000000019010300060000000000
069000000000103000002210820230000Osteoporoseprofylaxe bij corticosteroidgebruik (methylprednisolon/triamcinolon) N2001000001220820230000000001010300060000000000
069000000000104000001160820230000Osteoporoseprofylaxe bij corticosteroidgebruik (dexamethason)                   N2001000001210820230000000019010300060000000000
069000000000104000002210820230000Osteoporoseprofylaxe bij corticosteroidgebruik (dexamethason)                   N2001000001220820230000000001010300060000000000
069000000000105000001160820230000Osteoporoseprofylaxe bij corticosteroidgebruik (betamethason)                   N2001000001210820230000000019010300060000000000
069000000000105000002210820230000Osteoporoseprofylaxe bij corticosteroidgebruik (betamethason)                   N2001000001220820230000000001010300060000000000
069000000000106000001160820230000Osteoporoseprofylaxe bij corticosteroidgebruik (hydrocortison)                  N2001000001210820230000000019010300060000000000
069000000000106000002210820230000Osteoporoseprofylaxe bij corticosteroidgebruik (hydrocortison)                  N2001000001220820230000000001010300060000000000
069000000000107000001101120210000Maagbescherming bij NSAID-gebruik                                               N2001000001101120210000000001010300060000000000
069000000000107000002101120210000Maagbescherming bij NSAID-gebruik                                               N2001000001101120210000000018010300060000000000
069000000000107000003270720220000Maagbescherming bij NSAID-gebruik                                               N2001000001290720220000000001010300060000000000
069000000000107000004150520240000Maagbescherming bij NSAID-gebruik                                               N2001000001150520240000000001010300060000000000
069000000000107000005260720220000Maagbescherming bij NSAID-gebruik                                               N2001000001260720220000000001010300060000000000
069000000000107000006250720220000Maagbescherming bij NSAID-gebruik                                               N2001000001260720220000000001010300060000000000
069000000000107000007170520240000Maagbescherming bij NSAID-gebruik                                               N2001000001210520240000000001010300060000000000
069000000000108000001150520240000Maagbescherming bij salicylaat-/coxibgebruik                                    N2001000001150520240000000120010300060000000000
069000000000108000002150520240000Maagbescherming bij salicylaat-/coxibgebruik                                    N2001000001210520240000000014010300060000000000
069000000000108000003250720220000Maagbescherming bij salicylaat-/coxibgebruik                                    N2001000001260720220000000014010300060000000000
069000000000108000004210520240000Maagbescherming bij salicylaat-/coxibgebruik                                    N2001000001210520240000000014010300060000000000
069000000000109000001090820210000Nierfunctie: ribavirine                                                         N2001000001110820210000000001010300060000000000
069000000000109000002090820210000Nierfunctie: ribavirine                                                         N2001000001110820210000000001010300060000000000
069000000000109000003141120230000Nierfunctie: ribavirine                                                         N2001000001151120230000000001010300060000000000
069000000000109000004090720240000Nierfunctie: ribavirine                                                         N2001000001100720240000000001010300060000000000
069000000000109000005000000000000Nierfunctie: ribavirine                                                         N2001000001020920240000000008010300060000000000
069000000000109000006000000000000Nierfunctie: ribavirine                                                         N2001000001211020240000000008010300060000000000
069000000000110000001090820210000Nierfunctie: cidofovir                                                          N2001000001110820210000000001010300060000000000
069000000000110000002090820210000Nierfunctie: cidofovir                                                          N2001000001110820210000000001010300060000000000
069000000000110000003141120230000Nierfunctie: cidofovir                                                          N2001000001151120230000000001010300060000000000
069000000000110000004090720240000Nierfunctie: cidofovir                                                          N2001000001100720240000000001010300060000000000
069000000000110000005000000000000Nierfunctie: cidofovir                                                          N2001000001090720240000000008010300060000000000
069000000000110000006000000000000Nierfunctie: cidofovir                                                          N2001000001211020240000000008010300060000000000
069000000000111000001141120230000Nierfunctie: entecavir                                                          N2001000001151120230000000001010300060000000000
069000000000111000002151120230000Nierfunctie: entecavir                                                          N2001000001221120230000000001010300060000000000
069000000000111000003090720240000Nierfunctie: entecavir                                                          N2001000001100720240000000001010300060000000000
069000000000111000004000000000000Nierfunctie: entecavir                                                          N2001000001090720240000000009010300060000000000
069000000000111000005000000000000Nierfunctie: entecavir                                                          N2001000001211020240000000009010300060000000000
069000000000112000001030720170000Nierfunctie: proguanil dosering 30-50 ml/min                                    N2001000001241120170000000001010300060000000000
069000000000113000001141120230000Nierfunctie: adefovir                                                           N2001000001151120230000000001010300060000000000
069000000000113000002250720220000Nierfunctie: adefovir                                                           N2001000001260720220000000001010300060000000000
069000000000113000003151120230000Nierfunctie: adefovir                                                           N2001000001221120230000000001010300060000000000
069000000000113000004090720240000Nierfunctie: adefovir                                                           N2001000001100720240000000001010300060000000000
069000000000113000005000000000000Nierfunctie: adefovir                                                           N2001000001090720240000000009010300060000000000
069000000000114000001250720220000Nierfunctie: aciclovir parenteraal                                              N2001000001260720220000000001010300060000000000
069000000000114000002141120230000Nierfunctie: aciclovir parenteraal                                              N2001000001151120230000000001010300060000000000
069000000000114000003010720240000Nierfunctie: aciclovir parenteraal                                              N2001000001090720240000000001010300060000000000
069000000000114000004000000000000Nierfunctie: aciclovir parenteraal                                              N2001000001010720240000000010010300060000000000
069000000000114000005000000000000Nierfunctie: aciclovir parenteraal                                              N2001000001211020240000000010010300060000000000
069000000000115000001090820210000Nierfunctie: valganciclovir                                                     N2001000001110820210000000001010300060000000000
069000000000115000002090820210000Nierfunctie: valganciclovir                                                     N2001000001110820210000000001010300060000000000
069000000000115000003141120230000Nierfunctie: valganciclovir                                                     N2001000001151120230000000001010300060000000000
069000000000115000004090720240000Nierfunctie: valganciclovir                                                     N2001000001100720240000000001010300060000000000
069000000000115000005000000000000Nierfunctie: valganciclovir                                                     N2001000001090720240000000010010300060000000000
069000000000115000006000000000000Nierfunctie: valganciclovir                                                     N2001000001211020240000000010010300060000000000
069000000000116000001250720220000Nierfunctie: aciclovir oraal                                                    N2001000001260720220000000001010300060000000000
069000000000116000002151120230000Nierfunctie: aciclovir oraal                                                    N2001000001221120230000000001010300060000000000
069000000000116000003090720240000Nierfunctie: aciclovir oraal                                                    N2001000001100720240000000001010300060000000000
069000000000116000004000000000000Nierfunctie: aciclovir oraal                                                    N2001000001090720240000000007010300060000000000
069000000000116000005000000000000Nierfunctie: aciclovir oraal                                                    N2001000001211020240000000007010300060000000000
069000000000117000001151120230000Nierfunctie: foscarnet                                                          N2001000001221120230000000001010300060000000000
069000000000117000002250720220000Nierfunctie: foscarnet                                                          N2001000001260720220000000001010300060000000000
069000000000117000003090720240000Nierfunctie: foscarnet                                                          N2001000001100720240000000001010300060000000000
069000000000117000004000000000000Nierfunctie: foscarnet                                                          N2001000001090720240000000007010300060000000000
069000000000118000001151120230000Nierfunctie: valaciclovir                                                       N2001000001221120230000000001010300060000000000
069000000000118000002250720220000Nierfunctie: valaciclovir                                                       N2001000001260720220000000001010300060000000000
069000000000118000003090720240000Nierfunctie: valaciclovir                                                       N2001000001100720240000000001010300060000000000
069000000000118000004000000000000Nierfunctie: valaciclovir                                                       N2001000001090720240000000006010300060000000000
069000000000119000001090820210000Nierfunctie: emtricitabine                                                      N2001000001110820210000000001010300060000000000
069000000000119000002090820210000Nierfunctie: emtricitabine                                                      N2001000001110820210000000001010300060000000000
069000000000119000003151120230000Nierfunctie: emtricitabine                                                      N2001000001221120230000000001010300060000000000
069000000000119000004010720240000Nierfunctie: emtricitabine                                                      N2001000001100720240000000001010300060000000000
069000000000119000005000000000000Nierfunctie: emtricitabine                                                      N2001000001010720240000000008010300060000000000
069000000000119000006000000000000Nierfunctie: emtricitabine                                                      N2001000001231020240000000008010300060000000000
069000000000120000001250720220000Nierfunctie: didanosine                                                         N2001000001260720220000000001010300060000000000
069000000000120000002151120230000Nierfunctie: didanosine                                                         N2001000001221120230000000001010300060000000000
069000000000120000003221120230000Nierfunctie: didanosine                                                         N2001000001221120230000000001010300060000000000
069000000000120000004010720240000Nierfunctie: didanosine                                                         N2001000001100720240000000001010300060000000000
069000000000120000005000000000000Nierfunctie: didanosine                                                         N2001000001010720240000000009010300060000000000
069000000000121000001151120230000Nierfunctie: tenofovirdisoproxil                                                N2001000001221120230000000001010300060000000000
069000000000121000002221120230000Nierfunctie: tenofovirdisoproxil                                                N2001000001221120230000000001010300060000000000
069000000000121000003010720240000Nierfunctie: tenofovirdisoproxil                                                N2001000001100720240000000001010300060000000000
069020000000121000004140520250000Nierfunctie: tenofovirdisoproxil                                                N2001000001140520250000000009010300060000000000
069020000000121000005140520250000Nierfunctie: tenofovirdisoproxil                                                N2001000001140520250000000009010300060000000000
069030000000121000006000000000000Nierfunctie: tenofovirdisoproxil                                                N2001000001140520250000000009010300060000000000
069030000000121000007000000000000Nierfunctie: tenofovirdisoproxil                                                N2001000001140520250000000009010300060000000000
069000000000122000001151120230000Nierfunctie: stavudine                                                          N2001000001221120230000000001010300060000000000
069000000000122000002010720240000Nierfunctie: stavudine                                                          N2001000001100720240000000001010300060000000000
069000000000122000003000000000000Nierfunctie: stavudine                                                          N2001000001010720240000000009010300060000000000
069000000000123000001151120230000Nierfunctie: emtricitabine/tenofovir                                            N2001000001221120230000000001010300060000000000
069000000000123000002250720220000Nierfunctie: emtricitabine/tenofovir disoproxil                                 N2001000001260720220000000001010300060000000000
069000000000123000003221120230000Nierfunctie: emtricitabine+tenofovir disoproxil                                 N2001000001221120230000000001010300060000000000
069000000000123000004010720240000Nierfunctie: emtricitabine+tenofovir disoproxil                                 N2001000001100720240000000001010300060000000000
069000000000123000005000000000000Nierfunctie: emtricitabine+tenofovir disoproxil                                 N2001000001010720240000000009010300060000000000
069000000000123000006000000000000Nierfunctie: emtricitabine+tenofovir disoproxil                                 N2001000001231020240000000009010300060000000000
069000000000124000001151120230000Nierfunctie: ganciclovir                                                        N2001000001221120230000000001010300060000000000
069000000000124000002250720220000Nierfunctie: ganciclovir                                                        N2001000001260720220000000001010300060000000000
069000000000124000003010720240000Nierfunctie: ganciclovir                                                        N2001000001100720240000000001010300060000000000
069000000000124000004000000000000Nierfunctie: ganciclovir                                                        N2001000001010720240000000011010300060000000000
069000000000125000001151120230000Nierfunctie: oseltamivir                                                        N2001000001221120230000000001010300060000000000
069000000000125000002221120230000Nierfunctie: oseltamivir                                                        N2001000001221120230000000001010300060000000000
069000000000125000003260720230000Nierfunctie: oseltamivir                                                        N2001000001270720230000000001010300060000000000
069000000000125000004010720240000Nierfunctie: oseltamivir                                                        N2001000001100720240000000001010300060000000000
069000000000125000005000000000000Nierfunctie: oseltamivir                                                        N2001000001010720240000000009010300060000000000
069000000000125000006000000000000Nierfunctie: oseltamivir                                                        N2001000001231020240000000009010300060000000000
069000000000126000001221120230000Nierfunctie: indinavir                                                          N2001000001221120230000000001010300060000000000
069000000000126000002250720220000Nierfunctie: indinavir                                                          N2001000001260720220000000001010300060000000000
069000000000126000003010720240000Nierfunctie: indinavir                                                          N2001000001100720240000000001010300060000000000
069000000000126000004000000000000Nierfunctie: indinavir                                                          N2001000001010720240000000010010300060000000000
069000000000127000001221120230000Nierfunctie: furosemide                                                         N2001000001221120230000000001010300060000000000
069000000000127000002221120230000Nierfunctie: furosemide                                                         N2001000001231120230000000001010300060000000000
069000000000127000003250820230000Nierfunctie: furosemide                                                         N2001000001290820230000000001010300060000000000
069000000000127000004280520240000Nierfunctie: furosemide                                                         N2001000001280520240000000002010300060000000000
069000000000127000005010720240000Nierfunctie: furosemide                                                         N2001000001100720240000000002010300060000000000
069000000000127000006000000000000Nierfunctie: furosemide                                                         N2001000001010720240000000016010300060000000000
069000000000127000007000000000000Nierfunctie: furosemide                                                         N2001000001231020240000000016010300060000000000
069000000000128000001221120230000Nierfunctie: pergolide                                                          N2001000001221120230000000001010300060000000000
069000000000128000002010720240000Nierfunctie: pergolide                                                          N2001000001100720240000000001010300060000000000
069000000000128000003000000000000Nierfunctie: pergolide                                                          N2001000001010720240000000010010300060000000000
069000000000129000001221120230000Nierfunctie: tiapride                                                           N2001000001221120230000000001010300060000000000
069000000000129000002221120230000Nierfunctie: tiapride                                                           N2001000001231120230000000001010300060000000000
069000000000129000003010720240000Nierfunctie: tiapride                                                           N2001000001100720240000000001010300060000000000
069000000000129000004000000000000Nierfunctie: tiapride                                                           N2001000001010720240000000009010300060000000000
069000000000130000001221120230000Nierfunctie: bumetanide                                                         N2001000001221120230000000001010300060000000000
069000000000130000002221120230000Nierfunctie: bumetanide                                                         N2001000001231120230000000001010300060000000000
069000000000130000003250820230000Nierfunctie: bumetanide                                                         N2001000001290820230000000001010300060000000000
069000000000130000004280520240000Nierfunctie: bumetanide                                                         N2001000001280520240000000002010300060000000000
069000000000130000005010720240000Nierfunctie: bumetanide                                                         N2001000001100720240000000002010300060000000000
069000000000130000006000000000000Nierfunctie: bumetanide                                                         N2001000001010720240000000016010300060000000000
069000000000130000007000000000000Nierfunctie: bumetanide                                                         N2001000001291020240000000016010300060000000000
069000000000131000001221120230000Nierfunctie: venlafaxine                                                        N2001000001221120230000000001010300060000000000
069000000000131000002221120230000Nierfunctie: venlafaxine                                                        N2001000001231120230000000001010300060000000000
069000000000131000003010720240000Nierfunctie: venlafaxine                                                        N2001000001100720240000000001010300060000000000
069000000000131000004000000000000Nierfunctie: venlafaxine                                                        N2001000001010720240000000011010300060000000000
069000000000131000005000000000000Nierfunctie: venlafaxine                                                        N2001000001251120240000000011010300060000000000
069000000000132000001211020210000Nierfunctie: midazolam (oud)                                                    N2001000001211020210000000001010300060000000000
069000000000133000001221120230000Nierfunctie: chloralhydraat                                                     N2001000001231120230000000001010300060000000000
069000000000133000002231120230000Nierfunctie: chloralhydraat                                                     N2001000001241120230000000001010300060000000000
069000000000133000003010720240000Nierfunctie: chloralhydraat                                                     N2001000001100720240000000001010300060000000000
069000000000133000004000000000000Nierfunctie: chloralhydraat                                                     N2001000001010720240000000008010300060000000000
069000000000133000005000000000000Nierfunctie: chloralhydraat                                                     N2001000001231020240000000008010300060000000000
069000000000134000001221120230000Nierfunctie: enalapril                                                          N2001000001231120230000000001010300060000000000
069000000000134000002231120230000Nierfunctie: enalapril                                                          N2001000001241120230000000001010300060000000000
069000000000134000003250820230000Nierfunctie: enalapril                                                          N2001000001290820230000000001010300060000000000
069000000000134000004280520240000Nierfunctie: enalapril                                                          N2001000001280520240000000013010300060000000000
069000000000134000005090720240000Nierfunctie: enalapril                                                          N2001000001100720240000000013010300060000000000
069000000000134000006000000000000Nierfunctie: enalapril                                                          N2001000001090720240000000017010300060000000000
069000000000134000007000000000000Nierfunctie: enalapril                                                          N2001000001251120240000000017010300060000000000
069000000000135000001211020210000Nierfunctie: atovaquon (oud)                                                    N2001000001211020210000000001010300060000000000
069000000000135000002211020210000Nierfunctie: atovaquon (oud)                                                    N2001000001211020210000000001010300060000000000
069000000000136000001250720220000Nierfunctie: lithiumzouten                                                      N2001000001260720220000000001010300060000000000
069000000000136000002221120230000Nierfunctie: lithiumzouten                                                      N2001000001231120230000000001010300060000000000
069000000000136000003260720220000Nierfunctie: lithiumzouten                                                      N2001000001260720220000000001010300060000000000
069000000000136000004080820240000Nierfunctie: lithiumzouten                                                      N2001000001080820240000000001010300060000000000
069000000000136000005000000000000Nierfunctie: lithiumzouten                                                      N2001000001080820240000000008010300060000000000
069000000000137000001221120230000Nierfunctie: pramipexol                                                         N2001000001231120230000000001010300060000000000
069000000000137000002231120230000Nierfunctie: pramipexol                                                         N2001000001241120230000000001010300060000000000
069000000000137000003080820240000Nierfunctie: pramipexol                                                         N2001000001080820240000000001010300060000000000
069000000000137000004000000000000Nierfunctie: pramipexol                                                         N2001000001080820240000000009010300060000000000
069000000000137000005000000000000Nierfunctie: pramipexol                                                         N2001000001251120240000000009010300060000000000
069000000000138000001221120230000Nierfunctie: meprobamaat                                                        N2001000001231120230000000001010300060000000000
069000000000138000002231120230000Nierfunctie: meprobamaat                                                        N2001000001241120230000000001010300060000000000
069000000000138000003080820240000Nierfunctie: meprobamaat                                                        N2001000001080820240000000001010300060000000000
069000000000138000004000000000000Nierfunctie: meprobamaat                                                        N2001000001080820240000000008010300060000000000
069000000000138000005000000000000Nierfunctie: meprobamaat                                                        N2001000001231020240000000008010300060000000000
069000000000139000001221120230000Nierfunctie: tretinoine oraal                                                   N2001000001231120230000000001010300060000000000
069000000000139000002231120230000Nierfunctie: tretinoine oraal                                                   N2001000001241120230000000001010300060000000000
069000000000139000003080820240000Nierfunctie: tretinoine oraal                                                   N2001000001080820240000000001010300060000000000
069000000000139000004000000000000Nierfunctie: tretinoine oraal                                                   N2001000001080820240000000008010300060000000000
069000000000139000005000000000000Nierfunctie: tretinoine oraal                                                   N2001000001231020240000000008010300060000000000
069000000000140000001090820210000Nierfunctie: lenalidomide                                                       N2001000001110820210000000001010300060000000000
069000000000140000002090820210000Nierfunctie: lenalidomide                                                       N2001000001110820210000000001010300060000000000
