068500000000001121115120000Creatinineklaring (ml/min)                                                      00002000000001010300060200000000000000000000000000000
068500000000002121112110000Natrium (mmol/l)                                                                00002000000002010300060200000000000000000000000000000
068500000000003121112110000Kalium (mmol/l)                                                                 00002000000003010300060200000000000000000000000000000
068500000000004121118070000INR                                                                             00002000000004010300060200000000000000000000000000000
068500000000005121113050000Bloeddruk systolisch (mmHg)                                                     00002000000005010300060200000000000000000000000000000
068500000000006121112110000Bloeddruk diastolisch (mmHg)                                                    00002000000006010300060200000000000000000000000000000
068500000000007220122012201Hematocriet (percentage)                                                        00002000000007010300060200000000000000000000000000000
068500000000008211221120000Toedientijden                                                                   00000000000000010300060200000000000000000000000000000
068500000000009121112110000Gewicht (kg)                                                                    00002000000008010300060200000000000000000000000000000
068500000000010121112110000Lichaamsoppervlakte (m2)                                                        00002000000009010300060200000000000000000000000000000
068500000000011121112110000Leeftijd                                                                        00000000000000010300060200000000000000000000000000000
068500000000012121112110000Lengte (cm)                                                                     00002000000010010300060200000000000000000000000000000
068500000000013220122012201Z-Index nr                                                                      00000000000000010300060200000000000000000000000000000
068500000000014220122012201Handelsproduct code (HPK)                                                       00000000000000010300060200000000000000000000000000000
068500000000015220122012201Prescriptie product code (PRK)                                                  00000000000000010300060200000000000000000000000000000
068500000000016121112110000Generiek product code (GPK)                                                     00000000000000010300060200000000000000000000000000000
068500000000017121112110000PK: hemodialyse                                                                 00000040001331010300060200000000000000000000000000000
068500000000018121112110000PK: peritoneaaldialyse                                                          00000040001332010300060200000000000000000000000000000
068500000000019121112110000PK: sportbeoefening                                                             00000040000210010300060200000000000000000000000000000
068500000000020121112110000PK: verkeersdeelname                                                            00000040000219010300060200000000000000000000000000000
068500000000021121112110000FG: CYP2D6 poor metabolizer                                                     00000040000500010300060200000000000000000000000000000
068500000000022121112110000CIA: hypertensie                                                                00000040000018010300060200000000000000000000000000000
068500000000023121120010000CIA: ischemische hartziekten                                                    00000040000070010300060200000000000000000000000000000
068500000000024121112110000CIA: hartfalen                                                                  00000040000072010300060200000000000000000000000000000
068500000000025121112110000CIA: verminderde nierfunctie                                                    00000040000137010300060200000000000000000000000000000
068500000000026220122012201Type zorgverlener: internist                                                    00001002000313010300060200000000000000000000000000000
068500000000027220122012201Type zorgverlener: cardioloog                                                   00001002000320010300060200000000000000000000000000000
068500000000028121216041604CIA: astma/COPD                                                                 00000040000024010300060200000000000000000000000000000
068500000000029121212120000CIA: brugada-syndroom                                                           00000040000221010300060200000000000000000000000000000
068500000000030210723122312CIA: coeliakie (vervalt per 1 februari 2024)                                    00000040000212010300060200000000000000000000000000000
068500000000031121216020000CIA: inflammatoire darmziekten                                                  00000040000222010300060200000000000000000000000000000
068500000000032121212120000CIA: CVA (hersenbloeding)                                                       00000040000238010300060200000000000000000000000000000
068500000000033121212120000CIA: depressie                                                                  00000040000038010300060200000000000000000000000000000
068500000000034121212120000CIA: diabetes mellitus                                                          00000040000190010300060200000000000000000000000000000
068500000000035121212120000CIA: endometriose                                                               00000040000225010300060200000000000000000000000000000
068500000000036121212120000CIA: endometriumcarcinoom                                                       00000040000224010300060200000000000000000000000000000
068500000000037121212120000CIA: epilepsie                                                                  00000040000042010300060200000000000000000000000000000
068500000000038121212120000CIA: fenylketonurie                                                             00000040000213010300060200000000000000000000000000000
068500000000039121212120000CIA: glaucoom                                                                   00000040000067010300060200000000000000000000000000000
068500000000040121212120000CIA: G6PD-deficientie                                                           00000040000078010300060200000000000000000000000000000
068500000000041121212120000CIA: familiaire hyperlipidemie                                                  00000040000227010300060200000000000000000000000000000
068500000000042121212120000CIA: jicht                                                                      00000040000098010300060200000000000000000000000000000
068500000000043121212120000CIA: lang QT-interval syndroom                                                  00000040000218010300060200000000000000000000000000000
068500000000044121218051805CIA: leverfunctiestoornis                                                       00000040000118010300060200000000000000000000000000000
068500000000045121220010000CIA: borstkanker                                                                00000040000228010300060200000000000000000000000000000
068500000000046121212120000CIA: myasthenie                                                                 00000040000136010300060200000000000000000000000000000
068500000000047121212120000CIA: ziekte van Parkinson                                                       00000040000162010300060200000000000000000000000000000
068500000000048121212120000CIA: porfyrie                                                                   00000040000209010300060200000000000000000000000000000
068500000000049121216071607CIA: prostaathyperplasie                                                        00000040000211010300060200000000000000000000000000000
068500000000050121212120000CIA: psoriasis                                                                  00000040000178010300060200000000000000000000000000000
068500000000051121212120000CIA: raynaudfenomeen                                                            00000040000230010300060200000000000000000000000000000
068500000000052121212120000CIA: refluxziekte                                                               00000040000214010300060200000000000000000000000000000
068500000000053121212120000CIA: schildklierfunctiestoornis                                                 00000040000183010300060200000000000000000000000000000
068500000000054121212120000CIA: schizofrenie/psychotische stoornis                                         00000040000231010300060200000000000000000000000000000
068500000000055121212120000CIA: syndroom van Sjogren                                                       00000040000233010300060200000000000000000000000000000
068500000000056121212120000CIA: slaapapneu                                                                 00000040000215010300060200000000000000000000000000000
068500000000057121223070000CIA: verhoogde bloedingsneiging                                                 00000040000235010300060200000000000000000000000000000
068500000000058121212120000CIA: veneuze trombo-embolische ziekte                                           00000040000216010300060200000000000000000000000000000
068500000000059121217071707CIA: arteriele trombose                                                         00000040000217010300060200000000000000000000000000000
068500000000060121212120000CIA: ulcus pepticum                                                             00000040000158010300060200000000000000000000000000000
068500000000061121216020000CIA: Wolff-Parkinson-White-syndroom                                             00000040000237010300060200000000000000000000000000000
068500000000062121212120000PK: contactlenzen                                                               00000040000241010300060200000000000000000000000000000
068500000000063121222070000PK: slikstoornis/slikprobleem                                                   00000040000240010300060200000000000000000000000000000
068500000000064121212120000PK: zwangerschap                                                                00000040001320010300060200000000000000000000000000000
068500000000065121212120000PK: kinderwens vrouw                                                            00000040001310010300060200000000000000000000000000000
068500000000066121212120000PK: kinderwens man                                                              00000040001300010300060200000000000000000000000000000
068500000000067121212120000PK: borstvoeding                                                                00000040001330010300060200000000000000000000000000000
068500000000068121212120000FG: CYP2D6 intermediate metabolizer                                             00000040000501010300060200000000000000000000000000000
068500000000069121212120000FG: CYP2D6 ultrarapid metabolizer                                               00000040000502010300060200000000000000000000000000000
068500000000070211221120000Polyfarmacie                                                                    00000000000000010300060200000000000000000000000000000
068500000000071130713070000Lithium (mmol/l)                                                                00002000000011010300060200000000000000000000000000000
068500000000072130713070000AAND: reumatoide artritis                                                       00000000000000010300060200000000000000000000000000000
068500000000073130713070000AAND: premature menopauze                                                       00000000000000010300060200000000000000000000000000000
068500000000074220122012201AAND: fractuur                                                                  00000000000000010300060200000000000000000000000000000
068500000000075220122012201AAND: oncologische indicatie voor MTX                                           00000000000000010300060200000000000000000000000000000
068500000000076180423112311FG: CYP2B6 *1/*5                                                                00000040001371010300060200000000000000000000000000000
068500000000077180423112311FG: CYP2B6 *5/*5                                                                00000040001372010300060200000000000000000000000000000
068500000000078180423112311FG: CYP2B6 *5/*6 of *5/*18                                                      00000040001373010300060200000000000000000000000000000
068500000000079200122062206CIA: feochromocytoom                                                            00000040001384010300060200000000000000000000000000000
068500000000080220122012201AAND: restless legs                                                             00000000000000010300060200000000000000000000000000000
068500000000081220122012201AAND: erectiestoornis                                                           00000000000000010300060200000000000000000000000000000
068500000000082220122012201AAND: pulmonale arteriele hypertensie                                           00000000000000010300060200000000000000000000000000000
068500000000083130713070000ZRS: inhalatie-instructie                                                       00000000000000010300060200000000000000000000000000000
068500000000084130913090000CIA: open trommelvlies/ oorbuisjes                                              00000040000236010300060200000000000000000000000000000
068500000000085130813080000CIA: sikkelcelziekte                                                            00000040000232010300060200000000000000000000000000000
068500000000086130913090000CIA: slokdarmstenose                                                            00000040000234010300060200000000000000000000000000000
068500000000087130915030000CIA: CVA (herseninfarct/TIA)                                                    00000040000223010300060200000000000000000000000000000
068500000000088130913090000CIA: perifeer arterieel vaatlijden (excl. Raynaud)                              00000040000229010300060200000000000000000000000000000
068500000000089130813080000CIA: tuberculose                                                                00000040000239010300060200000000000000000000000000000
068500000000090130919010000CIA: angio-oedeem                                                               00000040000220010300060200000000000000000000000000000
068500000000091130919051905CIA: angio-oedeem allergisch                                                    00000040000242010300060200000000000000000000000000000
068500000000092220122012201per half uur                                                                    00000000000000010300060200000000000000000000000000000
068500000000093131213120000per uur                                                                         00000000000000010300060200000000000000000000000000000
068500000000094131213120000per 2 uur                                                                       00000000000000010300060200000000000000000000000000000
068500000000095131213120000per 3 uur                                                                       00000000000000010300060200000000000000000000000000000
068500000000096131213120000per 4 uur                                                                       00000000000000010300060200000000000000000000000000000
068500000000097131213120000per 5 uur                                                                       00000000000000010300060200000000000000000000000000000
068500000000098131213120000per 6 uur                                                                       00000000000000010300060200000000000000000000000000000
068500000000099131213120000per 7 uur                                                                       00000000000000010300060200000000000000000000000000000
068500000000100131213120000per 8 uur                                                                       00000000000000010300060200000000000000000000000000000
068500000000101220122012201per 9 uur                                                                       00000000000000010300060200000000000000000000000000000
068500000000102220122012201per 10 uur                                                                      00000000000000010300060200000000000000000000000000000
068500000000103220122012201per 11 uur                                                                      00000000000000010300060200000000000000000000000000000
068500000000104131213120000per 12 uur                                                                      00000000000000010300060200000000000000000000000000000
068500000000105131213120000per dag                                                                         00000000000000010300060200000000000000000000000000000
068500000000106131213120000per 2 dagen                                                                     00000000000000010300060200000000000000000000000000000
068500000000108131213120000per 3 dagen                                                                     00000000000000010300060200000000000000000000000000000
068500000000109131213120000per 4 dagen                                                                     00000000000000010300060200000000000000000000000000000
068500000000110220122012201per 5 dagen                                                                     00000000000000010300060200000000000000000000000000000
068500000000111220122012201per 6 dagen                                                                     00000000000000010300060200000000000000000000000000000
068500000000112131213120000per week                                                                        00000000000000010300060200000000000000000000000000000
068500000000113220122012201per 8 dagen                                                                     00000000000000010300060200000000000000000000000000000
068500000000114220122012201per 9 dagen                                                                     00000000000000010300060200000000000000000000000000000
068500000000115220122012201per 10 dagen                                                                    00000000000000010300060200000000000000000000000000000
068500000000116220122012201per 11 dagen                                                                    00000000000000010300060200000000000000000000000000000
068500000000117220122012201per 12 dagen                                                                    00000000000000010300060200000000000000000000000000000
068500000000118131213120000per 2 weken                                                                     00000000000000010300060200000000000000000000000000000
068500000000119131213120000per 3 weken                                                                     00000000000000010300060200000000000000000000000000000
068500000000120131213120000per 4 weken                                                                     00000000000000010300060200000000000000000000000000000
068500000000121131213120000per maand                                                                       00000000000000010300060200000000000000000000000000000
068500000000122220122012201per 5 weken                                                                     00000000000000010300060200000000000000000000000000000
068500000000123131213120000per 6 weken                                                                     00000000000000010300060200000000000000000000000000000
068500000000124220122012201per 7 weken                                                                     00000000000000010300060200000000000000000000000000000
068500000000125131213120000per 8 weken                                                                     00000000000000010300060200000000000000000000000000000
068500000000126220122012201per 2 maanden                                                                   00000000000000010300060200000000000000000000000000000
068500000000127220122012201per 9 weken                                                                     00000000000000010300060200000000000000000000000000000
068500000000128220122012201per 10 weken                                                                    00000000000000010300060200000000000000000000000000000
068500000000129220122012201per 11 weken                                                                    00000000000000010300060200000000000000000000000000000
068500000000130220122012201per 12 weken                                                                    00000000000000010300060200000000000000000000000000000
068500000000131131213120000per 3 maanden                                                                   00000000000000010300060200000000000000000000000000000
068500000000132220122012201per 4 maanden                                                                   00000000000000010300060200000000000000000000000000000
068500000000133220122012201per 5 maanden                                                                   00000000000000010300060200000000000000000000000000000
068500000000134220122012201per 24 weken                                                                    00000000000000010300060200000000000000000000000000000
068500000000136220122012201per 6 maanden                                                                   00000000000000010300060200000000000000000000000000000
068500000000137220122012201per 7 maanden                                                                   00000000000000010300060200000000000000000000000000000
068500000000138220122012201per 8 maanden                                                                   00000000000000010300060200000000000000000000000000000
068500000000139220122012201per 9 maanden                                                                   00000000000000010300060200000000000000000000000000000
068500000000140220122012201per 10 maanden                                                                  00000000000000010300060200000000000000000000000000000
068500000000141220122012201per 11 maanden                                                                  00000000000000010300060200000000000000000000000000000
068500000000142131213120000per jaar                                                                        00000000000000010300060200000000000000000000000000000
068500000000143220122012201per 18 maanden                                                                  00000000000000010300060200000000000000000000000000000
068500000000144220122012201per 2 jaar                                                                      00000000000000010300060200000000000000000000000000000
068500000000145220122012201per 3 jaar                                                                      00000000000000010300060200000000000000000000000000000
068500000000146220122012201per 4 jaar                                                                      00000000000000010300060200000000000000000000000000000
068500000000147220122012201per 5 jaar                                                                      00000000000000010300060200000000000000000000000000000
068500000000148220122012201per 6 jaar                                                                      00000000000000010300060200000000000000000000000000000
068500000000150220122012201ingegeven tdw: intramusculair                                                   00000000000000010300060200000000000000000000000000000
068500000000151220122012201ingegeven tdw: intraveneus                                                      00000000000000010300060200000000000000000000000000000
068500000000152220122012201ingegeven tdw: nasaal                                                           00000000000000010300060200000000000000000000000000000
068500000000153220122012201ingegeven tdw: oculair                                                          00000000000000010300060200000000000000000000000000000
068500000000154220122012201ingegeven tdw: auriculair                                                       00000000000000010300060200000000000000000000000000000
068500000000155220122012201ingegeven tdw: oraal                                                            00000000000000010300060200000000000000000000000000000
068500000000156220122012201ingegeven tdw: intraperitoneaal                                                 00000000000000010300060200000000000000000000000000000
068500000000157220122012201ingegeven tdw: rectaal                                                          00000000000000010300060200000000000000000000000000000
068500000000158220122012201ingegeven tdw: subcutaan                                                        00000000000000010300060200000000000000000000000000000
068500000000159220122012201ingegeven tdw: intradermaal                                                     00000000000000010300060200000000000000000000000000000
068500000000160220122012201ingegeven tdw: oromucosaal                                                      00000000000000010300060200000000000000000000000000000
068500000000161220122012201ingegeven tdw: vaginaal                                                         00000000000000010300060200000000000000000000000000000
068500000000162220122012201ingegeven tdw: intrathecaal                                                     00000000000000010300060200000000000000000000000000000
068500000000163220122012201ingegeven tdw: epiduraal                                                        00000000000000010300060200000000000000000000000000000
068500000000164220122012201ingegeven tdw: intra-arterieel                                                  00000000000000010300060200000000000000000000000000000
068500000000165220122012201ingegeven tdw: cutaan                                                           00000000000000010300060200000000000000000000000000000
068500000000166220122012201ingegeven tdw: gastro-enteraal                                                  00000000000000010300060200000000000000000000000000000
068500000000167220122012201ingegeven tdw: intra-articulair                                                 00000000000000010300060200000000000000000000000000000
068500000000168220122012201ingegeven tdw: transdermaal                                                     00000000000000010300060200000000000000000000000000000
068500000000169220122012201ingegeven tdw: perineuraal                                                      00000000000000010300060200000000000000000000000000000
068500000000170220122012201ingegeven tdw: intrapleuraal                                                    00000000000000010300060200000000000000000000000000000
068500000000171220122012201ingegeven tdw: intrasternaal                                                    00000000000000010300060200000000000000000000000000000
068500000000172220122012201ingegeven tdw: inhalatie                                                        00000000000000010300060200000000000000000000000000000
068500000000173220122012201ingegeven tdw: urethraal                                                        00000000000000010300060200000000000000000000000000000
068500000000174220122012201ingegeven tdw: orofaryngeaal                                                    00000000000000010300060200000000000000000000000000000
068500000000175220122012201ingegeven tdw: intracardiaal                                                    00000000000000010300060200000000000000000000000000000
068500000000176220122012201ingegeven tdw: intradiscaal                                                     00000000000000010300060200000000000000000000000000000
068500000000177220122012201ingegeven tdw: intralaesionaal                                                  00000000000000010300060200000000000000000000000000000
068500000000178220122012201ingegeven tdw: lokaal                                                           00000000000000010300060200000000000000000000000000000
068500000000179220122012201ingegeven tdw: extra-amnionaal                                                  00000000000000010300060200000000000000000000000000000
068500000000180220122012201ingegeven tdw: intra-amnionaal                                                  00000000000000010300060200000000000000000000000000000
068500000000181220122012201ingegeven tdw: hemodialyse                                                      00000000000000010300060200000000000000000000000000000
068500000000182220122012201ingegeven tdw: dentaal                                                          00000000000000010300060200000000000000000000000000000
068500000000183220122012201ingegeven tdw: intra-oculair                                                    00000000000000010300060200000000000000000000000000000
068500000000184220122012201ingegeven tdw: intra-uterien                                                    00000000000000010300060200000000000000000000000000000
068500000000185220122012201ingegeven tdw: intralymfatisch                                                  00000000000000010300060200000000000000000000000000000
068500000000186220122012201ingegeven tdw: subconjunctivaal                                                 00000000000000010300060200000000000000000000000000000
068500000000187220122012201ingegeven tdw: sublinguaal                                                      00000000000000010300060200000000000000000000000000000
068500000000188220122012201ingegeven tdw: intracoronair                                                    00000000000000010300060200000000000000000000000000000
068500000000189220122012201ingegeven tdw: intrabursaal                                                     00000000000000010300060200000000000000000000000000000
068500000000190220122012201ingegeven tdw: peri-articulair                                                  00000000000000010300060200000000000000000000000000000
068500000000191220122012201ingegeven tdw: intravitreaal                                                    00000000000000010300060200000000000000000000000000000
068500000000192220122012201ingegeven tdw: intracervicaal                                                   00000000000000010300060200000000000000000000000000000
068500000000193220122012201ingegeven tdw: intravesicaal                                                    00000000000000010300060200000000000000000000000000000
068500000000194220122012201ingegeven tdw: intracaverneus                                                   00000000000000010300060200000000000000000000000000000
068500000000195220122012201ingegeven tdw: peribulbair                                                      00000000000000010300060200000000000000000000000000000
068500000000196220122012201ingegeven tdw: gingivaal                                                        00000000000000010300060200000000000000000000000000000
068500000000197220122012201ingegeven tdw: endocervicaal                                                    00000000000000010300060200000000000000000000000000000
068500000000198220122012201ingegeven tdw: intratumoraal                                                    00000000000000010300060200000000000000000000000000000
068500000000199220122012201ingegeven tdw: extracorporaal                                                   00000000000000010300060200000000000000000000000000000
068500000000200220122012201ingegeven tdw: voor implantatie                                                 00000000000000010300060200000000000000000000000000000
068500000000201220122012201ingegeven tdw: epilesionaal                                                     00000000000000010300060200000000000000000000000000000
068500000000203220122012201Periode 3 maanden                                                               00000000000000010300060200000000000000000000000000000
068500000000204140814080000Periode 6 maanden                                                               00000000000000010300060200000000000000000000000000000
068500000000205140814080000Periode 9 maanden                                                               00000000000000010300060200000000000000000000000000000
068500000000206220122012201Periode 12 maanden                                                              00000000000000010300060200000000000000000000000000000
068500000000207131213120000Frequentie                                                                      00000000000000010300060200000000000000000000000000000
068500000000208131214010000Dosis per keer                                                                  00000000000000010300060200000000000000000000000000000
068500000000209211221120000Dosis per keer per kg lich.gewicht                                              00000000000000010300060200000000000000000000000000000
068500000000210211221120000Dosis per keer per m2 lich.opp.                                                 00000000000000010300060200000000000000000000000000000
068500000000211131213120000Totale dosering per dag                                                         00000000000000010300060200000000000000000000000000000
068500000000212211221120000Totale dosering per dag per kg lich.gewicht                                     00000000000000010300060200000000000000000000000000000
068500000000213211221120000Totale dosering per dag per m2 lich.opp.                                        00000000000000010300060200000000000000000000000000000
068500000000214131213120000Totale dosering per week                                                        00000000000000010300060200000000000000000000000000000
068500000000215211221120000Totale dosering per week per kg lich.gewicht                                    00000000000000010300060200000000000000000000000000000
068500000000216211221120000Totale dosering per week per m2 lich.opp.                                       00000000000000010300060200000000000000000000000000000
068500000000217150315030000FG: DPD genactiviteitsscore 0,5                                                 00000040001346010300060200000000000000000000000000000
068500000000218131222032203Gewone doseringscontrole uitvoeren                                              00000000000000010300060200000000000000000000000000000
068500000000219220122012201Verstrekkingen                                                                  00000000000000010300060200000000000000000000000000000
068500000000220220122012201Verbijzondering ICPC 'profylactisch'                                            00000000000000010300060200000000000000000000000000000
068500000000221220122012201Verbijzondering ICPC 'therapeutisch'                                            00000000000000010300060200000000000000000000000000000
068500000000222220122012201Periode 15 maanden                                                              00000000000000010300060200000000000000000000000000000
068500000000223220122012201Periode 24 maanden                                                              00000000000000010300060200000000000000000000000000000
068500000000224140814080000Man                                                                             00001001000001010300060200000000000000000000000000000
068500000000225140814080000Vrouw                                                                           00001001000002010300060200000000000000000000000000000
068500000000226140814080000FG: CYP2D6 extensive metabolizer                                                00000040000505010300060200000000000000000000000000000
068500000000227140815030000FG: DPD genactiviteitsscore 0                                                   00000040000542010300060200000000000000000000000000000
068500000000228140815030000FG: DPD genactiviteitsscore 1                                                   00000040000543010300060200000000000000000000000000000
068500000000229211121110000FG: DPD genactiviteitsscore 2 (normal metaboliser)                              00000040000544010300060200000000000000000000000000000
068500000000230140814080000FG: HLA-B*5701-positief                                                         00000040000536010300060200000000000000000000000000000
068500000000231140814080000FG: HLA-B*5701-negatief                                                         00000040000537010300060200000000000000000000000000000
068500000000232140814080000FG: CYP2C19 poor metabolizer                                                    00000040000521010300060200000000000000000000000000000
068500000000233140814080000FG: CYP2C19 intermediate metabolizer                                            00000040000520010300060200000000000000000000000000000
068500000000234140814080000FG: CYP2C19 extensive metabolizer                                               00000040000514010300060200000000000000000000000000000
068500000000235140814080000FG: CYP2C19 ultrarapid metabolizer                                              00000040000541010300060200000000000000000000000000000
068500000000236211121110000FG: TPMT poor metaboliser                                                       00000040000528010300060200000000000000000000000000000
068500000000237211121110000FG: TPMT intermediate metaboliser                                               00000040000527010300060200000000000000000000000000000
068500000000238211121110000FG: TPMT normal metaboliser                                                     00000040000534010300060200000000000000000000000000000
068500000000239150115010000CIA: astma                                                                      00000040001347010300060200000000000000000000000000000
068500000000240150115010000CIA: COPD                                                                       00000040001348010300060200000000000000000000000000000
068500000000241150315030000FG: DPD genactiviteitsscore 1,5                                                 00000040001345010300060200000000000000000000000000000
068500000000242150320010000CIA: urineretentie                                                              00000040001349010300060200000000000000000000000000000
068500000000243150315030000PK: sonde                                                                       00000040001350010300060200000000000000000000000000000
068500000000244150318051805CIA: levercirrose, gedecompenseerd                                              00000040001351010300060200000000000000000000000000000
068500000000245150317070000CIA: levercirrose                                                               00000040001352010300060200000000000000000000000000000
068500000000246150315030000CIA: pseudocholinesterasedeficientie                                            00000040001353010300060200000000000000000000000000000
068500000000247150315030000PK: stoma                                                                       00000040001354010300060200000000000000000000000000000
068500000000248211224040000CIA: obesitas met BMI >= 40 kg/m2                                               00000040001356010300060200000000000000000000000000000
068500000000249150319010000PK: bariatrische chirurgie                                                      00000040001355010300060200000000000000000000000000000
068500000000250150318051805CIA: kunsthartklep                                                              00000040001334010300060200000000000000000000000000000
068500000000251151015100000Onderdrukte bewaking  op contraindicaties uitvoeren                             00000000000000010300060200000000000000000000000000000
068500000000252151015100000Gewone doseringscontrole onderdrukken                                           00000000000000010300060200000000000000000000000000000
068500000000253160216020000CIA: extrapiramidale stoornis (excl. Parkinson)                                 00000040001333010300060200000000000000000000000000000
068500000000254220122012201Superproduct code (SPK)                                                         00000000000000010300060200000000000000000000000000000
068500000000255220122012201Stof-toedieningsweg (SSK)                                                       00000000000000010300060200000000000000000000000000000
068500000000256220122012201Stofnaam (SNK)                                                                  00000000000000010300060200000000000000000000000000000
068500000000257160423072307FG: Factor V Leiden homozygoot                                                  00000040000503010300060200000000000000000000000000000
068500000000258160423072307FG: Factor V Leiden heterozygoot                                                00000040000504010300060200000000000000000000000000000
068500000000259170717070000FG: CYP2C9 *1/*2                                                                00000040000507010300060200000000000000000000000000000
068500000000260170717070000FG: CYP2C9 *1/*3                                                                00000040000508010300060200000000000000000000000000000
068500000000261170717070000FG: CYP2C9 *2/*2                                                                00000040000509010300060200000000000000000000000000000
068500000000262170717070000FG: CYP2C9 *2/*3                                                                00000040000510010300060200000000000000000000000000000
068500000000263170717070000FG: CYP2C9 *3/*3                                                                00000040000511010300060200000000000000000000000000000
068500000000264170717070000FG: CYP2C9 genotype anderszins - fenotype interm.metab                          00000040000512010300060200000000000000000000000000000
068500000000265170717070000FG: CYP2C9 genotype anderszins - fenotype poor metab                            00000040000513010300060200000000000000000000000000000
068500000000266170717070000FG: UGT1A1 *1/*28 (TA6/TA7)                                                     00000040000523010300060200000000000000000000000000000
068500000000267170717070000FG: UGT1A1 *28/*28 (TA7/TA7)                                                    00000040000524010300060200000000000000000000000000000
068500000000268170717070000FG: UGT1A1 genotype anderszins - fenotype interm.metab                          00000040000525010300060200000000000000000000000000000
068500000000269170717070000FG: UGT1A1 genotype anderszins - fenotype poor metab                            00000040000526010300060200000000000000000000000000000
068500000000270170719010000FG: VKORC1 -1639GA (1173CT)                                                     00000040000529010300060200000000000000000000000000000
068500000000271170719010000FG: VKORC1 -1639AA (1173TT)                                                     00000040000530010300060200000000000000000000000000000
068500000000272170717070000FG: HLA-B44-negatief                                                            00000040000531010300060200000000000000000000000000000
068500000000273170720030000FG: CYP3A5 heterozygote expresser                                               00000040000539010300060200000000000000000000000000000
068500000000274170720030000FG: CYP3A5 homozygote expresser                                                 00000040000540010300060200000000000000000000000000000
068500000000275170717070000FG: SLCO1B1 521TC                                                               00000040000546010300060200000000000000000000000000000
068500000000276170717070000FG: SLCO1B1 521CC                                                               00000040000547010300060200000000000000000000000000000
068500000000277211121110000FG: CYP3A4 intermediate metaboliser                                             00000040000549010300060200000000000000000000000000000
068500000000278211121110000FG: CYP3A4 poor metaboliser                                                     00000040000550010300060200000000000000000000000000000
068500000000279170717070000FG: CYP1A2*1A/*1F                                                               00000040001336010300060200000000000000000000000000000
068500000000280211121110000FG: CYP1A2 normal metaboliser                                                   00000040001337010300060200000000000000000000000000000
068500000000281170717070000FG: CYP1A2*1C-heterozygoot                                                      00000040001338010300060200000000000000000000000000000
068500000000282170717070000FG: CYP1A2*1C/*1C                                                               00000040001339010300060200000000000000000000000000000
068500000000283211121110000FG: CYP1A2 intermediate metaboliser                                             00000040001340010300060200000000000000000000000000000
068500000000284211121110000FG: CYP1A2 poor metaboliser                                                     00000040001341010300060200000000000000000000000000000
068500000000285170723050000FG: CYP2B6 intermediate metaboliser                                             00000040001343010300060200000000000000000000000000000
068500000000286170723050000FG: CYP2B6 poor metaboliser                                                     00000040001344010300060200000000000000000000000000000
068500000000287170717070000FG: MTHFR 677CT                                                                 00000040001358010300060200000000000000000000000000000
068500000000288170717070000FG: MTHFR 677TT                                                                 00000040001359010300060200000000000000000000000000000
068500000000289170717070000FG: HLA-B*1502-positief                                                         00000040001360010300060200000000000000000000000000000
068500000000290170717070000FG: HLA-A*3101-positief                                                         00000040001361010300060200000000000000000000000000000
068500000000291170717070000FG: HLA-B*1511-positief                                                         00000040001362010300060200000000000000000000000000000
068500000000292170717070000FG: HLA-B*5801-positief                                                         00000040001366010300060200000000000000000000000000000
068500000000293170717070000FG: COMT VAL/MET                                                                00000040001368010300060200000000000000000000000000000
068500000000294170717070000FG: COMT MET/MET                                                                00000040001369010300060200000000000000000000000000000
068500000000295190119010000PK: niertransplantatie                                                          00000040001375010300060200000000000000000000000000000
068500000000296190119010000PK: levertransplantatie                                                         00000040001376010300060200000000000000000000000000000
068500000000297190119010000PK: harttransplantatie                                                          00000040001377010300060200000000000000000000000000000
068500000000298190119010000PK: longtransplantatie                                                          00000040001378010300060200000000000000000000000000000
068500000000299190119010000CIA: mitochondriele ziekten                                                     00000040001379010300060200000000000000000000000000000
068500000000300190119010000CIA: mastocytose/mestcelactivatiesyndroom                                       00000040001380010300060200000000000000000000000000000
068500000000301190523120000FG: NUDT15 poor metaboliser                                                     00000040001381010300060200000000000000000000000000000
068500000000302190523120000FG: NUDT15 intermediate metaboliser                                             00000040001382010300060200000000000000000000000000000
068500000000303190523120000FG: NUDT15 normal metaboliser                                                   00000040001383010300060200000000000000000000000000000
068500000000304200420040000IAF: RAAS-remmer en een plastablet                                              00000128000006010300060200000000000000000000000000000
068500000000305200420040000Eenmalig gebruik                                                                00000000000000010300060200000000000000000000000000000
068500000000306200420040000IAF: bloedverdunnend middel en een ander geneesmiddel                           00000128000001010300060200000000000000000000000000000
068500000000307200420040000IAF: galzuurbindend hars en een ander geneesmiddel                              00000128000002010300060200000000000000000000000000000
068500000000308200420040000IAF: harttablet en een calciumantagonist                                        00000128000003010300060200000000000000000000000000000
068500000000309200420040000IAF: insuline en een betablokker                                                00000128000007010300060200000000000000000000000000000
068500000000310200420040000IAF: chinolonen en een ijzerhoudend middel                                      00000128000011010300060200000000000000000000000000000
068500000000311200420040000IAF: middel tegen epilepsie en de anticonceptiepil                              00000128000013010300060200000000000000000000000000000
068500000000312200420040000IAF: carbamazepine en de anticonceptiepil                                       00000128000014010300060200000000000000000000000000000
068500000000313200420040000IAF: bloedverdunnend middel en een pijnstiller                                  00000128000016010300060200000000000000000000000000000
068500000000314200420040000IAF: bloedverdunnend middel en een antibioticum                                 00000128000017010300060200000000000000000000000000000
068500000000315200420040000IAF: bloedverdunnend middel en een galzuurbindende hars                         00000128000018010300060200000000000000000000000000000
068500000000316200420040000IAF: cholesterolverlagend middel en ander geneesmiddel                          00000128000019010300060200000000000000000000000000000
068500000000317200420040000IAF: tetracycline en een ander middel                                           00000128000020010300060200000000000000000000000000000
068500000000318200420040000IAF: calciumantagonist en een ander geneesmiddel                                00000128000021010300060200000000000000000000000000000
068500000000319200420040000IAF: natriumverlagende middelen                                                 00000128000022010300060200000000000000000000000000000
068500000000320200420040000IAF: lithium en een ander geneesmiddel                                          00000128000023010300060200000000000000000000000000000
068500000000321200420040000IAF: serotonineverhogende middelen                                              00000128000024010300060200000000000000000000000000000
068500000000322200420040000IAF: hartmiddel en een pijnstiller                                              00000128000025010300060200000000000000000000000000000
068500000000323200420040000IAF: grapefruitsap en medicijnen                                                00000128000026010300060200000000000000000000000000000
068500000000324200420040000IAF: citrusvruchten en medicijnen                                               00000128000027010300060200000000000000000000000000000
068500000000325200420040000IAF: rifampicine of rifabutine en de anticonceptiepil                           00000128000030010300060200000000000000000000000000000
068500000000326200820080000Sirolimus Cmin (ug/l)                                                           00002000000012010300060200000000000000000000000000000
068500000000327201220120000FG: ABCG2 141QQ                                                                 00000040001385010300060200000000000000000000000000000
068500000000328201220120000FG: ABCG2 141QK                                                                 00000040001386010300060200000000000000000000000000000
068500000000329201220120000FG: ABCG2 141KK                                                                 00000040001387010300060200000000000000000000000000000
068500000000330210421040000CIA: maligne hyperthermie                                                       00000040001388010300060200000000000000000000000000000
068500000000331210421040000CIA: pulmonale hypertensie                                                      00000040001389010300060200000000000000000000000000000
068500000000332211021100000Start gebruik middel (niveau SNK)                                               00000000000000010300060200000000000000000000000000000
068500000000333220224040000BMI (kg/m2)                                                                     00002000000013010300060200000000000000000000000000000
068500000000334220622060000CIA: bradycardie                                                                00000040001390010300060200000000000000000000000000000
068500000000335240424040000Polyfarmacie v2                                                                 00000000000000010300060200000000000000000000000000000
068500000000336241024100000Lengte (m)                                                                      00002000000014010300060200000000000000000000000000000
068500000000337241024100000HPK bekend                                                                      00000000000000010300060200000000000000000000000000000
