07500000019COMBINATIE PREPARAAT                              000019000019SW000000000000000                                   000000000000 0000000000000000000XX   000000000000000000000000000000
07500000027CYCLOPROPAAN                                      000027000027SW000000000075194C3H6                               000000420800 0000004208000000000XX   000007519400000000000000000000
07500000035DISTIKSTOFOXIDE                                   000035000035SW000010010024972N2O                                000000440100 0000004401000000000ML   001002497200000000000000000000
07500000043CHLOROFORM                                        000043000043SB000000000067663CHCl3                              000001194000 0000011940000147600ML   000006766300000000000000000000
07500000051ENFLURAAN                                         000051000051SW000000013838169C3H2ClF5O                          000001845000 0000018450000000000XX   001383816900000000000000000000
07500000078ETHER                                             000078000078SB000000000060297(C2H5)2O                           000000741200 0000007412000071500MG   000006029700000000000000000000
07500000086HALOTHAAN                                         000086000086SW000000000151677CHBrCl.CF3                         000001974000 0000019740000000000XX   000015167700000000000000000000
07500000094METHOXYFLURAAN                                    000094000094SW000014000076380C3H4Cl2F2O                         000001649700 0000016497000000000ML   000007638000000000000000000000
07500000108TRICHLOORETHYLEEN                                 000108000108SW000000000079016C2HCl3                             000001314000 0000013140000146700ML   000007901600000000000000000000
07500000132METHOHEXITAL NATRIUM                              044229000132 W001368000309364C14H18N2NaO3                       000002843000 0000028430000000000MG   000030936400000000000000000000
07500000175THIOPENTAL NATRIUM                                048879000175 W000021000071738C11H17N2NaO2S                      000002643000 0000026430000000000MG   000007173800000000000000000000
07500000183ALFADOLON ACETAAT                                 036358000183 W000000023930372C23H34O5                           000003905200 0000039052000000000MG   002393037200000000000000000000
07500000191ALFAXALON                                         000191000191SW000000023930190C21H32O3                           000003325000 0000033250000000000MG   002393019000000000000000000000
07500000205HYDROXYBUTYRAAT NATRIUM                           041831000205 W000022000502852C4H7NaO3                           000001260900 0000012609000000000MG   000050285200000000000000000000
07500000221KETAMINE HYDROCHLORIDE                            042617000221 W000000001867669C13H16ClNO.HCl                     000002742000 0000027420000000000MG1  000186766900000000000000000000
07500000248PROPANIDIDE                                       000248000248SW000000001421143C18H27NO5                          000003374000 0000033740000000000MG   000142114300000000000000000000
07500000264BENZOCAINE                                        000264000264SW000027000094097C9H11NO2                           000001652000 0000016520000000000MG   000009409700000000000000000000
07500000272BENZYLALCOHOL                                     000272000272SB000028000100516C6H5.CH2OH                         000001081000 0000010810000104400MG   000010051600000000000000000000
07500000302COCAINE HYDROCHLORIDE                             024740000302 W000033000053214C17H21NO4.HCl                      000003398000 0000033980000000000MG   000005321400000000000000000000
07500000310CRYOFLUORAAN                                      000310000310SB000034000076142C2Cl2F4                            000001709200 0000017092000000000ML   000007614200000000000000000000
07500000329ETHYLCHLORIDE                                     000329000329SW000036000075003C2H5Cl                             000000645100 0000006451000000000ML   000007500300000000000000000000
07500000337FENOL                                             000337000337SB000037000108952C6H5.OH                            000000941100 0000009411000000000MG   000010895200000000000000000000
07500000353FERRIAMMONIUMSULFAAT                              000353000353SW000000000000000FeNH4(SO4).12H2O                   000004820000 0000048200000000000MG   000000000000000000000000000000
07500000361MEPIVACAINE HYDROCHLORIDE                         044091000361 W000042001722629C15H22N2O.HCl                      000002828000 0000028280000000000MG   000172262900000000000000000000
07500000388OXYBUPROCAINE HYDROCHLORIDE                       045608000388 W001370005987826C17H28N2O3.HCl                     000003449000 0000034490000000000MG   000598782600000000000000000000
07500000396CYSTEINE                                          000396000396SB002593000052904C3H7NO2S                           000001211600 0000012116000000000MG   000005290400000000000000000000
07500000418PRILOCAINE HYDROCHLORIDE                          047112000418 W000046001786818C13H20N2O.HCl                      000002568000 0000025680000000000MG   000178681800000000000000000000
07500000426PROCAINE                                          000426000426SW000047000059461C13H20N2O2                         000002363000 0000023630000000000MG   000005946100000000000000000000
07500000434PROCAINE HYDROCHLORIDE                            000426000434 W000047000051058C13H20N2O2.HCl                     000002728000 0000027280000000000MG   000005105800000000000000000000
07500000450TETRACAINE HYDROCHLORIDE                          048593000450 W000051000136470C15H24N2O2.HCl                     000003008000 0000030080000000000MG   000013647000000000000000000000
07500000477NAPROXEN                                          000477000477SW001630022204531C14H14O3                           000002303000 0000023030000000000MG   002220453100000000000000000000
07500000531FENYLSALICYLAAT                                   000531000531SW000000000118558C13H10O3                           000002142000 0000021420000000000MG   000011855800000000000000000000
07500000558NICETHAMIDE                                       000558000558SW000000000059267C10H14N2O                          000001782000 0000017820000000000MG   000005926700000000000000000000
07500000566PENTETRAZOL                                       000566000566SW000000000054955C6H10N4                            000001382000 0000013820000000000MG   000005495500000000000000000000
07500000582PRETHCAMIDE                                       000582000582SW000000008015518                                   000000000000 0000000000000000000MG   000801551800000000000000000000
07500000590STRYCHNINE NITRAAT                                048631000590 W000000000066320C21H22N2O2.HNO3                    000003974000 0000039740000000000MG   000006632000000000000000000000
07500000604ETHYLMORFINE HYDROCHLORIDE-2-WATER                040584000604 W000000000125304C19H23NO3.HCl.2H2O                 000003859000 0000038590000000000MG   000012530400000000000000000000
07500000612HYDROMORFON HYDROCHLORIDE                         041793000612 W000066000071681C17H19NO3.HCl                      000003218000 0000032180000000000MG1  000007168100000000000000000000
07500000620MORFINE HYDROCHLORIDE-3-WATER                     044598000620 W000068006055067C17H19NO3.HCl.3H2O                 000003758000 0000037580000000000MG1  000605506700000000000000000000
07500000639NICOMORFINE (ALS HYDROCHLORIDE)                   045047045055 W001895000000000                                   000004955100 0000049551000000000MG1  000000000000000000000000000000
07500000655OPIUM                                             000655000655SW000745000000000                                   000000000000 0000000000000000000XX1  000000000000000000000000000000
07500000663OXYCODON HYDROCHLORIDE-3-WATER                    045624000663 W000071000000000C18H21NO4.HCl.3H2O                 000004059000 0000040590000000000MG1  000000000000000000000000000000
07500000698PENTAZOCINE                                       000698000698SW000074000359831C19H27NO                           000002854000 0000028540000000000MG1  000035983100000000000000000000
07500000701PENTAZOCINE HYDROCHLORIDE                         000698000701 W000074064024153C19H27NO.HCl                       000003219000 0000032190000000000MG1  006402415300000000000000000000
07500000728PENTAZOCINE LACTAAT                               000698000728 W000074017146951C19H27NO.C3H6O3                    000003755000 0000037550000000000MG1  001714695100000000000000000000
07500000736DEXTROMORAMIDE WATERSTOFTARTRAAT                  039470000736 W001373002922443C25H32N2O2.C4H6O6                  000005426000 0000054260000000000MG1  000292244300000000000000000000
07500000744METHADON HYDROCHLORIDE                            044180000744 W000075001095905C21H27NO.HCl                       000003459000 0000034590000000000MG1  000109590500000000000000000000
07500000752PETHIDINE HYDROCHLORIDE                           046582000752 W000079000050135C15H21NO2.HCl                      000002838000 0000028380000000000MG1  000005013500000000000000000000
07500000760BEZITRAMIDE                                       000760000760SW000000015301481C31H32N4O2                         000004926000 0000049260000000000MG1  001530148100000000000000000000
07500000779FENTANYL DIWATERSTOFCITRAAT                       040827000779 W001374000990738C22H28N2O.C6H8O7                   000005286000 0000052860000000000MG1  000099073800000000000000000000
07500000787PIRITRAMIDE                                       000787000787SW001503000302410C27H34N4O                          000004306000 0000043060000000000MG1  000030241000000000000000000000
07500000795ACETYLSALICYLZUUR                                 000795000795SW001375000050782C9H8O4                             000001801500 0000018015000000000MG   000005078200000000000000000000
07500000817ACETYLSALICYLAAT NATRIUM                          000795000817 W001375000493538                                   00000202150010000020215000000000MG   000049353800000000000000000000
07500000825ACETYLSALICYLAAT LYSINE                           000795000825 W001375062952061C9H8O4.C6H14N2O2                   000003263400 0000032634000000000MG   006295206100000000000000000000
07500000833BENORILAAT                                        000833000833SW000000005003485C17H15NO5                          000003133000 0000031330000000000MG   000500348500000000000000000000
07500000841SALICYLAAT DIETHYLAMINE                           005983000841 W000354004419925C11H17NO3                          000002113000 0000021130000000000MG   000441992500000000000000000000
07500000868METHYLSALICYLAAT                                  000868000868SB000086000119368C8H8O3                             000001521400 0000015214000000000MG   000011936800000000000000000000
07500000876SALICYLZUUR (ALS NA-ZOUT)                         005983044989 W000354000000000                                   000001381000 0000013810000000000MG   000000000000000000000000000000
07500000884SALICYLAMIDE                                      000884000884SW000000000065452C7H7NO2                            000001371000 0000013710000000000MG   000006545200000000000000000000
07500000892FENACETINE                                        000892000892SB000089000062442C10H13NO2                          000001792000 0000017920000000000MG   000006244200000000000000000000
07500000906PARACETAMOL                                       000906000906SW000090000103902C8H9NO2                            000001512000 0000015120000000000MG   000010390200000000000000000000
07500000914AMINOFENAZON                                      000914000914SW000000000058151C13H17N3O                          000002312900 0000023129000000000MG   000005815100000000000000000000
07500000922FENAZON SALICYLAAT                                020079000922 W000092000520070C11H12N2O.C7H6O3                   000003264000 0000032640000000000MG   000052007000000000000000000000
07500000930PENICILLAMINE                                     000930000930SW000142000052675C5H11NO2S                          000001492000 0000014920000000000MG   000005267500000000000000000000
07500000949FENAZON COFFEINECITROENZUUR                       020079000949 W000092000000000                                   00000209100010000020910000000000MG   000000000000000000000000000000
07500000957METAMIZOL NATRIUM-1-WATER                         045284000957 W000095005907380C13H16N3NaO4S.H2O                  000003514000 0000035140000000000MG   000590738000000000000000000000
07500000965ACONITUM PREPARAAT                                000965000965SW000000000000000                                   000000000000 0000000000000000000XX   000000000000000000000000000000
07500000973KININE SULFAAT-2-WATER                            024716000973 W000100006119706(C20H24N2O2)2.H2SO4.2H2O           000007829000 0000039150000000000MG   000611970600000000000000000000
07500000981KININE HYDROCHLORIDE-2-WATER                      024716000981 W000100006119477C20H24N2O2.HCl.2H2O                000003969000 0000039690000000000MG   000611947700000000000000000000
07500001007CODEINE DIWATERSTOFFOSFAAT-0-WATER                038938001007 W000743000052288C18H21NO3.H3PO4                    000003973700 0000039737000000000MG1  000005228800000000000000000000
07500001015CODEINE 1-WATER                                   038938001015 W000743006059478C18H21NO3.H2O                      000003174000 0000031740000000000MG1  000605947800000000000000000000
07500001023CODEINE HYDROCHLORIDE-2-WATER                     038938001023 W000743070420712C18H21NO3.HCl.2H2O                 000003719000 0000037190000000000MG1  007042071200000000000000000000
07500001058DEXTROPROPOXYFEEN HYDROCHLORIDE                   039489001058 W000081001639607C22H29NO2.HCl                      000003759000 0000037590000000000MG1  000163960700000000000000000000
07500001066GLAFENINE                                         001066001066SW000000003820675C19H17ClN2O4                       000003728000 0000037280000000000MG1  000382067500000000000000000000
07500001074FENYLBUTAZON                                      001074001074SW000093000050339C19H20N2O2                         000003084000 0000030840000000000MG   000005033900000000000000000000
07500001082FENYLBUTAZON NATRIUM                              001074001082 W000093000129180C19H19N2NaO2                       000003304000 0000033040000000000MG   000012918000000000000000000000
07500001090MOFEBUTAZON                                       001090001090SW000000002210631C13H16N2O2                         000002323000 0000023230000000000MG   000221063100000000000000000000
07500001104OXYFENBUTAZON 1-WATER                             045659001104 W000000007081381C19H20N2O3.H2O                     000003424000 0000034240000000000MG   000708138100000000000000000000
07500001112NIFLUMINEZUUR                                     001112001112SW000000004394007C13H9F3N2O2                        000002822000 0000028220000000000MG   000439400700000000000000000000
07500001120ALCLOFENAC                                        001120001120SW000000022131799C11H11ClO3                         000002266600 0000022666000000000MG   002213179900000000000000000000
07500001139DIAZOXIDE                                         001139001139SW001568000364987C8H7ClN2O2S                        000002307000 0000023070000000000MG   000036498700000000000000000000
07500001147DICLOFENAC NATRIUM                                039640001147 W001701015307796C14H10Cl2NNaO2                     000003181000 0000031810000000000MG   001530779600000000000000000000
07500001155IBUPROFEN                                         001155001155SW001281015687271C13H18O2                           000002063000 0000020630000000000MG   001568727100000000000000000000
07500001163CHLOROQUINE DIFOSFAAT                             038539001163 W001277000050635C18H26ClN3.2H3PO4                  000005159000 0000051590000000000MG   000005063500000000000000000000
07500001171CHLOROQUINE SULFAAT-1-WATER                       038539001171 W001277006823832C18H26ClN3.H2SO4.H2O               000004360000 0000043600000000000MG   000682383200000000000000000000
07500001198HYDROXYCHLOROQUINE SULFAAT                        041858001198 W001278000747364C18H26ClN3O.H2SO4                  000004339000 0000043390000000000MG   000074736400000000000000000000
07500001201AUROTHIOGLUCOSE                                   001201001201SW000000012192573C6H11AuO5S                         000003922000 0000039220000000000MG   001219257300000000000000000000
07500001228AUROTHIOMALAAT DINATRIUM                          056863001228 W001280012244574C4H3AuNa2O4S                       000003901200 0000039012000000000MG   001224457400000000000000000000
07500001236AZAPROPAZON 2-WATER                               050652001236 W000000022304309C16H20N4O2.2H2O                    000003364000 0000033640000000000MG   002230430900000000000000000000
07500001244DIMETHYLSULFOXIDE                                 001244001244SB000110000067685C2H6OS                             000000781300 0000007813000110000MG   000006768500000000000000000000
07500001252INDOMETACINE                                      001252001252SW001282000053861C19H16ClNO4                        000003578000 0000035780000000000MG1  000005386100000000000000000000
07500001279SULINDAC                                          001279001279SW001672038194502C20H17FO3S                         000003564200 0000035642000000000MG   003819450200000000000000000000
07500001287COLCHICINE                                        001287001287SW000101000064868C22H25NO6                          000003994000 0000039940000000000MG   000006486800000000000000000000
07500001295ALLOPURINOL                                       001295001295SW000102000315300C5H4N4O                            000001361100 0000013611000000000MG   000031530000000000000000000000
07500001309BENZBROMARON                                      001309001309SW001521003562843C17H12Br2O3                        000004241000 0000042410000000000MG   000356284300000000000000000000
07500001317BENZIODARON                                       001317001317SW000000000068906C17H12I2O3                         000005181000 0000051810000000000MG   000006890600000000000000000000
07500001325CINCHOFEEN                                        001325001325SW000000000132605C16H11NO2                          000002492600 0000024926000000000MG   000013260500000000000000000000
07500001341PROBENECIDE                                       001341001341SW000106000057669C13H19NO4S                         000002854000 0000028540000000000MG   000005766900000000000000000000
07500001368SULFINPYRAZON                                     001368001368SW000000000057965C23H20N2O3S                        000004045000 0000040450000000000MG   000005796500000000000000000000
07500001376ETHANOL                                           001376001376SB000111000064175C2H6O                              000000460700 0000004607000079050ML1  000006417500000000000000000000
07500001384BENZYDAMINE HYDROCHLORIDE                         037265001384 W000108000132694C19H23N3O.HCL                      000003459000 0000034590000000000MG   000013269400000000000000000000
07500001392HEPARINE NATRIUM                                  018295001392 B000112009041081                                   000000000000 0000000100000000000IE   000904108100000000000000000000
07500001406HEPARINE CALCIUM                                  018295001406 W000112037270896                                   000000000000 0000000100000000000IE   003727089600000000000000000000
07500001414HEPARINOIDEN "BAYER"                              058068001414 W000113000000000                                   000000000000 0000000000000000000E    000000000000000000000000000000
07500001422ACENOCOUMAROL                                     001422001422SW000115000152727C19H15NO6                          000003533000 0000035330000000000MG   000015272700000000000000000000
07500001449DICOUMAROL                                        001449001449SW000000000066762C19H12O6                           000003363000 0000033630000000000MG   000006676200000000000000000000
07500001457ETHYLBISCOUMACETAAT                               001457001457SW000000000548005C22H16O8                           000004084000 0000040840000000000MG   000054800500000000000000000000
07500001465FENPROCOUMON                                      001465001465SW000119000435972C18H16O3                           000002803000 0000028030000000000MG   000043597200000000000000000000
07500001473WARFARINE NATRIUM                                 049727001473 W000120000129066C19H15NaO4                         000003303000 0000033030000000000MG   000012906600000000000000000000
07500001481PROTAMINE SULFAAT                                 047376001481 B000125009009658                                   000000000000 0000000000000000000IE   000900965800000000000000000000
07500001503PROTAMINE HYDROCHLORIDE                           047376001503 B000125000000000                                   000000000000 0000000000000000000IE   000000000000000000000000000000
07500001511FYTOMENADION                                      001511001511SW000126000084800C31H46O2                           000004507000 0000045070000000000MG   000008480000000000000000000000
07500001538ATROPINE SULFAAT-1-WATER                          036935001538 W000127005908996(C17H23NO3)2.H2SO4.H2O             000006948000 0000034740000000000MG1  000590899600000000000000000000
07500001546OBIDOXIM DICHLORIDE                               045292001546 W000128000114909C14H16Cl2N4O3                      000003592000 0000035920000000000MG   000011490900000000000000000000
07500001554NEOSTIGMINE BROMIDE                               045020001554 W000130000114807C12H19BrN2O2                       000003032000 0000030320000000000MG   000011480700000000000000000000
07500001562NEOSTIGMINE METILSULFAAT                          045020001562 W000130000051605C13H22N2O6S                        000003344000 0000033440000000000MG   000005160500000000000000000000
07500001570AMYLNITRIET                                       001570001570SW000000000110463C5H11NO2                           000001170000 0000011700000000000ML   000011046300000000000000000000
07500001589NATRIUMNITRIET                                    001589001589SB001378007632000NaNO2                              000000690000 0000006900000000000MG   000763200000000000000000000000
07500001597NATRIUMTHIOSULFAAT 5-WATER                        044962001597 B001379010102177Na2S2O3.5H2O                       000002482000 0000024820000000000MG   001010217700000000000000000000
07500001600MAGNESIUMOXIDE                                    001600001600SW000132001309484MgO                                000000403000 0000004030000000000MG   000130948400000000000000000000
07500001619KOPER(II)SULFAAT 5-WATER                          018619001619 B000133007758998CuSO4.5H2O                         000002497000 0000024970000000000MG   000775899800000000000000000000
07500001627GLUCAGON                                          001627001627SW000134016941325C153H225N43O49S                    000034828000 0000000100000000000IE   001694132500000000000000000000
07500001635DEFEROXAMINE MESILAAT                             039292001635 W000136000138147C25H48N6O8.CH3SO3H                 000006568000 0000065680000000000MG   000013814700000000000000000000
07500001643DIMERCAPROL                                       001643001643SW000000000059529C3H8OS2                            000001242000 0000012420000000000MG   000005952900000000000000000000
07500001678MAGNESIUMSULFAAT 7-WATER                          018759001678 B000139010034998MgSO4.7H2O                         000002465000 0000024650000000000MG   001003499800000000000000000000
07500001686NATRIUMCALCIUMEDETAAT X-WATER                     044741001686 B000140000000000C10H12CaN2Na2O8.2H2O               000004103000 0000041030000000000MG   000000000000000000000000000000
07500001694EDETAAT DINATRIUM-2-WATER                         059706001694 B000224006381926C10H14N2Na2O8.2H2O                 000003722000 0000037220000000000MG   000638192600000000000000000000
07500001716NATRIUMSULFAAT 10-WATER                           019127001716 B000141007727733Na2SO4.10H2O                       000003222000 0000032220000000000MG   000772773300000000000000000000
07500001724ASCORBINEZUUR                                     001724001724SB000651000050817C6H8O6                             000001761000 0000017610000000000MG   000005081700000000000000000000
07500001732ASCORBAAT NATRIUM                                 001724001732 B000651000134032C6H7NaO6                           000001981000 0000019810000000000MG   000013403200000000000000000000
07500001759NALORFINE                                         001759001759SW000000000062679C19H21NO3                          000003113700 0000031137000000000MG   000006267900000000000000000000
07500001775DIETHYLAMINE                                      001775001775SH000000000109897C4H11N                             000000731400 0000007314000000000MG   000010989700000000000000000000
07500001783FENTOLAMINE MESILAAT                              040835001783 W000148000065281C17H19N3O.CH3SO3H                  000003778000 0000037780000000000MG   000006528100000000000000000000
07500001791KOOL, GEACTIVEERD                                 001791001791SB000149000000000                                   000000000000 0000000100000000000MG   000000000000000000000000000000
07500001805FENOBARBITAL                                      001805001805SW000150000050066C12H12N2O3                         000002322000 0000023220000000000MG1  000005006600000000000000000000
07500001813FENOBARBITAL NATRIUM                              001805001813 W000150000057307C12H11N2NaO3                       000002542000 0000025420000000000MG1  000005730700000000000000000000
07500001848PRIMIDON                                          001848001848SW000153000125337C12H14N2O2                         000002183000 0000021830000000000MG1  000012533700000000000000000000
07500001856FENYTOINE                                         001856001856SW001381000057410C15H12N2O2                         000002523000 0000025230000000000MG1  000005741000000000000000000000
07500001864FENYTOINE NATRIUM                                 001856001864 W001381000630933C15H11N2NaO2                       000002743000 0000027430000000000MG1  000063093300000000000000000000
07500001872FENYTOINE VALERAAT                                001856001872 W001381000000000C20H21N3O4                         000003674100 0000036741000000000MG1  000000000000000000000000000000
07500001880FENYTOINE CALCIUM                                 001856001880 W001381000000000*C30H22N2O2Ca*                     00000542700010000027140000000000MG1  000000000000000000000000000000
07500001899MEFENYTOINE                                       001899001899SW000000000050124C12H14N2O2                         000002183000 0000021830000000000MG   000005012400000000000000000000
07500001910ETHOSUXIMIDE                                      001910001910SW000156000077678C7H11NO2                           000001412000 0000014120000000000MG1  000007767800000000000000000000
07500001929FENSUXIMIDE                                       001929001929SW000000000086340C11H11NO2                          000001892000 0000018920000000000MG   000008634000000000000000000000
07500001937MESUXIMIDE                                        001937001937SW000158000077418C12H13NO2                          000002032000 0000020320000000000MG   000007741800000000000000000000
07500001953TRIMETHADION                                      001953001953SW000161000127480C6H9NO3                            000001431000 0000014310000000000MG   000012748000000000000000000000
07500001961FENACEMIDE                                        001961001961SW000000000063989C9H10N2O2                          000001782000 0000017820000000000MG   000006398900000000000000000000
07500001988CLONAZEPAM                                        001988001988SW001610001622613C15H10ClN3O3                       000003157000 0000031570000000000MG1  000162261300000000000000000000
07500001996DIAZEPAM                                          001996001996SW000167000439145C16H13ClN2O                        000002847000 0000028470000000000MG1  000043914500000000000000000000
07500002003DIETHYLEENGLYCOLMONOSTEARAAT                      002003002003SH000000000106116                                   000000000000 0000000000000000000MG   000010611600000000000000000000
07500002011CARBAMAZEPINE                                     002011002011SW000166000298464C15H12N2O                          000002363000 0000023630000000000MG1  000029846400000000000000000000
07500002038SULTIAM                                           002038002038SW000168000061563C10H14N2O4S2                       000002904000 0000029040000000000MG1  000006156300000000000000000000
07500002046VALPROINEZUUR                                     002046002046SW001470000099661C8H16O2                            000001442000 0000014420000000000MG1  000009966100000000000000000000
07500002054VALPROAAT NATRIUM                                 002046002054 W001470001069665C8H15NaO2                          000001662000 0000016620000000000MG1  000106966500000000000000000000
07500002070CARBINOXAMINE WATERSTOFMALEAAT                    037923002070 W000000003505382C16H19ClN2O.C4H4O4                 000004069000 0000040690000000000MG1  000350538200000000000000000000
07500002089CHLOORFENOXAMINE HYDROCHLORIDE                    038466002089 W000000000562094C18H22ClNO,HCl                     000003403000 0000034030000000000MG1  000056209400000000000000000000
07500002097DIFENHYDRAMINE TEOCLAAT                           039691002097 W000000000523875C17H21NO.C7H7ClN4O2                000004700000 0000047000000000000MG1  000052387500000000000000000000
07500002100DIFENHYDRAMINE HYDROCHLORIDE                      039691002100 W000000000147240C17H21NO.HCl                       000002918000 0000029180000000000MG1  000014724000000000000000000000
07500002127HISTAPYRRODINE HYDROCHLORIDE                      041696002127 W000000006113173C19H24N2.HCl                       000003169000 0000031690000000000MG1  000611317300000000000000000000
07500002135MEPYRAMINE HYDROCHLORIDE                          044105002135 W000000006036959C17H23N3O.HCl                      000002948400 0000029484000000000MG1  000603695900000000000000000000
07500002143TRIPELENNAMINE HYDROCHLORIDE                      049409002143 W001386000154698C16H21N3.HCl                       000002918000 0000029180000000000MG1  000015469800000000000000000000
07500002151BUCLIZINE DIHYDROCHLORIDE                         022306002151 W000000000129748C28H33ClN2.2HCl                    000005060000 0000050600000000000MG1  000012974800000000000000000000
07500002178CINNARIZINE                                       002178002178SW000180000298577C26H28N2                           000003685000 0000036850000000000MG1  000029857700000000000000000000
07500002186CYCLIZINE HYDROCHLORIDE                           039136002186 W000181000303253C18H22N2.HCl                       000003028000 0000030280000000000MG1  000030325300000000000000000000
07500002208BROOMFENIRAMINE WATERSTOFMALEAAT                  037559002208 W000000000980712C16H19BrN2.C4H4O4                  000004353000 0000043530000000000MG1  000098071200000000000000000000
07500002216CHLOORFENAMINE WATERSTOFMALEAAT                   038458002216 W000000000113928C16H19ClN2.C4H4O4                  000003909000 0000039090000000000MG1  000011392800000000000000000000
07500002224DEXCHLOORFENIRAMINE WATERSTOFMALEAAT              039446002224 W002063002438326C16H19ClN2.C4H4O4                  000003909000 0000039090000000000MG1  000243832600000000000000000000
07500002232FENIRAMINE WATERSTOFMALEAAT                       040738002232 W000000000132207C16H20N2.C4H4O4                    000003564000 0000035640000000000MG1  000013220700000000000000000000
07500002267COCARBOXYLASE                                     002267002267SW002178000154870C12ClH19N4O7P2S                    000004607600 0000046076000000000MG   000015487000000000000000000000
07500002283OXOMEMAZINE HYDROCHLORIDE                         045586002283 W000191004784401C18H22N2O2S.HCl                    000003669000 0000036690000000000MG1  000478440100000000000000000000
07500002291PROMETHAZINE                                      002291002291SW000192000060877C17H20N2S                          000002844000 0000028440000000000MG1  000006087700000000000000000000
07500002305PROMETHAZINE HYDROCHLORIDE                        002291002305 W000192000058333C17H20N2S.HCl                      000003209000 0000032090000000000MG1  000005833300000000000000000000
07500002313THIAZINAMIUM METILSULFAAT                         048844002313 W000193000058344C19H26N2O4S2                       000004105000 0000041050000000000MG   000005834400000000000000000000
07500002321ANTAZOLINE HYDROCHLORIDE                          036773002321 W000000002508727C17H19N3.HCl                       000003018000 0000030180000000000MG1  000250872700000000000000000000
07500002348ANTAZOLINE SULFAAT                                036773002348 W000000024359817C17H19N3.H2SO4                     000003154400 0000031544000000000MG1  002435981700000000000000000000
07500002356BAMIPINE DIHYDROCHLORIDE                          037079002356 W000000001229692C19H24N2.2HCl                      000003533000 0000035330000000000MG   000122969200000000000000000000
07500002364BAMIPINE DILACTAAT                                037079002364 W000000061670095C19H24N2.2(C3H6O3)                 000004606000 0000046060000000000MG   006167009500000000000000000000
07500002372CLEMASTINE WATERSTOFFUMARAAT                      038717002372 W000195014976579C21H26ClNO.C4H4O4                  000004600000 0000046000000000000MG1  001497657900000000000000000000
07500002380CYPROHEPTADINE HYDROCHLORIDE (ALS 1.5-WATER)      039187050938 W000197000000000                                   000003238600 0000032386000000000MG1  000000000000000000000000000000
07500002399DEPTROPINE DIWATERSTOFCITRAAT                     039330002399 W000198002169757C23H27NO.C6H8O7                    000005256000 0000052560000000000MG   000216975700000000000000000000
07500002402DIFENYLPYRALINE HYDROCHLORIDE                     039713002402 W000000000132183C19H23NO.HCl                       000003179000 0000031790000000000MG1  000013218300000000000000000000
07500002410DIMETINDEEN WATERSTOFMALEAAT                      039918002410 W000200003614695C20H24N2.C4H4O4                    000004085000 0000040850000000000MG1  000361469500000000000000000000
07500002429MEBHYDROLINE NAPADISILAAT                         043311002429 W000202006153339(C19H20N2)2.C10H8O6S2              000008411000 0000042060000000000MG1  000615333900000000000000000000
07500002437PIZOTIFEEN WATERSTOFMALAAT                        046809002437 W001507005189117C19H21NS.C4H6O5                    000004295000 0000042950000000000MG1  000518911700000000000000000000
07500002445CIMETIDINE                                        002445002445SW001688051481619C10H16N6S                          000002523000 0000025230000000000MG   005148161900000000000000000000
07500002453CROMOGLICAAT DINATRIUM                            039004002453 B001268015826376C23H14Na2O11                       000005123000 0000051230000000000MG   001582637600000000000000000000
07500002461RESCINNAMINE                                      002461002461SW000000024815245C35H42N2O9                         000006347000 0000063470000000000MG   002481524500000000000000000000
07500002488RAUWOLFIA SERPENTINA PREPARAAT                    002488002488SW000000000000000                                   000000000000 0000000000000000000XX1  000000000000000000000000000000
07500002518RESERPINE                                         002518002518SW000000000050555C33H40N2O9                         000006087000 0000060870000000000MG1  000005055500000000000000000000
07500002526DIHYDRALAZINE MESILAAT                            039756002526 W000214000000000*C8H10N6.CH4SO3*                   000002863000 0000028630000000000MG   000000000000000000000000000000
07500002534DIHYDRALAZINE SULFAAT                             039756002534 W000214007327879C8H10N6.H2SO4                      000002883000 0000028830000000000MG   000732787900000000000000000000
07500002542HYDRALAZINE HYDROCHLORIDE                         041645002542 W000215000304201C8H8N4.HCl                         000001966000 0000019660000000000MG   000030420100000000000000000000
07500002550ALPRENOLOL HYDROCHLORIDE                          036447002550 W000000013707885C15H23NO2.HCl                      000002858100 0000028581000000000MG   001370788500000000000000000000
07500002569ATENOLOL                                          002569002569SW001646029122687C14H22N2O3                         000002663000 0000026630000000000MG   002912268700000000000000000000
07500002577METOPROLOL TARTRAAT                               044458002577 W001663056392177(C15H25NO3)2.C4H6O6                000006848000 0000034240000000000MG   005639217700000000000000000000
07500002585OXPRENOLOL HYDROCHLORIDE                          045594002585 W001209006452739C15H23NO3.HCl                      000003018000 0000030180000000000MG   000645273900000000000000000000
07500002593PINDOLOL                                          002593002593SW001504013523869C14H20N2O2                         000002483000 0000024830000000000MG   001352386900000000000000000000
07500002607PROPRANOLOL HYDROCHLORIDE                         047368002607 W001210000318989C16H21NO2.HCl                      000002958100 0000029581000000000MG   000031898900000000000000000000
07500002615SOTALOL HYDROCHLORIDE                             048208002615 W001601000959240C12H20N2O3S.HCl                    000003088000 0000030880000000000MG   000095924000000000000000000000
07500002623TIMOLOL MALEAAT                                   048941002623 W001642026921175C13H24N4O3S.C4H4O4                 000004325000 0000043250000000000MG   002692117500000000000000000000
07500002631BETANIDINE SULFAAT                                037370002631 W000000000114852(C10H15N3)2.H2SO4                  000004526000 0000022630000000000MG   000011485200000000000000000000
07500002658GUANETHIDINE MONOSULFAAT                          041513002658 W000000000645432C10H22N4.H2SO4                     000002964000 0000029640000000000MG1  000064543200000000000000000000
07500002666GUANOXAN SULFAAT                                  041556002666 W000000005714045(C10H13N3O2)2.H2SO4                000005125000 0000025630000000000MG1  000571404500000000000000000000
07500002674VERAPAMIL HYDROCHLORIDE                           049662002674 W001290000152114C27H38N2O4.HCl                     000004911000 0000049110000000000MG   000015211400000000000000000000
07500002704TRIMETAFAN CAMSILAAT                              049360002704 W000000000068917C22H25N2OS.C10H15O4S               000005968000 0000059680000000000MG   000006891700000000000000000000
07500002712CLONIDINE HYDROCHLORIDE                           038857002712 W000208004205918C9H9Cl2N3.HCl                      000002666000 0000026660000000000MG1  000420591800000000000000000000
07500002720NITROPRUSSIDE DINATRIUM-2-WATER                   045195002720 W000221013755389Na2Fe(CN)5NO.2H2O                  000002980000 0000029800000000000MG   001375538900000000000000000000
07500002739PRAZOSINE HYDROCHLORIDE                           047074002739 W001668019237844C19H21N5O4.HCl                     000004199000 0000041990000000000MG   001923784400000000000000000000
07500002755MAGNESIUMCITRAAT                                  002755002755SB001493003344181C12H10Mg3O14                       000004511000 0000045110000000000MG   000334418100000000000000000000
07500002763NATRIUMDIWATERSTOFFOSFAAT 1-WATER                 044814002763 B000652010049215NaH2PO4.H2O                        000001379000 0000013790000000000MG   001004921500000000000000000000
07500002771NATRIUMDIWATERSTOFFOSFAAT 2-WATER                 044814002771 B000652013472350NaH2PO4.2H2O                       000001560000 0000015600000000000MG   001347235000000000000000000000
07500002801DINATRIUMWATERSTOFFOSFAAT 2-WATER                 044822002801 B000225010028247Na2HPO4.2H2O                       000001779000 0000017790000000000MG   001002824700000000000000000000
07500002828DINATRIUMWATERSTOFFOSFAAT 7-WATER                 044822002828 B000225007782856Na2HPO4.7H2O                       000002680000 0000026800000000000MG   000778285600000000000000000000
07500002836DINATRIUMWATERSTOFFOSFAAT 12-WATER                044822002836 B000225010039324Na2HPO4.12H2O                      000003581000 0000035810000000000MG   001003932400000000000000000000
07500002844ORTHOSIFON                                        002844002844SW000227000000000                                   000000000000 0000000000000000000XX   000000000000000000000000000000
07500002852ACRIFLAVINE DICHLORIDE                            036285002852 W000228000000000mengsel                            00000000000010000000100000000000MG   000000000000000000000000000000
07500002860FENETHYLALCOHOL                                   002860002860SB000233000060128C6H5.CH2.CH2OH                     000001222000 0000012220000000000MG   000006012800000000000000000000
07500002879FENOXYETHANOL                                     002879002879SB000234000122996C8H10O2                            000001382000 0000013820000000000MG   000012299600000000000000000000
07500002887ISOPROPANOL                                       002887002887SB000235000067630(CH3)2CHOH                         000000601000 0000006010000078500MG   000006763000000000000000000000
07500002895FORMALDEHYDE                                      002895002895SB000236000050000CH2O                               000000303000 0000003030000000000MG   000005000000000000000000000000
07500002909GLUTARAL                                          002909002909SB000237000111308C5H8O2                             000001001000 0000010010000000000MG   000011130800000000000000000000
07500002917PARAFORMALDEHYDE                                  002917002917SW000238030525894(CH2O)n                            000000000000 0000000000000000000MG   003052589400000000000000000000
07500002933NATRIUMHYPOCHLORIET                               002933002933SB000243007681529NaClO                              000000744400 0000007444000000000MG   000768152900000000000000000000
07500002941OXYCHLOROSEEN                                     002941002941SW000244008031149C20H34O3S.HOCl                     000004070000 0000040700000000000MG   000803114900000000000000000000
07500002968OXYCHLOROSEEN NATRIUM                             002941002968 W000244052906840*C20H34O3SOClNa2*                  000004510000 0000045100000000000MG   005290684000000000000000000000
07500002984HEXAMIDINE DI-ISETIONAAT                          041629002984 W000000000659405C20H26N4O2.2C2H6O4S                000006067000 0000060670000000000MG   000065940500000000000000000000
07500002992BENZYLFENOL                                       002992002992SW000249000101531C13H12O                            000001842300 0000018423000000000MG   000010153100000000000000000000
07500003026CHLOORCRESOL                                      003026003026SB000252000059507C7H7ClO                            000001426000 0000014260000000000MG   000005950700000000000000000000
07500003034CHLOORXYLENOL                                     003034003034SB000253000088040C8H9ClO                            000001566000 0000015660000000000MG   000008804000000000000000000000
07500003077FENYLFENOL NATRIUM-4-WATER                        018694003077 B000000006152336C12H9NaO.4H2O                      000002643000 0000026430000000000MG   000615233600000000000000000000
07500003085HEXACHLOROFEEN                                    003085003085SB001466000070304C13H6Cl6O2                         000004069000 0000040690000000000MG   000007030400000000000000000000
07500003093METHYLPARAHYDROXYBENZOAAT                         003093003093SB002123000099763C8H8O3                             000001521000 0000015210000000000MG   000009976300000000000000000000
07500003107BUTYLPARAHYDROXYBENZOAAT                          003107003107SB002859000094268C11H14O3                           000001942000 0000019420000000000MG   000009426800000000000000000000
07500003115BENZYLPARAHYDROXYBENZOAAT                         003115003115SB002860000094188C14H12O3                           000002282000 0000022820000000000MG   000009418800000000000000000000
07500003123ETHYLPARAHYDROXYBENZOAAT                          003123003123SB002122000120478C9H10O3                            000001661700 0000016617000000000MG   000012047800000000000000000000
07500003131PROPYLPARAHYDROXYBENZOAAT                         003131003131SB002124000094133C10H12O3                           000001802000 0000018020000000000MG   000009413300000000000000000000
07500003158TRICLOSAN                                         003158003158SW001591003380345C12H7Cl3O2                         000002895000 0000028950000000000MG   000338034500000000000000000000
07500003174JODIUM                                            003174003174SB000260007553562I                                  000001269000 0000012690000000000MG   000755356200000000000000000000
07500003182KALIUMJODIDE                                      003182003182SB000766007681110KI                                 000001660000 0000016600000000000MG   000768111000000000000000000000
07500003190NATRIUMJODIDE                                     003190003190SB000491007681825NaI                                000001499000 0000014990000000000MG   000768182500000000000000000000
07500003204POVIDONJODIUM                                     003204003204SW000262025655418(C6H9NO)n.xI                       00001269000010000126900000000000MG   002565541800000000000000000000
07500003212BENZALKONIUM CHLORIDE                             037222003212 B000263008001545C6H5CH2N(CH3)2RCl                  000000000000 0000000000000000000MG   000800154500000000000000000000
07500003220CETRIMIDE                                         003220003220SB000265008044711C17H38BrN                          000003364000 0000033640000000000MG   000804471100000000000000000000
07500003239DEQUALINIUM DICHLORIDE                            039349003239 B000267000522510C30H40Cl2N4                        000005276000 0000052760000000000MG   000052251000000000000000000000
07500003255FENYLKWIK(II)BORAAT                               003255003255SB001917008017887C6H5HgOB(OH)2.C6H5HgOH             000006332000 0000063320000000000MG   000801788700000000000000000000
07500003263FENYLKWIK(II)NITRAAT                              003263003263SB001918008003052C6H5HgOH.C6H5HgNO3                 000006344000 0000031720000000000MG   000800305200000000000000000000
07500003271FENYLKWIK(II)ACETAAT                              003271003271SB000000000062384C8H8HgO2                           000003367000 0000033670000000000MG   000006238400000000000000000000
07500003298KWIK(II)CHLORIDE                                  003298003298SW000000007487947HgCl2                              000002715000 0000027150000000000MG   000748794700000000000000000000
07500003301KWIK(II)OXYCYANIDE                                003301003301SW000000001335315HgO + Hg(CN)2                      000000000000 0000000000000000000MG   000133531500000000000000000000
07500003328MERBROMINE                                        003328003328SW000273000129168C20H8Br2HgNa2O6                    000007507000 0000075070000000000MG   000012916800000000000000000000
07500003344BENZOYLPEROXIDE                                   003344003344SB001593000094360C14H10O4                           000002422000 0000024220000000000MG   000009436000000000000000000000
07500003352KALIUMPERMANGANAAT                                003352003352SW000275007722647KMnO4                              000001580000 0000015800000000000MG   000772264700000000000000000000
07500003360NATRIUMPERBORAAT 4-WATER                          044911003360 B001392010042941NaBO3.4H2O = NaBO2.H2O2.3H2O       000001539000 0000015390000000000MG   001004294100000000000000000000
07500003379WATERSTOFPEROXIDE                                 003379003379SB000276007722841H2O2                               000000340200 0000003402000000000MG   000772284100000000000000000000
07500003387ZINKPEROXIDE                                      003387003387SW000277001314223ZnO2, ZnO en Zn(OH)2               000000000000 0000000000000000000MG   000131422300000000000000000000
07500003395ZILVERNUCLEINE                                    003395003395SW001393000000000                                   000000000000 0000000000000000000MG   000000000000000000000000000000
07500003433ZILVERNITRAAT                                     003433003433SW000281007761888AgNO3                              000001699000 0000016990000000000MG   000776188800000000000000000000
07500003441AMBAZON 1-WATER                                   036498003441 W000282006011127C8H11N7S.H2O                       000002553000 0000025530000000000MG   000601112700000000000000000000
07500003468AZIJNZUUR                                         003468003468SB001519000064197C2H4O2                             000000600500 0000006005000104460MG   000006419700000000000000000000
07500003476BENZOEZUUR                                        003476003476SB000283000065850C6H5CO2H                           000001221000 0000012210000000000MG   000006585000000000000000000000
07500003484CHLOORHEXIDINE DIHYDROCHLORIDE                    038474003484 B000284003697425C22H30Cl2N10.2HCl                  000005784000 0000057840000000000MG   000369742500000000000000000000
07500003492CHLOORHEXIDINE DIGLUCONAAT                        038474003492 B000284018472510C22H30Cl2N10.2C6H12O7              000008978000 0000089780000000000MG   001847251000000000000000000000
07500003506DODICINE                                          003506003506SB000000006843976C18H39N3O2                         000003295300 0000032953000000000MG   000684397600000000000000000000
07500003514ETHYLEENOXIDE                                     003514003514SB000286000075218C2H4O                              000000440500 0000004405000000000XX   000007521800000000000000000000
07500003522HEXETIDINE                                        003522003522SW000287000141946C21H45N3                           000003396000 0000033960000000000MG   000014194600000000000000000000
07500003530NATRIUMCARBONAAT 10-WATER                         018953003530 B000000006132021Na2CO3.10H2O                       000002861000 0000028610000000000MG   000613202100000000000000000000
07500003549NITROFURAL                                        003549003549SW000000000059870C6H6N4O4                           000001981000 0000019810000000000MG   000005987000000000000000000000
07500003557NONOXINOL 9                                       003557003557SB000000026027383C33H60O10                          000006168000 0000061680000000000MG   002602738300000000000000000000
07500003565OXYCHINOLINE SULFAAT                              045616003565 B000290000134316(C9H7NO)2.H2SO4                    000003884000 0000019420000000000MG   000013431600000000000000000000
07500003603SORBINEZUUR                                       003603003603SB000292000110441C6H8O2                             000001121000 0000011210000000000MG   000011044100000000000000000000
07500003611THIRAM                                            003611003611SW000293000137268C6H12N2S4                          000002404000 0000024040000000000MG   000013726800000000000000000000
07500003638TRICLOCARBAN                                      003638003638SW001556000101202C13H9Cl3N2O                        000003156000 0000031560000000000MG   000010120200000000000000000000
07500003646METHYLTHIOURACIL                                  003646003646SW000000000056042C5H6N2OS                           000001422000 0000014220000000000MG   000005604200000000000000000000
07500003654PROPYLTHIOURACIL                                  003654003654SW000296000051525C7H10N2OS                          000001702000 0000017020000000000MG   000005152500000000000000000000
07500003662CARBIMAZOL                                        003662003662SW000297022232548C7H10N2O2S                         000001862000 0000018620000000000MG   002223254800000000000000000000
07500003670THIAMAZOL                                         003670003670SW000298000060560C4H6N2S                            000001142000 0000011420000000000MG   000006056000000000000000000000
07500003689KALIUMPERCHLORAAT                                 003689003689SW005275007778747KClO4                              000001385000 0000013850000000000MG   000777874700000000000000000000
07500003697KALVERBLOED EXTRACT, EIWITVRIJ                    003697003697SW000000000000000                                   000000000000 0000000000000000000MG   000000000000000000000000000000
07500003719MIEREZUUR                                         003719003719SB000000000064186CH2O2                              000000460200 0000004602000000000MG   000006418600000000000000000000
07500003743CORTICOTROPINE                                    003743003743SW000000009002602                                   000000000000 0000000100000000000IE   000900260200000000000000000000
07500003751TETRACOSACTIDE                                    003751003751SW001863016960160C136H210N40O31S                    000029335000 0000293350000000000MG   001696016000000000000000000000
07500003778ALDOSTERON                                        003778003778SW000000000052391C21H28O5                           000003604000 0000036040000000000MG   000005239100000000000000000000
07500003786DESOXYCORTON PIVALAAT                             039403003786 W000000000808480C26H38O4                           000004146000 0000041460000000000MG   000080848000000000000000000000
07500003794FLUDROCORTISON ACETAAT                            018279003794 W000308000514363C23H31FO6                          000004225000 0000042250000000000MG   000051436300000000000000000000
07500003808BECLOMETASON DIPROPIONAAT                         037117003808 W001644005534098C28H37ClO7                         000005210000 0000052100000000000MG   000553409800000000000000000000
07500003816BETAMETHASON                                      003816003816SW000309000378449C22H29FO5                          000003925000 0000039250000000000MG   000037844900000000000000000000
07500003824BETAMETHASON DINATRIUMFOSFAAT                     003816003824 W000309000151735C22H28FNa2O8P                      000005164000 0000051640000000000MG   000015173500000000000000000000
07500003832BETAMETHASON VALERAAT                             003816003832 W000309002152445C27H37FO6                          000004766000 0000047660000000000MG   000215244500000000000000000000
07500003840BETAMETHASON ACETAAT                              003816003840 W000309000987246C24H31FO6                          000004345000 0000043450000000000MG   000098724600000000000000000000
07500003859BETAMETHASON DIPROPIONAAT                         003816003859 W000309005593204C28H37FO7                          000005046000 0000050460000000000MG   000559320400000000000000000000
07500003867CLOBETASOL PROPIONAAT                             038806003867 W001682025122467C25H32ClFO5                        000004670000 0000046700000000000MG   002512246700000000000000000000
07500003883CORTISON ACETAAT                                  003891003883 W000311000050044C23H30O6                           000004025000 0000040250000000000MG   000005004400000000000000000000
07500003891CORTISON                                          003891003891SW000311000053065C21H28O5                           000003604600 0000036046000000000MG   000005306500000000000000000000
07500003905DESONIDE                                          003905003905SW000000000638948C24H32O6                           000004165000 0000041650000000000MG   000063894800000000000000000000
07500003913DESOXIMETASON                                     003913003913SW000312000382672C22H29FO4                          000003765000 0000037650000000000MG   000038267200000000000000000000
07500003921DEXAMETHASON ISONICOTINAAT                        020435003921 W000313002265647C28H32FNO6                         000004976000 0000049760000000000MG   000226564700000000000000000000
07500003948DEXAMETHASON DINATRIUMFOSFAAT                     020435003948 W000313002392394C22H28FNa2O8P                      000005164000 0000051640000000000MG   000239239400000000000000000000
07500003956DEXAMETHASON TEBUTAAT                             020435003956 W000313024668755C28H39FO6                          000004906000 0000049060000000000MG   002466875500000000000000000000
07500003964DIFLUCORTOLON VALERAAT                            039748003964 W001685059198708C27H36F2O5                         000004786000 0000047860000000000MG   005919870800000000000000000000
07500003972FLUMETASON PIVALAAT                               041033003972 W000316002002291C27H36F2O6                         000004946000 0000049460000000000MG   000200229100000000000000000000
07500003980FLUOCINOLONACETONIDE                              003980003980SW000317000067732C24H30F2O6                         000004525000 0000045250000000000MG   000006773200000000000000000000
07500003999FLUOCINONIDE                                      003999003999SW000000000356127C26H32F2O7                         000004945000 0000049450000000000MG   000035612700000000000000000000
07500004006FLUOCORTOLON                                      004006004006SW000000000152976C22H29FO4                          000003765000 0000037650000000000MG   000015297600000000000000000000
07500004014FLUOCORTOLON CAPROAAT                             004006004014 W000000000303402C28H39FO5                          000004746000 0000047460000000000MG   000030340200000000000000000000
07500004022FLUOCORTOLON PIVALAAT                             004006004022 W000000029205069C27H37FO5                          000004606000 0000046060000000000MG   002920506900000000000000000000
07500004030FLUORMETHOLON                                     004030004030SW000318000426131C22H29FO4                          000003765000 0000037650000000000MG   000042613100000000000000000000
07500004049FLUPREDNIDEEN ACETAAT                             041106004049 W000000001255352C24H29FO6                          000004325000 0000043250000000000MG   000125535200000000000000000000
07500004057HALCINONIDE                                       004057004057SW000000003093354C24H32ClFO5                        000004550000 0000045500000000000MG   000309335400000000000000000000
07500004065HYDROCORTISON NATRIUMSUCCINAAT                    004073004065 W001399000125042C25H33NaO8                         000004845000 0000048450000000000MG   000012504200000000000000000000
07500004073HYDROCORTISON                                     004073004073SW001399000050237C21H30O5                           000003625000 0000036250000000000MG   000005023700000000000000000000
07500004081HYDROCORTISON ACETAAT                             004073004081 W001399000050033C23H32O6                           000004045000 0000040450000000000MG   000005003300000000000000000000
07500004103HYDROCORTISON BUTYRAAT                            004073004103 W001399013609671C25H36O6                           000004325000 0000043250000000000MG   001360967100000000000000000000
07500004111MEDRYSON                                          004111004111SW000000002668668C22H32O3                           000003445000 0000034450000000000MG   000266866800000000000000000000
07500004138METHYLPREDNISOLON ACETAAT                         004154004138 W000321000053361C24H32O6                           000004165000 0000041650000000000MG   000005336100000000000000000000
07500004146METHYLPREDNISOLON NATRIUMSUCCINAAT                004154004146 W000321002375033C26H33NaO8                         000004965000 0000049650000000000MG   000237503300000000000000000000
07500004154METHYLPREDNISOLON                                 004154004154SW000321000083432C22H30O5                           000003745000 0000037450000000000MG   000008343200000000000000000000
07500004162PARAMETHASON ACETAAT                              045896004162 W000000001597826C24H31FO6                          000004345000 0000043450000000000MG   000159782600000000000000000000
07500004170PREDNISOLON                                       004170004170SW000323000050248C21H28O5                           000003604000 0000036040000000000MG   000005024800000000000000000000
07500004189PREDNISOLON ACETAAT                               004170004189 W000323000052211C23H30O6                           000004025000 0000040250000000000MG   000005221100000000000000000000
07500004197PREDNISOLON DINATRIUMFOSFAAT                      004170004197 W000323000125020C21H27Na2O8P                       000004844000 0000048440000000000MG   000012502000000000000000000000
07500004200PREDNISOLON TEBUTAAT                              004170004200 W000323007681143C27H38O6.H2O                       000004766000 0000047660000000000MG   000768114300000000000000000000
07500004219PREDNISOLON STEAGLAAT                             004170004219 W000323005060559C41H64O8                           000006850000 0000068500000000000MG   000506055900000000000000000000
07500004227PREDNISOLON PIVALAAT                              004170004227 W000323001107999C26H36O6                           000004446000 0000044460000000000MG   000110799900000000000000000000
07500004235PREDNISON                                         004235004235SW000324000053032C21H26O5                           000003584000 0000035840000000000MG   000005303200000000000000000000
07500004243TRIAMCINOLON                                      004243004243SW000325000124947C21H27FO6                          000003944000 0000039440000000000MG   000012494700000000000000000000
07500004251TRIAMCINOLON DIACETAAT                            004243004251 W000325000067787C25H31FO8                          000004785000 0000047850000000000MG   000006778700000000000000000000
07500004278TRIAMCINOLONACETONIDE                             004278004278SW000326000076255C24H31FO6                          000004345000 0000043450000000000MG   000007625500000000000000000000
07500004286TRIAMCINOLONACETONIDE DIKALIUMFOSFAAT             004278004286 W000326000000000*C24H30FO6K2PO4*                   00000592700010000059270000000000MG   000000000000000000000000000000
07500004294TRIAMCINOLONHEXACETONIDE                          004294004294SW005082005611518C30H41FO7                          000005326000 0000053260000000000MG   000561151800000000000000000000
07500004308BIJSCHILDKLIER EXTRACT                            037729004308 W000000000000000                                   000000000000 0000000000000000000MG   000000000000000000000000000000
07500004316CALCIUMCARBONAAT                                  004316004316SB000787000471341CaCO3                              000001001000 0000010010000000000G    000047134100000000000000000000
07500004324CALCIUMMONOWATERSTOFFOSFAAT 2-WATER               035319004324 B002153007789777CaHPO4.2H2O                        000001721000 0000017210000000000MG   000778977700000000000000000000
07500004332CALCIUMFOSFAAT                                    004332004332SB002154007758874Ca3(PO4)2                          000003102000 0000031020000000000G    000775887400000000000000000000
07500004340CALCIUMGLUBIONAAT 1-WATER                         051683004340 B001607012569389(C12H21O12,C6H11O7)Ca.H2O          000006105000 0000061050000000000MG   001256938900000000000000000000
07500004359CALCIUMGLUCONAAT 1-WATER                          051675004359 B000332018016245C12H22CaO14.H2O                    000004484000 0000044840000000000MG   001801624500000000000000000000
07500004367CALCIUMLACTAAT 5-WATER                            051640004367 B000333063690562C6H10CaO6.5H2O                     000003082000 0000030820000000000MG   006369056200000000000000000000
07500004375CALCIUMNATRIUMLACTAAT                             004375004375SW0000000000000002C3H5NaO3.(C3H5O3)2Ca.4H2O         000005144000 0000051440000000000MG   000000000000000000000000000000
07500004383ACETYLDIGITOXINE                                  004383004383SW000000001111393C43H66O14                          000008070000 0000080700000000000MG   000111139300000000000000000000
07500004391CRATAEGUS PREPARAAT                               004391004391SW000000000000000                                   000000000000 0000000000000000000XX   000000000000000000000000000000
07500004405DIGITALIS                                         004405004405SW000000000000000                                   000000000000 0000000000000000000XX   000000000000000000000000000000
07500004413DIGITOXINE                                        004413004413SW000000000071636C41H64O13                          000007649000 0000076490000000000MG   000007163600000000000000000000
07500004421DIGOXINE                                          004421004421SW001400020830755C41H64O14                          000007809000 0000078090000000000MG   002083075500000000000000000000
07500004448LANATOSIDE C                                      004448004448SW000000017575223C49H76O20                          000009851000 0000098510000000000MG   001757522300000000000000000000
07500004456DESLANOSIDE                                       004456004456SW000000017598651C47H74O19                          000009431000 0000094310000000000MG   001759865100000000000000000000
07500004464METILDIGOXINE                                     004464004464SW000000030685439C42H66O14                          000007950000 0000079500000000000MG   003068543900000000000000000000
07500004472OUABAINE 8-WATER                                  045543004472 W000000011018896C29H44O12.8H2O                     000007288000 0000072880000000000MG   001101889600000000000000000000
07500004480PROSCILLARIDINE                                   004480004480SW000000000466068C30H42O8                           000005307000 0000053070000000000MG   000046606800000000000000000000
07500004499SCILLA PREPARAAT                                  004499004499SW000000000000000                                   000000000000 0000000000000000000XX   000000000000000000000000000000
07500004502AJMALINE                                          004502004502SW000000004360127C20H26N2O2                         000003264200 0000032642000000000MG   000436012700000000000000000000
07500004510APRINDINE HYDROCHLORIDE                           036870004510 W000000033237740C22H3ON2.HCl                       000003589500 0000035895000000000MG   003323774000000000000000000000
07500004529DISOPYRAMIDE                                      004529004529SW001529003737095C21H29N3O                          000003395000 0000033950000000000MG   000373709500000000000000000000
07500004537DISOPYRAMIDE FOSFAAT                              004529004537 W001529022059605C21H29N3O.H3PO4                    000004375000 0000043750000000000MG   002205960500000000000000000000
07500004545HYDROKINIDINE GLUCONAAT                           041785004545 W000000021666864C20H26N2O2.C6H12O7                 000005225000 0000052250000000000MG   002166686400000000000000000000
07500004553HYDROKINIDINE HYDROCHLORIDE                       041785004553 W000000001476988C20H26N2O2.HCl                     000003629000 0000036290000000000MG   000147698800000000000000000000
07500004561KINIDINE POLYGALACTURONAAT                        042684004561 W000500065484562C20H24N2O2.(C6H10O7.H2O)x          00000587200010000058720000000000MG   006548456200000000000000000000
07500004588KINIDINE SULFAAT-2-WATER                          042684004588 W000500006591635(C20H24N2O2)2.H2SO4.2H2O           000007829000 0000039150000000000MG   000659163500000000000000000000
07500004596KINIDINE WATERSTOFSULFAAT-4-WATER                 042684004596 W000500006151399C20H24N2O2.H2SO4.4H2O              000004945600 0000049456000000000MG   000615139900000000000000000000
07500004618KINIDINE FENOBARBITAL                             042684004618 W000500001400482C20H24N2O2.C12H12N2O3              000005567000 0000055670000000000MG1  000140048200000000000000000000
07500004626COUMARINE                                         004626004626SB002673000091645C9H6O2                             000001461000 0000014610000000000MG   000009164500000000000000000000
07500004634LIDOCAINE                                         004634004634SW000041000137586C14H22N2O                          000002343000 0000023430000000000MG   000013758600000000000000000000
07500004642PROCAINAMIDE HYDROCHLORIDE                        047163004642 W000501000614391C13H21N3O.HCl                      000002718000 0000027180000000000MG   000061439100000000000000000000
07500004650CALCIUMCHLORIDE 2-WATER                           030961004650 B000330010035048CaCl2.2H2O                         000001470000 0000014700000000000MG   001003504800000000000000000000
07500004669ANTIMOON(III)KALIUMTARTRAAT                       004669004669SW000000011071151C4H4O7KSb                          000003248000 0000032480000000000MG   001107115100000000000000000000
07500004685BEFENIUM HYDROXYNAFTOAAT                          037125004685 W000000003818506C28H29NO4                          000004435400 0000044354000000000MG   000381850600000000000000000000
07500004693CHENOPODIUM OLIE                                  038369004693 W000000008006993                                   000000000000 0000000000000000000ML   000800699300000000000000000000
07500004715DICHLOROFEEN                                      004715004715SW000000000097234C13H10Cl2O2                        000002691000 0000026910000000000G    000009723400000000000000000000
07500004723DIETHYLCARBAMAZINE DIWATERSTOFCITRAAT             039667004723 W000507001642542C10H21N3O.C6H8O7                   000003914000 0000039140000000000MG   000164254200000000000000000000
07500004758MANNETJESVAREN PREPARAAT                          004758004758SW000000000000000                                   000000000000 0000000000000000000XX   000000000000000000000000000000
07500004766HEXYLRESORCINOL                                   004766004766SW000000000136776C12H18O2                           000001943000 0000019430000000000MG   000013677600000000000000000000
07500004774LEVAMISOL                                         004774004774SW001660014769734C11H12N2S                          000002043100 0000020431000000000MG   001476973400000000000000000000
07500004782MEBENDAZOL                                        004782004782SW001578031431397C16H13N3O3                         000002953000 0000029530000000000MG   003143139700000000000000000000
07500004790MEPACRINE DIHYDROCHLORIDE-2-WATER                 044067004790 W000511006151300C23H30ClN3O.2HCl.2H2O              000005089000 0000050890000000000MG   000615130000000000000000000000
07500004804METHYLROSANILINE                                  004804004804SW000512000000000C25H30N3                           000003725500 0000037255000000000MG   000000000000000000000000000000
07500004812METHYLROSANILINE CHLORIDE                         004804004812 W000512000548629C25H30ClN3                         000004080000 0000040800000000000MG   000054862900000000000000000000
07500004820NICLOSAMIDE                                       004820004820SW001294000050657C13H8Cl2N2O4                       000003271000 0000032710000000000MG   000005065700000000000000000000
07500004839PIPERAZINE ADIPAAT                                053902004839 W000000000142881C4H10N2.C6H10O4                    000002323000 0000023230000000000MG   000014288100000000000000000000
07500004855PIPERAZINE 6-WATER                                053902004855 W000000000142632C4H10N2.6H2O                       000001942000 0000019420000000000MG   000014263200000000000000000000
07500004863PYRANTEL EMBONAAT                                 047430004863 W001506022204246C11H14N2S.C23H16O6                 000005947000 0000059470000000000MG   002220424600000000000000000000
07500004871PYRVINIUM EMBONAAT                                047481004871 W000000003546416(C26H28N3)2.C23H14O6               000011514000 0000057670000000000MG   000354641600000000000000000000
07500004901TETRACHLOORETHYLEEN                               004901004901SW000000000127184C2Cl4                              000001658000 0000016580000000000ML   000012718400000000000000000000
07500004928BENZYLPENICILLINE NATRIUM                         037281004928 B001306000069578C16H17N2NaO4S                      000003564000 0000000100000000000IE   000006957800000000000000000000
07500004936BENZYLPENICILLINE KALIUM                          037281004936 W001306000113984C16H17KN2O4S                       000003725000 0000000100000000000IE   000011398400000000000000000000
07500004944BENZYLPENICILLINE BENZATHINE-4-WATER              037281004944 W001306041372025C16H20N2(C16H18N2O4S)2.4H2O        000009811900 0000000100000000000IE   004137202500000000000000000000
07500004960BENZYLPENICILLINE PROCAINE-1-WATER                037281004960 W001306006130649C13H20N2O2.C16H18N2O4S.H2O         000005887000 0000000100000000000IE   000613064900000000000000000000
07500004979AZIDOCILLINE KALIUM                               036994004979 W000000022647321C16H16KN5O4S                       000004135100 0000041351000000000MG   002264732100000000000000000000
07500004987FENETICILLINE KALIUM                              040681004987 W001308000132934C17H19KN2O5S                       000004025000 0000040250000000000MG   000013293400000000000000000000
07500004995FENOXYMETHYLPENICILLINE CALCIUM-2-WATER           020044004995 W000534073368748(C16H17N2O5S)2.Ca.2H2O             000007749000 0000038750000000000MG   007336874800000000000000000000
07500005002FENOXYMETHYLPENICILLINE KALIUM                    020044005002 W000534000132989C16H17KN2O5S                       000003885000 0000038850000000000MG   000013298900000000000000000000
07500005037CLOXACILLINE NATRIUM-1-WATER                      038911005037 W000000007081449C19H17ClN3NaO5S.H2O                000004759000 0000047590000000000MG   000708144900000000000000000000
07500005045DICLOXACILLINE NATRIUM-1-WATER                    039659005045 W000000013412641C19H16Cl2N3NaO5S.H2O               000005103000 0000051030000000000MG   001341264100000000000000000000
07500005053FLUCLOXACILLINE NATRIUM-1-WATER                   040991005053 W001471034214512C19H16ClFN3NaO5S.H2O               000004939000 0000049390000000000MG   003421451200000000000000000000
07500005061METICILLINE NATRIUM-1-WATER                       044415005061 W000540007246142C17H19N2NaO6S.H2O                  000004204200 0000042042000000000MG   000724614200000000000000000000
07500005088AMOXICILLINE 3-WATER                              023167005088 W001516061336707C16H19N3O5S.3H2O                   000004194500 0000041945000000000MG   006133670700000000000000000000
07500005096AMPICILLINE 3-WATER                               020753005096 W001310007177482C16H19N3O4S.3H2O                   000004034000 0000040340000000000MG   000717748200000000000000000000
07500005118AMPICILLINE NATRIUM                               020753005118 W001310000069523C16H18N3NaO4S                      000003713900 0000037139000000000MG   000006952300000000000000000000
07500005126BACAMPICILLINE HYDROCHLORIDE                      037036005126 W000000037661088C21H27N3O7S.HCl                    000005019800 0000050198000000000MG   003766108800000000000000000000
07500005134CARBENICILLINE DINATRIUM                          037885005134 W000000004800946C17H16N2Na2O6S                     000004224000 0000042240000000000G    000480094600000000000000000000
07500005142CARINDACILLINE NATRIUM                            038032005142 W000000026605696C26H25N2NaO6S                      000005165000 0000051650000000000MG   002660569600000000000000000000
07500005150EPICILLINE                                        005150005150SW000000026774903C16H21N3O4S                        000003514000 0000035140000000000MG   002677490300000000000000000000
07500005169EPICILLINE NATRIUM                                005150005169 W000000034735405C16H20N3O4SNa                      000003734000 0000037340000000000MG   003473540500000000000000000000
07500005177HETACILLINE KALIUM                                041599005177 W000000005321324C19H22KN3O4S                       000004276000 0000042760000000000MG   000532132400000000000000000000
07500005185PIVAMPICILLINE HYDROCHLORIDE                      046779005185 W000000026309955C22H29N3O6S.HCl                    000005000000 0000050000000000000MG   002630995500000000000000000000
07500005193CEFALEXINE                                        005193005193SW001299000000000C16H17N3O4S                        000003474000 0000034740000000000MG   000000000000000000000000000000
07500005207CEFALORIDINE                                      005207005207SW000000000050599C19H17N3O4S2                       000004155000 0000041550000000000MG   000005059900000000000000000000
07500005215CEFALOTINE NATRIUM                                038083005215 W000520000058719C16H15N2NaO6S2                     000004184000 0000041840000000000MG   000005871900000000000000000000
07500005223CEFAPIRINE NATRIUM                                027405005223 W000000024356603C17H16N3NaO6S2                     000004454000 0000044540000000000MG   002435660300000000000000000000
07500005231CEFAZOLINE NATRIUM                                027413005231 W001609027164461C14H13N8NaO4S3                     000004765000 0000047650000000000MG   002716446100000000000000000000
07500005258CEFRADINE 1-WATER                                 027421005258 W001595031828509C16H19N3O4S.H2O                    000003674300 0000036743000000000MG   003182850900000000000000000000
07500005266CEFRADINE NATRIUM                                 027421005266 W001595000000000C16H18N3O4SNa                      000003714000 0000037140000000000MG   000000000000000000000000000000
07500005274CLINDAMYCINE HYDROCHLORIDE-1-WATER                038784005274 W001302058207195C18H33ClN2O5S.HCl.H2O              000004795000 0000047950000000000MG   005820719500000000000000000000
07500005282CLINDAMYCINE DIWATERSTOFFOSFAAT                   038784005282 W001302024729962C18H34ClN2O8PS                     000005050000 0000050500000000000MG   002472996200000000000000000000
07500005290CLINDAMYCINE PALMITAATHYDROCHLORIDE               038784005290 W001302025507044C34H63ClN2O6S.HCl                  000006999000 0000069990000000000MG   002550704400000000000000000000
07500005304LINCOMYCINE HYDROCHLORIDE-1-WATER                 043036005304 W000000007179499C18H34N2O6S.HCl.H2O                000004610000 0000046100000000000MG   000717949900000000000000000000
07500005312ERYTROMYCINE                                      005312005312SW000522000114078C37H67NO13                         000007339000 0000073390000000000MG   000011407800000000000000000000
07500005320ERYTROMYCINE ETHYLSUCCINAAT                       005312005320 W000522001264626C43H75NO16                         000008621000 0000086210000000000MG   000126462600000000000000000000
07500005339ERYTROMYCINE LACTOBIONAAT                         005312005339 W000522003847298C37H67NO13.C12H22O12               000010922000 0000109220000000000MG   000384729800000000000000000000
07500005347ERYTROMYCINE STEARAAT                             005312005347 W000522000643221C37H67NO13.C18H36O2                000010184000 0000101840000000000MG   000064322100000000000000000000
07500005363SPIRAMYCINE                                       005363005363SW001301008025818C48H82N2O16                        000009432000 0000094320000000000MG   000802581800000000000000000000
07500005371VIRGINIAMYCINE                                    005371005371SW000000011006761                                   000000000000 0000000000000000000MG   001100676100000000000000000000
07500005398CHLOORTETRACYCLINE HYDROCHLORIDE                  038504005398 B000000000064722C22H23ClN2O8.HCl                   000005153000 0000051530000000000MG   000006472200000000000000000000
07500005401DEMECLOCYCLINE HYDROCHLORIDE                      005428005401 W001315000064733C21H21ClN2O8.HCl                   000005013000 0000050130000000000MG   000006473300000000000000000000
07500005428DEMECLOCYCLINE                                    005428005428SW001315000127333C21H21ClN2O8                       000004649000 0000046490000000000MG   000012733300000000000000000000
07500005436DOXYCYCLINE HYCLAAT                               035009005436 W000547024390145C22H24N2O8.HCl.0.5C2H5OH.0.5H2O    000005129000 0000051290000000000MG   002439014500000000000000000000
07500005452MINOCYCLINE HYDROCHLORIDE                         044539005452 W001514013614987C23H27N3O7.HCl                     000004939000 0000049390000000000MG   001361498700000000000000000000
07500005460OXYTETRACYCLINE HYDROCHLORIDE                     045705005460 W001317002058460C22H24N2O9.HCl                     000004969000 0000049690000000000MG   000205846000000000000000000000
07500005479OXYTETRACYCLINE 2-WATER                           045705005479 W001317006153646C22H24N2O9.2H2O                    000004965000 0000049650000000000MG   000615364600000000000000000000
07500005487ROLITETRACYCLINE                                  005487005487SW000000000751973C27H33N3O8                         000005276000 0000052760000000000MG   000075197300000000000000000000
07500005509TETRACYCLINE HYDROCHLORIDE                        048712005509 W001401000064755C22H24N2O8.HCl                     000004809000 0000048090000000000MG   000006475500000000000000000000
07500005533CHLOORAMFENICOL                                   005533005533SW001300000056757C11H12Cl2N2O5                      000003231000 0000032310000000000MG   000005675700000000000000000000
07500005541CHLOORAMFENICOL PALMITAAT                         005533005541 W001300000530438C27H42Cl2N2O6                      000005615000 0000056150000000000MG   000053043800000000000000000000
07500005568CHLOORAMFENICOL NATRIUMSUCCINAAT                  005533005568 W001300000982570C15H15Cl2N2NaO8                    000004452000 0000044520000000000MG   000098257000000000000000000000
07500005576THIAMFENICOL                                      005576005576SW000000015318453C12H15Cl2NO5S                      000003562000 0000035620000000000MG   001531845300000000000000000000
07500005606AMIKACINE SULFAAT                                 036595005606 W001697039831555C22H43N5O13.2H2SO4                 000007817500 0000078175000000000MG   003983155500000000000000000000
07500005630FRAMYCETINE SULFAAT                               041122005630 W000524028002702C23H46N6O13.3H2SO4                 000009089000 0000090890000000000MG   002800270200000000000000000000
07500005649GENTAMICINE SULFAAT                               041335005649 B001304001405410*C20H41N5O7.xH2SO4* x=3.3 vlg USP  00000785800010000078580000000000MG   000140541000000000000000000000
07500005657KANAMYCINE SULFAAT                                042595005657 W000525025389940C18H36N4O11.H2SO4                  00000582600010000058260000000000MG   002538994000000000000000000000
07500005665NEOMYCINE SULFAAT                                 045012005665 B001305001405103*C23H46N6O13.XH2SO4*               00000878000010000087800000000000MG   000140510300000000000000000000
07500005673PAROMOMYCINE SULFAAT                              045918005673 W000526001263894C23H45N5O14.H2SO4                  000007138000 0000071380000000000MG   000126389400000000000000000000
07500005681SISOMICINE SULFAAT                                023663005681 W000000053179092(C19H37N5O7)2.5H2SO4               000013854000 0000069270000000000MG   005317909200000000000000000000
07500005703STREPTOMYCINE SULFAAT                             021040005703 B001314003810740(C21H39N7O12)2.3H2SO4              000014574000 0000072870000000000MG   000381074000000000000000000000
07500005711TOBRAMYCINE SULFAAT                               049069005711 W001638049842071(C18H37N5O9)2.5H2SO4               00001425420010000071271000000000MG   004984207100000000000000000000
07500005738COLISTINE SULFAAT                                 038962005738 W001311001264728                                   000000000000 0000000100000000000IE   000126472800000000000000000000
07500005746COLISTINE PENTANATRIUMMESILAAT                    038962005746 W001311008068288C58H105N16Na5O28S5                 000000000000 0000000100000000000IE   000806828800000000000000000000
07500005754POLYMYXINE B SULFAAT                              046868005754 B000543001405205                                   000000000000 0000000130000000000IE   000140520500000000000000000000
07500005762BACITRACINE                                       005762005762SW000341001405874C66H103N17O16S                     000014110000 0000000100000000000IE   000140587400000000000000000000
07500005770TYROTRICINE                                       005770005770SW000000001404882                                   000000000000 0000000000000000000MG   000140488200000000000000000000
07500005789RIFAMPICINE                                       005789005789SW000544013292461C43H58N4O12                        000008230000 0000082300000000000MG   001329246100000000000000000000
07500005797RIFAMYCINE NATRIUM                                047767005797 W000000015105927C37H46NNaO12                       000007198000 0000071980000000000MG   001510592700000000000000000000
07500005800CYCLOSERINE                                       005800005800SW000446000068417C3H6N2O2                           000001021000 0000010210000000000MG   000006841700000000000000000000
07500005819FUSIDINEZUUR 0.5-WATER                            051632005819 W000342000000000C31H48O6.0.5H2O                    000005257000 0000052570000000000MG   000000000000000000000000000000
07500005827FUSIDAAT NATRIUM                                  051632005827 W000342000751940C31H47NaO6                         000005387000 0000053870000000000MG   000075194000000000000000000000
07500005835SPECTINOMYCINE SULFAAT-4-WATER                    048216005835 W000000064058486C14H24N2O7.H2SO4.4H2O              000005025000 0000050250000000000MG   006405848600000000000000000000
07500005843VANCOMYCINE HYDROCHLORIDE                         049573005843 W000345001404939*C66H75Cl2N9O24.HCl*               00001485680010000148568000000000MG   000140493900000000000000000000
07500005851AMFOTERICINE B                                    005851005851SB001405001397893C47H73NO17                         000009241000 0000092410000000000MG   000139789300000000000000000000
07500005878FLUCYTOSINE                                       005878005878SW001618002022857C4H4FN3O                           000001291000 0000012910000000000MG   000202285700000000000000000000
07500005886GRISEOFULVINE                                     005886005886SW000347000126078C17H17ClO6                         000003528000 0000035280000000000MG   000012607800000000000000000000
07500005894NATAMYCINE                                        005894005894SW000000007681938C33H47NO13                         000006657000 0000066570000000000MG   000768193800000000000000000000
07500005908NIFURATEL                                         005908005908SW000000004936474C10H11N3O5S                        000002853000 0000028530000000000MG   000493647400000000000000000000
07500005916NYSTATINE                                         005916005916SW001407001400619C47H75NO17                         000009261000 0000092610000000000E    000140061900000000000000000000
07500005924CHLOORQUINALDOL                                   005924005924SW001408000072800C10H7Cl2NO                         000002281000 0000022810000000000MG   000007280000000000000000000000
07500005932CLIOQUINOL                                        005932005932SW000351000130267C9H5ClINO                          000003055000 0000030550000000000MG   000013026700000000000000000000
07500005959OXYCHINOLINE DIMETILSULFAAT                       045616005959 B000290000000000*C9H7NO.C2H6SO4*                   00000171300010000017130000000000MG   000000000000000000000000000000
07500005975BUCLOSAMIDE                                       005975005975SW000000000575746C11H14ClNO2                        000002277000 0000022770000000000MG   000057574600000000000000000000
07500005983SALICYLZUUR                                       005983005983SB000354000069727C7H6O3                             000001381000 0000013810000000000MG   000006972700000000000000000000
07500005991CLOTRIMAZOL                                       005991005991SW001652023593751C22H17ClN2                         000003448000 0000034480000000000MG   002359375100000000000000000000
07500006009ECONAZOL NITRAAT                                  040118006009 W001702068797319C18H15Cl3N2O.HNO3                  000004447000 0000044470000000000MG   006879731900000000000000000000
07500006017MICONAZOL NITRAAT                                 022535006017 W001498022832877C18H14Cl4N2O.HNO3                  000004791000 0000047910000000000MG   002283287700000000000000000000
07500006033DIAZOXIDE NATRIUM                                 001139006033 W001568000000000*C8H6ClN2O2S*                      00000252700010000025270000000000MG   000000000000000000000000000000
07500006068SULBENTINE                                        006068006068SW000000000350129C17H18N2S2                         000003145000 0000031450000000000MG   000035012900000000000000000000
07500006076TOLNAFTAAT                                        006076006076SW000000002398961C19H17NOS                          000003074000 0000030740000000000MG   000239896100000000000000000000
07500006084UNDECYLEENZUUR                                    006084006084SW000000000112389C11H20O2                           000001843000 0000018430000000000MG   000011238900000000000000000000
07500006092UNDECYLENAAT ZINK                                 006084006092 W000000000557084(C11H19O2)2Zn                      000004319000 0000021600000000000MG   000055708400000000000000000000
07500006106PROPIONAAT NATRIUM                                019364006106 B000000000137406C3H5NaO2                           000000960600 0000009606000000000MG   000013740600000000000000000000
07500006114METRONIDAZOL                                      006114006114SW000364000443481C6H9N3O3                           000001712000 0000017120000000000MG   000044348100000000000000000000
07500006122EMETINE DIHYDROCHLORIDE-0-WATER                   040169006122 W000000000316427C29H40N2O4.2HCl                    000005535700 0000055357000000000MG   000031642700000000000000000000
07500006149CHINIOFON                                         006149006149SW000000008002902C9H6INO4S en NaHCO3 in de verh. 4:1000000000000 0000000000000000000MG   000800290200000000000000000000
07500006157DIJOODHYDROXYCHINOLINE                            006157006157SW000000000083738C9H5I2NO                           000003970000 0000039700000000000MG   000008373800000000000000000000
07500006165FANQUINON                                         006165006165SW000000000084128C12H6N2O2                          000002102000 0000021020000000000MG   000008412800000000000000000000
07500006173PRIMAQUINE DIFOSFAAT                              047120006173 W000381000063456C15H21N3O.2H3PO4                   000004553000 0000045530000000000MG   000006345600000000000000000000
07500006181PROGUANIL HYDROCHLORIDE                           047325006181 W000384000637321C11H16ClN5.HCl                     000002902000 0000029020000000000MG   000063732100000000000000000000
07500006203PYRIMETHAMINE                                     006203006203SW000385000058140C12H13ClN4                         000002487000 0000024870000000000MG   000005814000000000000000000000
07500006211NIMORAZOL                                         006211006211SW000000006506372C9H14N4O3                          000002262000 0000022620000000000MG   000650637200000000000000000000
07500006238TINIDAZOL                                         006238006238SW000000019387918C8H13N3O4S                         000002473000 0000024730000000000MG   001938791800000000000000000000
07500006246PENTAMIDINE                                       006246006246SW000389000100334C19H24N4O2                         000003406000 0000034060000000000MG   000010033400000000000000000000
07500006262BISMUTSUBSALICYLAAT                               006262006262SW000000014882189C7H5BiO4                           000003621100 0000036211000000000MG   001488218900000000000000000000
07500006289AMANTADINE HYDROCHLORIDE                          036463006289 W000399000665667C10H17N.HCl                        000001877100 0000018771000000000MG1  000066566700000000000000000000
07500006297CYTARABINE                                        006297006297SW000400000147944C9H13N3O5                          000002432000 0000024320000000000MG   000014794400000000000000000000
07500006300IDOXURIDINE                                       006300006300SW000000000054422C9H11IN2O5                         000003541000 0000035410000000000MG   000005442200000000000000000000
07500006327TROMANTADINE HYDROCHLORIDE                        049425006327 W000000041544245C16H28N2O2.HCl                     000003169000 0000031690000000000MG   004154424500000000000000000000
07500006335VIDARABINE                                        006335006335SW000000005536174C10H13N5O4                         000002673000 0000026730000000000MG   000553617400000000000000000000
07500006343VIDARABINE DIWATERSTOFFOSFAAT                     006335006343 W000000029984336C10H14N5O7P                        000003472200 0000034722000000000MG   002998433600000000000000000000
07500006378CLOFAZIMINE                                       006378006378SW000405002030639C27H22Cl2N4                        000004734000 0000047340000000000MG   000203063900000000000000000000
07500006386DAPSON                                            006386006386SW001413000080080C12H12N2O2S                        000002483000 0000024830000000000MG   000008008000000000000000000000
07500006394ACEDAPSON                                         006394006394SW000000000077463C16H16N2O4S                        000003324000 0000033240000000000MG   000007746300000000000000000000
07500006416TRIMETHOPRIM                                      006416006416SW001418000738705C14H18N4O3                         000002903000 0000029030000000000MG   000073870500000000000000000000
07500006424SULFAMETHOXAZOL                                   006424006424SW000414000723466C10H11N3O3S                        000002533000 0000025330000000000MG   000072346600000000000000000000
07500006432SULFACETAMIDE                                     006432006432SW000000000144809C8H10N2O3S                         000002142000 0000021420000000000MG   000014480900000000000000000000
07500006440SULFACETAMIDE NATRIUM-1-WATER                     006432006440 W000000006209172C8H9N2NaO3S.H2O                    000002542000 0000025420000000000MG   000620917200000000000000000000
07500006459SULFADIAZINE                                      006459006459SW000409000068359C10H10N4O2S                        000002503000 0000025030000000000MG   000006835900000000000000000000
07500006467SULFADIAZINE NATRIUM                              006459006467 W000409000547320C10H9N4NaO2S                       000002723000 0000027230000000000MG   000054732000000000000000000000
07500006475SULFADICRAMIDE                                    006475006475SW000000000115684C12H14N4O3S                        000002943000 0000029430000000000MG   000011568400000000000000000000
07500006483SULFADIMIDINE                                     006483006483SW000000000057681C12H14N4O2S                        000002783000 0000027830000000000MG   000005768100000000000000000000
07500006491SULFAFURAZOL                                      006491006491SW000000000127695C11H13N3O3S                        000002673000 0000026730000000000MG   000012769500000000000000000000
07500006505SULFAFURAZOL DIOLAMINE                            006491006505 W000000004299609C11H13N3O3S.C4H11NO2               000003724000 0000037240000000000MG   000429960900000000000000000000
07500006513SULFATHIAZOL                                      006513006513SW000000000072140C9H9N3O2S2                         000002553000 0000025530000000000MG   000007214000000000000000000000
07500006521SULFAFURAZOL, N1-ACETYL                           006491006521 W000000000080740C13H15N3O4S                        000003093000 0000030930000000000MG   000008074000000000000000000000
07500006548SULFAMERAZINE                                     006548006548SW000000000127797C11H12N4O2S                        000002643000 0000026430000000000MG   000012779700000000000000000000
07500006556SULFAMERAZINE NATRIUM                             006548006556 W000000000127582C11H11N4NaO2S                      000002863000 0000028630000000000MG   000012758200000000000000000000
07500006564SULFAMETHIZOL                                     006564006564SW000000000144821C9H10N4O2S2                        000002703000 0000027030000000000MG   000014482100000000000000000000
07500006572SULFAMETHIZOL OLAMINE                             006564006572 W000000000000000*C9H10N40O2S2.C2H7NO*              00000331400010000033140000000000MG   000000000000000000000000000000
07500006580SULFANILAMIDE                                     006580006580SW000000000063741C6H8N2O2S                          000001722000 0000017220000000000MG   000006374100000000000000000000
07500006599SULFISOMIDINE                                     006599006599SW000000000515640C12H14N4O2S                        000002783000 0000027830000000000MG   000051564000000000000000000000
07500006602SULFADIMETHOXINE                                  006602006602SW000000000122112C12H14N4O4S                        000003103000 0000031030000000000MG   000012211200000000000000000000
07500006610SULFAFENAZOL                                      006610006610SW000000000526089C15H14N4O2S                        000003144000 0000031440000000000MG   000052608900000000000000000000
07500006629SULFALEEN                                         006629006629SW000000000152476C11H12N4O3S                        000002803000 0000028030000000000MG   000015247600000000000000000000
