09110000008Stamtoedieningsweg met toedieningswegen           BST902T             000058TSITNR    BST902T             000007TSITNR    000000000000000000000000000
09110000009DDD-toedieningsweg met stamtoedieningsweg         BST902T             000022TSITNR    BST902T             000058TSITNR    000000000000000000000000000
09110000034Kruisovergevoelige ongewenste groepen             BST902T             000122TSITNR    BST902T             000122TSITNR    000000000000000000000000000
09110000035Indicatie aarden en ICPC                          BST902T             000040TSITNR    BST380T             000000ICPCNR1   000000000000000000000000000
