090200002000000  NVT NIET VAN TOEPASn.v.t.                   NIET VAN TOEPASSING                                     00000000000
090200002000201ABABW ANTITOXINE B.W.ABW                      ANTITOXINE BINDINGS WAARDE                        G     00000000000
090200002000202AEAE  ANTITOXISCHE EHAE                       ANTITOXISCHE EENHEID                              G     00000000000
090200002000205CMCM  CENTIMETER     cm                       CENTIMETER                                        G     00000000000
090200002000208DODO  DOSIS          dosis                    DOSIS                                             G     00000000000
090200002000211E E   EENHEID        E                        EENHEID                                           G     00000000000
090200002000215G GRAMGRAM           g                        GRAM                                              G     00000000000
090200002000217IEIE  INTERNAT.EENH. IE                       INTERNATIONALE EENHEID                            G     00000000000
090200002000219KGKG  KILOGRAM       kg                       KILOGRAM                                          G     00000000000
090200002000222L L   LITER          l                        LITER                                             G     00000000000
090200002000225M M   METER          m                        METER                                             G     00000000000
090200002000229MGMG  MILLIGRAM      mg                       MILLIGRAM                                         G     00000000000
090200002000231MIMMOLMILLIMOL       mmol                     MILLIMOL                                          G     00000000000
090200002000233MLML  MILLILITER     ml                       MILLILITER                                        G     00000000000
090200002000234MMMM  MILLIMETER     mm                       MILLIMETER                                        G     00000000000
090200002000242PEPLOEPLOUGH EENHEID Plough-E                 PLOUGH EENHEID                                    G     00000000000
090200002000244PUPFU POCK FORM. UNITpfu                      POCK/PLAQUE FORMING UNIT                          G     00000000000
090200002000245STSTUKSTUK           stuk                     STUK                                              G     00000000000
090200002000246CCCCIDCCID50         CCID50                   CELL CULTURE INFECTIVE DOSE 50% (CCID50)          G     00000000000
090200002000247TETB-ETUBERCULIN EENHTB-E                     TUBERCULINE EENHEID                               G     00000000000
090200002000252UGUG  MICROGRAM      ug                       MICROGRAM                                         G     00000000000
090200002000254ULUL  MICROLITER     ul                       MICROLITER                                        G     00000000000
090200002000255UUUSPEUSP EENHEID    USP-E                    USP EENHEID,INCL ANSON,ARMOUR,USNF,WALLACE,WAMPOLEG     00000000000
090200002000290AHAHFEANTIHEMOF.FAC.EAHF-E                    ANTIHEMOFILIE FACTOR EENHEID                      G     00000000000
090200002000292BEBP-EBRITISH PH.EENHBP-E                     BRITISH PHARMACOPOEIA EENHEID                     G     00000000000
090200002000303DRDRUPDRUPPEL        gt                       DRUPPEL                                           G     00000000000
090200002000305KEKIE KALLID.INACT.EHKIE                      KALLIDINOGENASE INACTIVERENDE EENHEID             G     00000000000
090200002000308MKMK  MILJ.KIEMEN    milj.kiem                MILJOEN KIEMEN                                    G     00000000000
090200002000316NINIHENIH-EENHEID    NIH-E                    NATIONAL INSTITUTE OF HEALTH EENHEID              G     00000000000
090200002000332UMUMOLMICROMOL       umol                     MICROMOL                                          G     00000000000
090200002000335CRCHRECRICK-H-R EENH.CHR-E                    CRICK-HARPER-RAPER EENHEID                        G     00000000000
090200002000336CUCL-ECLINISCHE EENH.CL-E                     CLINISCHE EENHEID                                 G     00000000000
090200002000337XXXX  ONBEP. EENHEID onbepaald                ONBEPAALDE EENHEID                                G     00000000000
090200002000338CBCHBECHYMOT.BOURN-EHCHB-E                    CHYMOTRYPSINE BOURNONVILLE EENHEID                G     00000000000
090200002000340NKNKATNANOKATAL      nKat                     NANOKATAL                                         G     00000000000
090200002000341DED-AED-ANTIGEEN EENHDE                       D-ANTIGEEN EENHEID                                G     00000000000
090200002000343VMMM2 VIERKANTE MM   mm2                      VIERKANTE MILLIMETER                              G     00000000000
090200002000344IDID-EIVY DOG EENHEIDIvy dog-E                IVY DOG EENHEID                                   G     00000000000
090200002000345MEME  MILJ. IE       milj. IE                 MILJOEN IE                                        G     00000000000
090200002000346AXAXAEANTI-XA-E      AXa-E                    ANTIFACTOR-XA-ACTIVITEIT EENHEID                  G     00000000000
090200002000347KQKBq KILOBECQUEREL  KBq                      KILOBECQUEREL                                     G     00000000000
090200002000348GQGBq GIGABECQUEREL  GBq                      GIGABECQUEREL                                     G     00000000000
090200002000349CECEL CELLEN         cellen                   CELLEN                                            G     00000000000
090200002000350IRRE.IREACT. INDEX   IR                       REACTIVITEITSINDEX (STALLERGENES)                 G     00000000000
090200002000351GKGENKGEN.KOPIE      gen.k                    GENOOMKOPIEEN                                     G     00000000000
090200002000352TGTGK TERGENKOP      teragenoomkopieen        TERAGENOOMKOPIEEN                                 G     00000000000
090200002000353MUMPFUMILJ. PFU      milj. pfu                MILJOEN PLAQUE FORMING UNITS                      G     00000000000
090200002000354AUAU  ANTIGEEN-EENH  AU                       ANTIGEEN-EENHEID                                  G     00000000000
090200002000356MDMIE MILLI-IE       mIE                      MILLI-INTERNATIONALE EENHEID                      G     00000000000
090200002000357NGNANONANOGRAM       ng                       NANOGRAM                                          G     00000000000
090200002000490VPVERPVERPAKKING     verp.                    VERPAKKING                                        G     00000000000
090200002000500CHCH  CHARRIERE      CHARRIERE                CHARRIERE                                         G     00000000000
090200002000501MQMBq MEGABECQUEREL  MBq                      MEGABECQUEREL                                     G     00000000000
090200002000502C2CM-2VIERKANTE CM   cm2                      VIERKANTE CENTIMETER                              G     00000000000
090200002000504FEFIPEFIP EENHEID    FIP-E                    FIP EENHEID                                       G     00000000000
090200002000505TVTVG TERAVECTORGEN  teravectorgenomen        TERAVECTORGENOMEN                                 G     00000000000
090200004000000      NIET INGEVULD  NIETINGEVULD             NIET INGEVULD                                           00000000000
090200004000001      AMPUL          AMPUL                    AMPUL                                                   00000000000
090200004000002      EAG            EAG                      EAG =VERPAKKING GESCHIKT VOOR EENHEIDSAFLEVERSYST.      00000000000
090200004000003      BLIK           BLIK                     BLIK                                                    00000000000
090200004000004      BUISJE         BUISJE                   BUISJE   (CAPILLAIR)                                    00000000000
090200004000005      ZAKJE + SYSTEEMZAKJE +SYST              ZAKJE INCLUSIEF TOEDIENINGSSYSTEEM                      00000000000
090200004000006      ONBEKEND       ONBEKEND                 ONBEKEND                                                00000000000
090200004000007      NVT            NVT                      NIET VAN TOEPASSING                                     00000000000
090200004000008  V+DPVERST + DOSEERPVERST+DOSEER             VERSTUIVER MET DOSEERPOMP                               00000000000
090200004000009      CILINDER       CILINDER                 CILINDER (GAS)                                          00000000000
090200004000010      COMBINATIE VERPCOMBI VERP               COMBINATIE VERPAKKING (MEERDERE H.PRODUKTEN /VERP)      00000000000
090200004000011      DOOS           DOOS                     DOOS                                                    00000000000
090200004000012  ZAK ZAK            ZAK                      ZAK                                                     00000000000
090200004000013      ENVELOPPE      ENVELOPPE                ENVELOPPE                                              V00000000000
090200004000015      FLES           FLES                     FLES                                                    00000000000
090200004000023      PATROON        PATROON                  PATROON                                                 00000000000
090200004000027      POT            POT                      POT                                                     00000000000
090200004000029      ROL            ROL                      ROL                                                    V00000000000
090200004000035      WEGWERPSPUIT   WEGWERPSPUIT             WEGWERPSPUIT                                            00000000000
090200004000037      STRIP          STRIP                    STRIP                                                   00000000000
090200004000038      VAT            VAT                      VAT >=30L                                               00000000000
090200004000039      VERSTUIVER,HANDVERSTUIVER               VERSTUIVER (HANDVERSTUIVER ZONDER DRIJFGAS)             00000000000
090200004000040      ONVERPAKT      ONVERPAKT                ONVERPAKT                                               00000000000
090200004000041      INJECTIEFLACON INJECTIEFLAC             INJECTIEFLACON                                          00000000000
090200004000042      ZAK >10KG      ZAK >10KG                ZAK >10KG                                               00000000000
090200004000043      DRUPPELVERPAKK.DRUPPELVERP.             DRUPPELVERPAKKING                                       00000000000
090200004000044      KLYSMAFLACON   KLYSMAFLACON             KLYSMAFLACON                                            00000000000
090200004000045      TUBE           TUBE                     TUBE                                                    00000000000
090200004000046      EAV            EAV                      EAV (EENHEIDS AFLEVERING VERPAKKING)                    00000000000
090200004000047      ZAKJE          ZAKJE                    ZAKJE (SACHET)                                          00000000000
090200004000049      VERPAKKING     VERPAKKING               VERPAKKING                                              00000000000
090200004000050      JERRYCAN       JERRYCAN                 JERRYCAN >=5L EN <30L                                   00000000000
090200004000052      AMPUL-SET      AMPUL-SET                AMPUL-SET (AMP INJPOEDER + AMP SOLVENS)                 00000000000
090200004000053      INFUSIE-SET    INFUSIE-SET              INFUSIE-SET                                             00000000000
090200004000055      AMPUL+SPUIT    AMPUL+SPUIT              AMPUL INJECTIEVLOEISTOF MET WEGWERPSPUIT                00000000000
090200004000059      DRUKVERPAKKING DRUKVERPAKK.             VERPAKKING ONDER DRUK (SPUITBUS)                        00000000000
090200004000062      INFUSIEFLACON  INFUSIEFLAC.             INFUSIEFLACON                                           00000000000
090200004000063      CUPJE          CUPJE                    CUPJE  (EAV DRINKBEKER)                                 00000000000
090200004000064      STROOIBUS      STROOIBUS                STROOIBUS                                               00000000000
090200004000069      DOSEERDRUKVERP.DOS.DRUKVERP             DOSEERVERPAKKING ONDER DRUK                             00000000000
090200004000070      INFUSIEZAK     INFUSIEZAK               INFUSIEZAK                                              00000000000
090200004000071      INFUSIEZAK+1P  INFUSIEZAK1P             INFUSIEZAK MET 1 AANPRIKPUNT                            00000000000
090200004000072      INFUSIEZAK+2P  INFUSIEZAK2P             INFUSIEZAK MET 2 AANPRIKPUNTEN                          00000000000
090200004000073      INFUSIEFLES    INFUSIEFLES              INFUSIEFLES                                             00000000000
090200004000074      INJ.FLACON-SET INJ.FLAC-SET             INJECTIEFLACON-SET                                      00000000000
090200004000075      SEALVERPAKKING SEALVERPAKK.             SEALVERPAKKING                                          00000000000
090200004000076      BEREIDING      BEREIDING                BEREIDING                                              M00000000000
090200004000077      FLACON         FLACON                   FLACON                                                  00000000000
090200004000078      MINIM          MINIM                    MINIM                                                   00000000000
090200004000080  APPLAPPLICATOR     APPLICATOR               APPLICATOR                                              00000000000
090200004000099      OVERIGE        OVERIGE                  OVERIGE DEELVERPAKKING OMSCHRIJVING                     00000000000
090200004000100GEGENEGENERATOR      GENERATOR                GENERATOR                                               00000000000
090200004000101      FLACON + KROES FLAC + KROES             FLACON MET KROES                                        00000000000
090200004000102      TUBE IN DOOS   TUBE IN DOOS             TUBE IN DOOS                                            00000000000
090200004000103      POMPFLACON     POMPFLACON               POMPFLACON                                              00000000000
090200004000104      PEN            VOORGEVULDE PEN          VOORGEVULDE PEN                                         00000000000
090200006000000      NIET INGEVULD  NIET INGEVULD            NIET INGEVULD                                           00000000000
090200006000001      EMULSIE CUTAAN EMULSIE V CUTAAN GEBRUIK EMULSIE VOOR CUTAAN GEBRUIK                       C     00000000000
090200006000002      HEMOFILTR. OPL HEMOFILTRATIEOPLOSSING   OPLOSSING VOOR HEMOFILTRATIE                      C  S  00000000000
090200006000004      ORODISP TABLET ORODISPERGEERBARE TABLET ORODISPERGEERBARE TABLET                          C     00000000000
090200006000006      IMPLANT.SPONS  IMPLANTATIESPONS         IMPLANTATIESPONS                                     S  00000000000
090200006000009      DISPERTABLET   DISPERGEERBARE TABLET    DISPERGEERBARE TABLET                             C     00000000000
090200006000010      ZALF           ZALF                     ZALF                                              C     00000000000
090200006000011      ZALF VAGINAAL  ZALF V VAGINAAL GEBRUIK  ZALF VOOR VAGINAAL GEBRUIK                        C     00000000000
090200006000012      ZALF RECTAAL   ZALF VOOR RECTAAL GEBRUIKZALF VOOR RECTAAL GEBRUIK                         C     00000000000
090200006000015      ZALF V INH.DAMPZALF VOOR INHALATIEDAMP  ZALF VOOR INHALATIEDAMP                           C     00000000000
090200006000016      TABLET OMHULD  OMHULDE TABLET           OMHULDE TABLET                                    C     00000000000
090200006000017      GEL OROMUCOSAALGEL OROMUCOSAAL          GEL VOOR OROMUCOSAAL GEBRUIK                      C     00000000000
090200006000018      INJ.EMULSIE    EMULSIE VOOR INJECTIE    EMULSIE VOOR INJECTIE                             C  S  00000000000
090200006000019      CAPSULE ZACHT  CAPSULE, ZACHT           CAPSULE, ZACHT                                    C     00000000000
090200006000021      INJSUSP        SUSPENSIE VOOR INJECTIE  SUSPENSIE VOOR INJECTIE                              S  00000000000
090200006000022      RAD OPL        RADIOFARM. UITGANGSOPL.  RADIOFARMACEUTISCHE UITGANGSOPLOSSING             C  S  00000000000
090200006000023      GENERATOR      RADIONUCLIDE GENERATOR   RADIONUCLIDE GENERATOR                            C  S  00000000000
090200006000024      OPL CUTAAN     OPL VOOR CUTAAN GEBRUIK  OPLOSSING VOOR CUTAAN GEBRUIK                     C     00000000000
090200006000026      VAGINAALSYSTEEMSYSTEEM VAGINAAL GEBRUIK TOEDIENINGSSYSTEEM VOOR VAGINAAL GEBRUIK          C     00000000000
090200006000027      TABLET FO      FILMOMHULDE TABLET       FILMOMHULDE TABLET                                C     00000000000
090200006000028      SUSP OR/RECTAALSUSPENSIE ORAAL/RECTAAL  SUSPENSIE VOOR ORAAL/RECTAAL GEBRUIK              C     00000000000
090200006000029      NEUSDR, SUSP.  NEUSDRUPPELS, SUSPENSIE  NEUSDRUPPELS, SUSPENSIE                           C     00000000000
090200006000031      TAB MSR + TAB  MAAGSAPR TABLET + TABLET MAAGSAPRESISTENTE TABLET + TABLET                 C     00000000000
090200006000032      INF EMULSIE    EMULSIE VOOR INFUSIE     EMULSIE VOOR INFUSIE                              C  S  00000000000
090200006000033      COLLODION      COLLODION                COLLODION                                         C     00000000000
090200006000034      OOGDR, SUSP    OOGDRUPPELS, SUSPENSIE   OOGDRUPPELS, SUSPENSIE                            C  S  00000000000
090200006000035      BEWAAROPL. ORG.BEWAAROPL.VOOR ORGANEN   BEWAAROPLOSSING VOOR ORGANEN                      C     00000000000
090200006000036      IMPLANTATIEGAASIMPLANTATIEGAAS          IMPLANTATIEGAAS                                      S  00000000000
090200006000037      CONC VOOR DRANKCONCENTRAAT VOOR DRANK   CONCENTRAAT VOOR DRANK                            C     00000000000
090200006000038      CV MONDSPOELINGCONCENTR V MONDSPOELING  CONCENTRAAT VOOR MONDSPOELING                           00000000000
090200006000039      P V IMPLSUSP   PDR V IMPLANTATIESUSP    POEDER VOOR IMPLANTATIESUSPENSIE                  C     00000000000
090200006000040      PASTA          PASTA VOOR CUTAAN GEBRUIKPASTA VOOR CUTAAN GEBRUIK                         C     00000000000
090200006000041      MONDPASTA      PASTA OROMUCOSAAL        PASTA VOOR OROMUCOSAAL GEBRUIK                    C     00000000000
090200006000042      GEL GINGIVAAL  GEL GINGIVAAL            GEL VOOR GINGIVAAL GEBRUIK                        C     00000000000
090200006000043      PDR GEL GINGIV.POEDER VOOR GINGIVALE GELPOEDER VOOR GEL VOOR GINGIVAAL GEBRUIK            C     00000000000
090200006000044      PDR V INJSUSP  POEDER INJECTIESUSPENSIE POEDER VOOR SUSPENSIE VOOR INJECTIE               C  S  00000000000
090200006000045      VLST. OROMUCOS.VLST. OROMUCOSAAL        VLOEISTOF VOOR OROMUCOSAAL GEBRUIK                C     00000000000
090200006000046      SPRAY SUBLING. SPRAY SUBLINGUAAL GEBRUIKSPRAY VOOR SUBLINGUAAL GEBRUIK                    C     00000000000
090200006000047      KIT RADIOF PREPKIT VOOR RADIOFARM. PREP.KIT VOOR RADIOFARMACEUTISCH PREPARAAT             C  S  00000000000
090200006000048      OORCREME       OORCREME                 OORCREME                                          C     00000000000
090200006000049      OORGEL         OORGEL                   OORGEL                                            C     00000000000
090200006000051      NEUSCREME      NEUSCREME                NEUSCREME                                         C     00000000000
090200006000052      OOGCREME       OOGCREME                 OOGCREME                                          C     00000000000
090200006000053      AEROSOL(SUSP)  AEROSOL, SUSPENSIE       AEROSOL, SUSPENSIE                                C     00000000000
090200006000054      DRUPPELS OPL   DRUPPELS ORAAL OPLOSSING DRUPPELS VOOR ORAAL GEBRUIK, OPLOSSING            C     00000000000
090200006000055      DRUPPELS SUSP  DRUPPELS ORAAL SUSPENSIE DRUPPELS VOOR ORAAL GEBRUIK, SUSPENSIE            C     00000000000
090200006000056      DRUPPELS EMULS DRUPPELS ORAAL EMULSIE   DRUPPELS VOOR ORAAL GEBRUIK, EMULSIE              C     00000000000
090200006000057      OOGDR, OPL     OOGDRUPPELS, OPLOSSING   OOGDRUPPELS, OPLOSSING                            C  S  00000000000
090200006000058      OOGDR MVA      OOGDRUPPELS VERLENGDE AFGOOGDRUPPELS MET VERLENGDE AFGIFTE                 C  S  00000000000
090200006000059      OORDRUPPELS OPLOORDRUPPELS, OPLOSSING   OORDRUPPELS, OPLOSSING                            C     00000000000
090200006000060      CREME          CREME                    CREME                                             C     00000000000
090200006000061      VAGINAALCREME  CREME V VAGINAAL GEBRUIK CREME VOOR VAGINAAL GEBRUIK                       C     00000000000
090200006000062      CREME RECTAAL  CREME V RECTAAL GEBRUIK  CREME VOOR RECTAAL GEBRUIK                        C     00000000000
090200006000065      OORDRUPPELS SUSOORDRUPPELS, SUSPENSIE   OORDRUPPELS, SUSPENSIE                            C     00000000000
090200006000066      OORDR EMULSIE  OORDRUPPELS, EMULSIE     OORDRUPPELS, EMULSIE                              C     00000000000
090200006000067      OORSPRAY OPL   OORSPRAY, OPLOSSING      OORSPRAY, OPLOSSING                               C     00000000000
090200006000068      OORSPRAY EMULS OORSPRAY, EMULSIE        OORSPRAY, EMULSIE                                 C     00000000000
090200006000069      OORSPRAY SUSP  OORSPRAY, SUSPENSIE      OORSPRAY, SUSPENSIE                               C     00000000000
090200006000071      TABLET OPLOS   OPLOSBARE TABLET         OPLOSBARE TABLET                                  C     00000000000
090200006000072      GEL GASTRO-ENT GEL GASTRO-ENTERAAL      GEL VOOR GASTRO-ENTERAAL GEBRUIK                        00000000000
090200006000073      LYOPHILISAAT   LYOPHILISAAT ORAAL       LYOPHILISAAT VOOR ORAAL GEBRUIK                   C     00000000000
090200006000074      IONTOFORESESYSTSYSTEEM VOOR IONTOFORESE SYSTEEM VOOR IONTOFORESE                                00000000000
090200006000075      MUCOADH BUC TABMUCOADHES. BUCCALE TABLETMUCOADHESIEVE BUCCALE TABLET                      C     00000000000
090200006000076      DISPERSIE V INJDISPERSIE VOOR INJECTIE  DISPERSIE VOOR INJECTIE                           C  S  00000000000
090200006000077      POEDER V WFLIJMPOEDER VOOR WEEFSELLIJM  POEDER VOOR WEEFSELLIJM                              S  00000000000
090200006000078      OPL V WFS LIJM OPL VOOR WEEFSELLIJM     OPLOSSING VOOR WEEFSELLIJM                        C  S  00000000000
090200006000079      INJ/INFOPL     INJECTIE/INFUSIEOPLOSSINGINJECTIE/INFUSIEOPLOSSING                         C  S  00000000000
090200006000080      TABLET BUCCAAL TABLET BUCCAAL           TABLET VOOR BUCCAAL GEBRUIK                       C     00000000000
090200006000081      INFUUS         INFUUS                   INFUUS                                               S  00000000000
090200006000082      INJECTIE       INJECTIE                 INJECTIE                                             S  00000000000
090200006000083      INJECTIE/INFUUSINJECTIE/INFUUS          INJECTIE/INFUUS                                      S  00000000000
090200006000084      OPL PAREN/ORAALOPL PARENTERAAL/ORAAL    OPLOSSING VOOR PARENTERAAL/ORAAL GEBRUIK             S  00000000000
090200006000085      TABLET+KAUWTAB TABLET + KAUWTABLET      TABLET + KAUWTABLET                               C     00000000000
090200006000086      IMPLANT.MATRIX IMPLANTATIEMATRIX        IMPLANTATIEMATRIX                                 C  S  00000000000
090200006000087      PDR SUSP OR/RECPDR SUSP ORAAL/RECTAAL   POEDER VOOR SUSPENSIE VOOR ORAAL/RECTAAL GEBRUIK  C     00000000000
090200006000088      OORPOEDER      OORPOEDER                OORPOEDER                                         C     00000000000
090200006000089      SUSP DENTAAL   SUSPENSIE DENTAAL GEBRUIKSUSPENSIE VOOR DENTAAL GEBRUIK                    C     00000000000
090200006000090      KAUWCAPSULE    KAUWCAPSULE              KAUWCAPSULE                                       C     00000000000
090200006000092      WEEFSEL EQUIV. LEVEND WEEFSEL EQUIVALENTLEVEND WEEFSEL EQUIVALENT                         C  S  00000000000
090200006000093      PASTA ORAAL    PASTA VOOR ORAAL GEBRUIK PASTA VOOR ORAAL GEBRUIK                          C     00000000000
090200006000094      TRANSDERM.SPRAYTRANSDERMALE SPRAY, OPL. SPRAY VOOR TRANSDERMAAL GEBRUIK, OPLOSSING        C     00000000000
090200006000095      INF DISPERSIE  DISPERSIE VOOR INFUSIE   DISPERSIE VOOR INFUSIE                            C  S  00000000000
090200006000096      OOGDR, EMUL    OOGDRUPPELS, EMULSIE     OOGDRUPPELS, EMULSIE                              C  S  00000000000
090200006000097      CONC. ORALE SUSCONC. ORALE SUSPENSIE    CONCENTRAAT VOOR ORALE SUSPENSIE                  C     00000000000
090200006000098      DRANK/MONDSPOELDRANK/MONDSPOELING       DRANK/MONDSPOELING                                      00000000000
090200006000099      NEUSPOEDER     NEUSPOEDER               NEUSPOEDER                                        C     00000000000
090200006000100      ZETPIL         ZETPIL                   ZETPIL                                            C     00000000000
090200006000101      DISP V VERNEVELDISPERSIE VERNEVELVLST   DISPERSIE VOOR VERNEVELVLOEISTOF                  C     00000000000
090200006000102      DISP V INJ MVA DISPERSIE V INJECTIE MVA DISPERSIE VOOR INJECTIE MET VERTRAAGDE AFGIFTE    C  S  00000000000
090200006000103      PDR OPL INTRVESPDR OPL INTRAVESICAAL    POEDER VOOR OPLOSSING VOOR INTRAVESICAAL GEBRUIK  C  S  00000000000
090200006000104      GELINTRA-UTERI GEL INTRA-UTERIEN        GEL VOOR INTRA-UTERIEN GEBRUIK                    C  S  00000000000
090200006000110      OOGZALF        OOGZALF                  OOGZALF                                           C  S  00000000000
090200006000120      OVULE          OVULE                    OVULE                                             C     00000000000
090200006000140      NEUSZALF       NEUSZALF                 NEUSZALF                                          C     00000000000
090200006000151      OORZALF        OORZALF                  OORZALF                                           C     00000000000
090200006000161      GEL VAGINAAL   GEL VOOR VAGINAAL GEBRUIKGEL VOOR VAGINAAL GEBRUIK                         C     00000000000
090200006000162      GEL RECTAAL    GEL VOOR RECTAAL GEBRUIK GEL VOOR RECTAAL GEBRUIK                          C     00000000000
090200006000165      GEL ORAAL      GEL VOOR ORAAL GEBRUIK   GEL VOOR ORAAL GEBRUIK                            C     00000000000
090200006000166      NEUSGEL        NEUSGEL                  NEUSGEL                                           C     00000000000
090200006000167      GEL            GEL                      GEL                                                     00000000000
090200006000169      OOGGEL         OOGGEL                   OOGGEL                                            C  S  00000000000
090200006000171      GEL URETHRAAL  GEL V URETHRAAL GEBRUIK  GEL VOOR URETHRAAL GEBRUIK                        C  S  00000000000
090200006000172      GEL ENDOCERV.  GEL ENDOCERVICAAL        GEL VOOR ENDOCERVICAAL GEBRUIK                    C  S  00000000000
090200006000173      PDR GEL ENDOCERPDR VOOR GEL ENDOCERVIC. POEDER VOOR GEL VOOR ENDOCERVICAAL GEBRUIK              00000000000
090200006000174      INJGEL         GEL VOOR INJECTIE        GEL VOOR INJECTIE                                 C  S  00000000000
090200006000180      CAPSULE MSR    MAAGSAPRESISTENTE CAPSULEMAAGSAPRESISTENTE CAPSULE                         C     00000000000
090200006000190      INHALATIEPOEDERINHALATIEPOEDER          INHALATIEPOEDER                                   C     00000000000
090200006000200      POEDER         POEDER VOOR ORAAL GEBRUIKPOEDER VOOR ORAAL GEBRUIK                         C     00000000000
090200006000201      BRUISPOEDER    BRUISPOEDER              BRUISPOEDER                                       C     00000000000
090200006000213      STROOIPOEDER   STROOIPOEDER             STROOIPOEDER                                      C     00000000000
090200006000214      INHPDR NASAAL  INHALATIEPOEDER NASAAL   INHALATIEPOEDER VOOR NASAAL GEBRUIK               C     00000000000
090200006000217      HUIDSPRAYPOEDERHUIDSPRAY, POEDER        HUIDSPRAY, POEDER                                 C     00000000000
090200006000218      SPRAYPOEDER    SPRAYPOEDER              SPRAYPOEDER                                             00000000000
090200006000224      PDR V OPLOSSINGPOEDER VOOR OPLOSSING    POEDER VOOR OPLOSSING                                   00000000000
090200006000225      POEDER V DRANK POEDER VOOR DRANK        POEDER VOOR DRANK                                 C     00000000000
090200006000226      PDR V SUSPENSIEPOEDER VOOR ORALE SUSP   POEDER VOOR ORALE SUSPENSIE                       C     00000000000
090200006000227      PDR VOOR KLYSMAPOEDER VOOR KLYSMA       POEDER VOOR KLYSMA                                C     00000000000
090200006000229      PDR V INST.VLSTPOEDER INSTILLATIEVLST.  POEDER VOOR INSTILLATIEVLOEISTOF                     S  00000000000
090200006000230      TABLET         TABLET                   TABLET                                            C     00000000000
090200006000231      TAB + BRUISGRANTABLET + BRUISGRANULAAT  TABLET + BRUISGRANULAAT                           C     00000000000
090200006000235      REEP           REEP                     REEP                                                    00000000000
090200006000240      IMPLANT.TABLET IMPLANTATIETABLET        IMPLANTATIETABLET                                 C  S  00000000000
090200006000241      IMPLANTAAT     IMPLANTAAT               IMPLANTAAT                                        C  S  00000000000
090200006000242      IMPLANT.STIFT  IMPLANTATIESTIFT         IMPLANTATIESTIFT                                     S  00000000000
090200006000250      TABLET MSR     MAAGSAPRESISTENTE TABLET MAAGSAPRESISTENTE TABLET                          C     00000000000
090200006000260      KAUWTABLET     KAUWTABLET               KAUWTABLET                                        C     00000000000
090200006000261      KAUWGOM        KAUWGOM                  KAUWGOM                                           C     00000000000
090200006000262      GOMPASTILLE    GOMPASTILLE              GOMPASTILLE                                       C     00000000000
090200006000263      TABLET V OPLOSSTABLET VOOR OPLOSSING    TABLET VOOR OPLOSSING                                   00000000000
090200006000270      BRUISTABLET    BRUISTABLET              BRUISTABLET                                       C     00000000000
090200006000280      DRAGEE         DRAGEE                   DRAGEE                                                  00000000000
090200006000300      CAPSULE        CAPSULE                  CAPSULE                                           C     00000000000
090200006000301      CAPSULE VAGINA CAPSULE VAGINAAL GEBRUIK CAPSULE VOOR VAGINAAL GEBRUIK                     C     00000000000
090200006000302      CAPSULE RECTAALCAPSULE V RECTAAL GEBRUIKCAPSULE VOOR RECTAAL GEBRUIK                      C     00000000000
090200006000303      CACHET         CACHET                   CACHET                                            C     00000000000
090200006000304      CAPSULE OROMUCOCAPSULE OROMUCOSAAL GEBR.CAPSULE VOOR OROMUCOSAAL GEBRUIK                  C     00000000000
090200006000310      TABLET MGA     TABLET M.GEREGUL.AFGIFTE TABLET MET GEREGULEERDE AFGIFTE                   C     00000000000
090200006000330      ZUIGTABLET     ZUIGTABLET               ZUIGTABLET                                        C     00000000000
090200006000331      TABLET SUBLINGUTABLET SUBLINGUAAL       TABLET VOOR SUBLINGUAAL GEBRUIK                   C     00000000000
090200006000350      CAPSULE MGA    CAPSULE M.GEREGUL.AFGIFTECAPSULE MET GEREGULEERDE AFGIFTE                  C     00000000000
090200006000371      GRANULAAT      GRANULAAT                GRANULAAT                                         C     00000000000
090200006000375      GRANULAAT MGA  GRANULAAT MGA            GRANULAAT MET GEREGULEERDE AFGIFTE                C     00000000000
090200006000377      BRUISGRANULAAT BRUISGRANULAAT           BRUISGRANULAAT                                    C     00000000000
090200006000378      GRAN VOOR DRANKGRANULAAT VOOR DRANK     GRANULAAT VOOR DRANK                              C     00000000000
090200006000379      GRAN VOOR SUSP.GRANULAAT VOOR ORALE SUSPGRANULAAT VOOR ORALE SUSPENSIE                    C     00000000000
090200006000380      TABLET VAGINAALTABLET V VAGINAAL GEBRUIKTABLET VOOR VAGINAAL GEBRUIK                      C     00000000000
090200006000382      GRANULAAT MSR  MAAGSAPRESIST. GRANULAAT MAAGSAPRESISTENT GRANULAAT                        C     00000000000
090200006000400      DRANK          DRANK                    DRANK                                             C     00000000000
090200006000403      DRANK/VERNEVELVDRANK/VERNEVELVLOEISTOF  DRANK/VERNEVELVLOEISTOF                           C     00000000000
090200006000405      DRANK/KLYSMACONDRANK/KLYSMACONCENTRAAT  DRANK/CONCENTRAAT VOOR KLYSMA                           00000000000
090200006000410      GORGELDRANK    GORGELDRANK              GORGELDRANK                                       C     00000000000
090200006000420      MONDSPOELING   MONDSPOELING             MONDSPOELING                                      C     00000000000
090200006000421      MAAGSPOELING   MAAGSPOELING             MAAGSPOELING                                      C     00000000000
090200006000430      OPLOSSING      OPLOSSING                OPLOSSING                                               00000000000
090200006000432      VLST V INH.DAMPVLST VOOR INHALATIEDAMP  VLOEISTOF VOOR INHALATIEDAMP                      C     00000000000
090200006000434      VLOEISTOF      VLOEISTOF                VLOEISTOF                                               00000000000
090200006000436      SPOELING URETHRURETHRALE SPOELING       SPOELING VOOR URETHRAAL GEBRUIK                      S  00000000000
090200006000437      CONCV OPLOSSINGCONCENTR. VOOR OPLOSSING CONCENTRAAT VOOR OPLOSSING                              00000000000
090200006000440      BLAASSPOELING  BLAASSPOELING            BLAASSPOELING                                     C  S  00000000000
090200006000450      IRRIGATIEVLST  IRRIGATIEVLOEISTOF       IRRIGATIEVLOEISTOF                                C     00000000000
090200006000460      KLYSMA         KLYSMA                   KLYSMA                                            C     00000000000
090200006000463      CONC V KLYSMA  CONCENTRAAT VOOR KLYSMA  CONCENTRAAT VOOR KLYSMA                           C     00000000000
090200006000464      TABLET V KLYSMATABLET VOOR KLYSMA       TABLET VOOR KLYSMA                                C     00000000000
090200006000470      STROOP         STROOP                   STROOP                                            C     00000000000
090200006000480      SUSP ORAAL     SUSPENSIE ORAAL GEBRUIK  SUSPENSIE VOOR ORAAL GEBRUIK                      C     00000000000
090200006000481      EMULSIE ORAAL  EMULSIE ORAAL            EMULSIE VOOR ORAAL GEBRUIK                        C     00000000000
090200006000482      SUSP CUTAAN    SUSPENSIE CUTAAN         SUSPENSIE VOOR CUTAAN GEBRUIK                     C     00000000000
090200006000485      SUSP.GASTRO-ENTSUSPENSIE GASTRO-ENTERAALSUSPENSIE VOOR GASTRO-ENTERAAL GEBRUIK            C     00000000000
090200006000486      ENDOTR INST SUSENDOTRACH INSTILLATIE SUSENDOTRACHEOPULMONAIRE INSTILLATIE, SUSPENSIE      C  S  00000000000
090200006000491      KRUIDENTHEE    KRUIDENTHEE              KRUIDENTHEE                                       C     00000000000
090200006000500      OOGDRUPPELS    OOGDRUPPELS              OOGDRUPPELS                                          S  00000000000
090200006000510      OORDRUPPELS    OORDRUPPELS              OORDRUPPELS                                             00000000000
090200006000511      OORSPRAY       OORSPRAY                 OORSPRAY                                                00000000000
090200006000520      NEUSDRUPPELS   NEUSDRUPPELS             NEUSDRUPPELS                                            00000000000
090200006000521      NEUSSPRAY      NEUSSPRAY                NEUSSPRAY                                               00000000000
090200006000522      NEUSSPOELING   NEUSSPOELING             NEUSSPOELING                                      C     00000000000
090200006000530      VERNEVELVLST   VERNEVELVLOEISTOF        VERNEVELVLOEISTOF                                       00000000000
090200006000531      AEROSOL        AEROSOL                  AEROSOL                                           C     00000000000
090200006000532      AEROSOL(OPL)   AEROSOL, OPLOSSING       AEROSOL, OPLOSSING                                C     00000000000
090200006000535      INHALATIEGAS   INHALATIEGAS             INHALATIEGAS                                      C     00000000000
090200006000540      INFVLST        INFUSIEVLOEISTOF         INFUSIEVLOEISTOF                                     S  00000000000
090200006000541      INFOPL CONC    CONCENTRAAT INFUSIEOPL   CONCENTRAAT VOOR OPLOSSING VOOR INFUSIE           C  S  00000000000
090200006000550      INJVLST        INJECTIEVLOEISTOF        INJECTIEVLOEISTOF                                    S  00000000000
090200006000551      INJOPL CONC    CONCENTRAAT INJECTIEOPL  CONCENTRAAT VOOR OPLOSSING VOOR INJECTIE          C  S  00000000000
090200006000552      PDR V INJVLST  POEDER INJECTIEVLOEISTOF POEDER VOOR INJECTIEVLOEISTOF                        S  00000000000
090200006000553      INFUSIEPOEDER  POEDER INFUSIEOPL        POEDER VOOR OPLOSSING VOOR INFUSIE                C  S  00000000000
090200006000559      PDR INJ/INFOPL PDR V INJ/INFUSIEOPL     POEDER VOOR INJECTIE/INFUSIEOPLOSSING             C  S  00000000000
090200006000571      HEMODIALYSEOPL.HEMODIALYSEOPLOSSING     OPLOSSING VOOR HEMODIALYSE                        C  S  00000000000
090200006000573      HEMOD.OPL. CONCHEMODIALYSEOPLOSSING CONCCONCENTRAAT VOOR OPLOSSING VOOR HEMODIALYSE       C  S  00000000000
090200006000574      PERIT.DIAL.OPL.PERITONEAALDIALYSEOPL    OPLOSSING VOOR PERITONEALE DIALYSE                C  S  00000000000
090200006000575      HEMOFILTR/DIAL.HEMOFILTR/HEMODIALYSEOPL.OPLOSSING VOOR HEMOFILTRATIE/HEMODIALYSE          C  S  00000000000
090200006000590      DRUPPELS       DRUPPELS V ORAAL GEBRUIK DRUPPELS VOOR ORAAL GEBRUIK                             00000000000
090200006000591      DRUPPELS OROMUCDRUPPELS OROMUCOSAAL     DRUPPELS VOOR OROMUCOSAAL GEBRUIK                 C     00000000000
090200006000602      SPRAY          SPRAY                    SPRAY                                                   00000000000
090200006000611      SPOELING       SPOELING                 SPOELING                                                00000000000
090200006000613      PDR V MONDSPOELPOEDER MONDSPOELING      POEDER VOOR MONDSPOELING                          C     00000000000
090200006000621      INSTILLATIEVLSTINSTILLATIEVLOEISTOF     INSTILLATIEVLOEISTOF                                 S  00000000000
090200006000630      OOGWASSING     OOGWASSING               OOGWASSING                                        C  S  00000000000
090200006000652      HUIDSPRAY      HUIDSPRAY                HUIDSPRAY                                               00000000000
090200006000654      SPRAY OROMUCOS SPRAY OROMUCOSAAL GEBRUIKSPRAY VOOR OROMUCOSAAL GEBRUIK                    C     00000000000
090200006000656      ENDOTR INST OPLENDOTRACH INSTILLATIE OPLENDOTRACHEOPULMONAIRE INSTILLATIE, OPLOSSING      C     00000000000
090200006000657      VLST VAGINAAL  VLOEISTOF, VAGINAAL      VLOEISTOF VOOR VAGINAAL GEBRUIK                         00000000000
090200006000658      ENDOTR INST PVSENDOTR INST PDR V SUSP   ENDOTRACHEOPULMONAIRE INSTILLATIE, PDR V SUSPENSIEC     00000000000
090200006000660      OPLOSMID PARENTOPLOSMIDDEL PARENTERAAL  OPLOSMIDDEL VOOR PARENTERAAL GEBRUIK              C  S  00000000000
090200006000710      SHAMPOO        SHAMPOO                  SHAMPOO                                           C     00000000000
090200006000715      SPONS          SPONS                    SPONS                                                   00000000000
090200006000720      HUIDSTIFT      HUIDSTIFT                HUIDSTIFT                                         C     00000000000
090200006000721      OORSTIFT       OORSTIFT                 OORSTIFT                                          C     00000000000
090200006000722      URETHRAALSTIFT URETHRAALSTIFT           STIFT VOOR URETHRAAL GEBRUIK                      C  S  00000000000
090200006000723      NEUSSTIFT      NEUSSTIFT                NEUSSTIFT                                         C     00000000000
090200006000724      OOGINSERT      OOGINSERT                OOGINSERT                                         C  S  00000000000
090200006000726      STIFT DENTAAL  STIFT DENTAAL GEBRUIK    STIFT VOOR DENTAAL GEBRUIK                        C     00000000000
090200006000730      SCHUIM CUTAAN  SCHUIM CUTAAN            SCHUIM VOOR CUTAAN GEBRUIK                        C     00000000000
090200006000731      SCHUIM VAGINAALSCHUIM V VAGINAAL GEBRUIKSCHUIM VOOR VAGINAAL GEBRUIK                      C     00000000000
090200006000732      SCHUIM RECTAAL SCHUIM V RECTAAL GEBRUIK SCHUIM VOOR RECTAAL GEBRUIK                       C     00000000000
090200006000740      TANDPASTA      TANDPASTA                TANDPASTA                                         C     00000000000
090200006000741      POEDER DENTAAL POEDER DENTAAL GEBRUIK   POEDER VOOR DENTAAL GEBRUIK                       C     00000000000
090200006000743      GEL DENTAAL    GEL VOOR DENTAAL GEBRUIK GEL VOOR DENTAAL GEBRUIK                          C     00000000000
090200006000744      VLST DENTAAL   VLOEISTOF DENTAAL GEBRUIKVLOEISTOF VOOR DENTAAL GEBRUIK                          00000000000
090200006000751      PLEISTER       PLEISTER                 PLEISTER                                          C     00000000000
090200006000752      PLEISTER TRD   PLEISTER TRANSDERMAAL    PLEISTER VOOR TRANSDERMAAL GEBRUIK                C     00000000000
090200006000753      VERBAND GEIMPR.GEIMPREGNEERD VERBANDGAASGEIMPREGNEERD VERBANDGAAS                         C  S  00000000000
090200006000754      WATTEN GEIMPREGWATTEN, GEIMPREGNEERD    WATTEN, GEIMPREGNEERD                             C     00000000000
090200006000756      POEDER V CEMENTPOEDER VOOR CEMENT       POEDER VOOR CEMENT                                   S  00000000000
090200006000760      IUD            IUD                      IUD (INTRA UTERINE DEVICE)                           S  00000000000
090200006000770      TAMPON         TAMPON                   TAMPON                                                  00000000000
090200006000772      TAMPON GEIMPR. TAMPON, GEIMPREGNEERD    TAMPON, GEIMPREGNEERD                                   00000000000
090200006000774      TAMPON VAGINAALTAMPON V.VAGINAAL GEBRUIKTAMPON VOOR VAGINAAL GEBRUIK                      C     00000000000
090200006000784      SPOEL. INTRAOC.SPOELING INTRA-OCULAIR   SPOELING VOOR INTRA-OCULAIR GEBRUIK                  S  00000000000
090200006000785      INSTILL.INTRAOCINSTILLATIE INTRA-OCULAIRINSTILLATIEVLOEISTOF VOOR INTRA-OCULAIR GEBRUIK      S  00000000000
090200006000800      PDR V VERNEVELVPOEDER V VERNEVELVLOEIST POEDER VOOR VERNEVELVLOEISTOF                        S  00000000000
090200006000801      TRANSDERMSYST  SYST VOOR TRANSDERM GEBR SYSTEEM VOOR TRANSDERMAAL GEBRUIK                 C     00000000000
090200006000807      POEDER VOOR GELPOEDER VOOR GEL          POEDER VOOR GEL                                   C     00000000000
090200006000810      ORODISP FILM   ORODISPERGEERBARE FILM   ORODISPERGEERBARE FILM                            C     00000000000
090200006000900      OLIE CUTAAN    OLIE VOOR CUTAAN GEBRUIK OLIE VOOR CUTAAN GEBRUIK                                00000000000
090200006000904      WEEFSELLIJM    WEEFSELLIJM              WEEFSELLIJM                                       C  S  00000000000
090200006000905      TAB MSR + MGA  MAAGSAPR TABLET MGA      MAAGSAPRESISTENTE TABLET MET GEREGULEERDE AFGIFTE C     00000000000
090200006000906      IMPLANT.SUSP.  SUSPENSIE VOOR IMPLANTATISUSPENSIE VOOR IMPLANTATIE                        C  S  00000000000
090200006000910      IMPLANT.KETTINGIMPLANTATIEKETTING       IMPLANTATIEKETTING                                C  S  00000000000
090200006000911      SUSP RECTAAL   SUSPENSIE RECTAAL GEBRUIKSUSPENSIE VOOR RECTAAL GEBRUIK                    C     00000000000
090200006000920      IMPLANT.KRAAL  IMPLANTATIEKRAAL         IMPLANTATIEKRAAL                                     S  00000000000
090200006000980      NVT            NIET VAN TOEPASSING      NIET VAN TOEPASSING                                     00000000000
090200006000981      OOR-/OOGDR, OPLOOR-/OOGDRUPPELS, OPL    OOR-/OOGDRUPPELS, OPLOSSING                       C  S  00000000000
090200006000985      MSR PDR V SUSPEMSR POEDER V ORALE SUSPENMAAGSAPRESISTENT POEDER VOOR ORALE SUSPENSIE      C     00000000000
090230006000986      OPL V HDPRKTESTOPL VOOR HUIDPRIKTEST    OPLOSSING VOOR HUIDPRIKTEST                       C  S  00000000000
090200006000991      POEDER LOKAAL  POEDER LOKAAL GEBRUIK    POEDER VOOR LOKAAL GEBRUIK                              00000000000
090200006000992      TAB+TAB VAGIN. TABLET + TABLET VAGINAAL TABLET + TABLET VOOR VAGINAAL GEBRUIK             C     00000000000
090200006000993      WEEFSELLIJM MATWEEFSELLIJM MATRIX       WEEFSELLIJM MATRIX                                C  S  00000000000
090200006000994      KAUW-/DISPERTABKAUW-/DISPERTABLET       KAUW-/DISPERGEERBARE TABLET                       C     00000000000
090200006000995      PASTILLE       PASTILLE                 PASTILLE                                                00000000000
090200006000996      DRUPPELS SUBLINDRUPPELS SUBLINGUAAL     DRUPPELS VOOR SUBLINGUAAL GEBRUIK                       00000000000
090200006000997      INJ/INFOPL CONCCONCENTRAAT INJ/INFOPL   CONCENTRAAT VOOR OPLOSSING VOOR INJECTIE/INFUSIE  C  S  00000000000
090200006000998      GAS OPLOSM DISPGAS OPLOSM DISP INJ/INF  GAS EN OPLOSMIDDEL VOOR DISPERSIE INJECTIE/INFUSIEC  S  00000000000
090200006000999      CUTANE OPL.CONCCUTANE OPLOSSING CONC    CONCENTRAAT VOOR OPLOSSING VOOR CUTAAN GEBRUIK    C     00000000000
090200007000000      NIET INGEVULD  NIET INGEV.              TOEDIENINGSWEG NIET INGEVULD                            00000000000
090200007000001      NIET VAN TOEPASNVT                      NIET VAN TOEPASSING                               C     00000000000
090200007000002      INTRAMUSCULAIR IM                       INTRAMUSCULAIR                                    C     00000000000
090200007000005      INTRAVENEUS    IV                       INTRAVENEUS                                       C     00000000000
090200007000006      NASAAL         NEUS                     NASAAL                                            C     00000000000
090200007000007      OCULAIR        OOG                      OCULAIR                                           C     00000000000
090200007000008      AURICULAIR     OOR                      AURICULAIR                                        C     00000000000
090200007000009      ORAAL          ORAAL                    ORAAL                                             C     00000000000
090200007000010      PARENTERAAL    PARENTERAAL              PARENTERAAL                                         M   00000000000
090200007000011      INTRAPERITONEAAPERITONEAAL              INTRAPERITONEAAL                                  C     00000000000
090200007000012      RECTAAL        RECTAAL                  RECTAAL                                           C     00000000000
090200007000013      CUTAAN/ORAAL   CUT/ORAAL                CUTAAN, ORAAL                                       M   00000000000
090200007000014      IM/OOG/SC      IM/OOG/SC                INTRAMUSCULAIR, OCULAIR, SUBCUTAAN                  M   00000000000
090200007000018      IM/IV          IM/IV                    INTRAMUSCULAIR, INTRAVENEUS                         M   00000000000
090200007000021      SUBCUTAAN      SUBCUTAAN                SUBCUTAAN                                         C     00000000000
090200007000024      INTRADERMAAL   INTRADERM                INTRADERMAAL                                      C     00000000000
090200007000030      IV/SC          IV/SC                    INTRAVENEUS, SUBCUTAAN                              M   00000000000
090200007000034      OROMUCOSAAL    OROMUCOSAAL              OROMUCOSAAL                                       C     00000000000
090200007000038      VAGINAAL       VAGINAAL                 VAGINAAL                                          C     00000000000
090200007000041      INTRATHECAAL   INTRATHEC.               INTRATHECAAL                                      C     00000000000
090200007000043      IM/SC          IM/SC                    INTRAMUSCULAIR, SUBCUTAAN                           M   00000000000
090200007000050      EPIDURAAL      EPIDURAAL                EPIDURAAL                                         C     00000000000
090200007000052      INTRA-ARTERIEELARTERIEEL                INTRA-ARTERIEEL                                   C     00000000000
090200007000053      CUTAAN         CUTAAN                   CUTAAN                                            C     00000000000
090200007000054      GASTRO-ENTERAALGASTR-ENTER              GASTRO-ENTERAAL                                   C     00000000000
090200007000055      INTRA-ARTICUL. INTRA-ART.               INTRA-ARTICULAIR                                  C     00000000000
090200007000058      TRANSDERMAAL   TRANSDERML               TRANSDERMAAL                                      C     00000000000
090200007000059      PERINEURAAL    PERINEURAAL              PERINEURAAL                                       C     00000000000
090200007000060      INTRAPLEURAAL  PLEURAAL                 INTRAPLEURAAL                                     C     00000000000
090200007000061      INTRASTERNAAL  STERNAAL                 INTRASTERNAAL                                     C     00000000000
090200007000062      INHALATIE      INHALATIE                INHALATIE                                         C     00000000000
090200007000063      URETHRAAL      URETHRAAL                URETHRAAL                                         C     00000000000
090200007000064      INT-ARTICUL/IM INT-ARTI/IM              INTRA-ARTICULAIR, INTRAMUSCULAIR                    M   00000000000
090200007000070      OROFARYNGEAAL  OROFARYNGEA              OROFARYNGEAAL                                     C     00000000000
090200007000072      INTRACARDIAAL  CARDIAAL                 INTRACARDIAAL                                     C     00000000000
090200007000073      INTRADISCAAL   DISCAAL                  INTRADISCAAL                                      C     00000000000
090200007000074      INTRALAESIONAALLESIONAAL                INTRALAESIONAAL                                   C     00000000000
090200007000075      LOKAAL         LOKAAL                   LOKAAL                                                  00000000000
090200007000076      EXTRA-AMNIONAALEXTRA-AMN                EXTRA-AMNIONAAL                                   C     00000000000
090200007000077      INTRA-AMNIONAALINTRA-AMN                INTRA-AMNIONAAL                                   C     00000000000
090200007000078      HEMODIALYSE    HEMODIALYSE              HEMODIALYSE                                       C     00000000000
090200007000079      ORAAL/OROMUCOS.OR/OROMUCOS              ORAAL, OROMUCOSAAL                                  M   00000000000
090200007000094      ARTERIEEL/IV   ARTERIE/IV               INTRA-ARTERIEEL, INTRAVENEUS                        M   00000000000
090200007000097      NIET GESPECIF. NIET GESPEC              NIET GESPECIFICEERD OF MEERVOUDIG                       00000000000
090200007000100      IT/PA          IT/PA                    INTRATHECAAL, PARENTERAAL                           M   00000000000
090200007000107      ORAAL/RECTAAL  ORAAL/RECT               ORAAL, RECTAAL                                      M   00000000000
090200007000109      ARTICUL/LESIONAARTI/LESION              INTRA-ARTICULAIR, INTRALAESIONAAL                   M   00000000000
090200007000110      DENTAAL        DENTAAL                  DENTAAL                                           C     00000000000
090200007000111      EPI/PERINEURAALEPI/PERINEU              EPIDURAAL, PERINEURAAL                              M   00000000000
090200007000112      ORAAL/INHALATIEORAAL/INHAL              ORAAL, INHALATIE                                    M   00000000000
090200007000113      INTRA-OCULAIR  INTRA-OCUL.              INTRA-OCULAIR                                     C     00000000000
090200007000115      INTRA-UTERIEN  UTERIEN                  INTRA-UTERIEN                                     C     00000000000
090200007000116      INTRALYMFATISCHLYMFATISCH               INTRALYMFATISCH                                   C     00000000000
090200007000117      S-CONJUNCTIVAALSUBCONJUNCT              SUBCONJUNCTIVAAL                                  C     00000000000
090200007000121      SUBLINGUAAL    SUBLINGUAAL              SUBLINGUAAL                                       C     00000000000
090200007000124      INTRACORONAIR  INTRACORON.              INTRACORONAIR                                     C     00000000000
090200007000126      INTRABURSAAL   INTRABURS.               INTRABURSAAL                                      C     00000000000
090200007000127      PERI-ARTICULAIRPERI-ARTIC.              PERI-ARTICULAIR                                   C     00000000000
090200007000128      INTRAVITREAAL  INTRAVITR.               INTRAVITREAAL                                     C     00000000000
090200007000129      INTRACERVICAAL INTRACERVIC              INTRACERVICAAL                                    C     00000000000
090200007000130      INTRAVESICAAL  INTRAVESIC.              INTRAVESICAAL                                     C     00000000000
090200007000131      IM/INTRA-AMNIONIM/INTRA-AM              INTRAMUSCULAIR, INTRA-AMNIONAAL                     M   00000000000
090200007000133      IV/INTRAVESICALIV/INTRAVES              INTRAVENEUS, INTRAVESICAAL                          M   00000000000
090200007000135      INTRACAVERNEUS INTRACAV                 INTRACAVERNEUS                                    C     00000000000
090200007000136      EPIDURAAL/IV   EPIDUR/IV                EPIDURAAL, INTRAVENEUS                              M   00000000000
090200007000137      PERIBULBAIR    PERIBULBAIR              PERIBULBAIR                                             00000000000
090200007000138      SUBC/INTRA-ART SUBC/IN.ART              SUBCUTAAN, INTRA-ARTERIEEL                          M   00000000000
090200007000141      IV/INTRCARDIAALIV/CARDIAAL              INTRAVENEUS, INTRACARDIAAL                          M   00000000000
090200007000142      SC/INTRADERMAALSC/INTRDERM              SUBCUTAAN, INTRADERMAAL                             M   00000000000
090200007000144      EPI/INTRAT/PERIEPI/IT/PERI              EPIDURAAL, INTRATHECAAL, PERINEURAAL                M   00000000000
090200007000146      IV/ORAAL/INHAL.IV/OR/INHAL              INTRAVENEUS, ORAAL, INHALATIE                       M   00000000000
090200007000147      IV/ORAAL       IV/ORAAL                 INTRAVENEUS, ORAAL                                  M   00000000000
090200007000149      GINGIVAAL      GINGIVAAL                GINGIVAAL                                         C     00000000000
090200007000150      ENDOTRACHEOPULMENDOTR.PULM              ENDOTRACHEOPULMONAIR                              C     00000000000
090200007000151      ENDOCERVICAAL  ENDOCERVIC               ENDOCERVICAAL                                     C     00000000000
090200007000152      PARENT/RECT    PARENT/RECT              PARENTERAAL,RECTAAL                                 M   00000000000
090200007000153      INTRATUMORAAL  INTRATUMOR.              INTRATUMORAAL                                     C     00000000000
090200007000154      EXTRACORPORAAL EXTRACORP.               EXTRACORPORAAL                                    C     00000000000
090200007000155      VOOR IMPLANT.  IMPLANTATIE              VOOR IMPLANTATIE                                  C     00000000000
090200007000156      PAR./ORAAL     PAR./ORAAL               PARENTERAAL,ORAAL                                   M   00000000000
090200007000157      PAR/UTERIEN    PAR/UTERIEN              PARENTERAAL, INTRA-UTERIEN                          M   00000000000
090200007000158      EPILESIONAAL   EPILESION                EPILESIONAAL                                      C     00000000000
090200007000159      PAR/VESICAL    PAR/VESICAL              PARENTERAAL, INTRAVESICAAL                          M   00000000000
090200007000160      SUBMUCOSAAL    SUBMUCOSAAL              SUBMUCOSAAL                                       C     00000000000
090200007000161      INTRAOSSAAL    INTRAOSSAAL              INTRAOSSAAL                                       C     00000000000
090200007000162      RETROBULBAIR   RETROBULBAIR             RETROBULBAIR                                      C     00000000000
090200007000163      PARABULBAIR    PARABULBAIR              PARABULBAIR                                             00000000000
090200007000164      PERITUMORAAL   PERITUMORAAL             PERITUMORAAL                                      C     00000000000
090200007000165      INTRACEREBRAAL INTRACEREBRAAL           INTRACEREBRAAL                                    C     00000000000
090200007000166      INTRAPERICA    PERICARDIAAL             INTRAPERICARDIAAL                                 C     00000000000
090200007000167      INTRATYMPANAAL INTRATYMPANAAL           INTRATYMPANAAL                                          00000000000
090200007000168      SUBRETINAAL    SUBRETINAAL              SUBRETINAAL                                       C     00000000000
090200007000169      SUBLING, OROMUCSUBLINGUAAL, OROMUCOSAAL SUBLINGUAAL, OROMUCOSAAL                            M   00000000000
090200007000170      INTRACAMERAAL  INTRACAMERAAL            INTRACAMERAAL                                     C     00000000000
090200007000171      AURI-, OCULAIR AURICULAIR, OCULAIR      AURICULAIR, OCULAIR                                 M   00000000000
090230007000172      INTRAEPIDERMAALINTRAEPIDERMAAL          INTRAEPIDERMAAL                                   C     00000000000
090200008000000  NVT NIET VAN TOEPASn.v.t.                   EENHEID STERKTE NIET VAN TOEPASSING                     00000000000
090200008000001  ULSTMICROLITER/STUKul/st                    MICROLITER / STUK                                       00000000000
090200008000002  G DOGRAM/DOSIS     g/dosis                  GRAM / DOSIS                                            00000000000
090200008000003  ULMLMICROLITER/ML  ul/ml                    MICROLITER / MILLILITER                                 00000000000
090200008000501  ABMLANTITOXIN-BW/MLABW/ml                   ANTITOXINE BINDINGSWAARDE / MILLILITER                  00000000000
090200008000502  AEMLANTITOXIS.-E/MLAE/ml                    ANTITOXISCHE EENHEDEN / MILLILITER                      00000000000
090200008000506  E G EENHEDEN/GRAM  E/g                      EENHEDEN / GRAM                                         00000000000
090200008000507  E MGEENHEDEN/MG    E/mg                     EENHEDEN / MILLIGRAM                                    00000000000
090200008000508  E MLEENHEDEN/ML    E/ml                     EENHEDEN / MILLILITER                                   00000000000
090200008000509  E STEENHEDEN/STUK  E/st                     EENHEDEN / STUK                                         00000000000
090200008000511  G G GRAM/GRAM      g/g                      GRAM / GRAM                                             00000000000
090200008000512  G MLGRAM/ML        g/ml                     GRAM / MILLILITER                                       00000000000
090200008000513  G STGRAM/STUK      g/st                     GRAM / STUK                                             00000000000
090200008000514  HEG HDB-E/GRAM     HDB-E/g                  HEPARINOID BAYER EENHEDEN / GRAM                        00000000000
090200008000515  IEG IE/GRAM        IE/g                     INTERNATIONALE EENHEDEN / GRAM                          00000000000
090200008000516  IEMLIE/ML          IE/ml                    INTERNATIONALE EENHEDEN / MILLILITER                    00000000000
090200008000517  IESTIE/STUK        IE/st                    INTERNATIONALE EENHEDEN / STUK                          00000000000
090200008000518  IEVPIE/VERP        IE/verp.                 INTERNATIONALE EENHEDEN / VERPAKKING                    00000000000
090200008000522  MKMLMEGAKIEMEN/ML  Mkiem./ml                MEGAKIEMEN / MILLILITER                                 00000000000
090200008000524  MGG MILLIGRAM/GRAM mg/g                     MILLIGRAM / GRAM                                        00000000000
090200008000525  MGMLMILLIGRAM/ML   mg/ml                    MILLIGRAM / MILLILITER                                  00000000000
090200008000526  MGSTMILLIGRAM/STUK mg/st                    MILLIGRAM / STUK                                        00000000000
090200008000527  MOSTMOL/STUK       mol/st                   MOL / STUK                                              00000000000
090200008000528  MIMLMILLIMOL/ML    mmol/ml                  MILLIMOL / MILLILITER             (=MOL/L,=MOLAIR)      00000000000
090200008000529  PUMLPOCK FORM.-U/MLpfu/ml                   POCK,PLAQUE FORMING UNITS / MILLILITER                  00000000000
090200008000531  CCMLCCID50/Ml      CCID50/ml                CELL CULTURE INFECTIVE DOSE 50% / MILLILITER            00000000000
090200008000532  TEMLTUBERCULIN-E/MLtub-E/ml                 TUBERCULINE EENHEDEN / MILLILITER                       00000000000
090200008000534  UGG MICROGRAM/GRAM ug/g                     MICROGRAM / GRAM                                        00000000000
090200008000535  UGMLMICROGRAM/ML   ug/ml                    MICROGRAM / MILLILITER                                  00000000000
090200008000536  UGSTMICROGRAM/STUK ug/st                    MICROGRAM / STUK                                        00000000000
090200008000537  UML MICROMOL/L     umol/l                   MICROMOL / LITER                                        00000000000
090200008000538  UUMLUSP-E/ML       USP-E/ml                 USP EENHEDEN / MILLILITER                               00000000000
090200008000554  KEMLKALL.INACT-E/MLKIE/ml                   KALLIDINOGENASE INACTIVERENDE EENHEDEN / ML             00000000000
090200008000556  LFMLLIMES FLOC.E/MLLf/ml                    LIMES FLOCCULATIE EQUIVALENT / MILLILITER               00000000000
090200008000558  UGDOMICROGRAM/DOSISug/dosis                 MICROGRAM / DOSIS                                       00000000000
090200008000559  UKMGMICROKATAL/MG  uKat/mg                  MICROKATAL / MILLIGRAM     (ZIE NED.PH.8, BLZ 522)      00000000000
090200008000563  NIMLNIH-E/ML       NIH-E/ml                 NATIONAL INSTITUTE OF HEALTH EENHEDEN / MILLILITER      00000000000
090200008000564  IEDOIE/DOSIS       IE/dosis                 INTERNATIONALE EENHEDEN / DOSIS                         00000000000
090200008000565  PEMLPLOUGH-E/ML    Plou.E/ml                PLOUGH EENHEDEN / MILLILITER                            00000000000
090200008000568  UGDRMICROGRAM/DRUPPug/gt                    MICROGRAM / DRUPPEL                                     00000000000
090200008000570  NEMLNOON-E/ML      Noon-E/ml                NOON EENHEDEN / MILLILITER                              00000000000
090200008000571  CHMLCRICK-H-R EH/MLCHR-E/ml                 CRICK-HARPER-RAPER EENHEDEN / MILLILITER                00000000000
090200008000572  CUMLCLINISCHE-E/ML CL-E/ml                  CLINISCHE EENHEDEN / MILLILITER                         00000000000
090200008000573  XXG XX/GRAM        XX/g                     ONBEPAALDE EENHEID / GRAM                               00000000000
090200008000574  XXMLXX/ML          XX/ml                    ONBEPAALDE EENHEID / MILLILITER                         00000000000
090200008000575  XXSTXX/STUK        XX/st                    ONBEPAALDE EENHEID / STUK                               00000000000
090200008000576  FEG FIP-E/GRAM     FIP-E/g                  FIP EENHEDEN / GRAM                                     00000000000
090200008000577  FEMLFIP-E/ML       FIP-E/ml                 FIP EENHEDEN / MILLILITER                               00000000000
090200008000578  FESTFIP-E/STUK     FIP-E/st                 FIP EENHEDEN / STUK                                     00000000000
090200008000593  J G JOULE/GRAM     J/g                      JOULE / GRAM                                            00000000000
090200008000594  J MLJOULE/ML       J/ml                     JOULE / MILLILITER                                      00000000000
090200008000595  J STJOULE/STUK     J/st                     JOULE / STUK                                            00000000000
090200008000596  LEG LEVY-E/GRAM    Levy-E/g                 LEVY EENHEDEN / GRAM                                    00000000000
090200008000597  LEMLLEVY-E/ML      Levy-E/ml                LEVY EENHEDEN / MILLILITER                              00000000000
090200008000598  LESTLEVY-E/STUK    Levy-E/st                LEVY EENHEDEN / STUK                                    00000000000
090200008000599  WEG WILLSTAT-E/GRAMWils.E/g                 WILLSTATTER EENHEDEN / GRAM                             00000000000
090200008000601  WEMLWILLSTAT-E/ML  Wils.E/ml                WILLSTATTER EENHEDEN / MILLILITER                       00000000000
090200008000602  WESTWILLSTAT-E/STUKWils.E/st                WILLSTATTER EENHEDEN / STUK                             00000000000
090200008000603  MQG MEGABECQUER./G MBq/g                    MEGABECQUEREL / GRAM                                    00000000000
090200008000604  MQMLMEGABECQUER./MLMBq/ml                   MEGABECQUEREL / MILLILITER                              00000000000
090200008000605  MQSTMEGABECQUER./STMBq/st                   MEGABECQUEREL / STUK                                    00000000000
090200008000606  BEG BP-E/GRAM      BP-E/g                   BRITISH PHARMACOPOEIA EENHEDEN / GRAM                   00000000000
090200008000607  BEMLBP-E/ML        BP-E/ml                  BRITISH PHARMACOPOEIA EENHEDEN / MILLILITER             00000000000
090200008000608  BESTBP-E/STUK      BP-E/st                  BRITISH PHARMACOPOEIA EENHEDEN / STUK                   00000000000
090200008000616  AHG AHF-E/GRAM     AHF-E/g                  ANTIHEMOFILIE FACTOR EENHEDEN / GRAM                    00000000000
090200008000617  AHMLAHF-E/ML       AHF-E/ml                 ANTIHEMOFILIE FACTOR EENHEDEN / MILLILITER              00000000000
090200008000618  AHSTAHF-E/STUK     AHF-E/st                 ANTIHEMOFILIE FACTOR EENHEDEN / STUK                    00000000000
090200008000623  ABG ANTITOXIN-BW/G ABW/g                    ANTITOXINE BINDINGSWAARDE / GRAM                        00000000000
090200008000624  ABSTANTITOXIN-BW/STABW/st                   ANTITOXINE BINDINGSWAARDE / STUK                        00000000000
090200008000625  AEG ANTITOXIS.-E/G AE/g                     ANTITOXISCHE EENHEDEN / GRAM                            00000000000
090200008000626  AESTANTITOXIS.-E/STAE/st                    ANTITOXISCHE EENHEDEN / STUK                            00000000000
090200008000627  CUG CLINISCHE-E/G  CL-E/g                   CLINISCHE EENHEDEN / GRAM                               00000000000
090200008000628  CUSTCLINISCHE-E/ST CL-E/st                  CLINISCHE EENHEDEN / STUK                               00000000000
090200008000632  CHG CRICK-H-R EH/G CHR-E/g                  CRICK-HARPER-RAPER EENHEDEN / GRAM                      00000000000
090200008000633  CHSTCRICK-H-R EH/STCHR-E/st                 CRICK-HARPER-RAPER EENHEDEN / STUK                      00000000000
090200008000634  E DOEENHEDEN/DOSIS E/dosis                  EENHEDEN / DOSIS                                        00000000000
090200008000635  E DREENHEDEN/DRUPP.E/gt                     EENHEDEN / DRUPPEL                                      00000000000
090200008000636  IEDRIE/DRUPPEL     IE/gt                    INTERNATIONALE EENHEDEN / DRUPPEL                       00000000000
090200008000637  MKG MEGAKIEMEN/GRAMMkiemen/g                MEGAKIEMEN / GRAM                                       00000000000
090200008000638  MKSTMEGAKIEMEN/STUKMkiem./st                MEGAKIEMEN / STUK                                       00000000000
090200008000639  MGDOMILLIGRAM/DOSISmg/dosis                 MILLIGRAM / DOSIS                                       00000000000
090200008000641  MGDRMILLIGRAM/DRUPPmg/gt                    MILLIGRAM / DRUPPEL                                     00000000000
090200008000642  MIG MILLIMOL/GRAM  mmol/g                   MILLIMOL / GRAM                                         00000000000
090200008000643  MISTMILLIMOL/STUK  mmol/st                  MILLIMOL / STUK                                         00000000000
090200008000644  MOG MOL/GRAM       mol/g                    MOL / GRAM                                              00000000000
090200008000645  MOMLMOL/ML         mol/ml                   MOL / MILLILITER                                        00000000000
090200008000648  NIG NIH-E/GRAM     NIH-E/g                  NATIONAL INSTITUTE OF HEALTH EENHEDEN / GRAM            00000000000
090200008000649  NISTNIH-E/STUK     NIH-E/st                 NATIONAL INSTITUTE OF HEALTH EENHEDEN / STUK            00000000000
090200008000651  NEG NOON-E/GRAM    Noon-E/g                 NOON EENHEDEN / GRAM                                    00000000000
090200008000652  NESTNOON-E/STUK    Noon-E/st                NOON EENHEDEN / STUK                                    00000000000
090200008000653  PEG PLOUGH-E/GRAM  Plou.E/g                 PLOUGH EENHEDEN / GRAM                                  00000000000
090200008000654  PESTPLOUGH-E/STUK  Plou.E/st                PLOUGH EENHEDEN / STUK                                  00000000000
090200008000655  PUG POCK FORM.-U/G pfu/g                    POCK,PLAQUE FORMING UNITS / GRAM                        00000000000
090200008000656  PUSTPOCK FORM.-U/STpfu/st                   POCK,PLAQUE FORMING UNITS / STUK                        00000000000
090200008000659  CCG CCID50/GRAM    CCID50/g                 CELL CULTURE INFECTIVE DOSE 50% / GRAM                  00000000000
090200008000661  CCSTCCID50/STUK    CCID50/st                CELL CULTURE INFECTIVE DOSE 50% / STUK                  00000000000
090200008000662  TEG TUBERCULIN-E/G tub-E/g                  TUBERCULINE EENHEDEN / GRAM                             00000000000
090200008000663  TESTTUBERCULIN-E/STtub-E/st                 TUBERCULINE EENHEDEN / STUK                             00000000000
090200008000664  UUG USP-E/GRAM     USP-E/g                  USP EENHEDEN / GRAM                                     00000000000
090200008000665  UUSTUSP-E/STUK     USP-E/st                 USP EENHEDEN / STUK                                     00000000000
090200008000666  KEG KALL.INACT-E/G KI-E/g                   KALLIKREIN INACTIVATOR EENHEDEN / GRAM                  00000000000
090200008000667  KESTKALL.INACT-E/STKI-E/st                  KALLIKREIN INACTIVATOR EENHEDEN / STUK                  00000000000
090200008000668  LFG LIMES FL.EQ/G  Lf/g                     LIMES FLOCCULATIE EQUIVALENT / GRAM                     00000000000
090200008000669  LFSTLIMES FL.EQ/ST Lf/st                    LIMES FLOCCULATIE EQUIVALENT / STUK                     00000000000
090200008000670  MLDOMILLILITER/DO  ml/dosis                 MILLILITER / DOSIS                                      00000000000
090200008000671  MLG MILLILITER/GRAMml/g                     MILLILITER /GRAM                                        00000000000
090200008000672  MLMLMILLILITER/ML  ml/ml                    MILLILITER / MILLILITER                                 00000000000
090200008000673  MLSTMILLILITER/STUKml/st                    MILLILITER / STUK                                       00000000000
090200008000674  CBMLCHYM.BOURN-E/MLCHB-E/ml                 CHYMOTRYPSINE BOURNONVILLE EENHEDEN / MILLILITER        00000000000
090200008000676  NKG NANOKATAL/GRAM nKat/g                   NANOKATAL / GRAM                                        00000000000
090200008000677  NKMLNANOKATAL/ML   nKat/ml                  NANOKATAL / MILLILITER                                  00000000000
090200008000678  NKSTNANOKATAL/STUK nKat/st                  NANOKATAL / STUK                                        00000000000
090200008000679  DEMLD-ANTIGEEN-E/MLDE/ml                    D-ANTIGEEN EENHEID / MILLILITER                         00000000000
090200008000680  OEMLINT.OPACIT-E/MLIOE/ml                   INTERNATIONALE OPACITY EENHEID / MILLILITER             00000000000
090200008000683  CBSTCHYM.BOURN-E/STCHB-E/st                 CHYMOTRYPSINE BOURNONVILLE EENHEDEN / STUK              00000000000
090200008000684  XXVPXX/VERPAKKING  XX/verp.                 ONBEPAALDE EENHEID / VERPAKKING                         00000000000
090200008000685  MGVPMILLIGRAM/VERP mg/verp.                 MILLIGRAM / VERPAKKING                                  00000000000
090200008000686  VMSTVIERKANTE MM/STmm2/st                   VIERKANTE MILLIMETER / STUK                             00000000000
090200008000687  IDSTIVY DOG-E/ST   Iv.d-E/st                IVY DOG EENHEID / STUK                                  00000000000
090200008000688  MESTMEGA-EENH/STUK ME/st                    MEGA-EENHEDEN / STUK                                    00000000000
090200008000689  AXMLAXA-E/ML       AXaE/ml                  ANTIFACTOR-XA-ACTIVITEIT EENHEID / ML                   00000000000
090200008000690  XXDOXX/DOSIS       XX/dosis                 ONBEPAALDE EENHEID / DOSIS                              00000000000
090200008000691  MLVPML/VERPAKKING  ML/verp.                 MILLILITER / VERPAKKING                                 00000000000
090200008000692  G VPGRAM/VERPAKKINGg/verp.                  GRAM / VERPAKKING                                       00000000000
090200008000693  UGVPMICROGRAM/VERP ug/verp.                 MICROGRAM / VERPAKKING                                  00000000000
090200008000694  UMMLMICROMOL/ML    umol/ml                  MICROMOL / MILLILITER                                   00000000000
090200008000695  GQG GIGABECQ./G    GBq/g                    GIGABECQUEREL / GRAM                                    00000000000
090200008000696  GQMLGIGABECQ./ML   GBq/ml                   GIGABECQUEREL / MILLILITER                              00000000000
090200008000697  GQSTGIGABECQ./ST   GBq/st                   GIGABECQUEREL / STUK                                    00000000000
090200008000698  KQSTKILOBECQUER./STKBq/st                   KILOBECQUEREL / STUK                                    00000000000
090200008000699  CEMLCELLEN/ML      cellen/ml                CELLEN / MILLILITER                                     00000000000
090200008000700  IRSTIR/STUK        IR/st                    REACTIVITEITSINDEX / STUK                               00000000000
090200008000701  MGMGMG/MG          mg/mg                    MILLIGRAM / MILLIGRAM                                   00000000000
090200008000702  E E E/E            E/E                      EENHEID / EENHEID                                       00000000000
090200008000703  UGUGUG/UG          ug/ug                    MICROGRAM / MICROGRAM                                   00000000000
090200008000704  MGUGMG/UG          mg/ug                    MILLIGRAM / MICROGRAM                                   00000000000
090200008000705  MQMQMEGABECQUE./MBqMBq/MBq                  MEGABECQUEREL / MEGABECQUEREL                           00000000000
090200008000706  XXMGXX/MILLIGRAM   XX/mg                    XX / MILLIGRAM                                          00000000000
090200008000707  GKMLGEN.KOPIEEN/ML Gen.k/ml                 GENOOMKOPIEEN / MILLILITER                              00000000000
090200008000708  CCDOCCID50/DO      CCID50/do                CELL CULTURE INFECTIVE DOSE 50% / DOSIS                 00000000000
090200008000709  KQMLKILOBECQ/ML    KBq/ml                   KILOBECQUEREL / MILLILITER                              00000000000
090200008000710  CEC2CELLEN/CM2     cellen/cm2               CELLEN / VIERKANTE CENTIMETER                           00000000000
090200008000711  MGC2MG/CM2         mg/cm2                   MILLIGRAM / VIERKANTE CENTIMETER                        00000000000
090200008000712  IEIEIE/IE          IE/IE                    INTERNATIONALE EENHEDEN / INTERNATIONALE EENHEID        00000000000
090200008000713  UUIEUSP-UNITS/IE   USP-U/IE                 USP-UNITS / INTERNATIONALE EENHEID                      00000000000
090200008000714  XXIEXX/IE          XX/IE                    XX/INTERNATIONALE EENHEDEN                              00000000000
090200008000715  MEMEMILJOEN IE/ME  MIE/ME                   MILJOEN IE / MEGA-EENHEID                               00000000000
090200008000716  XXUGXX/UG          XX/UG                    XX / MICROGRAM                                          00000000000
090200008000717  XXMEXX/MEGA-EENH   XX/ME                    XX / MEGA-EENHEID                                       00000000000
090200008000718  IEMGIE/MG          IE/mg                    INTERNATIONALE EENHEDEN / MILLIGRAM                     00000000000
090200008000719  MUMLMPFU/ML        Mpfu/ml                  MILJOEN PLAQUE FORMING UNITS/ML                         00000000000
090200008000720  AUMLAU/ML          Antigeen-eenheden/ml     ANTIGEEN-EENHEDEN/MILLILITER                            00000000000
090200008000721  XXC2XX/CM2         XX/C2                    XX / VIERKANTE CENTIMETER                               00000000000
090200008000722  XXE XX/EENHEID     XX/E                     XX / EENHEID                                            00000000000
090200008000723  MUMUMU/MU          milj. pfu/milj. pfu      MILJ. PFU / MILJ. PFU                                   00000000000
090200008000724  XXMUXX/MILJ. PFU   XX/MU                    XX / MILJOEN PLAQUE FORMING UNITS                       00000000000
090200008000725  MLC2ML/CM2         ml/cm2                   MILLILITER / VIERKANTE CENTIMETER                       00000000000
090200008000726  CESTCELLEN/ST      cellen/st                CELLEN / STUK                                           00000000000
090200008000727  TVMLVEC.GENOMEN/ML Vec.g/ml                 VECTORGENOMEN / MILLILITER                              00000000000
090200008000728  MEMLMILJOEN IE/ML  MIE/ML                   MILJOEN IE / MILLILITER                                 00000000000
090200008000729  GQGQGIGABECQ./GBq  GBq/GBq                  GIGABECQUEREL/GIGABECQUEREL                             00000000000
090200008000730  IEC2IE/CM2         IE/cm2                   INTERNATIONALE EENHEDEN / VIERKANTE CENTIMETER          00000000000
090200009000000      NIET INGEVULD  NIET INGEVULD            NIET INGEVULD                                           00000000000
090200009000001      ONBEKEND       ONBEKEND                 ONBEKEND                                                00000000000
090200009000011      DOOS           DOOS                     DOOS                                                    00000000000
090200009000049      HOOFDVERPAKKINGHOOFDVERPAKKING          HOOFDVERPAKKING                                         00000000000
090200009000099      OVERIGE        OVERIGE                  OVERIGE OMSCHRIJVING                                    00000000000
090200009000101      OMDOOS         OMDOOS                   OMDOOS                                                  00000000000
090200009000104      TRAY           TRAY                     TRAY                                                    00000000000
090200009000106      PALLET         PALLET                   PALLET                                                  00000000000
090200009000108      STAFFEL        STAFFEL                  STAFFEL                                                 00000000000
090200009000111      VERZAMELVERPAK.VERZAMELVERPAKKING       VERZAMELVERPAKKING                                      00000000000
090200010000000      NVT            NVT                      NIET VAN TOEPASSING                                     00000000000
090200010000001      PARACET Z      PARACETAMOL-ZETPILLEN    PARACETAMOL-ZETPILLEN                                   00000000000
090200010000002      AMINOFYLL ZETP AMINOFYLLINE-ZETP        AMINOFYLLINE-ZETPILLEN                                  00000000000
090200010000003      ZETPILLEN      ZETPILLEN                ZETPILLEN                                               00000000000
090200010000004      FERROFUM SUSP  FERROFUMARAAT-SUSP       FERROFUMARAAT-SUSPENSIE                                 00000000000
090200010000005      ANTAGEL        ANTAGEL                  ANTAGEL                                                 00000000000
090200010000006      TETRACYC CAPS  TETRACYCLINE-CAPS        TETRACYCLINE-CAPSULES                                   00000000000
090200010000007      HYDROCORT CR/ZAHYDROCORTISON-CREME/ZALF HYDROCORTISON-CREME/ZALF                                00000000000
090200010000008      PROMETHAZ STR  PROMETHAZINE-STROOP      PROMETHAZINE-STROOP                                     00000000000
090200010000009      DEXAMFSULF-CAPSDEXAMFETAMINESULFAAT-CAPSDEXAMFETAMINESULFAAT-CAPSULES                           00000000000
090200010000010      CARBAS CA PDRS CARBASALAATCALCIUM-PDRS  CARBASALAATCALCIUM-POEDERS                              00000000000
090200010000011      PROPRANOHCL-DRKPROPRANOLOLHYDROCLO-DRANKPROPRANOLOLHYDROCLORIDE-DRANK                           00000000000
090200010000012      PARAFFINE EMULSPARAFFINE-EMULSIE        PARAFFINE-EMULSIE                                       00000000000
090200010000013      MERCAPTOPU-SUSPMERCAPTOPURINE-SUSPENSIE MERCAPTOPURINE-SUSPENSIE                                00000000000
090200010000014      PAR COD CAP ZP PARACET-COD CAPS/ZETP    PARACETAMOL-CODEINE CAPSULES/ZETPILLEN                  00000000000
090200010000015      ERGOTAM COMP ZPSAMENGEST ERGOTAMINE-ZETPSAMENGESTELDE ERGOTAMINE-ZETPILLEN                      00000000000
090200010000016      LINDAAN SM     LINDAAN-SMEERSEL         LINDAAN-SMEERSEL                                        00000000000
090200010000017      PODOFYLLINE-COLPODOFYLLINE-COLLODIUM    PODOFYLLINE-COLLODIUM                                   00000000000
090200010000018      HYDROCORT-CAPSUHYDROCORTISON-CAPSULES   HYDROCORTISON-CAPSULES                                  00000000000
090200010000019      HOESTDRANK     HOESTDRANK               HOESTDRANK                                              00000000000
090200010000020      GRISEOFULV-SUSPGRISEOFULVINE-SUSPENSIE  GRISEOFULVINE-SUSPENSIE                                 00000000000
090200010000021      SAM CAPS CR    SAMENGEST CAPSICUM CREME SAMENGESTELDE CAPSICUM-CREME                            00000000000
090200010000022      TRIAMC CR/Z    TRIAMCINOLON-CREME/ZALF  TRIAMCINOLONACETONIDE-CREME/ZALF (OUD)                  00000000000
090200010000023      LORAZEPAM-DRANKLORAZEPAM-DRANK          LORAZEPAM-DRANK                                         00000000000
090200010000024      NATRIUMCITR-DRANATRIUMCITRAAT-DRANK     NATRIUMCITRAAT-DRANK                                    00000000000
090200010000025      PILOCARPINE OOGPILOCARPINE-OOGDR        PILOCARPINE-OOGDRUPPELS                                 00000000000
090200010000026      KALIUMCITR-DRNKKALIUMCITRAAT-DRANK      KALIUMCITRAAT-DRANK                                     00000000000
090200010000027      PARAF EMULS+FFTPARAFFINE-EMULS M FENOLFTPARAFFINE-EMULSIE MET FENOLFTALEINE                     00000000000
090200010000029      CARB/COD-POED  CARBASALAATCALC/COD-POED CARBASALAATCALCIUM/CODEINE-POEDERS                      00000000000
090200010000034      AAMBEIEN ZETPILAAMBEIEN-ZETPILLEN       AAMBEIEN-ZETPILLEN                                      00000000000
090200010000035      NOSC STR ZN SK NOSCAPINE-STR ZN.SUIKER  NOSCAPINE-STROOP ZONDER SUIKER                          00000000000
090200010000036      BORAX-GLYC GORGBORAX-GLYCERINEGORGELVLSTSAMENGESTELDE BORAX-GORGELVLOEISTOF                     00000000000
090200010000040      LIDOCAINE ZALF LIDOCAINE-ZALF           LIDOCAINE-ZALF                                          00000000000
090200010000044      TRETINOIN CR/OPTRETINOINE-CREME/OPL.    TRETINOINE-CREME/OPLOSSING                              00000000000
090200010000048      CHLOORAMF OOGDRCHLOORAMFENICOL-OOGDR    CHLOORAMFENICOL-OOGDRUPPELS                             00000000000
090200010000050      PROM CAPS      PROMETHAZINE-CAPS        PROMETHAZINE-CAPSULES                                   00000000000
090200010000051      XYLOMET NEUSDR XYLOMETAZOLINE-NEUSDR    XYLOMETAZOLINE-NEUSDRUPPELS                             00000000000
090200010000052      LIDOCAINE OORDRLIDOCAINE-OORDR          LIDOCAINE-OORDRUPPELS                                   00000000000
090200010000055      ZINKSULF OOGDR ZINKSULFAAT-OOGDR        ZINKSULFAAT-OOGDRUPPELS                                 00000000000
090200010000059      MENTH-ST/SAM STMENTH-ST/SAM STOOMDR     MENTHOL-STOOMDRUPPELS/SAMENGESTELDE STOOMDRUPPELS       00000000000
090200010000060      BENZOYLP GEL   BENZOYLPEROXIDE-GEL      BENZOYLPEROXIDE-GEL                                     00000000000
090200010000061      BISACODYL ZETP BISACODYL-ZETP           BISACODYL-ZETPILLEN                                     00000000000
090200010000069      ERGOCOF CPS/ZTPERGOCOF-CAPSULES/ZETP    ERGOCOFFEINE-CAPSULES/ZETPILLEN                         00000000000
090200010000070      ERGCOFC CAP/ZETERGOCOFCYCL-CAPS/ZETP    ERGOCOFCYCLIZINE-CAPSULES/ZETPILLEN                     00000000000
090200010000071      VIT D 3000 E/MLVITAMINE D-DR 3000 IE/ML VITAMINE D-DRUPPELS 3000 IE/ML                          00000000000
090200010000072      COLE 50000 E/MLCOLECALC-DR 50.000 IE/ML COLECALCIFEROL-DRANK 50.000 IE/ML                       00000000000
090200010000073      VIT A-D DR     VITAMINE A-D-DRUPPELS    VITAMINE A-D-DRUPPELS 9000/3000 IE/ML                   00000000000
090200010000074      DIACHYLON ZALF DIACHYLON-ZALF           DIACHYLON-ZALF                                          00000000000
090200010000075      ANESTHES ZETPILANESTHESERENDE ZETPILLEN ANESTHESERENDE ZETPILLEN; IDEM MET HYDROCORTISON        00000000000
090200010000076      NACL NEUSDR    NATRIUMCHLORIDE-NEUSDR   NATRIUMCHLORIDE-NEUSDRUPPELS                            00000000000
090200010000077      WATERST OOR/OPLWATERSTOFPER-OORDR/OPL   WATERSTOFPEROXIDE-OORDRUPPELS/OPLOSSING                 00000000000
090200010000078      NAFAZOLINE OOGDNAFAZOLINE-OOGDRUPPELS   NAFAZOLINE-OOGDRUPPELS                                  00000000000
090200010000079      ATR HOM SCO DR ATROP-HOM-SCOP-OOGDR     ATROPINE-, HOMATROPINE-, SCOPOLAMINE-OOGDRUPPELS        00000000000
090200010000080      CHLOORH MONDSP CHLOORHEXIDINE-MONDSPOEL.CHLOORHEXIDINE-MONDSPOELING                             00000000000
090200010000081      FERROGLUC DRANKFERROGLUCONAAT-DRANK     FERROGLUCONAAT-DRANK                                    00000000000
090200010000082      CLINDAMYCINEOPLCLINDAMYCINE-OPLOSSING   CLINDAMYCINE-OPLOSSING                                  00000000000
090200010000083      CLIOQUIN OORDR CLIOQUINOL-OORDRUPPELS   CLIOQUINOL-OORDRUPPELS                                  00000000000
090200010000084      CLIO TRIAM OORDCLIOQUINOL/TRIAMC-OORDR  CLIOQUINOL/TRIAMCINOLON-OORDRUPPELS                     00000000000
090200010000085      S TRIAM-OOR/OPLSAMGST TRIAMCIN-OORDR/OPLSAMENGESTELDE TRIAMCINOLON-OORDRUPPELS/OPLOSSING        00000000000
090200010000086      ZURE/ALUM OORDRZURE/ALUM-OORDR          ZURE/ALUMINIUMACETOTARTRAAT-OORDRUPPELS                 00000000000
090200010000087      LACTOSALCOLL   LACTOSALICYLCOLLODIUM    LACTOSALICYLCOLLODIUM (= WRATTENCOLLODIUM)              00000000000
090200010000088      ZINKSULF OOGWASZINKSULFAAT-OOGWASSING   ZINKSULFAAT-OOGWASSING                                  00000000000
090200010000089      ACET/COD-ZETP  ACETOSAL/CODEINE-ZETP    ACETOSAL/CODEINE-ZETPILLEN                              00000000000
090200010000090      CHLOORAMF OOGZ CHLOORAMFENICOL-OOGZALF  CHLOORAMFENICOL-OOGZALF                                 00000000000
090200010000091      NEOMYCINE OOGDRNEOMYCINE-OOGDRUPPELS    NEOMYCINE-OOGDRUPPELS                                   00000000000
090200010000092      NEOMYCINE OOGZ NEOMYCINE-OOGZALF        NEOMYCINE-OOGZALF                                       00000000000
090200010000093      NEOM POL B OOGDNEOMYCINE/POLYMYXINE-B-OONEOMYCINE/POLYMYXINE-B-OOGDRUPPELS                      00000000000
090200010000094      BACIT NEO OOGDRBACITRACINE/NEOMYCINE-OOGBACITRACINE/NEOMYCINE-OOGDRUPPELS                       00000000000
090200010000095      IDOXURID OOGDR IDOXURIDINE-OOGDRUPPELS  IDOXURIDINE-OOGDRUPPELS                                 00000000000
090200010000096      IDOXURID OOGZ  IDOXURIDINE-OOGZALF      IDOXURIDINE-OOGZALF                                     00000000000
090200010000097      POLYM-B OOGDR  POLYMYXINE-B-OOGDRUPPELS POLYMYXINE-B-OOGDRUPPELS                                00000000000
090200010000098      TETRACYC OOGDR TETRACYCLINE-OOGDRUPPELS TETRACYCLINE-OOGDRUPPELS                                00000000000
090200010000099      TETRACYC OOGZ  TETRACYCLINE-OOGZALF     TETRACYCLINE-OOGZALF                                    00000000000
090200010000100      CHLOORH OOGDR  CHLOORHEXIDINE-OOGDRUPPELCHLOORHEXIDINE-OOGDRUPPELS                              00000000000
090200010000101      CHLOORH OOGW   CHLOORHEXIDINE-OOGWASSINGCHLOORHEXIDINE-OOGWASSING                               00000000000
090200010000102      SULFACET OOGDR SULFACETAMIDE-OOGDRUPPELSSULFACETAMIDE-OOGDRUPPELS                               00000000000
090200010000103      SULFACET OOGZ  SULFACETAMIDE-OOGZALF    SULFACETAMIDE-OOGZALF                                   00000000000
090200010000104      NITROFURAL OOGDNITROFURAL-OOGDRUPPELS   NITROFURAL-OOGDRUPPELS                                  00000000000
090200010000105      NATRIUMPR OOGDRNATRIUMPROPIONAAT-OOGDRUPNATRIUMPROPIONAAT-OOGDRUPPELS                           00000000000
090200010000106      ZILVERNITR OOGDZILVERNITRAAT-OOGDRUPPELSZILVERNITRAAT-OOGDRUPPELS                               00000000000
090200010000107      HOMATROPINE OOGHOMATROPINE-OOGDRUPPELS  HOMATROPINE-OOGDRUPPELS                                 00000000000
090200010000108      SCOPOLAM OOGDR SCOPOLAMINE-OOGDRUPPELS  SCOPOLAMINE-OOGDRUPPELS                                 00000000000
090200010000109      FENYLEFRINE OOGFENYLEFRINE-OOGDRUPPELS  FENYLEFRINE-OOGDRUPPELS 0.125%                          00000000000
090200010000110      FENYLEFR OOGDR FENYLEFRINE-OOG 2.5,5,10%FENYLEFRINE-OOGDRUPPELS 2.5%, 5% EN 10%                 00000000000
090200010000111      CARBACHOL OOGDRCARBACHOL-OOGDRUPPELS    CARBACHOL-OOGDRUPPELS                                   00000000000
090200010000112      FYSOSTIGM OOGDRFYSOSTIGMINE-OOGDRUPPELS FYSOSTIGMINE-OOGDRUPPELS                                00000000000
090200010000113      PILOC FYS OOGDRPILOCARPINE/FYSOST-OOGDR PILOCARPINE/FYSOSTIGMINE-OOGDRUPPELS                    00000000000
090200010000114      EPINEFRINE OOGDEPINEFRINE-OOGDRUPPELS   EPINEFRINE-OOGDRUPPELS                                  00000000000
090200010000115      EPINEF ADR OOGDEPINEFRINE/ADRENALON-OOGDEPINEFRINE/ADRENALON-OOGDRUPPELS                        00000000000
090200010000116      DEXAMET OOGDR  DEXAMETHASON-OOGDRUPPELS DEXAMETHASON-OOGDRUPPELS                                00000000000
090200010000117      PREDNISOL OOGDRPREDNISOLON-OOGDRUPPELS  PREDNISOLON-OOGDRUPPELS                                 00000000000
090200010000118      HYDROCORT OOGDRHYDROCORTISON-OOGDRUPPELSHYDROCORTISON-OOGDRUPPELS                               00000000000
090200010000119      DEX CHL POL OOGDEXAMETH/CHLOOR/POLYM-OOGDEXAMETHASON/CHLOORAMFENICOL/POLYMYXINE-B-OOGDR.        00000000000
090200010000120      DEXAM NEOM OOGDDEXAMETHASON/NEOMYC-OOGDRDEXAMETHASON/NEOMYCINE-OOGDRUPPELS                      00000000000
090200010000121      DEX NEO POL OOGDEXAM/NEOM/POLYM-B-OOGDR DEXAMETHASON/NEOMYCINE/POLYMYXINE-B-OOGDRUPPELS         00000000000
090200010000122      HYDR NEOM OOGDRHYDROCORTISON/NEOM-OOGDR HYDROCORTISON/NEOMYCINE-OOGDRUPPELS                     00000000000
090200010000123      PRED CHL OOGDR PREDNISOL/CHLOORAM-OOGDR PREDNISOLON/CHLOORAMFENICOL-OOGDRUPPELS                 00000000000
090200010000124      PREDN TET OOGDRPREDNISOL/TETRAC-OOGDR   PREDNISOLON/TETRACYCLINE-OOGDRUPPELS                    00000000000
090200010000125      PRED NEOM OOGDRPREDNISOL/NEOMYCINE-OOGDRPREDNISOLON/NEOMYCINE-OOGDRUPPELS                       00000000000
090200010000126      ATROPINE OOGDR ATROPINE-OOGDRUPPELS     ATROPINE-OOGDRUPPELS                                    00000000000
090200010000127      HYDROCORT OOGZ HYDROCORTISON-OOGZALF    HYDROCORTISON-OOGZALF                                   00000000000
090200010000128      LIDOC OOGDR    LIDOCAINE-OOGDRUPPELS    LIDOCAINE-OOGDRUPPELS                                   00000000000
090200010000129      OXYBUPR OOGDR  OXYBUPROCAINE-OOGDRUPPELSOXYBUPROCAINE-OOGDRUPPELS                               00000000000
090200010000130      INDOMET OOGDR  INDOMETACINE-OOGDRUPPELS INDOMETACINE-OOGDRUPPELS                                00000000000
090200010000131      EDETAAT OOGDR  EDETAAT-OOGDRUPPELS      EDETAAT-OOGDRUPPELS                                     00000000000
090200010000132      NEOSTIGM OOGDR NEOSTIGMINE-OOGDRUPPELS  NEOSTIGMINE-OOGDRUPPELS                                 00000000000
090200010000133      EPIN ZINKS OOG EPINEFRINE/ZINKSULF-OOGDREPINEFRINE/ZINKSULFAAT-OOGDRUPPELS                      00000000000
090200010000134      NATRIUMCHL OOGDNATRIUMCHLORIDE-OOGDR    NATRIUMCHLORIDE-OOGDRUPPELS                             00000000000
090200010000135      NATRIUMCHL OOGZNATRIUMCHLORIDE-OOGZALF  NATRIUMCHLORIDE-OOGZALF                                 00000000000
090200010000136      HYPROM OOGD 0.3HYPROMELLOSE-OOGDR 0.3%  HYPROMELLOSE-OOGDRUPPELS 0.3%                           00000000000
090200010000137      HYPROM OOGD 1% HYPROMELLOSE-OOGDR 1%    HYPROMELLOSE-OOGDRUPPELS 1%                             00000000000
090200010000138      NATRIUMCHL OOGWNATRIUMCHLORIDE-OOGW     NATRIUMCHLORIDE-OOGWASSING                              00000000000
090200010000139      RESORCINOL GEL RESORCINOL-GEL           RESORCINOL-GEL                                          00000000000
090200010000140      SALICYLZUUR-OPLSALICYLZUUR-OPLOSSING    SALICYLZUUR-OPLOSSING                                   00000000000
090200010000141      SALICYLZ GEL   SALICYLZUUR-GEL          SALICYLZUUR-GEL                                         00000000000
090200010000142      LINDAAN-LOTION LINDAAN-LOTION           LINDAAN-LOTION                                          00000000000
090200010000143      LIDOCHYDR-GEL  LIDOCAINEHYDROCHL-GE     LIDOCAINEHYDROCHLORIDE-GEL                              00000000000
090200010000144      SALICYLZUUR Z  SALICYLZUUR-ZALF (OUD)   SALICYLZUUR-ZALF (OUD)                                  00000000000
090200010000145      UREUM ZALF     UREUM-ZALF               UREUM-ZALF                                              00000000000
090200010000146      KAM/FEN-GEL    KAMFER/FENOL-GEL         KAMFER/FENOL-GEL                                        00000000000
090200010000147      KAMFER OLIE    KAMFER-OLIE              KAMFER-OLIE                                             00000000000
090200010000148      KAMFER SPIRITUSKAMFER-SPIRITUS          KAMFER-SPIRITUS                                         00000000000
090200010000149      KAMFER ZALF    KAMFER-ZALF              KAMFER-ZALF                                             00000000000
090200010000150      MENTHOL STROOIPMENTHOL-STROOIPOEDER     MENTHOL-STROOIPOEDER                                    00000000000
090200010000151      GENTIAANVIOL OPGENTIAANVIOLET-OPLOSSING GENTIAANVIOLET-OPLOSSING                                00000000000
090200010000152      UNDECYLEEN CR  UNDECYLEEN-CREME         UNDECYLEEN-CREME                                        00000000000
090200010000153      UNDECYLEEN SPIRUNDECYLEEN-SPIRITUS      UNDECYLEEN-SPIRITUS                                     00000000000
090200010000154      UNDEC STROOIPO UNDECYLEEN-STROOIPOEDER  UNDECYLEEN-STROOIPOEDER                                 00000000000
090200010000155      BENZ SALICYL CRBENZOEZUUR/SALICYLZUUR-CRBENZOEZUUR/SALICYLZUUR-CREME                            00000000000
090200010000156      BENZ.SAL.OPL   BENZOEZUUR/SALICZUUR-OPL.BENZOEZUUR/SALICYLZUUR-OPLOSSING                        00000000000
090200010000157      SAM METHYLSAL ZSAMENG METHYLSAL-ZALF    SAMENGESTELDE METHYLSALICYLAAT-ZALF                     00000000000
090200010000158      SALICYLZUURCOLLSALICYLZUUR-COLLODIUM    SALICYLZUUR-COLLODIUM                                   00000000000
090200010000159      BENZ SALICYL ZABENZOEZUUR/SALICYLZUUR-ZABENZOEZUUR/SALICYLZUUR-ZALF                             00000000000
090200010000160      BENZYLB SMEERS BENZYLBENZOAAT-SMEERSEL  BENZYLBENZOAAT-SMEERSEL                                 00000000000
090200010000161      ALUMCHL OPL 20%ALUMCHL OPLOSSING 20%    ALUMINIUMCHLORIDE-OPLOSSING 20%                         00000000000
